:1000000024C2000053C2000051C200004FC20000D1
:100010004DC200004BC2000049C2000047C20000B0
:1000200045C2000043C2000041C200003FC20000C0
:100030003DC200003BC2000039C2000037C20000D0
:1000400035C2000033C2000031C200002FC20000E0
:100050002DC200002BC2000029C200000C94940E97
:1000600025C200000C94940D0C946B0D1FC200006F
:100070001DC200001BC2000019C2000017C2000010
:1000800015C2000013C2000011C200000FC2000020
:100090000C94420D0C94190D09C2000007C2000017
:1000A00005C2000003C2000001C20000FFC1000041
:1000B000FDC10000FBC10000F9C10000F7C1000054
:1000C000F5C10000F3C10000F1C10000EFC1000064
:1000D000EDC10000EBC10000E9C10000E7C1000074
:1000E000E5C10000AC22B122B622C222CE225B239F
:1000F000DA22E222EA22F62202230E231F232B23F6
:100100005B23372343234F238409870976097A0920
:100110008009BE098B098F09950999099D09A309D1
:10012000A709AB09BE09B109B509B90900000A0B55
:1001300002090C0D0E080703040100000000000076
:1001400000000000000000000000000000000000AF
:10015000000000000000000012111000000000006C
:10016000000000000000000000000000000000008F
:10017000000000002200250028002B002E00310086
:10018000340002010000050108010B0100002100FC
:10019000240027002A002D00300033000101000058
:1001A000040107010A0100002000230026002900A5
:1001B0002C002F003200000100000301060109019C
:1001C00005050505070508080808020202020A0AD3
:1001D00008080404040401010101010101010303F1
:1001E000030303030303040707070C0C0C0C0C0C9C
:1001F0000C0C0202020206060606060606060B0B99
:100200000B0B0B0B0B0B01021020200808102040D9
:1002100010204080020102010804020101020408CA
:100220001020408080402010080402018004020158
:1002300080402010080402010804020101020408A1
:10024000102040800102040810204080005EBCE2C3
:10025000613FDD83C29C7E20A3FD1F419DC3217FA2
:10026000FCA2401E5F01E3BD3E6082DC237D9FC196
:10027000421CFEA0E1BF5D0380DE3C62BEE0025C8A
:10028000DF81633D7C22C09E1D43A1FF4618FAA476
:1002900027799BC584DA3866E5BB5907DB85673962
:1002A000BAE406581947A5FB7826C49A653BD98756
:1002B000045AB8E6A7F91B45C6987A24F8A6441A4A
:1002C00099C7257B3A6486D85B05E7B98CD2306E36
:1002D000EDB3510F4E10F2AC2F7193CD114FADF322
:1002E000702ECC92D38D6F31B2EC0E50AFF1134D16
:1002F000CE90722C6D33D18F0C52B0EE326C8ED00A
:10030000530DEFB1F0AE4C1291CF2D73CA947628F5
:10031000ABF517490856B4EA6937D58B5709EBB5E1
:1003200036688AD495CB2977F4AA4816E9B7550BD5
:1003300088D6346A2B7597C94A14F6A8742AC896C9
:10034000154BA9F7B6E80A54D7896B3500407A10E7
:10035000F35A00A0724E18090010A5D4E80000E876
:100360007648170000E40B54020000CA9A3B0000D4
:1003700000E1F505000080969800000040420F0063
:100380000000A08601000000102700000000E80324
:10039000000000006400000000000A0000000000EF
:1003A0000100000000002C76D888DC674F0823DFAE
:1003B000C1DFAE59E1B1B796E5E3E453C63AE65181
:1003C000997696E8E6C28426EB898C9B62ED407CA8
:1003D0006FFCEFBC9C9F40F2BAA56FA5F490055A44
:1003E0002AF75C936B6CF9676DC11BFCE0E40D4769
:1003F000FEF520E6B500D0ED902E0300943577058C
:100400000080841E080000204E0A000000C80C3343
:100410003333330F986E12831141EF8D2114893BD2
:10042000E65516CFFEE6DB18D1844B381BF77C1D52
:10043000901DA4BBE424203284725E228100C9F1A5
:1004400024ECA1E53D273127D72611241FBECFEF8D
:10045000D1E2DEBFCDBF00E00CBF13E0A0E0B2E010
:10046000ECE6F1E600E00BBF02C007900D92A83069
:10047000B107D9F729E0A8E0B3E001C01D92AA3185
:10048000B207E1F712E0C4E2D2E000E006C0219733
:100490000109802FFE010E94D928C332D10780E0D4
:1004A0000807A9F70E94011A0C94A530A9CDFC01F8
:1004B00084899589089526EC32E0FC0131832083FC
:1004C000FB014089518962897389FC01428353830E
:1004D00064837583089580E3FB0180833296842FC3
:1004E00082958F7090E1899F401911244A3014F44D
:1004F000405D01C0495C4293482F8111F0CF0895BF
:10050000DC01ED91FC91008CF18DE02D1994FC0142
:100510001382128288EE93E0A0E0B0E0848395839A
:10052000A683B78382E792E09183808386EC92E092
:1005300097878687108A118A128A138A84E0808FAF
:1005400008959B0190E00496982F8827642F820FCE
:10055000931F0C944B0F90E00496982F8827860FDA
:10056000971F0C94080F44E050E0BC018FE090E02E
:100570000C94220F08958CBD9DBD0895EF92FF92BB
:100580001F93CF93DF93FC01208D243011F080E086
:1005900021C07B01EC0110E080E590E0ECDF63E03E
:1005A00070E0812FD8DF811102C0188F06C08B7FC9
:1005B0008831D9F31F5F143079F7888D843039F38F
:1005C000FD86EC861A8E198E20E0A70162E00E945B
:1005D000C61481E0DF91CF911F91FF90EF900895B5
:1005E0002F923F924F925F926F927F928F929F9243
:1005F000AF92BF92CF92DF92EF92FF920F931F9331
:10060000CF93DF93CDB7DEB7E3970FB6F894DEBF95
:100610000FBECDBF7C011A012B0139010E94880E4B
:100620004B015C0187010D5B1F4FC8010E94211423
:1006300018161906A4F00E94880EDC01CB01881957
:100640009909AA09BB09281639064A065B06D8F09B
:1006500062E370E080E090E00E94500EE6CF42E25C
:1006600050E0BE016F5F7F4FC8010E94B7138981C0
:10067000823011F080E061C1F8018489958983346A
:100680009105C1F702C08FEF58C16D817E818F81C6
:1006900098850E94E1284B015C01F301608371831E
:1006A0008283938346E050E0B701685F7F4FCE01BD
:1006B0004D960E94652B892BE9F6F7018081918187
:1006C000A281B38188169906AA06BB0698F2848196
:1006D0009581A681B78188159905AA05BB0550F2B9
:1006E00089899A89AB89BC8986879787A08BB18BCA
:1006F0008EECA82EB12CC8010E94D513F1E0AF1AE0
:10070000B108C9F719A6670182E2C80ED11CF7012A
:10071000B696FBA7EAA7C7018A969DA78CA73C9728
:100720004F0189969FA78EA73897F9ABE8AB1701C1
:10073000F6E12F0E311CC5979BAB8AABF801818D7A
:10074000928D181619060CF0F7C0C8010E94D51337
:100750008333910509F4CBC0FCF481309105C9F1D4
:100760001CF4892B59F3DCC083309105D1F1069735
:1007700009F0D6C0C8010E94D5135C0144E050E0E6
:100780006AA97BA9C8010E94B713412C512CBB2434
:10079000F4E0AF1AB10840C08A33910509F47BC078
:1007A0003CF48533910569F0C69709F440C0B8C0A0
:1007B0008B33910509F485C08F3F910509F4BECFB5
:1007C000AFC0C8010E94D513C8010E94D51389A7E4
:1007D000B5CFC8010E94D51344E050E068A979A9BB
:1007E0003AC0C8010E94D5135C0144E050E0B10159
:1007F000C8010E94B713412C512CBB2494E0A91AC4
:10080000B1084A145B040CF099CFC8010E94D513BB
:10081000EFEF4E1A5E0AF5CF4A145B040CF08ECF50
:10082000C8010E94D5138FEF481A580AF5CFC801A6
:100830000E94D513B82EF701828D811110C0838DCF
:1008400081110DC0848D81110AC0858D811107C071
:1008500044E050E0B401C8010E94B7136FCFEEA589
:10086000FFA54080518062807380B401CE018396E1
:100870000E94090D8DA19EA1AFA1B8A58415950573
:10088000A605B70529F3BB2009F458CFC8010E947B
:10089000D513BA94F8CFC8010E94D51344E050E0B4
:1008A0006AA57BA5C8010E94B713F70166A177A1CD
:1008B00080A591A50E94E12866A377A380A791A7B0
:1008C0003DCFC8010E94D51344E050E06CA57DA542
:1008D000C8010E94B713F70162A573A584A595A569
:1008E0000E94E12862A773A784A795A727CFC80114
:1008F0000E94D51344E050E0B601C8010E94B7132E
:10090000F70162A173A184A195A10E94E12862A3CD
:1009100073A384A395A366A777A780AB91AB0ECFF3
:10092000C8010E94D513B82EBB2009F407CFC80117
:100930000E94D513BA94F8CF89A5E3960FB6F89420
:10094000DEBF0FBECDBFDF91CF911F910F91FF9002
:10095000EF90DF90CF90BF90AF909F908F907F905F
:100960006F905F904F903F902F9008957F928F925D
:100970009F92AF92BF92CF92DF92EF92FF920F932E
:100980001F93CF93DF93CDB7DEB7A6970FB6F8943A
:10099000DEBF0FBECDBF8C01762E942E852E20E2B9
:1009A000B22ECE0101967C01FC012B2D11922A95CD
:1009B000E9F786EC92E09AA389A38FEF8BA38CA32F
:1009C0008DA38EA3680183E4C80ED11C43E450E0DC
:1009D000BE016F5D7F4FC6010E941910019609F498
:1009E000BCC081E089838A8386E0A82EAB821C820A
:1009F000F80164817581868197810E94E1286D8369
:100A00007E838F83988789869A8680E890E09C878A
:100A10008B874CE150E0B701C6010E94820FF701BD
:100A20002B2D11922A95E9F7480188E0880E911C38
:100A3000F401D70101900D92AA94E1F740E150E052
:100A4000B701C6010E94820FF7011192BA94E9F72B
:100A500096E0A92EB12C40E250E0B701C6010E94F9
:100A6000820FF1E0AF1AB108B1F783E6898392E80B
:100A70009A8393E59B838C8385E38D8381E08E83CA
:100A80007F829DE3988797E099878A8786E0F401C3
:100A9000DE011B9601900D928A95E1F78CE0898B1F
:100AA0008A8B6BED72E0CE0143960E94952BF80184
:100AB0004385BE01675E7F4FC8010DDDF8014485A7
:100AC000BE01655E7F4FC80106DDF8014585BE01A8
:100AD000635E7F4FC801FFDC4EE150E0B701C60105
:100AE0000E94820FF3E07F121EC082E3898384E0BC
:100AF0008A83F80196859B8397859C8390899D8343
:100B000091899E8396E39F838887828D8987838DD1
:100B10008A87848D8B87858D8C874CE050E0B70168
:100B2000C6010E94820F87E3898386E08A8391E071
:100B30009B8393E09C838D838FE08E838AE38F83F6
:100B40008BE388878FEF898749E050E0B701C601C2
:100B50000E94820FC6010E945C10A6960FB6F89400
:100B6000DEBF0FBECDBFDF91CF911F910F91FF90E0
:100B7000EF90DF90CF90BF90AF909F908F907F903D
:100B80000895FC0190810180F281E02DF89481812B
:100B9000892B81832281892F809528232283A7E0B6
:100BA000B0E01197F1F7218182238183A3E2B0E0C5
:100BB0001197F1F780817894EFECF0E03197F1F73D
:100BC000982381E009F480E00895FC019081018080
:100BD000F281E02D892F809560FF12C0F894228168
:100BE000822382838181892B8183A3E2B0E01197E4
:100BF000F1F78281982B9283789487ED90E011C071
:100C0000F8942281822382838181892B8183AFEFB3
:100C1000B0E01197F1F78281982B928378948FE05E
:100C200090E00197F1F70895CF92DF92EF92FF9253
:100C30000F931F93CF93DF931F92CDB7DEB76C0155
:100C4000E62E08E010E0FF24F39461E08F2D8E2162
:100C500009F460E0C6014983B8DFFF0C01501109B7
:100C600049810115110589F7411115C0F894D60184
:100C70001196ED91FC91129791818C918095892329
:100C800081831196ED91FC91129792818C918095C0
:100C90008923828378940F90DF91CF911F910F91D8
:100CA000FF90EF90DF90CF900895CF92DF92EF9278
:100CB000FF920F931F93CF93DF931F92CDB7DEB7B1
:100CC0008C01F62E40E065E57983AEDFCF2C79818B
:100CD000D72E760188E0E80EF11CF60161916F01D4
:100CE00040E0C801A1DFCE14DF04B9F70F90DF9117
:100CF000CF911F910F91FF90EF90DF90CF900895CB
:100D0000FC0190810180F281E02DF8948181292FEE
:100D100020958223818378948DE743E050E08150D1
:100D200021F1DA011197F1F730813923C1F3F894F9
:100D30008281822382838181892B81837894ABECA9
:100D4000B7E01197F1F7F894818128232183ABE371
:100D5000B1E01197F1F78081982381E009F080E0FC
:100D60007894EBE8F6E03197F1F70895EF92FF926F
:100D70000F931F93CF93DF9300D000D0CDB7DEB792
:100D80007C0167E978E0CE010196E3D563EA78E07B
:100D9000CE0101960BD569ED72E0F1D4B70106D50D
:100DA000BC01C70129D5CE01019674D586EC92E02D
:100DB0009A8389838091E1089091E208A091E308E9
:100DC000B091E4088B839C83AD83BE8343E059EDEF
:100DD000BE016F5F7F4F89EA98E00E941910D7012A
:100DE00014960D911C9115970115110519F4109287
:100DF000420511C00336110510F003E610E0F701BB
:100E000060817181A80182E495E00E94AA2BF8011B
:100E1000EE5BFA4F1082E091A908F091AA08D70181
:100E200014964D915C9115970280F381E02D62E458
:100E300075E089EA98E0199589EA98E00E945C10CB
:100E400061E088E0C2D6B701CE01019682D562EE9C
:100E500072E0CE01019693D4FC01448155816081FA
:100E6000718189EC95E0F6D0CE01019613D56AE048
:100E700070E080E090E014D760E088E0A6D6269687
:100E80000FB6F894DEBF0FBECDBFDF91CF911F919B
:100E90000F91FF90EF900895CF93DF93CDB7DEB71A
:100EA00062970FB6F894DEBF0FBECDBF4AE0BC011B
:100EB000CE01079623D561E978E0CE01019649D5A8
:100EC000BE01695F7F4FCE01019670D464EE72E07F
:100ED00056D4BC01CE010D963CD5CE010D9646DF11
:100EE000CE010D96D7D4CE010196D4D4CE0107966B
:100EF000D1D462960FB6F894DEBF0FBECDBFDF919E
:100F0000CF910895CF93DF93CDB7DEB762970FB639
:100F1000F894DEBF0FBECDBF4AE0BC01CE010796FC
:100F2000EDD461E978E0CE01019613D5BE01695F89
:100F30007F4FCE0101963AD467EE72E020D4BC0117
:100F4000CE010D9606D5CE010D9610DFCE010D9681
:100F5000A1D4CE0101969ED4CE0107969BD4629671
:100F60000FB6F894DEBF0FBECDBFDF91CF910895CD
:100F7000CF92DF92EF92FF920F931F93CF93DF9365
:100F8000CDB7DEB72F970FB6F894DEBF0FBECDBF3B
:100F90007C016B0163EE72E0E4D4860188E0C80E48
:100FA000D11CF80181918F011B861A861D861C8633
:100FB0001F861E8640E1BE016F5F7F4F90E00E945A
:100FC000962CBE016F5F7F4FCE010A9600D44E85EE
:100FD0005F856A857B85C701A5D3CE010A965AD461
:100FE0000C151D05F1F6C7012F960FB6F894DEBF5C
:100FF0000FBECDBFDF91CF911F910F91FF90EF906A
:10100000DF90CF9008950F931F93CF93DF93EC0160
:101010007FD6088119812A813B81DC01CB01801BAD
:10102000910BA20BB30B0C811D812E813F81801788
:101030009107A207B30738F06BD6688379838A8358
:101040009B8381E001C080E0DF91CF911F910F91E0
:1010500008950895CF92DF92EF92FF920F931F931E
:10106000CF93DF936C017A018B01C0E0D0E0CE1505
:10107000DF0589F0D8016D918D01D601ED91FC91CC
:101080000190F081E02DC6011995892B11F47E01A4
:1010900002C02196ECCFC701DF91CF911F910F9134
:1010A000FF90EF90DF90CF900895FC01A089B18967
:1010B0008C91A689B78982FD0FC09C91818D8F5F2D
:1010C0008F73228D821749F0218DDF01A20FB11D90
:1010D0005D969C93818F08958C910895FC01918D6C
:1010E000828D981761F0828DDF01A80FB11D5D968A
:1010F0008C91928D9F5F9F73928F90E008958FEFF8
:101100009FEF0895FC01918D828D981731F0828DAB
:10111000E80FF11D858D90E008958FEF9FEF089502
:10112000FC01918D228D892F90E0805C9F4F821B66
:1011300091098F739927089589EC95E0F1DF21E0FB
:10114000892B09F420E0822F089586E696E0E8DFF7
:1011500021E0892B09F420E0822F0895FC01848D81
:10116000DF01A80FB11DA35ABF4F2C91848D90E0D1
:1011700001968F739927848FA689B7892C93A089AC
:10118000B1898C9180648C93938D848D981306C063
:101190000288F389E02D80818F7D80830895EF920E
:1011A000FF920F931F93CF93DF93EC0181E0888F21
:1011B0009B8D8C8D981305C0E889F989808185FD08
:1011C00023C0F62E0B8D10E00F5F1F4F0F731127FA
:1011D000E02E8C8DE8120BC00FB607FCFACFE88921
:1011E000F989808185FFF5CFCE01B8DFF2CF8B8DF5
:1011F000FE01E80FF11DE35AFF4FF0820B8FEA89E1
:10120000FB898081806207C0EE89FF896083E8895D
:10121000F98980818064808381E090E0DF91CF91C3
:101220001F910F91FF90EF900895CF93DF93EC0102
:10123000888D8823C1F0EA89FB89808185FD05C0FE
:10124000A889B9898C9186FD0EC00FB607FCF5CF31
:10125000808185FFF2CFA889B9898C9185FFEDCF78
:10126000CE017CDFE8CFDF91CF91089580E090E060
:10127000892B19F06ADF811120C080E090E0892B72
:1012800019F05ADF81111CC080E090E0892B41F0F9
:1012900080E090E0892B21F00E940000811113C0B2
:1012A00080E090E0892BA1F080E090E0892B81F034
:1012B0000E94000081110AC008950E940000DDCF45
:1012C0000E940000E1CF0E940000EACF0C940000D1
:1012D000089590E0FC013197E231F10508F04EC02D
:1012E0008827EC57FF4F8F4F0C94D92880918000AE
:1012F0008F7703C0809180008F7D80938000089558
:1013000080918000877FF9CF84B58F7702C084B544
:101310008F7D84BD08958091B0008F7703C0809148
:10132000B0008F7D8093B0000895809190008F77FA
:1013300007C0809190008F7D03C080919000877FCF
:101340008093900008958091A0008F7707C08091CE
:10135000A0008F7D03C08091A000877F8093A000B4
:101360000895809120018F7707C0809120018F7DA3
:1013700003C080912001877F8093200108953FB7AB
:10138000F8948091AB059091AC05A091AD05B0911A
:10139000AE0526B5A89B05C02F3F19F00196A11DEB
:1013A000B11D3FBFBA2FA92F982F8827820F911DFB
:1013B000A11DB11DBC01CD0142E0660F771F881F42
:1013C000991F4A95D1F708952C9A08952C9808955D
:1013D0000E94612B4F925F926F927F92EF92FF92E9
:1013E0000F931F93CF93DF93CDB7DEB7A1970FB6BF
:1013F000F894DEBF0FBECDBF7C01FA01CB0119A26C
:10140000223008F42AE08E010F5D1F4F422E512C2E
:10141000612C712CBF01A30192010E947430F9016B
:10142000CA01015011096A3014F4605D01C0695CA1
:10143000D8016C93232B242B252B61F70115110563
:1014400091F0F80101900020E9F73197AF01401BBE
:10145000510BD701ED91FC910280F381E02DB80191
:10146000C701199502C080E090E0A1960FB6F894EC
:10147000DEBF0FBECDBFDF91CF911F910F91FF90C7
:10148000EF907F906F905F904F900895CF93DF9390
:10149000EC0188819981009711F00E94E529198259
:1014A00018821D821C821B821A82DF91CF910895BF
:1014B0000F931F93CF93DF93EC018881998100975D
:1014C00029F02A813B812617370788F48B016F5F4B
:1014D0007F4F0E947D2A009761F0998388831B8348
:1014E0000A832C813D81232B11F4FC01108281E0C1
:1014F00001C080E0DF91CF911F910F910895EF928D
:10150000FF920F931F93CF93DF93EC017B018A012E
:10151000BA01CEDF811103C0CE01B8DF07C01D8341
:101520000C83B701888199810E94952BCE01DF91B0
:10153000CF911F910F91FF90EF9008958F929F92FE
:10154000AF92BF92CF92DF92EF92FF920F931F93D1
:10155000CF93DF937C01EB016C0182E0C80ED11CBC
:101560004701E5E08E0E911C00E010E0F60141918C
:101570006F0150E060E070E02AE0CE012BDF5C01FB
:10158000E881F9810190F081E02D6EE2CE0119959C
:101590008A0D9B1D080F191FC814D90439F7F701CC
:1015A000458150E060E070E02AE0CE0113DF800F5B
:1015B000911FDF91CF911F910F91FF90EF90DF90DE
:1015C000CF90BF90AF909F908F900895AF92BF92B1
:1015D000CF92DF92EF92FF920F931F93CF93DF93FF
:1015E000DC01CD90DC901197C114D10409F442C004
:1015F0001496CD91DC9115972097E1F18C0156015D
:101600007501BFEFAB1ABB0AF7018081082E000CF1
:10161000990B0E94142F892B99F72197CC0DDD1D72
:101620008881082E000C990B0E94142F892B91F4AD
:10163000AE014F5F5F4F4E195F09D80115965C935D
:101640004E931497CE14DF0450F4B701C6010E94E4
:10165000722B05C0CE15DF0558F32197E1CFD801D5
:10166000ED91FC91119714968D919C911597E80F2F
:10167000F91F1082DF91CF911F910F91FF90EF9092
:10168000DF90CF90BF90AF900895FB0144815581CA
:10169000FC01248135812417350778F08081918100
:1016A000009759F0FB01608171816115710529F086
:1016B0000E949C2B21E0892B09F020E0822F0895C5
:1016C000FC0124813581FB014481558124173507B4
:1016D00021F5FC0180819181FB016081718100977E
:1016E00019F061157105A1F46115710549F0232BFD
:1016F000B1F0FB01808190E09195819591090AC03C
:10170000009769F0232B59F0FC01808190E002C022
:101710000E948C2B21E0892B19F020E001C021E0F0
:10172000822F0895EF92FF920F931F93CF93DF9331
:10173000FC01248135816115710511F480E018C028
:1017400041155105A1F07B01EC018A01020F131F25
:10175000B801AEDE882391F3288139818C819D8187
:10176000B701820F931F0E94952B1D830C8381E08C
:10177000DF91CF911F910F91FF90EF900895CF933C
:10178000DF93EC016115710559F0FB010190002018
:10179000E9F73197AF01461B570BC4DF811102C037
:1017A000CE0174DECE01DF91CF910895CF93DF9308
:1017B000EC01FB014481558160817181B3DF8111AE
:1017C00002C0CE0163DECE01DF91CF910895CF93A9
:1017D000DF93EC016115710551F0FB0101900020D0
:1017E000E9F73197AF01461B570B89DE01C04EDE8A
:1017F000CE01DF91CF910895CF93DF93EC01FB01F0
:101800008617970751F0608171816115710521F08C
:101810004481558174DE01C039DECE01DF91CF9164
:1018200008950F931F93CF93DF938C01EB01FC017D
:10183000808191810097B1F068817981611571058E
:1018400079F0428153812C813D814217530740F04A
:101850000E94952B8C819D81F8019583848313C010
:101860000E94E52988819981F801918380838A818A
:101870009B81938382838C819D819583848319824C
:1018800018821B821A821D821C82DF91CF911F91C8
:101890000F910895FC01808191810C94E529EF92CC
:1018A000FF920F931F93CF93DF93CDB7DEB7A1972E
:1018B0000FB6F894DEBF0FBECDBF7C01CB01BA01DD
:1018C000F70111821082138212821582148242E083
:1018D000420F8E010F5F1F4F0E94D32BBC01C70127
:1018E00076DFA1960FB6F894DEBF0FBECDBFDF91B5
:1018F000CF911F910F91FF90EF9008950F931F9339
:10190000CF93DF93CDB7DEB762970FB6F894DEBF03
:101910000FBECDBF8C01CB01F80111821082138262
:1019200012821582148250E0BE016F5F7F4F0E94C9
:101930006D2CBE016F5F7F4FC80149DF62960FB605
:10194000F894DEBF0FBECDBFDF91CF911F910F91F5
:101950000895FC0111821082138212821582148272
:101960004BCFFC01118210821382128215821482E5
:101970006115710549F0FB0101900020E9F73197ED
:10198000AF01461B570BBBCD0895BF92CF92DF929C
:10199000EF92FF920F931F93CF93DF937C016B0124
:1019A0008A01E9012417350720F4812F8901C42F0A
:1019B000D82F63EE72E0C701D4DFD60114968D9163
:1019C0009C91159708171907C8F48C179D0708F400
:1019D000EC01D601ED91FC911197EC0FFD1FB08049
:1019E00010824D915C91BA01600F711FC701EFDE4B
:1019F000D601ED91FC91EC0FFD1FB082C701DF9184
:101A0000CF911F910F91FF90EF90DF90CF90BF90FB
:101A1000089526EC32E0FC0131832083FB014081F4
:101A2000518162817381FC01428353836483758396
:101A300008951F920F920FB60F9211240BB60F92BA
:101A40002F933F934F935F936F937F938F939F93C6
:101A5000AF93BF93EF93FF9389EC95E07FDBFF910A
:101A6000EF91BF91AF919F918F917F916F915F9116
:101A70004F913F912F910F900BBE0F900FBE0F9083
:101A80001F9018951F920F920FB60F9211240BB64C
:101A90000F922F933F934F935F936F937F938F9307
:101AA0009F93AF93BF93EF93FF9389EC95E0FDDA9B
:101AB000FF91EF91BF91AF919F918F917F916F9126
:101AC0005F914F913F912F910F900BBE0F900FBEE2
:101AD0000F901F9018951F920F920FB60F9211241E
:101AE0000BB60F922F933F934F935F936F937F9318
:101AF0008F939F93AF93BF93EF93FF9386E696E008
:101B00002DDBFF91EF91BF91AF919F918F917F91CD
:101B10006F915F914F913F912F910F900BBE0F905E
:101B20000FBE0F901F9018951F920F920FB60F9235
:101B300011240BB60F922F933F934F935F936F93A4
:101B40007F938F939F93AF93BF93EF93FF9386E61B
:101B500096E0ABDAFF91EF91BF91AF919F918F919A
:101B60007F916F915F914F913F912F910F900BBE9D
:101B70000F900FBE0F901F901895CF93DF93282FD3
:101B800030E0F901E45DFE4F8491F901EA5FFD4F19
:101B9000D491F901E054FE4FC491CC2389F0811116
:101BA00098DBEC2FF0E0EE0FFF1FEA55FE4FA591FA
:101BB000B491EC91ED2381E090E021F480E002C04B
:101BC00080E090E0DF91CF9108951F93CF93DF9352
:101BD000282F30E0F901E45DFE4F8491F901EA5FBE
:101BE000FD4FD491F901E054FE4FC491CC23C1F0D4
:101BF000162F81116EDBEC2FF0E0EE0FFF1FEE5879
:101C0000FE4FA591B4918FB7F894111105C09C9126
:101C1000ED2FE095E92302C0EC91ED2BEC938FBF03
:101C2000DF91CF911F910895CF93DF9390E0FC0156
:101C3000EA5FFD4F2491FC01E054FE4F849188231C
:101C400061F190E0880F991FFC01E457FE4FC591A8
:101C5000D491FC01EE58FE4FA591B491611109C0D9
:101C60009FB7F8948881209582238883EC912E2356
:101C70000BC0623061F49FB7F8943881822F809551
:101C800083238883EC912E2B2C939FBF06C08FB7A4
:101C9000F894E8812E2B28838FBFDF91CF91089590
:101CA0008F929F92AF92BF92CF92DF92EF92FF926C
:101CB0006B017C0164DB4B015C01C114D104E104C4
:101CC000F104E9F05CDBDC01CB0188199909AA0970
:101CD000BB09883E9340A105B10578F321E0C21A03
:101CE000D108E108F10888EE880E83E0981EA11C57
:101CF000B11CC114D104E104F10421F7DECFFF903F
:101D0000EF90DF90CF90BF90AF909F908F9008950D
:101D10002FB7F8946091A7057091A8058091A90547
:101D20009091AA052FBF08951F920F920FB60F92A0
:101D300011242F933F938F939F93AF93BF938091E1
:101D4000A7059091A805A091A905B091AA05309189
:101D5000A60523E0230F2D3720F40196A11DB11D08
:101D600005C026E8230F0296A11DB11D2093A605EC
:101D70008093A7059093A805A093A905B093AA0501
:101D80008091AB059091AC05A091AD05B091AE05E9
:101D90000196A11DB11D8093AB059093AC05A09356
:101DA000AD05B093AE05BF91AF919F918F913F91DB
:101DB0002F910F900FBE0F901F901895CF92DF922A
:101DC000EF92FF920F931F93CF93DF93EC017A0171
:101DD0008B016C01C40ED51ECC15DD0579F0F6DA49
:101DE0008FE0BAD58D2FB8D58C2FB6D5219680E04F
:101DF000B3D5F80181938F01E7DAEECFC701DF9108
:101E0000CF911F910F91FF90EF90DF90CF900895A9
:101E10001F93CF93DF931F92CDB7DEB7182F99830F
:101E2000D5DA8FE099D59981892F96D5812F94D5D0
:101E300080E092D58983C8DA89810F90DF91CF91B4
:101E40001F910895CF92DF92EF92FF920F931F930D
:101E5000CF93DF93EC017A018B016C01C40ED51E88
:101E6000CC15DD0571F0B2DA80EF76D58D2F74D503
:101E70008C2F72D52196F80181918F016DD5A4DA4E
:101E8000EFCFC701DF91CF911F910F91FF90EF909E
:101E9000DF90CF9008951F93CF93DF931F921F92EF
:101EA000CDB7DEB7182F6A83998390DA80EF54D5C7
:101EB0009981892F51D5812F4FD56A81862F4CD595
:101EC00083DA81E00F900F90DF91CF911F910895F9
:101ED000CF93DF931F92CDB7DEB76983DC01ED911D
:101EE000FC910280F381E02D41E050E0BE016F5F84
:101EF0007F4F19950F90DF91CF910895FC01818D4F
:101F0000928D08957F928F929F92AF92BF92CF92BF
:101F1000DF92EF92FF920F931F93CF93DF935C01B9
:101F20004B016A01FC0106891789708C80E590E0FD
:101F30000E94BB02C0E0D0E0872DF6D47C01892B43
:101F400019F0872DF1D4EC01CE15DF05A9F7CC15DA
:101F5000DD0568F4C0E0D0E0872DE6D46C01892B64
:101F600019F0872DE1D4EC01CC15DD05A9F764E269
:101F700070E0872D0E94AB02E82EF12C65E270E044
:101F8000872D0E94AB02FE2CEE24E82AE701C00F49
:101F9000D11F9E013770E72CF12CC701880F991FC4
:101FA000AC0147545A4F7A01FA0180819181820F26
:101FB000931FA9014C0D5D1D4130584088F000E091
:101FC00018E0021B130BA801B4013CDFA601401B63
:101FD000510BB401600F711FF7018081918102C024
:101FE000A601B4012FDFCC0DDD1D4D2F64E270E0A2
:101FF000872D0E94A1024C2F65E270E0872D0E9480
:10200000A1020E94BA02F501868997898C0D9D1D57
:10201000978B868BC601DF91CF911F910F91FF9017
:10202000EF90DF90CF90BF90AF909F908F907F9078
:102030000895EF92FF921F93CF93DF93EB017A0104
:10204000FC01178A168A108D8A81811109C08B8143
:10205000811106C08C81811103C08D81882321F1FB
:10206000E114F10409F180E590E00E94BB02BE0199
:102070006E5F7F4F812F90E0982F882744E050E0DB
:10208000845F9B4FDFDE4F2D60E170E0812F0E9467
:10209000A1024E2D61E170E0812F0E94A1020E94F9
:1020A000BA0281E090E002C080E090E0DF91CF9141
:1020B0001F91FF90EF900895CF93FC01C08D80E5B4
:1020C00090E00E94BB0260E270E08C2F20D562E0BD
:1020D00070E08C2F0E94AB0284FD19C062E070E0BA
:1020E0008C2F0E94AB0283FF0BC048E162E070E0DE
:1020F0008C2F0E94A1020E94BA0280E090E011C0E1
:102100000E94BA0280E590E00E94BB02E0CF40E16D
:1021100062E070E08C2F0E94A1020E94BA0281E06E
:1021200090E0CF910895CF93DF93EC01888D8430B8
:1021300059F019D4E88DF0E0EE0FFF1FE155FA4F8A
:102140001182108284E0888FDF91CF9108954F92A1
:102150005F926F927F928F929F92AF92BF92CF9237
:10216000DF92EF92FF920F931F93CF93DF93CDB740
:10217000DEB7EE970FB6F894DEBF0FBECDBF5C01A1
:102180008B014A0176ECE72E72E0F72EFA82E982A3
:102190001B821C821D821E82CE0109960E9487022C
:1021A000F9AAE8AA1AAA1BAA1CAA1DAA80910507C7
:1021B00090910607A0910707B09108078EA39FA3EF
:1021C000A8A7B9A78B839C83AD83BE8318861F8283
:1021D000F80120E080E090E06AE03191332319F1CA
:1021E00040ED430F4A3080F4689FA001699F500D75
:1021F0001124CA01C097830F911D37FD9A958F3F17
:10220000910559F350F32BC03E3249F5233039F193
:10221000A2E3B0E0AC0FBD1FA20FB11D8C932F5FE6
:1022200080E090E0DACF2330D1F48DABD501ED9191
:10223000FC910088F189E02D86EC92E09DA38CA3AF
:102240008AA99BA9ACA9BDA98EA39FA3A8A7B9A73A
:10225000A401BE016C5D7F4FC501199509C24B8178
:102260005C816D817E8180910D0790910E07A09118
:102270000F07B0911007481759076A077B0709F441
:10228000F5C146DD6F7077277C5FCE0109960E940D
:10229000BE02813009F0E7C186EC92E09DA38CA3D9
:1022A0008B819C81AD81BE818EA39FA3A8A7B9A776
:1022B00045E350E0BE016C5D7F4FCE010996B9DE6B
:1022C000892B19F400E010E063C122DD78876F8369
:1022D0007627672776277DA36CA342E050E0BE01F6
:1022E0006C5D7F4FCE0109960DDE81E090E09FABE3
:1022F0008EAB42E050E0BE016A5C7F4FCE01099692
:1023000001DE80E091E09FAB8EAB42E050E0BE0189
:102310006A5C7F4FCE010996F5DD1FAA1EAA42E036
:1023200050E0BE016A5C7F4FCE010996EBDD42E0D2
:1023300050E0BE016A5C7F4FCE010996E3DD42E0CA
:1023400050E0BE016A5C7F4FCE010996DBDD78016B
:10235000D7018C91882309F1F8017F0181918111C6
:1023600015C06701C01AD10A1C141D0494F4C8AE2C
:1023700041E050E0BE01685C7F4FCE010996C2DDAE
:10238000A601B801CE010996BDDD03C08E3229F742
:10239000E8CF87010F5F1F4FDBCF18AE41E050E061
:1023A000BE01685C7F4FCE010996ACDD00E011E014
:1023B0001FAB0EAB42E050E0BE016A5C7F4FCE0126
:1023C0000996A0DD1FAB0EAB42E050E0BE016A5C97
:1023D0007F4FCE01099696DDCE0109966DDE892BE1
:1023E00009F470CF63E0E62EF12C92DC2B013C0166
:1023F000CE01099626D21816190694F089DCDC0164
:10240000CB0184199509A609B70989389341A1051B
:10241000B105C0F462E370E080E090E041DCE8CF19
:102420004B815C816D817E81898D9A8DAB8DBC8D58
:10243000481759076A077B0741F48D8D9E8DC59714
:1024400021F406C02FEF3FEF9AC02EEF3FEF97C069
:102450008AA19BA10C970CF4A7C04CE050E0BE01F0
:102460006C5D7F4FCE01099682D18EA190E0982FAE
:1024700088272FA1822B9BAF8AAF2CA130E0322F6F
:1024800022274DA1242B4F8158854217530709F06D
:1024900088C097FF86C08F709270892B09F0E0C0CA
:1024A0000AA510E0102F00278BA5082B0115110598
:1024B00009F4D3C0C12CD12C88A590E0982F88278F
:1024C00029A5822BC816D90608F471C0C12CD12CBD
:1024D00041E050E0BE01645C7F4FCE01099647D1D8
:1024E0008CAD982F907C09F095C0811188C08CAD7F
:1024F0008111EECF42E050E0BE01685C7F4FCE011B
:10250000099635D142E050E0BE016A5C7F4FCE01B2
:1025100009962DD1CE01099648D1CE01099645D113
:10252000CE01099642D1CE0109963FD142E050E05A
:10253000BE01665C7F4FCE01099619D188AD99AD79
:102540008115914009F06BC02EA93FA9322723279E
:1025500032272130310509F062C08AAD9BAD81156B
:10256000944009F077C044E050E0BE016E5C7F4FBC
:10257000CE0109962DAF3EAFFAD02DAD3EAD89010B
:10258000B1E0EB1AF10821F02F3F3F4F09F42DCFB6
:10259000CE010996C8DD0130110509F447CEC80106
:1025A00067C02CEF3FEFEBCF2DEF3FEFE8CF41E0DF
:1025B00050E0BE016A5C7F4FCE010996D8D08EA94B
:1025C000811113C08EA98111F2CFCE010996EDD0F1
:1025D000CE010996EAD0CE010996E7D0CE01099640
:1025E000E4D0FFEFCF1ADF0A67CF8EA99FEF980FD5
:1025F0009EAB882339F3CE010996D7D0F6CF8CADA8
:102600009FEF980F9CAF882309F471CFCE010996F4
:10261000CCD0F5CFCE010996C8D01CAE68CF612CC6
:10262000712C8AAD9BAD9827892798276816790663
:1026300038F4CE010996B9D08FEF681A780AF1CF35
:10264000AFEFCA1ADA0AC016D10609F041CF26EF59
:102650003FEF95CF27EF3FEF92CF2AEF3FEF8FCF9E
:102660002BEF3FEF8CCF80E090E002C08EEF9FEF2A
:10267000EE960FB6F894DEBF0FBECDBFDF91CF91BF
:102680001F910F91FF90EF90DF90CF90BF90AF9090
:102690009F908F907F906F905F904F9008950895D6
:1026A0001F93CF93DF93182F66E270E00E94AB0276
:1026B000C82FD0E067E270E0812F0E94AB02DC2FD0
:1026C000CC279E01282BC901DF91CF911F9108953E
:1026D000AF92BF92CF92DF92EF92FF921F93CF9370
:1026E000DF93182F5B017A0180E590E00E94BB0226
:1026F000C0E0D0E0812FD4DF6C01892B19F0812F4D
:10270000CFDFEC01CC15DD05A9F7209799F463E044
:1027100070E0812F0E94AB028431E1F08823D1F078
:10272000C1E0D0E08C3111F4C0E0D0E0D195C1958A
:10273000D10910C0EC16FD060CF4E7011C161D06AD
:102740004CF420E0AE01B501812F0DD360E470E0C0
:10275000812FDDD10E94BA02CE01DF91CF911F916E
:10276000FF90EF90DF90CF90BF90AF900895CF9300
:10277000DF93FC01218D328D2115310519F48FEF86
:102780009FEF10C0EC014217530708F0A901888D94
:102790009FDF181619069CF7298D3A8D281B390BD7
:1027A0003A8F298FDF91CF9108950F931F93CF9385
:1027B000DF931F92CDB7DEB7FC01218D328D232B25
:1027C00059F08C0141E050E0BE016F5F7F4F808D7A
:1027D0007FDF181619061CF08FEF9FEF08C0F80175
:1027E000818D928D0197928F818F898190E00F90DA
:1027F000DF91CF911F910F9108951F93CF93DF9396
:102800001F92CDB7DEB7FC01218D328D232B91F0C5
:10281000108D80E590E00E94BB0221E041E050E095
:10282000BE016F5F7F4F812F9ED20E94BA028981C5
:1028300090E002C08FEF9FEF0F90DF91CF911F913B
:102840000895BF92CF92DF92EF92FF920F931F9362
:10285000CF93DF93CDB7DEB728970FB6F894DEBFDE
:102860000FBECDBF8C01F801818D928D892B49F06F
:10287000D801ED91FC910680F781E02DC8011995F2
:10288000F2CFB08C80E590E00E94BB02E12CF12CED
:102890008B2D06DF6C01892B19F08B2D01DF7C015C
:1028A000EC14FD04A9F70E94BA021E141F0454F58B
:1028B00048E050E0BE016F5F7F4FD80158968C9181
:1028C00007DF9C0118161906DCF489819A81AB8117
:1028D000BC81F801808B918BA28BB38B8D8190E0B2
:1028E000982F88272E81820F911D958B848B2F81A5
:1028F00030E0322F22278885280F311D328F218F1B
:10290000C90102C080E090E028960FB6F894DEBFBF
:102910000FBECDBFDF91CF911F910F91FF90EF9030
:10292000DF90CF90BF9008951F93CF93DF93182F20
:1029300060E270E00E94AB02C82FD0E061E270E07C
:10294000812F0E94AB02DC2FCC279E01282BC901CE
:10295000DF91CF911F9108958EBD00000DB407FE49
:10296000FDCF8EB50895CF93C82F80E590E00E94EB
:10297000BB0260E170E08C2FCAD04FEF62E070E0E4
:102980008C2F0E94A102CF910C94BA02FF920F9358
:102990001F93CF93DF931F921F92CDB7DEB7F82E10
:1029A0008A012A836983DFDF80E590E00E94BB0211
:1029B0002A816981462F422B60E070E08F2D0E94B2
:1029C000A1020115110551F40091B7051091B80548
:1029D0000F5F1F4F1093B8050093B705412F64E0B8
:1029E00070E08F2D0E94A102402F65E070E08F2DD6
:1029F0000E94A10261E070E08F2D89D00E94BA028E
:102A000081E00F900F90DF91CF911F910F91FF9078
:102A10000895BF92CF92DF92EF92FF920F931F9390
:102A2000CF93DF9300D000D0CDB7DEB7FC01208D6F
:102A3000243009F05BC06A017B018C01B12C63E09A
:102A400070E08B2D0E94AB02811103C0F801B08EA3
:102A500007C08B7F8831D1F3B394F4E0BF12EFCF7E
:102A6000F801808D843009F441C096E0E4E9F2E099
:102A7000DE01119601900D929A95E1F7F70193818D
:102A80009F779C8394819D8395819E83B7016E5F20
:102A90007F4F90E0982F882744E050E0845F9B4F61
:102AA000D1D9F801F08C4D2D60E170E08F2D0E949E
:102AB000A1024C2D61E170E08F2D0E94A102F8016E
:102AC000808D90E0982F882746E050E0BE016F5F30
:102AD0007F4F8A5F9B4FB6D9F801128E118E20E886
:102AE000A60162E0808D52DF81E001C080E0269681
:102AF0000FB6F894DEBF0FBECDBFDF91CF911F910F
:102B00000F91FF90EF90DF90CF90BF900895CF93FB
:102B1000C82F462F61E070E00E94A10261E070E0E2
:102B20008C2F0E94AB028111F9CFCF910895CF93E2
:102B30006CE271E080E090E0B3D8CFB7F894809178
:102B4000F108811123C0E5EFF1E08491EBE3F2E0BD
:102B50009491E82FF0E0EE0FFF1FE457FE4FA59190
:102B6000B491EC91E92319F461E085E32ED861E09A
:102B700085E35AD88CB580618CBD8CB580648CBDE2
:102B800061E084E351D861E083E34ED88091F1089D
:102B90008F5F8093F108CFBF249A80E590E00E9478
:102BA000BB0260E880E090E076D965E58BE190E0DB
:102BB00072D965E58AE190E06ED90E94BA0280E0A0
:102BC00090E49093BA058093B90580E090E69093E5
:102BD000C2058093C10580E098E49093BC05809382
:102BE000BB0580E098E69093C4058093C30580E020
:102BF00090E59093BE058093BD0580E090E79093AB
:102C0000C6058093C50580E098E59093C005809344
:102C1000BF0580E098E79093C8058093C70580E5DD
:102C200090E00E94BB0280E090E0F2D887FDFBCFED
:102C3000CF910C94BA021F93CF93DF93CDB7DEB739
:102C4000C254D1090FB6F894DEBF0FBECDBFFC0150
:102C500082819381A481B58123968CAF9DAFAEAF65
:102C6000BFAF239711E023961FAF239723964CAD58
:102C70005DAD6EAD7FAD23974BAB5CAB6DAB7EAB0B
:102C80008DA79EA7AFA7B8AB18AB4DA55EA56FA546
:102C900078A94FA358A769A77AA71EAB4BA95CA92F
:102CA0006DA97EA949A35AA36BA37CA326EC32E0AD
:102CB0003C8B2B8B4FEF4D8B4E8B4F8B188E3E8763
:102CC0002D871AA74FA158A569A57AA54F87588BBC
:102CD000698B7A8B1CA349A15AA16BA17CA149875E
:102CE0005A876B877C873A8329838B839C83AD8348
:102CF000BE831DDF80E590E00E94BB0246E050E00D
:102D000060E072E089E090E09DD8CE0103960E94D9
:102D1000B30244E050E0BE01615F7F4F81E090E08C
:102D200091D844E050E0BE016B5E7F4F85E090E0BB
:102D300089D80E94BA021C8789859A85AB85BC8593
:102D40008093050790930607A0930707B0930807A1
:102D5000CE5BDF4F0FB6F894DEBF0FBECDBFDF9165
:102D6000CF911F9108958F929F92AF92BF92CF9271
:102D7000DF92EF92FF920F931F93CF93DF93B82EC2
:102D80004B018A01A22E68E270E00E94AB02C82FBC
:102D9000D0E069E270E08B2D0E94AB02DC2FCC27E3
:102DA000C82B9E013770CB2CD12CC601880F991FE0
:102DB000AC014F535A4F6A01FA0180819181820F11
:102DC000931FA801420F531F4130584098F060E014
:102DD00078E07B01E21AF30AA701B4010E94DE0E3B
:102DE000A8014E195F09B4016E0D7F1DF6018081A7
:102DF000918102C0A801B4010E94DE0EA1100EC094
:102E0000C00FD11F4D2F68E270E08B2D0E94A102F0
:102E10004C2F69E270E08B2D0E94A102DF91CF91CF
:102E20001F910F91FF90EF90DF90CF90BF90AF90E8
:102E30009F908F9008956F927F928F929F92AF9202
:102E4000BF92CF92DF92EF92FF920F931F93CF9397
:102E5000DF93EC01709314076093130780911107BF
:102E6000909112070E9480066091130770911407D9
:102E700080911107909112070E94550640E068EB7F
:102E800080911107909112070E94140640E060E0C3
:102E900080911107909112070E94140680911107EA
:102EA000909112070E948006609113077091140799
:102EB00080911107909112070E94550640E06EEB39
:102EC00080911107909112070E94140640E060E083
:102ED00080911107909112070E9414067E014E0105
:102EE00089E0880E911C8E01609011077090120786
:102EF00088E0A82EB12CCC24C394D12CC3010E940D
:102F0000C1058111DC28CC0CA1E0AA1AB108B1F7E7
:102F1000F801D1928F01E815F90531F789E0E0E079
:102F2000815049F0D7019D917D01E927F0E0E45BF4
:102F3000FD4FE491F5CF81E09885E91380E0DF91C2
:102F4000CF911F910F91FF90EF90DF90CF90BF90A6
:102F5000AF909F908F907F906F900895CF93C82FE0
:102F600080911107909112070E94800660911307CB
:102F70007091140780911107909112070E945506D5
:102F8000CC23F1F040E064E48091110790911207A6
:102F90000E9414066AE070E080E090E00E94500E0B
:102FA00080911107909112070E948006609113078B
:102FB0007091140780911107909112070E94550695
:102FC00040E064EB80911107909112070E94140673
:102FD00068E070E080E090E00E94500E81E0CF91C8
:102FE0000895CF92DF92FF920F931F93CF93DF93B9
:102FF000CDB7DEB729970FB6F894DEBF0FBECDBFB1
:103000008C017093140760931307CE01019613DFB0
:10301000F82E882309F45CC099810130110511F460
:10302000986001C0977F9983809111079091120752
:103030000E94800660911307709114078091110718
:10304000909112070E94550640E06EE480911107AE
:10305000909112070E94140640E060E080911107F1
:10306000909112070E9414068E010F5F1F4F6E0190
:1030700089E0C80ED11CF80161918F0140E0809178
:103080001107909112070E9414060C151D0599F75F
:1030900080911107909112070E948006609113079A
:1030A0007091140780911107909112070E945506A4
:1030B00040E068E480911107909112070E94140685
:1030C00040E060E080911107909112070E94140681
:1030D0008F2D29960FB6F894DEBF0FBECDBFDF91BE
:1030E000CF911F910F91FF90DF90CF9008952F9275
:1030F0003F924F925F926F927F928F929F92AF9288
:10310000BF92CF92DF92EF92FF920F931F93CF93D4
:10311000DF9300D01F92CDB7DEB7FC01848095808D
:103120008114910409F41CC16090A1087090A20858
:103130006114710409F414C18B019C838B83FB011E
:10314000C480D580C618D708FC01E080F180C11486
:10315000D104C9F460919D0870919E08C7010E9436
:10316000B92B6C01892B09F4FBC0F80160817181D6
:1031700044815581C6010E94722BF801E480F580DC
:10318000EC0CFD1CE7CFD7FE02C0570107C04090F2
:103190009D0850909E085401C7014AC060919D0847
:1031A00070919E08C5010E94B92B4C01892B31F109
:1031B00034016A187B08A301B501C7010E94722B74
:1031C000E60CF71CF8016081718144815581C701CB
:1031D0000E94722BF80184819581E80EF91EA0905F
:1031E000A108B090A208A80CB91CEB81FC818481D5
:1031F00095818C0D9D1D95838483D0CFB501C7012A
:103200000F900F900F900F90DF91CF911F910F9122
:10321000FF90EF90DF90CF90BF90AF909F908F90F6
:103220007F906F905F904F903F902F900C94952BD4
:10323000B2010E94B92B009729F0860D971DAC0CA6
:10324000BD1CF6CFA814B90409F48AC0EB81FC8137
:10325000828193818A159B0578F4B5016F5F7F4F5A
:10326000C7010E947D2A009709F47AC0EB81FC8196
:1032700091838083B382A282EB81FC81E480F5801C
:10328000F1E0EF1AF108F7FC6BC04090A1085090F4
:10329000A2084114510409F463C0EB81FC81A480AD
:1032A000B580A114B10409F45BC0A414B50408F4FA
:1032B00057C0EA14FB0420F07501F1E0EF1AF108A1
:1032C000EB81FC816080718020909D0830909E0889
:1032D000C30188248A94982C93012E0D3F1D281732
:1032E000390748F0B10129833A830E94B92B29811B
:1032F0003A81009761F597FC33C0480C591CC30113
:10330000840D951DA50144195509BC018C0D9D1D09
:103310000E947B2BEB81FC81848195818C0D9D1D0E
:103320009583848320813181F901E80FF91F108290
:10333000EB81FC8180819181F80160817181448100
:103340005581880D991D0E94722B740199CFAC0193
:1033500046195709E416F50608F04A010196BFCF51
:103360000F900F900F900F90DF91CF911F910F91C1
:10337000FF90EF90DF90CF90BF90AF909F908F9095
:103380007F906F905F904F903F902F9008950F9394
:103390001F930E94880E6093D1057093D20580938D
:1033A000D3059093D405E091C905F091CA05068034
:1033B000F781E02D89EC95E0199597FF1FC00E94D9
:1033C000880E0091D1051091D2052091D30530913E
:1033D000D405DC01CB01801B910BA20BB30B009138
:1033E000CD051091CE052091CF053091D0058017E5
:1033F0009107A207B307B8F28FEF9FEF1F910F91CC
:103400000895CF93DF93CDB7DEB7C157D1090FB67B
:10341000F894DEBF0FBECDBF789484B5826084BDC2
:1034200084B5816084BD85B5826085BD85B58160C8
:1034300085BD80916E00816080936E001092810046
:103440008091810082608093810080918100816001
:1034500080938100809180008160809380008091C2
:10346000B10084608093B1008091B000816080934E
:10347000B0008091910082608093910080919100D2
:103480008160809391008091900081608093900092
:103490008091A10082608093A1008091A100816051
:1034A0008093A1008091A00081608093A000809112
:1034B00021018260809321018091210181608093AC
:1034C00021018091200181608093200180917A0008
:1034D000846080937A0080917A00826080937A0081
:1034E00080917A00816080937A0080917A00806870
:1034F00080937A001092C100E0917606F0917706F1
:1035000022E02083E0917206F09173061082E09130
:103510007406F09175068FEC808310927E06E09120
:103520007A06F0917B0696E09083E0917806F09120
:103530007906808180618083E0917806F091790638
:10354000808188608083E0917806F091790680819F
:1035500080688083E0917806F091790680818F7D84
:103560008083E091D905F091DA052083E091D505BB
:10357000F091D6051082E091D705F091D80580E151
:1035800080831092E105E091DD05F091DE059083E6
:10359000E091DB05F091DC05808180618083E09122
:1035A000DB05F091DC05808188608083E091DB059C
:1035B000F091DC05808180688083E091DB05F091EB
:1035C000DC0580818F7D808382E390E0A0E0B0E025
:1035D0008093CD059093CE05A093CF05B093D005F1
:1035E000BDE4EB2EB7E0FB2E10EFA12E13E0B12EC1
:1035F00006E4802E04E0902E88E1C82E82E0D82ECA
:1036000000E010E066246394712CD6018C91B2E046
:10361000CB0ED11C62E00E94140EF40161927192F3
:103620004F01D5011D921D925D010F5F1F4F4AE0B2
:10363000B801CE0101960E947E0C69E778E0CE01C8
:1036400082960E94A90CBE016F5F7F4FCE018296C9
:103650000E94D60BBC01C7010E94FC0BCE018296D2
:103660000E944A0CCE0101960E944A0CB6E0EB0E75
:10367000F11C0831110549F6AEE4CA2EA2E0DA2E9B
:10368000E12CF12C00E010E0F6018081F2E0CF0E99
:10369000D11C61E00E94140E0F5F1F4F4AE0B80179
:1036A000CE0101960E947E0C65E878E0CE018296FC
:1036B0000E94A90CBE016F5F7F4FCE0182960E94CF
:1036C000D60B6EEC72E00E94BF0BBC01C7018B5D94
:1036D000974F0E94FC0BCE0182960E944A0CCE01AD
:1036E00001960E944A0C4AE0B801CE0101960E9460
:1036F0007E0C65E878E0CE0182960E94A90CBE019E
:103700006F5F7F4FCE0182960E94D60B62ED72E012
:103710000E94BF0BBC01C7018352984F0E94FC0B53
:10372000CE0182960E944A0CCE0101960E944A0C5C
:1037300060E0D6018C910E94E50DB6E0EB0EF11C25
:103740000C30110509F0A0CF62E083E00E94140E56
:10375000E5E3CE2EE7E0DE2EF6E6EF2EF2E0FF2EDA
:1037600000E010E0F7018081F2E0EF0EF11C61E073
:103770000E94140E0F5F1F4F4AE0B801CE01019660
:103780000E947E0C6FE778E0CE0182960E94A90C21
:10379000BE016F5F7F4FCE0182960E94D60BBC01A7
:1037A000C6010E94FC0BCE0182960E944A0CCE01FB
:1037B00001960E944A0CD701BC9061E08B2D0E94BB
:1037C000140E60E08B2D0E94E50DB6E0CB0ED11CEF
:1037D0000430110539F660E08AE30E94140E60E0BF
:1037E0008BE30E94140E60E08EE30E94140E80E3CF
:1037F00095E7A0E0B0E080932A0490932B04A09377
:103800002C04B0932D040E94880E609326047093BC
:103810002704809328049093290480E69AEEA0E080
:10382000B0E080933E0590933F05A0934005B09390
:1038300041050E94880E60933A0570933B05809382
:103840003C0590933D0561E080E20E94140E82E306
:1038500090E0A0E0B0E080932E0590932F05A09318
:103860003005B09331050E94880E60932A0570934D
:103870002B0580932C0590932D058EED93E0A0E011
:10388000B0E08093360590933705A0933805B09348
:1038900039050E94880E609332057093330580933A
:1038A00034059093350560E1E62E62E0F62E00E0E7
:1038B00010E0AA24A394B12CF701D080F2E0EF0E1F
:1038C000F11C60E08D2D0E94140E8D2D0E94BD0D07
:1038D000892B89F42091BE033091BF03C501002ECE
:1038E00002C0880F991F0A94E2F7822B932B9093C2
:1038F000BF038093BE030F5F1F4F04301105E1F635
:103900006091BE037091BF034AE0CE0101960E9410
:103910007E0CBE016F5F7F4F83EA98E00E94110C1E
:10392000CE0101960E944A0C6091BE037091BF03C4
:103930004AE0CE0101960E947E0C67E978E0CE0154
:1039400082960E94A90CBE016F5F7F4FCE018296C6
:103950000E94D60BBC018DE998E00E94FC0BCE01C1
:1039600082960E944A0CCE0101960E944A0C8091D8
:10397000BE039DEE980F9093050290EC9093E7089C
:1039800098EA9093E80896E99093E9088A5680931C
:10399000EA0880916603811107C08BE493E00E94DE
:1039A000870281E08093660388E093E090930A07A2
:1039B00080930907BCD880E590E00E94BB0246E0F6
:1039C00050E060E072E089E090E00E94220F86EC17
:1039D00092E09A8389831B821C821D821E82CE0103
:1039E00003960E94B3020E94BA0200910907109147
:1039F0000A07D80192961D921D921D921C929597CE
:103A0000F80116A217A210A611A69A961D921D9251
:103A10001D921C929D9780E69AEEA0E0B0E086ABE6
:103A200097ABA0AFB1AF80EA9FE0A0E0B0E082AF7B
:103A300093AFA4AFB5AFD801189686E0FD01282F4B
:103A400011922A95E9F79801225F3F4F94E1F9011D
:103A500011929A95E9F7E0E0F2E001900D928A95D3
:103A6000E1F77801F2E4EF0EF11CD7011C920E94FD
:103A70003B2C2FEC37E040E050E00E944830DC0166
:103A8000CB010196A11DB11DF80184839583A68306
:103A9000B78380839183A283B3835801F3E4AF0E8D
:103AA000B11CC5010E94931064E470E0C5010E943E
:103AB000BE02811114C086EC92E09A8389838091C2
:103AC000E7089091E808A091E908B091EA088B8393
:103AD0009C83AD83BE83CE010196ADD884C10E9484
:103AE000880E2B013C01812C912CD12C43E0342EEB
:103AF00052E0C52ED7018C91833009F404C18111A5
:103B000021C0F80184819581A681B7810196A11D0C
:103B1000B11D84839583A683B7830E94880E6419A0
:103B200075098609970928EE33E040E050E00E94CD
:103B30007430A90161E0C8010E94B60481E0D70198
:103B40008C93C3C0843001F5F80184819581A681EE
:103B5000B7810196A11DB11D84839583A683B78388
:103B60000E94880E641975098609970928EE33E0CA
:103B700040E050E00E947430A90163E0C8010E9457
:103B8000B604D701CC92A1C0813061F5F80142ADF5
:103B900053AD64AD75AD9E012F5F3F4FC8010E94CC
:103BA000F002D82EF2E08F1390C089819A81AB8108
:103BB000BC81F80184839583A683B7830E94880E15
:103BC000641975098609970928EE33E040E050E052
:103BD0000E947430A90163E0C8010E94B604D701B5
:103BE000DC9279C0823009F070C0F80142AD53AD6B
:103BF00064AD75AD9E012F5F3F4FC8010E94F0027A
:103C0000D82EF5E08F135BC0D7013C92F80182A15A
:103C100093A1A4A1B5A1892B8A2B8B2B41F484E815
:103C200093E0A0E0B0E082A393A3A4A3B5A3F8011E
:103C300086A197A1A0A5B1A5892B8A2B8B2B61F416
:103C400082A193A1A4A1B5A1B695A79597958795B3
:103C500086A397A3A0A7B1A7F80182A593A5A4A5C1
:103C6000B5A5892B8A2B8B2BA9F482A193A1A4A1A2
:103C7000B5A1AC01BD0123E07695679557954795B1
:103C80002A95D1F7841B950BA60BB70B82A793A798
:103C9000A4A7B5A7F80186A197A1A0A5B1A586A75D
:103CA00097A7A0ABB1AB82A593A5A4A5B5A582AB00
:103CB00093ABA4ABB5AB88248394912C0CC0F6E0F5
:103CC0008F1303C0D7011C9206C0BFEFDB1203C0E5
:103CD000F7011082D12CF1E08F16910409F40ACF7C
:103CE0000E94880EDC01CB0184199509A609B70949
:103CF000F80126A937A940AD51AD281739074A0761
:103D00005B0708F0F7CEC5010E949310F80184818B
:103D10009581A681B7810196A11DB11D84839583EC
:103D2000A683B7830E94880EF801FE966083718394
:103D300082839383F1E08F16910409F051C080E5EE
:103D400090E00E94BB026091090770910A07625FD0
:103D50007F4FCE0101960E94090DCE0103960E946D
:103D6000B3026091090770910A076A5E7F4FCE0126
:103D700001960E94090D44E050E0BE016D5F7F4F47
:103D800081E090E00E94220F6091090770910A077C
:103D90006E5E7F4FCE0101960E94090D44E050E017
:103DA000BE016D5F7F4F85E090E00E94220F0E9470
:103DB000BA026091090770910A07625E7F4FCE01D7
:103DC00001960E94090D8B819C81AD81BE818093FB
:103DD000050790930607A0930707B093080703C051
:103DE000892809F468CE6CE97DEA84EC98E00E94A9
:103DF000BE0262E079ED89EA98E00E94BE0261E0CD
:103E000088E00E94140E60E088E00E94E50D0EE656
:103E100013E05BE0952ED12CC12C882483946EE0B6
:103E2000762E78018091340781116FC087E297E088
:103E30000E948006811107C0109232071092340749
:103E400010923307F4C040E060EF87E297E00E94F1
:103E50001406AA24A394612C512CBB24B39487E2AA
:103E600097E00E94C105682F87E297E0AF966FAF99
:103E7000AF970E94C105AF966FADAF97613019F44F
:103E80008130C9F438C0262D30E068131EC08091FF
:103E90003207B81638F4F901E95DF84F83818A21B9
:103EA00051F402C0B81639F060E088E08B1560F07C
:103EB000B092330709C0E62DF0E0E95DF84F838149
:103EC0008A29838361E009C05B2CF901E95DF84F21
:103ED00093818A2D80958923838387E297E00E94CE
:103EE000E505B394AA0C19F46394AA24A39497E06B
:103EF000961508F0B4CFA0E4AB1538F45092320711
:103F000051104EC7809234074BC71092320710925F
:103F100034071092330780E0AAE2B7E05801E8E0E6
:103F2000AE0EB11CF8019D919193EA15FB05D9F7EE
:103F3000882309F47CC088E0E0E0815049F0D80192
:103F40009D918D01E927F0E0E45BFD4FE491F5CF11
:103F500021E030E0EE2311F020E030E0F70187812E
:103F600090E02817390709F45EC080818632B1F4E9
:103F7000F8E0CF9EA001112480E090E0FC01E40F66
:103F8000F51FE953FB4FD701A80FB91F2C912083D0
:103F900001968830910591F7C39445C028E0D29EE0
:103FA000A001112480E090E0FC01E40FF51FEA5825
:103FB000FB4FD701A80FB91F2C91208301968830A1
:103FC000910591F7D394E7E2F7E0DE01DE96872DC5
:103FD00001900D928A95E1F7CE01CE960E9480065F
:103FE000B701CE01CE960E94550640E06EE4CE01A8
:103FF000CE960E94140640E060E0CE01CE960E946C
:10400000140640E060E0CE01CE960E94140640E027
:104010006FE5CE01CE960E94140640E068E4CE0122
:10402000CE960E9414069A9485019110FACEC09201
:104030001705D092C60430E3832E35E7932EA12CCA
:10404000B12C42E3442E512C612C712C0E94880E1D
:10405000AE967FAF6EAFAE9780ECE82E83E0F82E81
:1040600028E132E0AC963FAF2EAFAC9700EF13E003
:1040700096E4C92E94E0D92E22242394312CD60123
:104080006D917C91F80140815181AC96AEADBFAD90
:10409000AC978C911296AC96BFAFAEAFAC97E19651
:1040A0004FAFE197E2965FAFE297AF966FAFAF97F2
:1040B000E0967FAFE0970E94BD0DE1964FADE1978E
:1040C000E2965FADE297AF966FADAF97E0967FADAA
:1040D000E09764177507F9F04817590721F0F801C0
:1040E0009183808325C0D7018D919C91AE962EAD92
:1040F0003FADAE97281B390B26303105CCF0D601E9
:104100004D935C93C101452B19F40E94820710C0A6
:104110000E944C070DC06817790751F0F801918390
:104120008083AE962EAD3FADAE97D7012D933C93D5
:104130003FEF231A330A82E0C80ED11C0E5F1F4FD7
:1041400092E0E90EF11CA9E12A16310409F097CF9B
:1041500086E294E00E940308811108C063EE72E0D9
:10416000CE018E5A9F4F0E94B10CF1C080922A045A
:1041700090922B04A0922C04B0922D040E94880EE1
:104180006093260470932704809328049093290455
:1041900008E4202E02E0302EE0E2F4E0AC96FFAF1F
:1041A000EEAFAC9701E010E0D1018C91B2E02B0EA4
:1041B000311C863308F0865390917B00282F28709D
:1041C000977F922B90937B008770806480937C0014
:1041D00080917A00806480937A0080917A0086FDD5
:1041E000FCCF409178008091790050E0582BBA01C3
:1041F000052E000C880B990BE1964FAFE197E296E4
:104200005FAFE2970E94322F6B017C01AC96EEAD5E
:10421000FFADAC9760817181072E000C880B990B64
:104220000E94322FE1964FADE197E2965FADE297A3
:10423000AC96AEADBFADAC974D935D93AC96BFAFB2
:10424000AEAFAC979B01AC01C701B6010E942C2F09
:10425000882309F44BC02AE137E64CE151E4C70159
:10426000B6010E94912FAB01BC0122E0CE01845B1C
:104270009F4F0E944F0C4AE0B801CE018E5A9F4FCB
:104280000E947E0C6BE878E0CE01885A9F4F0E9416
:10429000A90CBE016E5A7F4FCE01885A9F4F0E94D3
:1042A000D60B69ED72E00E94BF0BBE01645B7F4FCD
:1042B0000E94D60BBC01CE0101960E94A90CCE0132
:1042C00001960E94B606CE0101960E944A0CCE01CC
:1042D000885A9F4F0E944A0CCE018E5A9F4F0E94CF
:1042E0004A0CCE01845B9F4F0E944A0C0F5F1F4F08
:1042F0000430110509F058CF31CF8A30910591F083
:104300002D968FAF2D972E961FAE2E9741E050E041
:10431000BE01645B7F4FCE0101960E94920B37D89D
:1043200097FFEBCFBE016F5F7F4FCE018E5A9F4F3D
:104330000E94110CCE0101960E944A0C6DE978E0B2
:10434000CE018E5A9F4F0E94450B81113FC089ECD0
:1043500095E00E949008181619063CF463EE72E08E
:10436000CE0101960E94B10CDACF84EC98E00E9455
:104370002114892B09F40BC288E1EEE2F4E0DF019D
:104380001D928A95E9F748E150E0BF0184EC98E07E
:104390000E9480026EE274E0CE0101960E94B10C90
:1043A000BE016F5F7F4FCE018E5A9F4F0E94110C4E
:1043B000CE0101960E944A0C6DE978E0CE018E5A3A
:1043C0009F4F0E94450B882309F4E1C163EE72E020
:1043D000CE0101960E94B10CBE016F5F7F4FCE01EE
:1043E0008E5A9F4F0E947718CE0101960E944A0C68
:1043F000CE018E5A9F4F0E94E60A65E878E0CE0112
:104400008E5A9F4F0E94450B882361F11EE4E12ED6
:1044100012E0F12E00E010E0B8016B5D774FCE01A5
:104420008E5A9F4F0E94600B882321F061E0F701B4
:1044300080810DC0B8016352784FCE018E5A9F4FD4
:104440000E94600B882329F060E0D7018C910E94C4
:10445000E50D0A5F1F4FB2E0EB0EF11C08341105A9
:10446000D9F695C16FE778E0CE018E5A9F4F0E9432
:10447000450B882309F439C168962EAD3FAD689786
:1044800040918308509184084E5F5F4FBE016E5A81
:104490007F4FCE01845B9F4F0E94C50CB6E6EB2E8A
:1044A000B2E0FB2E05E317E02091830830918408E9
:1044B0002F5F3F4F40E050E0BE016E5A7F4FCE016C
:1044C00001960E94C50CB801CE0101960E94600BB6
:1044D000D82ECE0101960E944A0CDD2009F4F5C0C9
:1044E0002E968EAD9FAD2E97009721F00E94472CFF
:1044F000962F02C090E070E0292E372EF701C08081
:10450000D18061E08C2DE0967FAFE097AF969FAFB2
:10451000AF970E94140EE0967FADE097AF969FADE7
:10452000AF972114310409F4CAC0FFEF2F163104EC
:1045300009F4C7C0F601FF27E45DFE4FE4912E2F7A
:1045400030E0F9013197E231F10508F0B4C0882775
:10455000EE58FF4F8F4F2DC684B5806884BD97BD40
:10456000B4C084B5806284BD98BDAFC08091800026
:10457000806880938000292F372F30938900209303
:104580008800A3C080918000806280938000292FE2
:10459000372F30938B0020938A0097C08091800042
:1045A000886080938000292F372F30938D002093CF
:1045B0008C008BC08091B00080688093B000909395
:1045C000B30083C08091B00080628093B00090936C
:1045D000B4007BC080919000806880939000292F68
:1045E000372F30939900209398006FC080919000EE
:1045F000806280939000292F372F30939B00209367
:104600009A0063C080919000886080939000292F69
:10461000372F30939D0020939C0057C08091A000BD
:1046200080688093A0008091A0008F7B8093A00081
:10463000292F372F3093A9002093A80046C08091DE
:10464000A00080628093A000292F372F3093AB0009
:104650002093AA003AC08091A00088608093A000B7
:10466000292F372F3093AD002093AC002EC08091BE
:104670002001806880932001292F372F3093290152
:104680002093280122C08091200180628093200124
:10469000292F372F30932B0120932A0116C08091A8
:1046A0002001886080932001292F372F30932D011E
:1046B00020932C010AC020E82216310414F460E093
:1046C00001C061E08C2D0E94E50D0A5F1F4F32E0B2
:1046D000E30EF11C87E00D34180709F0E5CECE019A
:1046E000845B9F4F0E944A0C52C069E778E0CE017C
:1046F0008E5A9F4F0E94450B8823E9F1F6E4CF2E96
:10470000F4E0DF2EADE4EA2EA7E0FA2E01E010E09F
:1047100020917D0830917E082E5F3F4F40E050E0B1
:10472000BE016E5A7F4FCE0101960E94C50CB701A3
:10473000CE0101960E94600B382ECE0101960E9498
:104740004A0C332061F0D6018D919C91892B21F484
:10475000C8010E94820703C0C8010E944C070F5F76
:104760001F4FB6E0EB0EF11CE2E0CE0ED11C09317A
:10477000110571F60CC063E778E0CE018E5A9F4FA9
:104780000E94450B882319F0E0E0F0E01995CE0176
:104790008E5A9F4F0E944A0C109129051130D9F171
:1047A00038F0123009F4F0C1133009F421C2B5C257
:1047B00081E295E00E940308882309F4AEC280924A
:1047C000250590922605A0922705B09228050E9403
:1047D000880E6093210570932205809323059093A2
:1047E000240588E893E1A0E0B0E080931D05909354
:1047F0001E05A0931F05B09320050E94880E6093AC
:10480000190570931A0580931B0590931C0510924F
:10481000180581E0EAC189E195E00E940308882338
:1048200009F47BC28091180590911705891708F04B
:10483000A7C197E0909315071092160710921707DB
:10484000109218071092190710921A0710921B075E
:1048500010921C0710921D0710921E0710921F073E
:10486000109220071092210710932607109222071A
:10487000109223071092240710922507A8E08A9F20
:10488000C001112489539B4F909314078093130701
:104890000E94880E60932207709323078093240759
:1048A000909325071091150710FD03C0143009F0EF
:1048B0005FC0609113077091140780E090E00E9440
:1048C000F117882309F4BCC012FB112710F9812FBE
:1048D0000E94AE17882309F4B3C06091130770914A
:1048E0001407CE0101960E941B17882309F4A8C063
:1048F0001123F9F06B8170E0762F66278A81682B8F
:10490000E3E075956795EA95E1F7072E000C880BB3
:10491000990B0E94322F20E030E040E05DE30E94DE
:10492000912F609316077093170780931807909341
:1049300019078091150780FF1BC06D8170E0762FED
:104940006627662773708C81682B072E000C880BF6
:10495000990B0E94322F20E030E048EC52E438D42A
:1049600060931A0770931B0780931C0790931D0791
:104970001091150711FF62C012FF03C0109511704E
:1049800001C010E0609113077091140781E090E07E
:104990000E94F117882309F453C0812F0E94AE179B
:1049A000882309F44DC06091130770911407CE015C
:1049B00001960E941B17882309F442C01123F9F0C5
:1049C0006B8170E0762F66278A81682B33E07595BE
:1049D00067953A95E1F7072E000C880B990B0E941A
:1049E000322F20E030E040E05DE30E94912F6093A1
:1049F00016077093170780931807909319076F8114
:104A000070E0762F66278E81682B77FF03C0719543
:104A100061957109072E000C880B990B0E94322FAB
:104A200020E030E040E859E30E94912F60931E0798
:104A300070931F07809320079093210710922607F9
:104A400080912607811196C040911E0750911F0743
:104A5000609120077091210722E0CE01845B9F4F77
:104A60000E944F0C40911A0750911B0760911C0740
:104A700070911D0722E0CE018E5A9F4F0E944F0C6D
:104A80006091160770911707809118079091190788
:104A90006A961FAE1EAE6A976C961FAE1EAE6C97DE
:104AA0006E961FAE1EAE6E978E010F5F1F4F22E0F7
:104AB00044E079D6BC01CE01885A9F4F0E94E70B93
:104AC00060911805B8E06B9FB001112469537B4FCA
:104AD000CE01825A9F4F0E94B80767ED72E0CE0167
:104AE0008C599F4F0E94B10CBE01625A7F4FCE017C
:104AF0008C599F4F0E94D60B69ED72E00E94BF0B4C
:104B0000BE01685A7F4F0E94D60B69ED72E00E9489
:104B1000BF0BBE016E5A7F4F0E94D60B69ED72E04B
:104B20000E94BF0BBE01645B7F4F0E94D60BBC018D
:104B3000C8010E94A90CC8010E94B606C8010E94C3
:104B40004A0CCE018C599F4F0E944A0CCE01825ACA
:104B50009F4F0E944A0CCE01885A9F4F0E944A0CD8
:104B6000CE018E5A9F4F0E944A0CCE01845B9F4F0C
:104B70000E944A0C809118058F5F80931805CDC064
:104B80001092180582E031C089E195E00E94030887
:104B9000882309F4C2C0109118058091C604181723
:104BA00008F58EE0E7E2F7E0DE01D09601900D9285
:104BB0008A95E1F7CE01C0960E948006E8E01E9F2C
:104BC000B00111246A587B4FCE01C0960E94550651
:104BD00041E064E4CE01C0960E9414061F5F10936A
:104BE00018059BC01092180583E08093290595C095
:104BF00089E195E00E940308882309F48EC0109192
:104C000018058091C604181708F085C08EE0E7E209
:104C1000F7E0DE01929601900D928A95E1F7CE01C0
:104C200082960E948006F8E01F9FB00111246A5806
:104C30007B4FCE0182960E94550640E06EEBCE017E
:104C400082960E9414069E012F5F3F4F69017E01EC
:104C50003AE0E30EF11C08E010E022242394312C0A
:104C6000CE0182960E94C10581113228220C01508A
:104C70001109B1F7D6013D926D01AE15BF0559F787
:104C80006A8170E0762F66278981682B072E000CD9
:104C9000880B990B0E94322F20E030E040E85DE362
:104CA0000E94912FAB01BC0122E0CE01845B9F4F9B
:104CB0000E944F0C60911805B8E06B9FB001112461
:104CC0006A587B4FCE018E5A9F4F0E94B80767EDFE
:104CD00072E0CE01885A9F4F0E94B10CBE016E5AFD
:104CE0007F4FCE01885A9F4F0E94D60B69ED72E02C
:104CF0000E94BF0BBE01645B7F4F0E94D60BBC01BC
:104D0000CE0101960E94A90CCE0101960E94B60622
:104D1000CE0101961ECF1092290582E395E00E94F4
:104D20000308882361F140922E0550922F0560926E
:104D30003005709231050E94880E60932A057093A9
:104D40002B0580932C0590932D058EED93E0A0E02C
:104D5000B0E08093360590933705A0933805B09363
:104D600039050E94880E6093320570933305809355
:104D700034059093350561E080E20E94E50D8AE2FA
:104D800095E00E940308882321F060E080E20E9401
:104D9000E50D8AE395E00E9403080E94360956C992
:104DA00080912A07882309F4B0C881E0B5C8CF9361
:104DB000DF9387E497E00E944A0C81E497E00E9429
:104DC0004A0C8BE397E00E944A0C85E397E00E942F
:104DD0004A0CCDEDD7E02697CE010E944A0C87E021
:104DE000CD34D807C1F7C5E2D8E02697CE010E949E
:104DF0004A0C87E0CD3DD807C1F7CDE6D8E026972D
:104E0000CE010E944A0C88E0C532D807C1F78DE672
:104E100098E00E944A0C83E798E00E944A0C89E7D8
:104E200098E00E944A0C8FE798E00E944A0C85E8BF
:104E300098E00E944A0C8BE898E00E944A0C81E9B5
:104E400098E00E944A0C87E998E00E944A0C8DE99C
:104E500098E00E944A0C83EA98E0DF91CF910C948D
:104E60004A0CCF93DF9386EC92E09093F308809303
:104E7000F2081092F4081092F5081092F6081092B9
:104E8000F7081092CC051092CB0548EE53E060E095
:104E900070E04093CD055093CE056093CF0570939D
:104EA000D0052EE932E03093CA052093C905EDEC18
:104EB000F0E0F093D605E093D505ECECF0E0F0934C
:104EC000D805E093D705E8ECF0E0F093DA05E0933D
:104ED000D905E9ECF0E0F093DC05E093DB05EAECC2
:104EE000F0E0F093DE05E093DD05EEECF0E0F0930A
:104EF000E005E093DF051092E2051092E3051092C1
:104F0000E4051092E5051092690610926806409338
:104F10006A0650936B0660936C0670936D0630932F
:104F200067062093660625EC30E0309373062093E5
:104F3000720624EC30E0309375062093740620EC62
:104F400030E0309377062093760621EC30E0309302
:104F500079062093780622EC30E030937B0620938C
:104F60007A0626EC30E030937D0620937C06109282
:104F70007F0610928006109281061092820690930E
:104F8000F9088093F8081092FA081092FB08109222
:104F9000FC081092FD089093FF088093FE08109281
:104FA00000091092010910920209109203099093CE
:104FB00005098093040910920609109207091092BE
:104FC00008091092090990930B0980930A0910921D
:104FD0000C0910920D0910920E0910920F0990936E
:104FE000040780930307109205071092060710929A
:104FF00007071092080790930C0780930B071092F5
:105000000D0710920E0710920F0710921007909341
:10501000110980931009109212091092130910922D
:105020001409109215099093EC088093EB081092E4
:10503000ED081092EE081092EF081092F00890938D
:10504000E6088093E5081092E7081092E8081092AD
:10505000E9081092EA089093E0088093DF088FEF48
:105060008093E1088093E2088093E3088093E4084A
:1050700084EC98E00E94870289EA98E00E94870207
:1050800063EE72E083EA98E00E94B10C63EE72E096
:105090008DE998E00E94B10C6AEE72E087E998E031
:1050A0000E94B10C6FEE72E081E998E00E94B10CB1
:1050B00062EF72E08BE898E00E94B10C65EF72E05D
:1050C00085E898E00E94B10C68EF72E08FE798E005
:1050D0000E94B10C6CEF72E089E798E00E94B10C7D
:1050E00061E073E083E798E00E94B10C65E073E053
:1050F0008DE698E00E94B10CC5E2D8E063EE72E064
:10510000CE010E94B10C269688E0CD36D807B1F7C3
:10511000CDEDD7E063EE72E0CE010E94B10C269691
:1051200088E0C532D807B1F7CDE4D7E063EE72E08E
:10513000CE010E94B10C269687E0CD3DD807B1F78D
:10514000C5E3D7E063EE72E0CE010E94B10C269673
:1051500087E0CD34D807B1F760E089E00E94140EF3
:10516000EFE0F2E0E491E0932707E9ECF1E0E4916D
:10517000F0E0EE0FFF1FEA55FE4F8591949190935A
:105180002907809328071092320710923407109253
:105190003307E2E3F7E0129287E0EA32F807D9F743
:1051A00087E297E09093120780931107DF91CF91E8
:1051B0000895EE0FFF1F881F8BBF0790F691E02D1B
:1051C00019946927962769277827872778270895CC
:1051D0000CD024C71CD740F013D730F021F45F3F28
:1051E00019F005C751114EC708C729D798F399235D
:1051F000C9F35523B1F3951B550BBB27AA2762179B
:105200007307840738F09F5F5F4F220F331F441FDF
:10521000AA1FA9F333D00E2E3AF0E0E830D0915017
:105220005040E695001CCAF729D0FE2F27D0660F04
:10523000771F881FBB1F261737074807AB07B0E843
:1052400009F0BB0B802DBF01FF2793585F4F2AF059
:105250009E3F510568F0CBC615C75F3FECF3983E03
:10526000DCF3869577956795B795F7959F5FC9F7B6
:10527000880F911D9695879597F90895E1E0660F3F
:10528000771F881FBB1F621773078407BA0720F0B8
:10529000621B730B840BBA0BEE1F88F7E095089521
:1052A000CF93DF938230910510F482E090E0E0919B
:1052B0001809F091190920E030E0C0E0D0E0309703
:1052C00011F14081518148175907C0F0481759071B
:1052D00061F482819381209719F09B838A832BC08C
:1052E000909319098093180926C02115310519F0EA
:1052F0004217530718F49A01BE01DF01EF01028043
:10530000F381E02DDCCF2115310509F1281B390B84
:105310002430310590F412968D919C91139761156C
:10532000710521F0FB019383828304C090931909D6
:1053300080931809FD01329644C0FD01E20FF31F6E
:1053400081939193225031092D933C933AC020913F
:10535000160930911709232B41F42091080230914E
:105360000902309317092093160920910602309103
:1053700007022115310541F42DB73EB740910A02CD
:1053800050910B02241B350BE0911609F09117097F
:10539000E217F307A0F42E1B3F0B2817390778F00C
:1053A000AC014E5F5F4F2417350748F04E0F5F1F6B
:1053B00050931709409316098193919302C0E0E03E
:1053C000F0E0CF01DF91CF9108950F931F93CF931A
:1053D000DF93009709F48CC0FC013297138212828C
:1053E00000911809109119090115110581F4208106
:1053F0003181820F931F20911609309117092817C8
:10540000390779F5F0931709E093160971C0D801AF
:1054100040E050E0AE17BF0750F412962D913C913A
:105420001397AD012115310509F1D901F3CF9D0184
:10543000DA013383228360817181860F971F82177F
:10544000930769F4EC0128813981260F371F2E5FFD
:105450003F4F318320838A819B8193838283452BB5
:1054600029F4F0931909E093180942C01396FC93AC
:10547000EE931297ED01499159919E01240F351F2A
:10548000E217F30771F480819181840F951F0296D2
:1054900011969C938E938281938113969C938E9305
:1054A0001297E0E0F0E0D80112968D919C9113974D
:1054B000009719F0F8018C01F6CF8D919C9198011D
:1054C0002E5F3F4F820F931F2091160930911709CD
:1054D0002817390769F4309729F4109219091092A6
:1054E000180902C01382128210931709009316093B
:1054F000DF91CF911F910F9108956F927F928F92BC
:105500009F92AF92BF92CF92DF92EF92FF920F9352
:105510001F93CF93DF93EC01009781F4CB01DF91D0
:10552000CF911F910F91FF90EF90DF90CF90BF90A0
:10553000AF909F908F907F906F90B2CEFC01E60F5E
:10554000F71F9C0122503109E217F30708F4A8C0A5
:10555000D9010D911C91119706171707A8F0053076
:10556000110508F49BC0C80104978617970708F433
:1055700095C002501109061B170B019311936D93EF
:105580007C93CF0122DF8AC05B01A01AB10A4C01D3
:10559000800E911EA0911809B091190940E050E0C9
:1055A000E12CF12C109709F44AC0A815B905D1F5E2
:1055B0006D907C901197630182E0C80ED11CCA14D3
:1055C000DB0480F1A3014A195B096A0182E0C80E7D
:1055D000D11C1296BC9012971396AC91B5E0CB16E5
:1055E000D10440F0B282A38351834083D9016D93EB
:1055F0007C930AC00E5F1F4FC301800F911FF901FA
:1056000091838083EB2DFA2FE114F10431F0D7015F
:105610001396FC93EE93129741C0F0931909E0930F
:1056200018093CC08D919C9111974817590708F4AF
:10563000AC017D0112960D90BC91A02DB3CF80914D
:1056400016099091170988159905E1F4461757072F
:10565000C8F48091060290910702009741F48DB73B
:105660009EB740910A0250910B02841B950BE817DC
:10567000F907B0F4F0931709E0931609F901718363
:1056800060830CC0CB010CDE7C01009749F0A801BF
:10569000BE0128D0CE0199DEC70104C0CE0102C0F0
:1056A00080E090E0DF91CF911F910F91FF90EF90FC
:1056B000DF90CF90BF90AF909F908F907F906F9032
:1056C000089581E090E0F89440C5FB01DC0104C03E
:1056D0008D910190801921F441505040C8F7881BEA
:1056E000990B0895FB01DC0102C001900D9241501D
:1056F0005040D8F708956817790768F4FB01DC017A
:10570000E40FF51FA40FB51F02C002900E92415086
:105710005040D8F70895E6CFFB01DC018D91019050
:1057200080190110D9F3990B0895FB01DC01019058
:105730000D920020E1F70895FB01DC01415050403B
:1057400030F08D910190801919F40020B9F7881B71
:10575000990B0895FB01DC014150504048F0019045
:105760000D920020C9F701C01D9241505040E0F752
:105770000895FB0151915523A9F0BF01DC014D9122
:1057800045174111E1F759F4CD010190002049F08E
:105790004D9140154111C9F3FB014111EFCF81E05B
:1057A00090E001970895EF920F931F93CF93DF93AB
:1057B000E80147FD02C034E001C034E1E42F440FAA
:1057C000FF0BF7FF03C0F195E195F109E32E022FDE
:1057D0002E2FAE01C4D0CE01DF91CF911F910F913A
:1057E000EF9008958F929F92AF92BF92CF92DF92E7
:1057F000EF92FF92CF93DF93EC01688179818A81E8
:105800009B81611571058105910521F464E279EDB3
:105810008BE597E02DE133EF41E050E039D44901C9
:105820005A019B01AC01A7EAB1E44ED46B017C01A3
:10583000ACEEB4EFA501940153D4DC01CB018C0D87
:105840009D1DAE1DBF1DB7FF03C00197A109B04844
:1058500088839983AA83BB83BC01CD019F77DF91A5
:10586000CF91FF90EF90DF90CF90BF90AF909F903F
:105870008F900895B7CF8CE092E0B4CF60930C0284
:1058800070930D0280930E0290930F0208951F9360
:10589000FC0199278827BC01E89411911032E9F3A3
:1058A000193010F01E30C8F31B3249F01D3241F49C
:1058B000689405C026D0610F711D811D911D119145
:1058C00010531A30B8F33EF4909580957095619519
:1058D0007F4F8F4F9F4F1F9108954532510518F408
:1058E000423008F004C0FB011082CB010895BB27B1
:1058F0004A3031F4992322F4BDE2909581959F4F6F
:1059000016C0592F482F372F262F660F771F881F55
:10591000991F660F771F881F991F620F731F841FBF
:10592000951F660F771F881F991F0895BB27FB01DE
:105930005527AA27880F991FAA1FA41710F0A41B88
:1059400083955051B9F7A05DAA3308F0A95DA193E2
:10595000009779F7B111B1931192CB016DC24F92BB
:105960005F926F927F929F92AF92BF92CF92DF929F
:10597000EF92FF920F931F93CF93DF93CDB7DEB7D4
:1059800029970FB6F894DEBF0FBECDBF6A01122F64
:10599000B02E2BE3201720F0FF24F394F00E02C06A
:1059A000BCE3FB2E0F2D27E0AE014F5F5F4F64D1AC
:1059B000AC018981982F9970913031F0E1FC06C0DB
:1059C000E0FE06C090E205C09DE203C09BE201C07C
:1059D00090E0EE2DE07183FF3CC0911102C083E0A6
:1059E00001C084E0811718F4212F281B01C020E09A
:1059F000E1110BC0F601822F30E2882319F03193B8
:105A00008150FBCFC20ED11C20E0992329F0D60192
:105A10009C93F60131966F01C6010396E2FE0AC01F
:105A20003EE4D6013C9341E411964C9311971296B3
:105A30003C9306C03EE6F601308341E64183328363
:105A4000FC01322F40E2332309F442C0419331502C
:105A5000FACF82FF44C0911102C083E001C084E00C
:105A6000811718F4212F281B01C020E0E1110BC081
:105A7000F601822F30E2882319F031938150FBCF59
:105A8000C20ED11C20E0992329F0D6019C93F60187
:105A900031966F01C6010396E2FE0BC039E4D601D0
:105AA0003C933EE411963C93119736E412963C9356
:105AB00007C039E6F60130833EE6318336E63283AD
:105AC000FC01322F40E2332319F041933150FBCFD8
:105AD000FC01E20FF11D10828EEF9FEFB7C0F1E0E5
