:1000000024C2000053C2000051C200004FC20000D1
:100010004DC200004BC2000049C2000047C20000B0
:1000200045C2000043C2000041C200003FC20000C0
:100030003DC200003BC2000039C2000037C20000D0
:1000400035C2000033C2000031C200002FC20000E0
:100050002DC200002BC2000029C200000C94D20E59
:1000600025C200000C94D20D0C94A90D1FC20000F3
:100070001DC200001BC2000019C2000017C2000010
:1000800015C2000013C2000011C200000FC2000020
:100090000C94800D0C94570D09C2000007C200009B
:1000A00005C2000003C2000001C20000FFC1000041
:1000B000FDC10000FBC10000F9C10000F7C1000054
:1000C000F5C10000F3C10000F1C10000EFC1000064
:1000D000EDC10000EBC10000E9C10000E7C1000074
:1000E000E5C10000961D9B1DA01DAC1DB81D451E41
:1000F000C41DCC1DD41DE01DEC1DF81D091E151ED0
:10010000451E211E2D1E391ED609D909C809CC0944
:10011000D209100ADD09E109E709EB09EF09F50940
:10012000F909FD09100A030A070A0B0A00000A0B65
:1001300002090C0D0E080703040100000000000076
:1001400000000000000000000000000000000000AF
:10015000000000000000000012111000000000006C
:10016000000000000000000000000000000000008F
:10017000000000002200250028002B002E00310086
:10018000340002010000050108010B01005EBCE221
:10019000613FDD83C29C7E20A3FD1F419DC3217F63
:1001A000FCA2401E5F01E3BD3E6082DC237D9FC157
:1001B000421CFEA0E1BF5D0380DE3C62BEE0025C4B
:1001C000DF81633D7C22C09E1D43A1FF4618FAA437
:1001D00027799BC584DA3866E5BB5907DB85673923
:1001E000BAE406581947A5FB7826C49A653BD98717
:1001F000045AB8E6A7F91B45C6987A24F8A6441A0B
:1002000099C7257B3A6486D85B05E7B98CD2306EF6
:10021000EDB3510F4E10F2AC2F7193CD114FADF3E2
:10022000702ECC92D38D6F31B2EC0E50AFF1134DD6
:10023000CE90722C6D33D18F0C52B0EE326C8ED0CA
:10024000530DEFB1F0AE4C1291CF2D73CA947628B6
:10025000ABF517490856B4EA6937D58B5709EBB5A2
:1002600036688AD495CB2977F4AA4816E9B7550B96
:1002700088D6346A2B7597C94A14F6A8742AC8968A
:10028000154BA9F7B6E80A54D7896B350000210051
:10029000240027002A002D00300033000101000057
:1002A000040107010A0100002000230026002900A4
:1002B0002C002F003200000100000301060109019B
:1002C00005050505070508080808020202020A0AD2
:1002D00008080404040401010101010101010303F0
:1002E000030303030303040707070C0C0C0C0C0C9B
:1002F0000C0C0202020206060606060606060B0B98
:100300000B0B0B0B0B0B01021020200808102040D8
:1003100010204080020102010804020101020408C9
:100320001020408080402010080402018004020157
:1003300080402010080402010804020101020408A0
:1003400010204080010204081020408000407A10F4
:10035000F35A00A0724E18090010A5D4E80000E876
:100360007648170000E40B54020000CA9A3B0000D4
:1003700000E1F505000080969800000040420F0063
:100380000000A08601000000102700000000E80324
:10039000000000006400000000000A0000000000EF
:1003A0000100000000002C76D888DC674F0823DFAE
:1003B000C1DFAE59E1B1B796E5E3E453C63AE65181
:1003C000997696E8E6C28426EB898C9B62ED407CA8
:1003D0006FFCEFBC9C9F40F2BAA56FA5F490055A44
:1003E0002AF75C936B6CF9676DC11BFCE0E40D4769
:1003F000FEF520E6B500D0ED902E0300943577058C
:100400000080841E080000204E0A000000C80C3343
:100410003333330F986E12831141EF8D2114893BD2
:10042000E65516CFFEE6DB18D1844B381BF77C1D52
:10043000901DA4BBE424203284725E228100C9F1A5
:1004400024ECA1E53D271322BD2111241FBECFEFCF
:10045000D1E2DEBFCDBF00E00CBF13E0A0E0B2E010
:10046000EAE4F6E500E00BBF02C007900D92A2326D
:10047000B107D9F728E0A2E2B3E001C01D92A03C89
:10048000B207E1F712E0C4E2D2E000E006C0219733
:100490000109802FFE010E94EC23C332D10780E0C6
:1004A0000807A9F70E9419170C94142BA9CDFC0179
:1004B000818D928D0895FC0184899589089528E89D
:1004C00032E0FC0131832083FB014089518962893C
:1004D0007389FC0142835383648375830895DC012F
:1004E000ED91FC91008CF18DE02D1994CF93DF9369
:1004F000EC01888D843061F00E94BB11E88DF0E042
:10050000EE0FFF1FEE5AFA4F1182108284E0888F9F
:10051000DF91CF9108959B0190E00496982F882752
:10052000642F820F931F0C949E1190E00496982FD5
:100530008827860F971F0C94460F08958CBD9DBD8C
:100540000895CF93FC01C08D80E590E0F7DF60E275
:1005500070E08C2F0E947F1562E070E08C2FE5DF49
:1005600084FD12C062E070E08C2FDFDF83FF08C0E3
:1005700048E162E070E08C2FCEDF80E090E00BC0BD
:1005800080E590E0DBDFE8CF40E162E070E08C2FB7
:10059000C2DF81E090E0CF910895EF92FF921F9328
:1005A000CF93DF93EB017A01FC01178A168A108D35
:1005B0008A81811109C08B81811106C08C818111D2
:1005C00003C08D81882301F1E114F104E9F080E595
:1005D00090E0B4DFBE016E5F7F4F812F90E0982FD7
:1005E000882744E050E0845F9B4F0E94600F4F2DAE
:1005F00060E170E0812F8FDF4E2D61E170E0812F8F
:100600008ADF81E090E002C080E090E0DF91CF914E
:100610001F91FF90EF900895EF92FF921F93CF9359
:10062000DF93FC01208D243011F080E021C07B019C
:10063000EC0110E080E590E081DF63E070E0812F65
:1006400074DF811102C0188F06C08B7F8831D9F307
:100650001F5F143079F7888D843039F3FD86EC867E
:100660001A8E198E20E0A70162E00E94CE1181E06F
:10067000DF91CF911F91FF90EF9008954F925F927D
:100680006F927F928F929F92AF92BF92CF92DF92A2
:10069000EF92FF920F931F93CF93DF93CDB7DEB707
:1006A000EE970FB6F894DEBF0FBECDBF5C018B0195
:1006B0004A0188E892E09A8389831C861B8648EE6B
:1006C00053E060E070E04D875E876F87788B20EDA8
:1006D00032E03A872987988F8F8B198E1A8E1B8E5E
:1006E0001C8E24E029A399AB88AB1AAA1BAA1CAACA
:1006F0001DAA8091B2069091B306A091B406B09164
:10070000B5068EA39FA3A8A7B9A78B839C83AD83AF
:10071000BE8318861F82F80120E080E090E06AE046
:100720003191332319F140ED430F4A3080F4689F33
:10073000A001699F500D1124CA01C097830F911D1C
:1007400037FD9A958F3F910559F350F32BC03E32F8
:1007500049F5233039F1A2E3B0E0AC0FBD1FA20F81
:10076000B11D8C932F5F80E090E0DACF2330D1F47D
:100770008DABD501ED91FC910088F189E02D88E8E1
:1007800092E09DA38CA38AA99BA9ACA9BDA98EA325
:100790009FA3A8A7B9A7A401BE016C5D7F4FC501A7
:1007A00019952CC24B815C816D817E818091BA0646
:1007B0009091BB06A091BC06B091BD0648175907A1
:1007C0006A077B0709F418C20E94C60E6F7077276C
:1007D0007C5FCE01099620DF813009F00AC288E8EB
:1007E00092E09DA38CA38B819C81AD81BE818EA361
:1007F0009FA3A8A7B9A745E350E0BE016C5D7F4F5A
:10080000CE010996CADE892B19F400E010E07DC103
:100810000E94C60E78876F837627672776277DA389
:100820006CA342E050E0BE016C5D7F4FCE010996A3
:100830000E94891081E090E09FAB8EAB42E050E0D7
:10084000BE016A5C7F4FCE0109960E94891080E04C
:1008500091E09FAB8EAB42E050E0BE016A5C7F4FFF
:10086000CE0109960E9489101FAA1EAA42E050E0FC
:10087000BE016A5C7F4FCE0109960E94891042E05A
:1008800050E0BE016A5C7F4FCE0109960E9489103C
:1008900042E050E0BE016A5C7F4FCE0109960E94A3
:1008A00089107801D7018C91882319F1F8017F0113
:1008B0008191811117C06701C01AD10A1C141D044F
:1008C000A4F4C8AE41E050E0BE01685C7F4FCE01A9
:1008D00009960E948910A601B801CE0109960E94CE
:1008E000891003C08E3219F7E6CF87010F5F1F4FC3
:1008F000D9CF18AE41E050E0BE01685C7F4FCE0119
:1009000009960E94891000E011E01FAB0EAB42E097
:1009100050E0BE016A5C7F4FCE0109960E948910AB
:100920001FAB0EAB42E050E0BE016A5C7F4FCE01D0
:1009300009960E948910CE01099603DE892B09F4DD
:1009400064CF63E0E62EF12C0E94C60E2B013C0121
:10095000CE0109960E94201118161906A4F00E94D3
:10096000C60EDC01CB0184199509A609B70989389F
:100970009341A105B105C8F462E370E080E090E026
:100980000E948E0EE5CF4B815C816D817E81898DC9
:100990009A8DAB8DBC8D481759076A077B0741F4C8
:1009A0008D8D9E8DC59721F406C02FEF3FEFA4C01B
:1009B0002EEF3FEFA1C08AA19BA10C970CF4B1C010
:1009C0004CE050E0BE016C5D7F4FCE0109960E9465
:1009D0001F108EA190E0982F88272FA1822B9BAF0C
:1009E0008AAF2CA130E0322F22274DA1242B4F813A
:1009F00058854217530709F091C097FF8FC08F7039
:100A00009270892B09F0F2C00AA510E0102F002780
:100A10008BA5082B0115110509F4E5C0C12CD12CBB
:100A200088A590E0982F882729A5822BC816D9067B
:100A300008F47AC0C12CD12C41E050E0BE01645CC6
:100A40007F4FCE0109960E941F108CAD982F907C8D
:100A500009F0A4C0811196C08CAD8111EDCF42E0A8
:100A600050E0BE01685C7F4FCE0109960E941F10C6
:100A700042E050E0BE016A5C7F4FCE0109960E94C1
:100A80001F10CE0109960E943D10CE0109960E94CA
:100A90003D10CE0109960E943D10CE0109960E949C
:100AA0003D1042E050E0BE01665C7F4FCE010996EA
:100AB0000E941F1088AD99AD8115914009F074C056
:100AC0002EA93FA93227232732272130310509F0EB
:100AD0006BC08AAD9BAD8115944009F081C044E0A4
:100AE00050E0BE016E5C7F4FCE0109962DAF3EAF48
:100AF0000E941F102DAD3EAD8901B1E0EB1AF10847
:100B000021F02F3F3F4F09F41FCFCE010996EEDCB5
:100B10000130110509F42DCEC80170C02CEF3FEF54
:100B2000EBCF2DEF3FEFE8CF41E050E0BE016A5C34
:100B30007F4FCE0109960E941F108EA9811117C008
:100B40008EA98111F1CFCE0109960E943D10CE01F0
:100B500009960E943D10CE0109960E943D10CE01DB
:100B600009960E943D10FFEFCF1ADF0A59CF8EA9D8
:100B70009FEF980F9EAB882319F3CE0109960E9430
:100B80003D10F5CF8CAD9FEF980F9CAF882309F4F3
:100B900063CFCE0109960E943D10F4CFCE01099695
:100BA0000E943D101CAE58CF612C712C8AAD9BADBC
:100BB0009827892798276816790640F4CE01099668
:100BC0000E943D108FEF681A780AF0CFAFEFCA1A73
:100BD000DA0AC016D10609F02FCF26EF3FEF8CCFEF
:100BE00027EF3FEF89CF2AEF3FEF86CF2BEF3FEF85
:100BF00083CF80E090E002C08EEF9FEFEE960FB6BD
:100C0000F894DEBF0FBECDBFDF91CF911F910F9142
:100C1000FF90EF90DF90CF90BF90AF909F908F901C
:100C20007F906F905F904F900895FC0190810180BC
:100C3000F281E02DF8948181892B81832281892F93
:100C4000809528232283A7E0B0E01197F1F7218156
:100C500082238183A3E2B0E01197F1F78081789439
:100C6000EFECF0E03197F1F7982381E009F480E0B0
:100C70000895FC0190810180F281E02D892F8095FB
:100C800060FF12C0F8942281822382838181892BA4
:100C90008183A3E2B0E01197F1F78281982B9283D0
:100CA000789487ED90E011C0F894228182238283AA
:100CB0008181892B8183AFEFB0E01197F1F78281B9
:100CC000982B928378948FE090E00197F1F7089544
:100CD000CF92DF92EF92FF920F931F93CF93DF9308
:100CE0001F92CDB7DEB76C01E62E08E010E0FF24BE
:100CF000F39461E08F2D8E2109F460E0C6014983F1
:100D0000B8DFFF0C0150110949810115110589F760
:100D1000411115C0F894D6011196ED91FC911297EE
:100D200091818C918095892381831196ED91FC911D
:100D3000129792818C9180958923828378940F9069
:100D4000DF91CF911F910F91FF90EF90DF90CF90A7
:100D50000895CF92DF92EF92FF920F931F93CF935C
:100D6000DF931F92CDB7DEB78C01F62E40E065E52C
:100D70007983AEDFCF2C7981D72E760188E0E80E1B
:100D8000F11CF60161916F0140E0C801A1DFCE14B2
:100D9000DF04B9F70F90DF91CF911F910F91FF9072
:100DA000EF90DF90CF900895FC0190810180F28157
:100DB000E02DF8948181292F2095822381837894D6
:100DC0008DE743E050E0815021F1DA011197F1F70E
:100DD00030813923C1F3F894828182238283818117
:100DE000892B81837894ABECB7E01197F1F7F894F5
:100DF000818128232183ABE3B1E01197F1F7808152
:100E0000982381E009F080E07894EBE8F6E03197F0
:100E1000F1F70895EF92FF920F931F93CF93DF9313
:100E200000D000D0CDB7DEB77C016EE378E0CE0114
:100E30000196DDD56AE478E0CE01019605D56DEF27
:100E400072E0EBD4B70100D5BC01C70123D5CE01B8
:100E500001966ED588E892E09A838983809188080C
:100E600090918908A0918A08B0918B088B839C830C
:100E7000AD83BE8343E059EDBE016F5F7F4F80E5D8
:100E800098E08BDBD70114960D911C9115970115F5
:100E9000110519F41092EE0411C00336110510F07B
:100EA00003E610E0F70160817181A8018EEE94E005
:100EB0000E94A926F801E251FB4F1082E0915008F0
:100EC000F0915108D70114964D915C9115970280CD
:100ED000F381E02D6EEE74E080E598E0199580E5F1
:100EE00098E02FDB61E088E0AED6B701CE01019635
:100EF0007ED56FEF72E0CE0101968FD4FC01448164
:100F000055816081718186E795E0F6D0CE0101962A
:100F10000FD56AE070E080E090E000D760E088E004
:100F200092D626960FB6F894DEBF0FBECDBFDF91E6
:100F3000CF911F910F91FF90EF900895CF93DF9382
:100F4000CDB7DEB762970FB6F894DEBF0FBECDBF48
:100F50004AE0BC01CE0107961FD568E378E0CE01D8
:100F6000019645D5BE01695F7F4FCE0101966CD4D5
:100F700061E073E052D4BC01CE010D9638D5CE01AC
:100F80000D9648DFCE010D96D3D4CE010196D0D474
:100F9000CE010796CDD462960FB6F894DEBF0FBE91
:100FA000CDBFDF91CF910895CF93DF93CDB7DEB75B
:100FB00062970FB6F894DEBF0FBECDBF4AE0BC010A
:100FC000CE010796E9D468E378E0CE0101960FD50B
:100FD000BE01695F7F4FCE01019636D464E073E0B5
:100FE0001CD4BC01CE010D9602D5CE010D9612DFA8
:100FF000CE010D969DD4CE0101969AD4CE010796CE
:1010000097D462960FB6F894DEBF0FBECDBFDF91C6
:10101000CF910895CF92DF92EF92FF920F931F939B
:10102000CF93DF93CDB7DEB72F970FB6F894DEBF1F
:101030000FBECDBF7C016B0160E073E0E0D48601A0
:1010400088E0C80ED11CF80181918F011B861A8699
:101050001D861C861F861E8640E1BE016F5F7F4F86
:1010600090E00E944027BE016F5F7F4FCE010A963D
:10107000FCD34E855F856A857B85C701A1D3CE01F0
:101080000A9656D40C151D05F1F6C7012F960FB61A
:10109000F894DEBF0FBECDBFDF91CF911F910F91AE
:1010A000FF90EF90DF90CF9008950F931F93CF9311
:1010B000DF93EC016BD6088119812A813B81DC0129
:1010C000CB01801B910BA20BB30B0C811D812E81D8
:1010D0003F8180179107A207B30738F057D668837E
:1010E00079838A839B8381E001C080E0DF91CF9187
:1010F0001F910F9108950895CF92DF92EF92FF9282
:101100000F931F93CF93DF936C017A018B01C0E0A3
:10111000D0E0CE15DF0589F0D8016D918D01D601A3
:10112000ED91FC910190F081E02DC6011995892B7C
:1011300011F47E0102C02196ECCFC701DF91CF915F
:101140001F910F91FF90EF90DF90CF900895FC01D9
:10115000A089B1898C91A689B78982FD0FC09C9125
:10116000818D8F5F8F73228D821749F0218DDF0172
:10117000A20FB11D5D969C93818F08958C91089567
:10118000FC01918D828D981761F0828DDF01A80F8F
:10119000B11D5D968C91928D9F5F9F73928F90E0B1
:1011A00008958FEF9FEF0895FC01918D828D981720
:1011B00031F0828DE80FF11D858D90E008958FEF5D
:1011C0009FEF0895FC01918D228D892F90E0805C26
:1011D0009F4F821B91098F739927089586E795E0A9
:1011E000F1DF21E0892B09F420E0822F089583E1CB
:1011F00096E0E8DF21E0892B09F420E0822F0895B2
:10120000FC01848DDF01A80FB11DA35ABF4F2C91A3
:10121000848D90E001968F739927848FA689B78972
:101220002C93A089B1898C9180648C93938D848D4B
:10123000981306C00288F389E02D80818F7D80831A
:101240000895EF92FF920F931F93CF93DF93EC01DA
:1012500081E0888F9B8D8C8D981305C0E889F98972
:10126000808185FD23C0F62E0B8D10E00F5F1F4F90
:101270000F731127E02E8C8DE8120BC00FB607FC00
:10128000FACFE889F989808185FFF5CFCE01B8DFF3
:10129000F2CF8B8DFE01E80FF11DE35AFF4FF08274
:1012A0000B8FEA89FB898081806207C0EE89FF8904
:1012B0006083E889F98980818064808381E090E09F
:1012C000DF91CF911F910F91FF90EF900895CF93F1
:1012D000DF93EC01888D8823C1F0EA89FB89808146
:1012E00085FD05C0A889B9898C9186FD0EC00FB611
:1012F00007FCF5CF808185FFF2CFA889B9898C9151
:1013000085FFEDCFCE017CDFE8CFDF91CF9108954F
:1013100080E090E0892B19F06ADF811120C080E025
:1013200090E0892B19F05ADF81111CC080E090E019
:10133000892B41F080E090E0892B21F00E94000091
:10134000811113C080E090E0892BA1F080E090E053
:10135000892B81F00E94000081110AC008950E942B
:101360000000DDCF0E940000E1CF0E940000EACF24
:101370000C940000089590E0FC013197E231F105F2
:1013800008F04EC08827EC57FF4F8F4F0C94EC238A
:10139000809180008F7703C0809180008F7D809343
:1013A0008000089580918000877FF9CF84B58F7782
:1013B00002C084B58F7D84BD08958091B0008F7781
:1013C00003C08091B0008F7D8093B000089580911C
:1013D00090008F7707C0809190008F7D03C080912F
:1013E0009000877F8093900008958091A0008F7770
:1013F00007C08091A0008F7D03C08091A000877FEF
:101400008093A0000895809120018F7707C080917C
:1014100020018F7D03C080912001877F8093200170
:1014200008953FB7F89480915F0590916005A09171
:101430006105B091620526B5A89B05C02F3F19F044
:101440000196A11DB11D3FBFBA2FA92F982F882744
:10145000820F911DA11DB11DBC01CD0142E0660F9F
:10146000771F881F991F4A95D1F708950E946D260E
:101470004F925F926F927F92EF92FF920F931F9322
:10148000CF93DF93CDB7DEB7A1970FB6F894DEBF49
:101490000FBECDBF7C01FA01CB0119A2223008F4A6
:1014A0002AE08E010F5D1F4F422E512C612C712CB2
:1014B000BF01A30192010E94F22AF901CA01015061
:1014C00011096A3014F4605D01C0695CD8016C9345
:1014D000232B242B252B61F70115110591F0F80121
:1014E00001900020E9F73197AF01401B510BD70164
:1014F000ED91FC910280F381E02DB801C7011995AF
:1015000002C080E090E0A1960FB6F894DEBF0FBE57
:10151000CDBFDF91CF911F910F91FF90EF907F9002
:101520006F905F904F900895CF93DF93EC01888187
:101530009981009711F00E94F124198218821D826E
:101540001C821B821A82DF91CF9108950F931F9303
:10155000CF93DF93EC0188819981009729F02A814C
:101560003B812617370788F48B016F5F7F4F0E94FE
:101570008925009761F0998388831B830A832C81D6
:101580003D81232B11F4FC01108281E001C080E039
:10159000DF91CF911F910F910895EF92FF920F93DA
:1015A0001F93CF93DF93EC017B018A01BA01CEDF59
:1015B000811103C0CE01B8DF07C01D830C83B701C2
:1015C000888199810E949426CE01DF91CF911F914D
:1015D0000F91FF90EF9008958F929F92AF92BF92DC
:1015E000CF92DF92EF92FF920F931F93CF93DF93EF
:1015F0007C01EB016C0182E0C80ED11C4701E5E0E3
:101600008E0E911C00E010E0F60141916F0150E058
:1016100060E070E02AE0CE012BDF5C01E881F98117
:101620000190F081E02D6EE2CE0119958A0D9B1D8F
:10163000080F191FC814D90439F7F701458150E084
:1016400060E070E02AE0CE0113DF800F911FDF9190
:10165000CF911F910F91FF90EF90DF90CF90BF90AF
:10166000AF909F908F900895AF92BF92CF92DF92EC
:10167000EF92FF920F931F93CF93DF93DC01CD90F6
:10168000DC901197C114D10409F442C01496CD9195
:10169000DC9115972097E1F18C0156017501BFEFA0
:1016A000AB1ABB0AF7018081082E000C990B0E942F
:1016B000BE29892B99F72197CC0DDD1D8881082E35
:1016C000000C990B0E94BE29892B91F4AE014F5F4B
:1016D0005F4F4E195F09D80115965C934E9314978E
:1016E000CE14DF0450F4B701C6010E94712605C074
:1016F000CE15DF0558F32197E1CFD801ED91FC918C
:10170000119714968D919C911597E80FF91F1082EF
:10171000DF91CF911F910F91FF90EF90DF90CF90CD
:10172000BF90AF900895FB0144815581FC01248155
:1017300035812417350778F080819181009759F021
:10174000FB01608171816115710529F00E949B2662
:1017500021E0892B09F020E0822F0895FC012481EB
:101760003581FB01448155812417350721F5FC01A2
:1017700080819181FB0160817181009719F0611571
:101780007105A1F46115710549F0232BB1F0FB013E
:10179000808190E09195819591090AC0009769F048
:1017A000232B59F0FC01808190E002C00E948B261F
:1017B00021E0892B19F020E001C021E0822F08955B
:1017C000EF92FF920F931F93CF93DF93FC0124813D
:1017D00035816115710511F480E018C0411551057E
:1017E000A1F07B01EC018A01020F131FB801AEDEEC
:1017F000882391F3288139818C819D81B701820FE3
:10180000931F0E9494261D830C8381E0DF91CF916A
:101810001F910F91FF90EF900895CF93DF93EC010C
:101820006115710559F0FB0101900020E9F731972E
:10183000AF01461B570BC4DF811102C0CE0174DE1D
:10184000CE01DF91CF910895CF93DF93EC01FB019F
:101850004481558160817181B3DF811102C0CE0165
:1018600063DECE01DF91CF910895CF93DF93EC013A
:101870006115710551F0FB0101900020E9F73197E6
:10188000AF01461B570B89DE01C04EDECE01DF9152
:10189000CF910895CF93DF93EC01FB018617970753
:1018A00051F0608171816115710521F0448155818C
:1018B00074DE01C039DECE01DF91CF9108950F9320
:1018C0001F93CF93DF938C01EB01FC018081918109
:1018D0000097B1F0688179816115710579F04281D5
:1018E00053812C813D814217530740F00E9494267A
:1018F0008C819D81F8019583848313C00E94F1241B
:1019000088819981F801918380838A819B81938367
:1019100082838C819D8195838483198218821B82A6
:101920001A821D821C82DF91CF911F910F91089521
:10193000FC01808191810C94F124EF92FF920F932E
:101940001F93CF93DF93CDB7DEB7A1970FB6F8946F
:10195000DEBF0FBECDBF7C01CB01BA01F701118202
:101960001082138212821582148242E0420F8E018D
:101970000F5F1F4F0E94D226BC01C70176DFA196E0
:101980000FB6F894DEBF0FBECDBFDF91CF911F9190
:101990000F91FF90EF9008950F931F93CF93DF93D4
:1019A000CDB7DEB762970FB6F894DEBF0FBECDBFDE
:1019B0008C01CB01F80111821082138212821582F0
:1019C000148250E0BE016F5F7F4F0E941727BE0157
:1019D0006F5F7F4FC80149DF62960FB6F894DEBF94
:1019E0000FBECDBFDF91CF911F910F910895FC01E4
:1019F0001182108213821282158214824BCFFC0155
:101A0000118210821382128215821482611571056F
:101A100049F0FB0101900020E9F73197AF01461B27
:101A2000570BBBCD0895BF92CF92DF92EF92FF92FA
:101A30000F931F93CF93DF937C016B018A01E90120
:101A40002417350720F4812F8901C42FD82F60E097
:101A500073E0C701D4DFD60114968D919C91159740
:101A600008171907C8F48C179D0708F4EC01D60174
:101A7000ED91FC911197EC0FFD1FB08010824D91FC
:101A80005C91BA01600F711FC701EFDED601ED91C5
:101A9000FC91EC0FFD1FB082C701DF91CF911F9128
:101AA0000F91FF90EF90DF90CF90BF9008951F921D
:101AB0000F920FB60F9211240BB60F922F933F93F4
:101AC0004F935F936F937F938F939F93AF93BF9346
:101AD000EF93FF9386E795E093DBFF91EF91BF9142
:101AE000AF919F918F917F916F915F914F913F91B6
:101AF0002F910F900BBE0F900FBE0F901F90189557
:101B00001F920F920FB60F9211240BB60F922F93C4
:101B10003F934F935F936F937F938F939F93AF9375
:101B2000BF93EF93FF9386E795E011DBFF91EF9171
:101B3000BF91AF919F918F917F916F915F914F91E5
:101B40003F912F910F900BBE0F900FBE0F901F90E3
:101B500018951F920F920FB60F9211240BB60F9289
:101B60002F933F934F935F936F937F938F939F93A5
:101B7000AF93BF93EF93FF9383E196E041DBFF9137
:101B8000EF91BF91AF919F918F917F916F915F91F5
:101B90004F913F912F910F900BBE0F900FBE0F9062
:101BA0001F9018951F920F920FB60F9211240BB62B
:101BB0000F922F933F934F935F936F937F938F93E6
:101BC0009F93AF93BF93EF93FF9383E196E0BFDAC8
:101BD000FF91EF91BF91AF919F918F917F916F9105
:101BE0005F914F913F912F910F900BBE0F900FBEC1
:101BF0000F901F901895CF93DF93282F30E0F901B5
:101C0000E45DFE4F8491F901EA5FFC4FD491F90144
:101C1000E054FD4FC491CC2389F08111ACDBEC2F53
:101C2000F0E0EE0FFF1FEA55FD4FA591B491EC9146
:101C3000ED2381E090E021F480E002C080E090E0BC
:101C4000DF91CF9108951F93CF93DF93282F30E03A
:101C5000F901E45DFE4F8491F901EA5FFC4FD491F4
:101C6000F901E054FD4FC491CC23C1F0162F81112E
:101C700082DBEC2FF0E0EE0FFF1FEE58FE4FA59138
:101C8000B4918FB7F894111105C09C91ED2FE09598
:101C9000E92302C0EC91ED2BEC938FBFDF91CF9144
:101CA0001F910895CF93DF9390E0FC01EA5FFC4F12
:101CB0002491FC01E054FD4F8491882361F190E070
:101CC000880F991FFC01E457FD4FC591D491FC0189
:101CD000EE58FE4FA591B491611109C09FB7F894D9
:101CE0008881209582238883EC912E230BC062305B
:101CF00061F49FB7F8943881822F8095832388837D
:101D0000EC912E2B2C939FBF06C08FB7F894E881DF
:101D10002E2B28838FBFDF91CF9108958F929F92B2
:101D2000AF92BF92CF92DF92EF92FF926B017C0154
:101D300078DB4B015C01C114D104E104F104E9F04A
:101D400070DBDC01CB0188199909AA09BB09883E1F
:101D50009340A105B10578F321E0C21AD108E1084A
:101D6000F10888EE880E83E0981EA11CB11CC114F6
:101D7000D104E104F10421F7DECFFF90EF90DF9072
:101D8000CF90BF90AF909F908F9008952FB7F89409
:101D900060915B0570915C0580915D0590915E0599
:101DA0002FBF08951F920F920FB60F9211242F93F9
:101DB0003F938F939F93AF93BF9380915B059091D7
:101DC0005C05A0915D05B0915E0530915A0523E058
:101DD000230F2D3720F40196A11DB11D05C026E863
:101DE000230F0296A11DB11D20935A0580935B0518
:101DF00090935C05A0935D05B0935E0580915F05AF
:101E000090916005A0916105B09162050196A11DB8
:101E1000B11D80935F0590936005A0936105B09319
:101E20006205BF91AF919F918F913F912F910F903C
:101E30000FBE0F901F901895CF92DF92EF92FF92F6
:101E40000F931F93CF93DF93EC017A018B016C0109
:101E5000C40ED51ECC15DD0579F067D28FE067D2B0
:101E60008D2F65D28C2F63D2219680E060D2F8014D
:101E700081938F0158D2EECFC701DF91CF911F918F
:101E80000F91FF90EF90DF90CF9008951F93CF9325
:101E9000DF931F92CDB7DEB7182F998346D28FE01C
:101EA00046D29981892F43D2812F41D280E03FD2FF
:101EB000898339D289810F90DF91CF911F91089545
:101EC000CF92DF92EF92FF920F931F93CF93DF9306
:101ED000EC017A018B016C01C40ED51ECC15DD0519
:101EE00071F023D280EF23D28D2F21D28C2F1FD2DD
:101EF0002196F80181918F011AD215D2EFCFC70137
:101F0000DF91CF911F910F91FF90EF90DF90CF90D5
:101F100008950895CF93DF931F92CDB7DEB76983FD
:101F2000DC01ED91FC910280F381E02D41E050E075
:101F3000BE016F5F7F4F19950F90DF91CF9108958C
:101F40001F93CF93DF93182F66E270E00E949502F3
:101F5000C82FD0E067E270E0812F0E949502DC2F4D
:101F6000CC279E01282BC901DF91CF911F910895A5
:101F70001F93CF93DF93182F60E270E00E949502C9
:101F8000C82FD0E061E270E0812F0E949502DC2F23
:101F9000CC279E01282BC901DF91CF911F91089575
:101FA000AF92BF92CF92DF92EF92FF921F93CF93A7
:101FB000DF93182F5B017A0180E590E00E949E027A
:101FC000C0E0D0E0812FBCDF6C01892B19F0812F9C
:101FD000B7DFEC01CC15DD05A9F7209799F463E094
:101FE00070E0812F0E9495028431E1F08823D1F0C6
:101FF000C1E0D0E08C3111F4C0E0D0E0D195C195C2
:10200000D10910C0EC16FD060CF4E7011C161D06E4
:102010004CF420E0AE01B501812F0BD560E470E0F7
:10202000812F6DD50E949D02CE01DF91CF911F912E
:10203000FF90EF90DF90CF90BF90AF900895CF9337
:10204000DF93FC01218D328D2115310519F48FEFBD
:102050009FEF10C0EC014217530708F0A901888DCB
:102060009FDF181619069CF7298D3A8D281B390B0E
:102070003A8F298FDF91CF9108950F931F93CF93BC
:10208000DF931F92CDB7DEB7FC01218D328D232B5C
:1020900059F08C0141E050E0BE016F5F7F4F808DB1
:1020A0007FDF181619061CF08FEF9FEF08C0F801AC
:1020B000818D928D0197928F818F898190E00F9011
:1020C000DF91CF911F910F9108951F93CF93DF93CD
:1020D0001F92CDB7DEB7FC01218D328D232B91F0FD
:1020E000108D80E590E00E949E0221E041E050E0EA
:1020F000BE016F5F7F4F812F9CD40E949D0289811A
:1021000090E002C08FEF9FEF0F90DF91CF911F9172
:1021100008957F928F929F92AF92BF92CF92DF925B
:10212000EF92FF920F931F93CF93DF935C014B01CC
:102130006A01FC0106891789708C80E590E00E9495
:102140009E02C0E0D0E0872D13DF7C01892B19F0BF
:10215000872D0EDFEC01CE15DF05A9F7CC15DD05C7
:1021600068F4C0E0D0E0872D03DF6C01892B19F003
:10217000872DFEDEEC01CC15DD05A9F764E270E0E9
:10218000872D0E949502E82EF12C65E270E0872DE4
:102190000E949502FE2CEE24E82AE701C00FD11F11
:1021A0009E013770E72CF12CC701880F991FAC01F5
:1021B0004A595A4F7A01FA0180819181820F931F07
:1021C000A9014C0D5D1D4130584088F000E018E039
:1021D000021B130BA801B40173DEA601401B510BB7
:1021E000B401600F711FF7018081918102C0A601C7
:1021F000B40166DECC0DDD1D4D2F64E270E0872D4D
:102200000E948B024C2F65E270E0872D0E948B02AA
:102210000E949D02F501868997898C0D9D1D978BE3
:10222000868BC601DF91CF911F910F91FF90EF90A8
:10223000DF90CF90BF90AF909F908F907F90089548
:10224000BF92CF92DF92EF92FF920F931F93CF93A3
:10225000DF93CDB7DEB728970FB6F894DEBF0FBE79
:10226000CDBF8C01F801818D928D892B49F0D80169
:10227000ED91FC910680F781E02DC8011995F2CF10
:10228000B08C80E590E00E949E02E12CF12C8B2D19
:1022900057DE6C01892B19F08B2D52DE7C01EC147A
:1022A000FD04A9F70E949D021E141F0454F548E086
:1022B00050E0BE016F5F7F4FD80158968C9170DE61
:1022C0009C0118161906DCF489819A81AB81BC81C6
:1022D000F801808B918BA28BB38B8D8190E0982F2E
:1022E00088272E81820F911D958B848B2F8130E062
:1022F000322F22278885280F311D328F218FC90167
:1023000002C080E090E028960FB6F894DEBF0FBEC2
:10231000CDBFDF91CF911F910F91FF90EF90DF9094
:10232000CF90BF9008952C9A08952C9808958EBD53
:1023300000000DB407FEFDCF8EB508951F93CF9317
:10234000DF931F921F92CDB7DEB7182F6A83998350
:10235000ECDF80EFECDF9981892FE9DF812FE7DF68
:102360006A81862FE4DFDFDF81E00F900F90DF913D
:10237000CF911F910895CF93C82F80E590E00E94E0
:102380009E0260E170E08C2FBAD34FEF62E070E004
:102390008C2F0E948B02CF910C949D02FF920F9381
:1023A0001F93CF93DF931F921F92CDB7DEB7F82E06
:1023B0008A012A836983DFDF80E590E00E949E0224
:1023C0002A816981462F422B60E070E08F2D0E94A8
:1023D0008B020115110551F40091630510916405FC
:1023E0000F5F1F4F1093640500936305412F64E056
:1023F00070E08F2D0E948B02402F65E070E08F2DE2
:102400000E948B0261E070E08F2D79D30E949D02C3
:1024100081E00F900F90DF91CF911F910F91FF906E
:102420000895BF92CF92DF92EF92FF920F931F9386
:10243000CF93DF9300D000D0CDB7DEB7FC01208D65
:10244000243009F05BC06A017B018C01B12C63E090
:1024500070E08B2D0E949502811103C0F801B08EAF
:1024600007C08B7F8831D1F3B394F4E0BF12EFCF74
:10247000F801808D843009F441C096E0EEE6F2E088
:10248000DE01119601900D929A95E1F7F701938183
:102490009F779C8394819D8395819E83B7016E5F16
:1024A0007F4F90E0982F882744E050E0845F9B4F57
:1024B00007DDF801F08C4D2D60E170E08F2D0E945A
:1024C0008B024C2D61E170E08F2D0E948B02F80190
:1024D000808D90E0982F882746E050E0BE016F5F26
:1024E0007F4F8A5F9B4FECDCF801128E118E20E843
:1024F000A60162E0808D52DF81E001C080E0269677
:102500000FB6F894DEBF0FBECDBFDF91CF911F9104
:102510000F91FF90EF90DF90CF90BF900895CF92F2
:10252000DF92EF92FF920F931F93CF93DF93CDB77C
:10253000DEB7C254D1090FB6F894DEBF0FBECDBFCF
:10254000FC0182819381A481B58123968CAF9DAFDC
:10255000AEAFBFAF239721E023962FAF23972396EB
:102560004CAD5DAD6EAD7FAD23974BAB5CAB6DAB52
:102570007EAB89AF9AAFABAFBCAF8DA79EA7AFA71D
:10258000B8AB28AB4DA55EA56FA578A94FA358A7FA
:1025900069A77AA72EAB4BA95CA96DA97EA949A30F
:1025A0005AA36BA37CA38B8F9C8FAD8FBE8F48E803
:1025B00052E05C8B4B8B3FEF3D8B3E8B3F8B188EFD
:1025C0005E874D872AA7CFA0D8A4E9A4FAA4CF8616
:1025D000D88AE98AFA8A2CA309A11AA12BA13CA1C5
:1025E00009871A872B873C875A8349838B839C836F
:1025F000AD83BE836CE271E080E090E08FDB1FB7BB
:10260000F89480916505811123C0E5EFF2E0849193
:10261000EBE3F3E09491E82FF0E0EE0FFF1FE457B7
:10262000FD4FA591B491EC91E92319F461E085E3A4
:102630000ADB61E085E336DB8CB580618CBD8CB54F
:1026400080648CBD61E084E32DDB61E083E32ADB01
:10265000809165058F5F809365051FBF249A80E593
:1026600090E00E949E0260E880E090E067DE65E511
:102670008BE190E063DE65E58AE190E05FDE0E9439
:102680009D0280E090E4909367058093660580E06A
:1026900090E690936F0580936E0580E098E49093A8
:1026A00069058093680580E098E6909371058093B2
:1026B000700580E090E590936B0580936A0580E05B
:1026C00090E7909373058093720580E098E590936E
:1026D0006D0580936C0580E098E790937505809375
:1026E000740580E590E00E949E0280E090E0CEDBE1
:1026F00087FDFBCF0E949D0280E590E00E949E0234
:1027000046E050E060E072E089E090E0D9DB44E030
:1027100050E0BE016D5F7F4F8FE090E0D1DB44E081
:1027200050E0BE01615F7F4F81E090E0C9DB44E093
:1027300050E0BE016B5E7F4F85E090E0C1DB0E9400
:102740009D0281E08C8789859A85AB85BC858093C5
:10275000B2069093B306A093B406B093B506CE5BD1
:10276000DF4F0FB6F894DEBF0FBECDBFDF91CF9124
:102770001F910F91FF90EF90DF90CF9008956F928F
:102780007F928F929F92AF92BF92CF92DF92EF9201
:10279000FF920F931F93CF93DF93EC017093C106C9
:1027A0006093C0068091BE069091BF060E94D40639
:1027B0006091C0067091C1068091BE069091BF06DF
:1027C0000E94A90640E068EB8091BE069091BF068A
:1027D0000E94680640E060E08091BE069091BF06CE
:1027E0000E9468068091BE069091BF060E94D406A2
:1027F0006091C0067091C1068091BE069091BF069F
:102800000E94A90640E06EEB8091BE069091BF0643
:102810000E94680640E060E08091BE069091BF068D
:102820000E9468067E014E0189E0880E911C8E018F
:102830006090BE067090BF0688E0A82EB12CCC2414
:10284000C394D12CC3010E9415068111DC28CC0C45
:10285000A1E0AA1AB108B1F7F801D1928F01E815E9
:10286000F90531F789E0E0E0815049F0D7019D9109
:102870007D01E927F0E0E457FE4FE491F5CF81E0D8
:102880009885E91380E0DF91CF911F910F91FF9020
:10289000EF90DF90CF90BF90AF909F908F907F9000
:1028A0006F900895CF93C82F8091BE069091BF0678
:1028B0000E94D4066091C0067091C1068091BE0648
:1028C0009091BF060E94A906CC23E9F040E064E4A1
:1028D0008091BE069091BF060E9468066AE070E093
:1028E00080E090E01BDA8091BE069091BF060E94C6
:1028F000D4066091C0067091C1068091BE06909189
:10290000BF060E94A90640E064EB8091BE0690914C
:10291000BF060E94680668E070E080E090E0FED9A3
:1029200081E0CF910895CF92DF92FF920F931F9392
:10293000CF93DF93CDB7DEB729970FB6F894DEBFFC
:102940000FBECDBF8C017093C1066093C006CE014F
:10295000019615DFF82E882309F45CC099810130B7
:10296000110511F4986001C0977F99838091BE068C
:102970009091BF060E94D4066091C0067091C10676
:102980008091BE069091BF060E94A90640E06EE4C9
:102990008091BE069091BF060E94680640E060E00C
:1029A0008091BE069091BF060E9468068E010F5F5F
:1029B0001F4F6E0189E0C80ED11CF80161918F0193
:1029C00040E08091BE069091BF060E9468060C15FB
:1029D0001D0599F78091BE069091BF060E94D4060E
:1029E0006091C0067091C1068091BE069091BF06AD
:1029F0000E94A90640E068E48091BE069091BF065F
:102A00000E94680640E060E08091BE069091BF069B
:102A10000E9468068F2D29960FB6F894DEBF0FBE70
:102A2000CDBFDF91CF911F910F91FF90DF90CF909D
:102A300008958F929F92AF92BF92CF92DF92EF92C2
:102A4000FF920F931F93CF93DF93B82E4B018A0110
:102A5000A22E68E270E00E949502C82FD0E069E2E1
:102A600070E08B2D0E949502DC2FCC27C82B9E0195
:102A70003770CB2CD12CC601880F991FAC0142595D
:102A80005A4F6A01FA0180819181820F931FA80138
:102A9000420F531F4130584090F060E078E07B01D6
:102AA000E21AF30AA701B401C7D9A8014E195F09B8
:102AB000B4016E0D7F1DF6018081918102C0A801D5
:102AC000B401BAD9A1100EC0C00FD11F4D2F68E2BA
:102AD00070E08B2D0E948B024C2F69E270E08B2DF1
:102AE0000E948B02DF91CF911F910F91FF90EF9089
:102AF000DF90CF90BF90AF909F908F900895CF932D
:102B0000C82F462F61E070E00E948B0261E070E008
:102B10008C2F0E9495028111F9CFCF9108952F92A9
:102B20003F924F925F926F927F928F929F92AF925D
:102B3000BF92CF92DF92EF92FF920F931F93CF93AA
:102B4000DF9300D01F92CDB7DEB7FC018480958063
:102B50008114910409F41CC16090480870904908E0
:102B60006114710409F414C18B019C838B83FB01F4
:102B7000C480D580C618D708FC01E080F180C1145C
:102B8000D104C9F46091440870914508C7010E94BE
:102B9000B8266C01892B09F4FBC0F80160817181B2
:102BA00044815581C6010E947126F801E480F580B8
:102BB000EC0CFD1CE7CFD7FE02C0570107C04090C8
:102BC0004408509045085401C7014AC06091440828
:102BD00070914508C5010E94B8264C01892B31F13E
:102BE00034016A187B08A301B501C7010E94712650
:102BF000E60CF71CF8016081718144815581C701A1
:102C00000E947126F80184819581E80EF91EA0903A
:102C10004808B0904908A80CB91CEB81FC8184815C
:102C200095818C0D9D1D95838483D0CFB501C701FF
:102C30000F900F900F900F90DF91CF911F910F91F8
:102C4000FF90EF90DF90CF90BF90AF909F908F90CC
:102C50007F906F905F904F903F902F900C949426B0
:102C6000B2010E94B826009729F0860D971DAC0C82
:102C7000BD1CF6CFA814B90409F48AC0EB81FC810D
:102C8000828193818A159B0578F4B5016F5F7F4F30
:102C9000C7010E948925009709F47AC0EB81FC8165
:102CA00091838083B382A282EB81FC81E480F580F2
:102CB000F1E0EF1AF108F7FC6BC040904808509023
:102CC00049084114510409F463C0EB81FC81A480DC
:102CD000B580A114B10409F45BC0A414B50408F4D0
:102CE00057C0EA14FB0420F07501F1E0EF1AF10877
:102CF000EB81FC8160807180209044083090450811
:102D0000C30188248A94982C93012E0D3F1D281707
:102D1000390748F0B10129833A830E94B8262981F6
:102D20003A81009761F597FC33C0480C591CC301E8
:102D3000840D951DA50144195509BC018C0D9D1DDF
:102D40000E947A26EB81FC81848195818C0D9D1DEA
:102D50009583848320813181F901E80FF91F108266
:102D6000EB81FC8180819181F801608171814481D6
:102D70005581880D991D0E947126740199CFAC016F
:102D800046195709E416F50608F04A010196BFCF27
:102D90000F900F900F900F90DF91CF911F910F9197
:102DA000FF90EF90DF90CF90BF90AF909F908F906B
:102DB0007F906F905F904F903F902F9008950F936A
:102DC0001F930E94C60E60937E0570937F058093CB
:102DD000800590938105E0917605F0917705068056
:102DE000F781E02D86E795E0199597FF1FC00E94B7
:102DF000C60E00917E0510917F05209180053091CF
:102E00008105DC01CB01801B910BA20BB30B009160
:102E10007A0510917B0520917C0530917D05801706
:102E20009107A207B307B8F28FEF9FEF1F910F91A1
:102E30000895CF93DF93CDB7DEB7C157D1090FB651
:102E4000F894DEBF0FBECDBF789484B5826084BD98
:102E500084B5816084BD85B5826085BD85B581609E
:102E600085BD80916E00816080936E00109281001C
:102E700080918100826080938100809181008160D7
:102E80008093810080918000816080938000809198
:102E9000B10084608093B1008091B0008160809324
:102EA000B0008091910082608093910080919100A8
:102EB0008160809391008091900081608093900068
:102EC0008091A10082608093A1008091A100816027
:102ED0008093A1008091A00081608093A0008091E8
:102EE0002101826080932101809121018160809382
:102EF00021018091200181608093200180917A00DE
:102F0000846080937A0080917A00826080937A0056
:102F100080917A00816080937A0080917A00806845
:102F200080937A001092C100E0912306F09124066C
:102F300022E02083E0911F06F09120061082E091AC
:102F40002106F09122068FEC808310922B06E091EF
:102F50002706F091280696E09083E0912506F091EF
:102F60002606808180618083E0912506F091260607
:102F7000808188608083E0912506F091260680811B
:102F800080688083E0912506F091260680818F7D00
:102F90008083E0918605F09187052083E09182058A
:102FA000F09183051082E0918405F091850580E120
:102FB000808310928E05E0918A05F0918B059083B5
:102FC000E0918805F0918905808180618083E0919E
:102FD0008805F0918905808188608083E09188056B
:102FE000F0918905808180688083E0918805F09167
:102FF000890580818F7D808382E390E0A0E0B0E04E
:1030000080937A0590937B05A0937C05B0937D0512
:103010001AEFE12E16E0F12E04EAA02E03E0B02E06
:103020008AEF882E83E0982E98E1C92E92E0D92E5F
:1030300000E010E066246394712CD6018C91B2E01C
:10304000CB0ED11C62E00E94520EF401619271928B
:103050004F01D5011D921D925D010F5F1F4F4AE088
:10306000B801CE0101960E94CC0C60E278E0CE015E
:1030700082960E94F70CBE016F5F7F4FCE01829651
:103080000E94240CBC01C7010E944A0CCE0182960A
:103090000E94980CCE0101960E94980CB6E0EB0EAF
:1030A000F11C0831110549F6BEE4CB2EB2E0DB2E4F
:1030B000E12CF12C00E010E0F6018081F2E0CF0E6F
:1030C000D11C61E00E94520E0F5F1F4F4AE0B80111
:1030D000CE0101960E94CC0C6CE278E0CE01829683
:1030E0000E94F70CBE016F5F7F4FCE0182960E9457
:1030F000240C62EF72E00E940D0CBC01C7018E52DD
:10310000984F0E944A0CCE0182960E94980CCE01E4
:1031100001960E94980C4AE0B801CE0101960E94E7
:10312000CC0C6CE278E0CE0182960E94F70CBE01D6
:103130006F5F7F4FCE0182960E94240C66EF72E093
:103140000E940D0CBC01C7018657984F0E944A0C83
:10315000CE0182960E94980CCE0101960E94980C96
:1031600060E0D6018C910E94230EB6E0EB0EF11CBC
:103170000C30110509F0A0CF62E083E00E94520EEE
:10318000F2EECF2EF6E0DF2EA6E6EA2EA2E0FA2E31
:1031900000E010E0F7018081F2E0EF0EF11C61E049
:1031A0000E94520E0F5F1F4F4AE0B801CE010196F8
:1031B0000E94CC0C66E278E0CE0182960E94F70C69
:1031C000BE016F5F7F4FCE0182960E94240CBC012E
:1031D000C6010E944A0CCE0182960E94980CCE0134
:1031E00001960E94980CD701BC9061E08B2D0E9443
:1031F000520E60E08B2D0E94230EB6E0CB0ED11C48
:103200000430110539F660E08AE30E94520E60E056
:103210008BE30E94520E60E08EE30E94520E80E328
:1032200095E7A0E0B0E08093DE039093DF03A093E6
:10323000E003B093E1030E94C60E6093DA0370933B
:10324000DB038093DC039093DD0361E080E20E9466
:10325000520E82E390E0A0E0B0E08093E20490930D
:10326000E304A093E404B093E5040E94C60E6093C7
:10327000DE047093DF048093E0049093E1048EED0C
:1032800093E0A0E0B0E08093EA049093EB04A09375
:10329000EC04B093ED040E94C60E6093E6047093B4
:1032A000E7048093E8049093E90470E1E72E72E06C
:1032B000F72E00E010E0AA24A394B12CF701D080EF
:1032C000F2E0EF0EF11C60E08D2D0E94520E8D2D6C
:1032D0000E94FB0D892B89F42091720330917303B6
:1032E000C501002E02C0880F991F0A94E2F7822BB5
:1032F000932B90937303809372030F5F1F4F0430DF
:103300001105E1F660917203709173034AE0CE01FA
:1033100001960E94CC0CBE016F5F7F4F8AE498E05B
:103320000E945F0CCE0101960E94980C609172037E
:10333000709173034AE0CE0101960E94CC0C6EE3BB
:1033400078E0CE0182960E94F70CBE016F5F7F4F3E
:10335000CE0182960E94240CBC0184E498E00E9475
:103360004A0CCE0182960E94980CCE0101960E94D2
:10337000980C809172039DEE980F9093050290EC4B
:1033800090938E0898EA90938F0896E9909390080E
:103390008A568093910888E892E09A838983809185
:1033A0008E0890918F08A0919008B09191088B831E
:1033B0009C83AD83BE83CE010196B1D86CE97DEAD2
:1033C0008BE698E00E940C0362E079ED80E598E0DE
:1033D0000E940C0361E088E00E94520E60E088E0E9
:1033E0000E94230E02E213E05BE0952ED12CC12C4B
:1033F000882483946EE0762E78018091E106811115
:103400006FC084ED96E00E94D406811107C010922F
:10341000DF061092E1061092E006F4C040E060EF93
:1034200084ED96E00E946806AA24A394612C512C96
:10343000BB24B39484ED96E00E941506682F84EDBA
:1034400096E0AF966FAFAF970E941506AF966FAD3F
:10345000AF97613019F48130C9F438C0262D30E0BF
:1034600068131EC08091DF06B81638F4F901EC52DB
:10347000F94F83818A2151F402C0B81639F060E017
:1034800088E08B1560F0B092E00609C0E62DF0E010
:10349000EC52F94F83818A29838361E009C05B2C58
:1034A000F901EC52F94F93818A2D8095892383830A
:1034B00084ED96E00E943906B394AA0C19F4639443
:1034C000AA24A39497E0961508F0B4CFA0E4AB1516
:1034D00038F45092DF06511049C78092E10646C782
:1034E0001092DF061092E1061092E00680E0A7ED50
:1034F000B6E05801E8E0AE0EB11CF8019D91919341
:10350000EA15FB05D9F7882309F47CC088E0E0E0E0
:10351000815049F0D8019D918D01E927F0E0E457F1
:10352000FE4FE491F5CF21E030E0EE2311F020E0F2
:1035300030E0F701878190E02817390709F45EC071
:1035400080818632B1F4F8E0CF9EA001112480E0A2
:1035500090E0FC01E40FF51FE558FB4FD701A80FE1
:10356000B91F2C91208301968830910591F7C3945F
:1035700045C028E0D29EA001112480E090E0FC012B
:10358000E40FF51FE65DFB4FD701A80FB91F2C9183
:10359000208301968830910591F7D394E4EDF6E00D
:1035A000DE01DE96872D01900D928A95E1F7CE011E
:1035B000CE960E94D406B701CE01CE960E94A906EF
:1035C00040E06EE4CE01CE960E94680640E060E0E6
:1035D000CE01CE960E94680640E060E0CE01CE9615
:1035E0000E94680640E06FE5CE01CE960E94680614
:1035F00040E068E4CE01CE960E9468069A94850168
:103600009110FACEC092CB04D0927A0430E3832E8C
:1036100035E7932EA12CB12C42E3442E512C612C82
:10362000712C0E94C60EAE967FAF6EAFAE9784E748
:10363000E82E83E0F82E28E132E0AC963FAF2EAFC3
:10364000AC9704EA13E09AEFC92E93E0D92E222416
:103650002394312CD6016D917C91F80140815181E8
:10366000AC96AEADBFADAC978C911296AC96BFAF99
:10367000AEAFAC97E1964FAFE197E2965FAFE297BE
:10368000AF966FAFAF97E0967FAFE0970E94FB0DCC
:10369000E1964FADE197E2965FADE297AF966FADE1
:1036A000AF97E0967FADE09764177507F9F048177C
:1036B000590721F0F8019183808325C0D7018D91AE
:1036C0009C91AE962EAD3FADAE97281B390B2B309B
:1036D0003105CCF0D6014D935C93C101452B19F413
:1036E0000E94D40710C00E949E070DC0681779077A
:1036F00051F0F80191838083AE962EAD3FADAE9729
:10370000D7012D933C933FEF231A330A82E0C80E72
:10371000D11C0E5F1F4F92E0E90EF11CA9E12A16A1
:10372000310409F097CF8AED93E00E94550881118A
:1037300008C060E073E0CE018E5A9F4F0E94FF0CDC
:10374000F1C08092DE039092DF03A092E003B0927A
:10375000E1030E94C60E6093DA037093DB0380934B
:10376000DC039093DD0308E4202E02E0302EE4ED2C
:10377000F3E0AC96FFAFEEAFAC9701E010E0D10103
:103780008C91B2E02B0E311C863308F08653909159
:103790007B00282F2870977F922B90937B00877057
:1037A000806480937C0080917A00806480937A00AA
:1037B00080917A0086FDFCCF40917800809179005D
:1037C00050E0582BBA01052E000C880B990BE1969E
:1037D0004FAFE197E2965FAFE2970E94DC296B0161
:1037E0007C01AC96EEADFFADAC9760817181072E88
:1037F000000C880B990B0E94DC29E1964FADE197F4
:10380000E2965FADE297AC96AEADBFADAC974D938F
:103810005D93AC96BFAFAEAFAC979B01AC01C70157
:10382000B6010E94D629882309F44BC02AE137E665
:103830004CE151E4C701B6010E943B2AAB01BC0137
:1038400022E0CE01845B9F4F0E949D0C4AE0B801AC
:10385000CE018E5A9F4F0E94CC0C62E378E0CE01DD
:10386000885A9F4F0E94F70CBE016E5A7F4FCE01BF
:10387000885A9F4F0E94240C6DEF72E00E940D0C3D
:10388000BE01645B7F4F0E94240CBC01CE010196F7
:103890000E94F70CCE0101960E940A07CE01019604
:1038A0000E94980CCE01885A9F4F0E94980CCE011E
:1038B0008E5A9F4F0E94980CCE01845B9F4F0E94AE
:1038C000980C0F5F1F4F0430110509F058CF31CF0E
:1038D0008A30910591F02D968FAF2D972E961FAEC1
:1038E0002E9741E050E0BE01645B7F4FCE01019610
:1038F0000E94E00B64DA97FFEBCFBE016F5F7F4F52
:10390000CE018E5A9F4F0E945F0CCE0101960E94FD
:10391000980C64E478E0CE018E5A9F4F0E94930B7E
:1039200081113FC086E795E00E94E208181619064B
:103930003CF460E073E0CE0101960E94FF0CDACF08
:103940008BE698E00E942011892B09F40AC288E1D5
:10395000E2EEF3E0DF011D928A95E9F748E150E0DD
:10396000BF018BE698E00E946F0262EE73E0CE0129
:1039700001960E94FF0CBE016F5F7F4FCE018E5AF1
:103980009F4F0E945F0CCE0101960E94980C64E448
:1039900078E0CE018E5A9F4F0E94930B882309F442
:1039A000E0C160E073E0CE0101960E94FF0CBE0111
:1039B0006F5F7F4FCE018E5A9F4FB1D8CE010196D7
:1039C0000E94980CCE018E5A9F4F0E94340B6CE2DD
:1039D00078E0CE018E5A9F4F0E94930B882361F1AD
:1039E0001EE4E12E12E0F12E00E010E0B8016E526C
:1039F000784FCE018E5A9F4F0E94AE0B882321F044
:103A000061E0F70180810DC0B8016657784FCE01A3
:103A10008E5A9F4F0E94AE0B882329F060E0D70199
:103A20008C910E94230E0A5F1F4FB2E0EB0EF11C37
:103A300008341105D9F695C166E278E0CE018E5AB8
:103A40009F4F0E94930B882309F439C168962EADCD
:103A50003FAD689740912A0850912B084E5F5F4F09
:103A6000BE016E5A7F4FCE01845B9F4F0E94130DA3
:103A7000B6E6EB2EB2E0FB2E02EE16E020912A080D
:103A800030912B082F5F3F4F40E050E0BE016E5A4F
:103A90007F4FCE0101960E94130DB801CE01019611
:103AA0000E94AE0BD82ECE0101960E94980CDD200C
:103AB00009F4F5C02E968EAD9FAD2E97009721F09C
:103AC0000E94F126962F02C090E070E0292E372E3A
:103AD000F701C080D18061E08C2DE0967FAFE09748
:103AE000AF969FAFAF970E94520EE0967FADE097E2
:103AF000AF969FADAF972114310409F4CAC0FFEF10
:103B00002F16310409F4C7C0F601FF27E45DFE4F0C
:103B1000E4912E2F30E0F9013197E231F10508F000
:103B2000B4C08827EE58FF4F8F4F56C684B58068C3
:103B300084BD97BDB4C084B5806284BD98BDAFC05C
:103B400080918000806880938000292F372F3093E8
:103B5000890020938800A3C08091800080628093B8
:103B60008000292F372F30938B0020938A0097C035
:103B700080918000886080938000292F372F3093B8
:103B80008D0020938C008BC08091B0008068809362
:103B9000B0009093B30083C08091B00080628093A6
:103BA000B0009093B4007BC08091900080688093B7
:103BB0009000292F372F30939900209398006FC0E1
:103BC00080919000806280939000292F372F30934E
:103BD0009B0020939A0063C080919000886080933E
:103BE0009000292F372F30939D0020939C0057C0C1
:103BF0008091A00080688093A0008091A0008F7BBE
:103C00008093A000292F372F3093A9002093A8007C
:103C100046C08091A00080628093A000292F372F9A
:103C20003093AB002093AA003AC08091A000886036
:103C30008093A000292F372F3093AD002093AC0044
:103C40002EC080912001806880932001292F372F7A
:103C5000309329012093280122C0809120018062A5
:103C600080932001292F372F30932B0120932A0195
:103C700016C080912001886080932001292F372F62
:103C800030932D0120932C010AC020E82216310424
:103C900014F460E001C061E08C2D0E94230E0A5FE5
:103CA0001F4F32E0E30EF11C86E00A3F180709F0CF
:103CB000E5CECE01845B9F4F0E94980C52C060E21B
:103CC00078E0CE018E5A9F4F0E94930B8823E9F132
:103CD000FAEFCF2EF3E0DF2EAAEFEA2EA6E0FA2EBF
:103CE00001E010E020912408309125082E5F3F4F1D
:103CF00040E050E0BE016E5A7F4FCE0101960E9417
:103D0000130DB701CE0101960E94AE0B382ECE01E5
:103D100001960E94980C332061F0D6018D919C9100
:103D2000892B21F4C8010E94D40703C0C8010E9456
:103D30009E070F5F1F4FB6E0EB0EF11CE2E0CE0EC8
:103D4000D11C0931110571F60CC06AE178E0CE0191
:103D50008E5A9F4F0E94930B882319F0E0E0F0E009
:103D60001995CE018E5A9F4F0E94980C1091DD0438
:103D70001130D9F138F0123009F4F0C1133009F4E0
:103D800021C2B5C285ED94E00E945508882309F44C
:103D9000AEC28092D9049092DA04A092DB04B09271
:103DA000DC040E94C60E6093D5047093D604809301
:103DB000D7049093D80488E893E1A0E0B0E0809322
:103DC000D1049093D204A093D304B093D4040E945E
:103DD000C60E6093CD047093CE048093CF0490936D
:103DE000D0041092CC0481E0EAC18DEC94E00E94F2
:103DF0005508882309F47BC28091CC049091CB04B0
:103E0000891708F0A7C197E09093C2061092C306E5
:103E10001092C4061092C5061092C6061092C706EC
:103E20001092C8061092C9061092CA061092CB06CC
:103E30001092CC061092CD061092CE061093D306A7
:103E40001092CF061092D0061092D1061092D20690
:103E5000A8E08A9FC001112485589B4F9093C1060A
:103E60008093C0060E94C60E6093CF067093D00662
:103E70008093D1069093D2061091C20610FD03C024
:103E8000143009F05FC06091C0067091C10680E0F7
:103E900090E00E949314882309F4BCC012FB112700
:103EA00010F9812F0E945214882309F4B3C0609145
:103EB000C0067091C106CE0101960E94BF138823EF
:103EC00009F4A8C01123F9F06B8170E0762F662702
:103ED0008A81682BE3E075956795EA95E1F7072EEF
:103EE000000C880B990B0E94DC2920E030E040E0B8
:103EF0005DE30E943B2A6093C3067093C4068093DF
:103F0000C5069093C6068091C20680FF1BC06D81D6
:103F100070E0762F6627662773708C81682B072EDA
:103F2000000C880B990B0E94DC2920E030E048EC63
:103F300052E45AD46093C7067093C8068093C906AA
:103F40009093CA061091C20611FF62C012FF03C00F
:103F50001095117001C010E06091C0067091C1060B
:103F600081E090E00E949314882309F453C0812FCC
:103F70000E945214882309F44DC06091C0067091CC
:103F8000C106CE0101960E94BF13882309F442C0E6
:103F90001123F9F06B8170E0762F66278A81682BF8
:103FA00033E0759567953A95E1F7072E000C880B7D
:103FB000990B0E94DC2920E030E040E05DE30E94A4
:103FC0003B2A6093C3067093C4068093C506909302
:103FD000C6066F8170E0762F66278E81682B77FF8B
:103FE00003C0719561957109072E000C880B990B20
:103FF0000E94DC2920E030E040E859E30E943B2A9F
:104000006093CB067093CC068093CD069093CE063A
:104010001092D3068091D306811196C04091CB06B1
:104020005091CC066091CD067091CE0622E0CE0173
:10403000845B9F4F0E949D0C4091C7065091C8061B
:104040006091C9067091CA0622E0CE018E5A9F4F38
:104050000E949D0C6091C3067091C4068091C506B4
:104060009091C6066A961FAE1EAE6A976C961FAEFA
:104070001EAE6C976E961FAE1EAE6E978E010F5FD2
:104080001F4F22E044E08ED6BC01CE01885A9F4FDC
:104090000E94350C6091CC04B8E06B9FB0011124F4
:1040A00065587B4FCE01825A9F4F0E940A086BEFE2
:1040B00072E0CE018C599F4F0E94FF0CBE01625AE4
:1040C0007F4FCE018C599F4F0E94240C6DEF72E000
:1040D0000E940D0CBE01685A7F4F0E94240C6DEFA8
:1040E00072E00E940D0CBE016E5A7F4F0E94240C9C
:1040F0006DEF72E00E940D0CBE01645B7F4F0E9469
:10410000240CBC01C8010E94F70CC8010E940A07D8
:10411000C8010E94980CCE018C599F4F0E94980CA8
:10412000CE01825A9F4F0E94980CCE01885A9F4F11
:104130000E94980CCE018E5A9F4F0E94980CCE017F
:10414000845B9F4F0E94980C8091CC048F5F80937A
:10415000CC04CDC01092CC0482E031C08DEC94E050
:104160000E945508882309F4C2C01091CC048091A4
:104170007A04181708F58EE0E4EDF6E0DE01D0963B
:1041800001900D928A95E1F7CE01C0960E94D40667
:10419000E8E01E9FB0011124665D7B4FCE01C09602
:1041A0000E94A90641E064E4CE01C0960E94680620
:1041B0001F5F1093CC049BC01092CC0483E08093CB
:1041C000DD0495C08DEC94E00E945508882309F425
:1041D0008EC01091CC0480917A04181708F085C025
:1041E0008EE0E4EDF6E0DE01929601900D928A9564
:1041F000E1F7CE0182960E94D406F8E01F9FB0013D
:104200001124665D7B4FCE0182960E94A90640E094
:104210006EEBCE0182960E9468069E012F5F3F4F93
:1042200069017E013AE0E30EF11C08E010E022246F
:104230002394312CCE0182960E94150681113228DA
:10424000220C01501109B1F7D6013D926D01AE1556
:10425000BF0559F76A8170E0762F66278981682B40
:10426000072E000C880B990B0E94DC2920E030E01F
:1042700040E85DE30E943B2AAB01BC0122E0CE0195
:10428000845B9F4F0E949D0C6091CC04B8E06B9FB3
:10429000B0011124665D7B4FCE018E5A9F4F0E9464
:1042A0000A086BEF72E0CE01885A9F4F0E94FF0C04
:1042B000BE016E5A7F4FCE01885A9F4F0E94240C38
:1042C0006DEF72E00E940D0CBE01645B7F4F0E9497
:1042D000240CBC01CE0101960E94F70CCE01019680
:1042E0000E940A07CE0101961ECF1092DD0486EED1
:1042F00094E00E945508882361F14092E2045092B4
:10430000E3046092E4047092E5040E94C60E609398
:10431000DE047093DF048093E0049093E1048EED5B
:1043200093E0A0E0B0E08093EA049093EB04A093C4
:10433000EC04B093ED040E94C60E6093E604709303
:10434000E7048093E8049093E90461E080E20E942E
:10435000230E8EED94E00E945508882321F060E042
:1043600080E20E94230E0E9488095BC98091D706D3
:10437000882309F4B5C881E0BAC8CF93DF9384EFEE
:1043800096E00E94980C8EEE96E00E94980C88EEC3
:1043900096E00E94980C82EE96E00E94980CCAE883
:1043A000D7E02697CE010E94980C86E0CA3FD80736
:1043B000C1F7C2EDD7E02697CE010E94980C87E0A6
:1043C000CA38D807C1F7CAE1D8E02697CE010E94C3
:1043D000980C87E0C23DD807C1F78AE198E00E94B7
:1043E000980C80E298E00E94980C86E298E00E9487
:1043F000980C8CE298E00E94980C82E398E00E946E
:10440000980C88E398E00E94980C8EE398E00E9454
:10441000980C84E498E00E94980C8AE498E0DF917C
:10442000CF910C94980CCF93DF9388E892E090930F
:1044300099088093980810929A0810929B081092FD
:104440009C0810929D08109279051092780548EE0C
:1044500053E060E070E040937A0550937B056093F1
:104460007C0570937D0528E732E030937705209333
:104470007605EDECF0E0F0938305E0938205ECEC3B
:10448000F0E0F0938505E0938405E8ECF0E0F0932C
:104490008705E0938605E9ECF0E0F0938905E09369
:1044A0008805EAECF0E0F0938B05E0938A05EEECEA
:1044B000F0E0F0938D05E0938C0510928F0510923B
:1044C0009005109291051092920510921606109286
:1044D00015064093170650931806609319067093BB
:1044E0001A06309314062093130625EC30E030931F
:1044F000200620931F0624EC30E030932206209300
:10450000210620EC30E0309324062093230621EC92
:1045100030E0309326062093250622EC30E03093DD
:1045200028062093270626EC30E030932A062093B5
:10453000290610922C0610922D0610922E0610922B
:104540002F0690939F0880939E081092A0081092C7
:10455000A1081092A2081092A3089093A508809336
:10456000A4081092A6081092A7081092A80810920A
:10457000A9089093AB088093AA081092AC081092F7
:10458000AD081092AE081092AF089093B1088093D6
:10459000B0081092B2081092B3081092B4081092AA
:1045A000B5089093B1068093B0061092B2061092AF
:1045B000B3061092B4061092B5069093B906809394
:1045C000B8061092BA061092BB061092BC06109262
:1045D000BD069093B7088093B6081092B808109261
:1045E000B9081092BA081092BB0890939308809370
:1045F00092081092940810929508109296081092C2
:10460000970890938D0880938C0810928E081092D2
:104610008F081092900810929108909387088093C9
:1046200086082FEF209388082093890820938A0812
:1046300020938B0810926E0810926D0840936F08BB
:10464000509370086093710870937208E0EDF2E087
:10465000F0936C08E0936B0890937A088093790844
:1046600010927B0810927C0810927D0810927E08B0
:1046700024E020938308109253081092520840932C
:104680005408509355086093560870935708F09358
:104690005108E093500890935F0880935E08109251
:1046A00060081092610810926208109263082093CB
:1046B000680860E073E08AE498E00E94FF0C60E024
:1046C00073E084E498E00E94FF0C67E073E08EE3FF
:1046D00098E00E94FF0C6CE073E088E398E00E9491
:1046E000FF0C6FE073E082E398E00E94FF0C62E150
:1046F00073E08CE298E00E94FF0C65E173E086E2D3
:1047000098E00E94FF0C69E173E080E298E00E946B
:10471000FF0C6EE173E08AE198E00E94FF0CC2EDAD
:10472000D7E060E073E0CE010E94FF0C269688E09F
:10473000CA31D807B1F7CAE8D7E060E073E0CE012C
:104740000E94FF0C269687E0C23DD807B1F7CAEF5A
:10475000D6E060E073E0CE010E94FF0C269687E071
:10476000CA38D807B1F7C2EED6E060E073E0CE01F8
:104770000E94FF0C269686E0CA3FD807B1F760E09A
:1047800089E00E94520EEFE0F3E0E491E093D4065A
:10479000E9ECF2E0E491F0E0EE0FFF1FEA55FD4F87
:1047A000859194919093D6068093D5061092DF065A
:1047B0001092E1061092E006EFEDF6E0129286E02C
:1047C000E73DF807D9F784ED96E09093BF06809314
:1047D000BE06DF91CF910895EE0FFF1F881F8BBF9C
:1047E0000790F691E02D19940CD0C2C6BAD640F0CD
:1047F000B1D630F021F45F3F19F0A3C65111ECC6D9
:10480000A6C6C7D698F39923C9F35523B1F3951BD0
:10481000550BBB27AA2762177307840738F09F5FE1
:104820005F4F220F331F441FAA1FA9F333D00E2E50
:104830003AF0E0E830D091505040E695001CCAF7BD
:1048400029D0FE2F27D0660F771F881FBB1F261782
:1048500037074807AB07B0E809F0BB0B802DBF0155
:10486000FF2793585F4F2AF09E3F510568F069C6B5
:10487000B3C65F3FECF3983EDCF38695779567957A
:10488000B795F7959F5FC9F7880F911D9695879506
:1048900097F90895E1E0660F771F881FBB1F621725
:1048A00073078407BA0720F0621B730B840BBA0BE3
:1048B000EE1F88F7E0950895CF93DF93823091053E
:1048C00010F482E090E0E091BE08F091BF0820E093
:1048D00030E0C0E0D0E0309711F1408151814817BD
:1048E0005907C0F04817590761F4828193812097D6
:1048F00019F09B838A832BC09093BF088093BE08D6
:1049000026C02115310519F04217530718F49A01F2
:10491000BE01DF01EF010280F381E02DDCCF211524
:10492000310509F1281B390B2430310590F412961A
:104930008D919C9113976115710521F0FB01938373
:10494000828304C09093BF088093BE08FD01329615
:1049500044C0FD01E20FF31F81939193225031096E
:104960002D933C933AC02091BC083091BD08232B75
:1049700041F420910802309109023093BD08209340
:10498000BC0820910602309107022115310541F43F
:104990002DB73EB740910A0250910B02241B350BF4
:1049A000E091BC08F091BD08E217F307A0F42E1BBC
:1049B0003F0B2817390778F0AC014E5F5F4F241783
:1049C000350748F04E0F5F1F5093BD084093BC0859
:1049D0008193919302C0E0E0F0E0CF01DF91CF91AD
:1049E00008950F931F93CF93DF93009709F48CC022
:1049F000FC013297138212820091BE081091BF0809
:104A00000115110581F420813181820F931F2091BE
:104A1000BC083091BD082817390779F5F093BD0817
:104A2000E093BC0871C0D80140E050E0AE17BF076A
:104A300050F412962D913C911397AD01211531053B
:104A400009F1D901F3CF9D01DA013383228360811B
:104A50007181860F971F8217930769F4EC012881F3
:104A60003981260F371F2E5F3F4F318320838A8184
:104A70009B8193838283452B29F4F093BF08E093B5
:104A8000BE0842C01396FC93EE931297ED01499134
:104A900059919E01240F351FE217F30771F48081AD
:104AA0009181840F951F029611969C938E9382811B
:104AB000938113969C938E931297E0E0F0E0D801D7
:104AC00012968D919C911397009719F0F8018C0123
:104AD000F6CF8D919C9198012E5F3F4F820F931FCF
:104AE0002091BC083091BD082817390769F4309728
:104AF00029F41092BF081092BE0802C013821282DD
:104B00001093BD080093BC08DF91CF911F910F91C6
:104B100008956F927F928F929F92AF92BF92CF92A1
:104B2000DF92EF92FF920F931F93CF93DF93EC01ED
:104B3000009781F4CB01DF91CF911F910F91FF90EE
:104B4000EF90DF90CF90BF90AF909F908F907F902D
:104B50006F90B2CEFC01E60FF71F9C012250310985
:104B6000E217F30708F4A8C0D9010D911C91119721
:104B700006171707A8F00530110508F49BC0C801F7
:104B800004978617970708F495C002501109061B71
:104B9000170B019311936D937C93CF0122DF8AC091
:104BA0005B01A01AB10A4C01800E911EA091BE08B3
:104BB000B091BF0840E050E0E12CF12C109709F4CF
:104BC0004AC0A815B905D1F56D907C901197630185
:104BD00082E0C80ED11CCA14DB0480F1A3014A197B
:104BE0005B096A0182E0C80ED11C1296BC90129734
:104BF0001396AC91B5E0CB16D10440F0B282A383FA
:104C000051834083D9016D937C930AC00E5F1F4F7F
:104C1000C301800F911FF90191838083EB2DFA2F3F
:104C2000E114F10431F0D7011396FC93EE9312973F
:104C300041C0F093BF08E093BE083CC08D919C91A9
:104C400011974817590708F4AC017D0112960D9091
:104C5000BC91A02DB3CF8091BC089091BD08881560
:104C60009905E1F446175707C8F480910602909120
:104C70000702009741F48DB79EB740910A02509108
:104C80000B02841B950BE817F907B0F4F093BD08ED
:104C9000E093BC08F901718360830CC0CB010CDE8A
:104CA0007C01009749F0A801BE011BD0CE0199DE1E
:104CB000C70104C0CE0102C080E090E0DF91CF9137
:104CC0001F910F91FF90EF90DF90CF90BF90AF902A
:104CD0009F908F907F906F90089581E090E0F8947E
:104CE000A3C4FB01DC0102C001900D924150504071
:104CF000D8F708956817790768F4FB01DC01E40F21
:104D0000F51FA40FB51F02C002900E9241505040F3
:104D1000D8F70895E6CFFB01DC018D910190801951
:104D20000110D9F3990B0895FB01DC0101900D925C
:104D30000020E1F70895FB01DC014150504030F0C4
:104D40008D910190801919F40020B9F7881B990BF7
:104D50000895FB01DC014150504048F001900D9254
:104D60000020C9F701C01D9241505040E0F708955E
:104D7000FB0151915523A9F0BF01DC014D9145176D
:104D80004111E1F759F4CD010190002049F04D9116
:104D900040154111C9F3FB014111EFCF81E090E0D3
:104DA00001970895EF920F931F93CF93DF93E8013C
:104DB00047FD02C034E001C034E1E42F440FFF0B93
:104DC000F7FF03C0F195E195F109E32E022F2E2F95
:104DD000AE016FD0CE01DF91CF911F910F91EF9077
:104DE00008951F93FC0199278827BC01E89411912D
:104DF0001032E9F3193010F01E30C8F31B3249F0BD
:104E00001D3241F4689405C026D0610F711D811DCB
:104E1000911D119110531A30B8F33EF4909580957E
:104E2000709561957F4F8F4F9F4F1F910895453229
:104E3000510518F4423008F004C0FB011082CB0188
:104E40000895BB274A3031F4992322F4BDE29095AE
:104E500081959F4F16C0592F482F372F262F660F49
:104E6000771F881F991F660F771F881F991F620F72
:104E7000731F841F951F660F771F881F991F089542
:104E8000BB27FB015527AA27880F991FAA1FA41724
:104E900010F0A41B83955051B9F7A05DAA3308F018
:104EA000A95DA193009779F7B111B1931192CB014C
:104EB0006DC24F925F926F927F929F92AF92BF921C
:104EC000CF92DF92EF92FF920F931F93CF93DF93D6
:104ED000CDB7DEB729970FB6F894DEBF0FBECDBFB2
:104EE0006A01122FB02E2BE3201720F0FF24F39439
:104EF000F00E02C0BCE3FB2E0F2D27E0AE014F5F8A
:104F00005F4F64D1AC018981982F9970913031F055
:104F1000E1FC06C0E0FE06C090E205C09DE203C0D1
:104F20009BE201C090E0EE2DE07183FF3CC0911147
:104F300002C083E001C084E0811718F4212F281BF0
:104F400001C020E0E1110BC0F601822F30E288237E
:104F500019F031938150FBCFC20ED11C20E0992370
:104F600029F0D6019C93F60131966F01C601039694
:104F7000E2FE0AC03EE4D6013C9341E411964C9314
:104F8000119712963C9306C03EE6F601308341E647
:104F900041833283FC01322F40E2332309F442C0C3
:104FA00041933150FACF82FF44C0911102C083E097
:104FB00001C084E0811718F4212F281B01C020E0D4
:104FC000E1110BC0F601822F30E2882319F03193F2
:104FD0008150FBCFC20ED11C20E0992329F0D601CD
:104FE0009C93F60131966F01C6010396E2FE0BC059
:104FF00039E4D6013C933EE411963C93119736E494
:1050000012963C9307C039E6F60130833EE63183C1
:1050100036E63283FC01322F40E2332319F041930C
:105020003150FBCFFC01E20FF11D10828EEF9FEF9C
:10503000B7C0F1E0911101C0F0E06F2F70E01416DD
:10504000150624F49A012F5F3F4F02C021E030E0A3
:10505000260F371FBB2029F06B2D70E06F5F7F4F4D
:1050600002C060E070E0260F371F612F70E0261746
:1050700037071CF4121B212F01C020E03E2D387190
:1050800059F4D601322F60E2332319F06D93315079
:10509000FBCFC20ED11C20E0FF2331F0D6019C9340
:1050A000B6016F5F7F4F6B01E1110BC0F601922FCC
:1050B00030E3992319F031939150FBCFC20ED11CEC
:1050C00020E09F2D940F3A81782F7071A72E84FFD6
:1050D00003C0313309F49150191624F4993018F0B3
:1050E00098E001C091E0E42F852F57FF02C0E0E077
:1050F00080E06E2F782FE0E0F0E0AEE29A2E3A01E9
:10510000691A71082A01461A570A0B2D10E01195E9
:10511000019511096F3F8FEF780729F4D6019C9212
:10512000C60101966C014617570784F0661677068C
:105130006CF47F01E40CF51CA1E0B0E0AC0FBD1FE6
:10514000EA0EFB1ED7011196BC9002C090E3B92E67
:10515000615071093196C60101967C016017710793
:1051600024F0D601BC926C01D5CF6417750741F4C9
:10517000363320F4353321F4A11002C081E3B82E78
:10518000F601B082F701822F90E2882319F0919303
:105190008150FBCFF701E20FF11D108280E090E01B
:1051A00029960FB6F894DEBF0FBECDBFDF91CF9129
:1051B0001F910F91FF90EF90DF90CF90BF90AF9035
:1051C0009F907F906F905F904F900895283008F0E7
:1051D00027E03327DA01990F311D87FD9160009692
:1051E0006105710539F432602E5F3D9330E32A95F5
:1051F000E1F708959F3F30F080387105610509F0AF
:105200003C5F3C5F3D93913008F08068911DDF93D7
:10521000CF931F930F93FF92EF92192F987F96953C
:10522000E92F96959695E90FFF27EA55FC4F9927A8
:105230003327EE24FF24A701E70105900894079483
:1052400028F4360FE71EF81E491F511D660F771F01
:10525000881F991F0694A1F70590079428F4E70E7C
:10526000F81E491F561FC11D770F881F991F661F03
:105270000694A1F70590079428F4F80E491F561FCD
:10528000C71FD11D880F991F661F771F0694A1F7AE
:105290000590079420F4490F561FC71FD81F990F78
:1052A000661F771F881F0694A9F7849110951770C1
:1052B00041F0D695C79557954795F794E7941A9579
:1052C000C1F7ECE4F3E06894159015913591659180
:1052D000959105907FE27395E118F10A430B560B07
:1052E000C90BD009C0F7E10CF11E431F561FC91F9F
:1052F000D01D7EF4703311F48A95E6CFE894015006
:1053000030F0080F0AF40027021708F4202F239525
:10531000022F7A3328F079E37D932A95E9F710C0BC
:105320007D932A9589F606949795679537951795F5
:105330001794E118F10A430B560BC90BD00998F0EA
:1053400023957E9173957A3308F070E37C93201354
:10535000B8F77E9170617D9330F0839571E37D9312
:1053600070E32A95E1F71124EF90FF900F911F91C0
:10537000CF91DF91992787FD909508959111DEC017
:10538000803219F089508550D0F70895DC01FC0176
:10539000672F71917723E1F7329704C07C916D9369
:1053A00070836291AE17BF07C8F3089540D008F428
:1053B00081E00895E89409C097FB3EF490958095AC
:1053C000709561957F4F8F4F9F4F9923A9F0F92FCB
:1053D00096E9BB279395F695879577956795B79549
:1053E000F111F8CFFAF4BB0F11F460FF1BC06F5F2F
:1053F0007F4F8F4F9F4F16C0882311F096E911C041
:10540000772321F09EE8872F762F05C0662371F061
:1054100096E8862F70E060E02AF09A95660F771F75
:10542000881FDAF7880F9695879597F90895990F51
:105430000008550FAA0BE0E8FEEF16161706E8075E
:10544000F907C0F012161306E407F50798F0621B7F
:10545000730B840B950B39F40A2661F0232B242B54
:10546000252B21F408950A2609F4A140A6958FEF73
:10547000811D811D08950BD07BC06CD028F071D0A8
:1054800018F0952309F05DC062C01124A5C081D039
:10549000A0F3959FD1F3950F50E0551F629FF00147
:1054A000729FBB27F00DB11D639FAA27F00DB11DA0
:1054B000AA1F649F6627B00DA11D661F829F222729
:1054C000B00DA11D621F739FB00DA11D621F839FB0
:1054D000A00D611D221F749F3327A00D611D231F86
:1054E000849F600D211D822F762F6A2F11249F57D4
:1054F00050408AF0E1F088234AF0EE0FFF1FBB1FF7
:10550000661F771F881F91505040A9F79E3F510595
:1055100070F017C061C05F3FECF3983EDCF38695F6
:1055200077956795B795F795E7959F5FC1F7FE2B40
:10553000880F911D9695879597F908959927882743
:10554000089597F99F6780E870E060E008959FEF05
:1055500080EC089500240A9416161706180609060A
:10556000089500240A9412161306140605060895D9
:10557000092E0394000C11F4882352F0BB0F40F461
:10558000BF2B11F460FF04C06F5F7F4F8F4F9F4FA1
:10559000089557FD9058440F551F59F05F3F71F023
:1055A0004795880F97FB991F61F09F3F79F087958A
:1055B0000895121613061406551FF2CF4695F1DF13
:1055C00008C0161617061806991FF1CF86957105A3
:1055D000610508940895E894BB2766277727CB01D7
:1055E00097F90895A1E21A2EAA1BBB1BFD010DC05D
:1055F000AA1FBB1FEE1FFF1FA217B307E407F50783
:1056000020F0A21BB30BE40BF50B661F771F881F5E
:10561000991F1A9469F760957095809590959B01F4
:10562000AC01BD01CF01089512E0C4E2D2E000E078
:1056300005C0802FFE01D0D82196011DC532D107AB
:0A56400080E00807B1F7F894FFCFEF
:10564A00DEADBEEFFE000000C008800001000000D1
:10565A0036003700380039002400220030002E00BE
:10566A0045004400430042002C002A00280026007E
:10567A0006000500030002000E000F0010001100D2
:10568A0018001A001C001E003A003B003E002700CA
:10569A0029002B002D002F003100170019001B00D4
:1056AA001D001F0021000B000D000C000700010067
:1056BA005E0000000000000021097C08E208C00822
:1056CA00D408670900000000EC0A00000000360A4E
:1056DA0000000000360A360A360A360A360A360A40
:1056EA00360A360A360A360A360A360A360A360AB0
:1056FA00360A360A00000000360A7C08360A360ADC
:10570A00360A360A00000000360A7C08000000004B
:10571A008A0F891057023D106510890F0C03760213
:10572A00CD023E03A10220111F106F025F025B022D
:10573A001112206F6E00206F666600317720000A12
:10574A00002030002031007261696C0064690061D8
:10575A006900646F0070776D00737461740072730E
:02576A007400C9
:00000001FF
