:1000000024C2000053C2000051C200004FC20000D1
:100010004DC200004BC2000049C2000047C20000B0
:1000200045C2000043C2000041C200003FC20000C0
:100030003DC200003BC2000039C2000037C20000D0
:1000400035C2000033C2000031C200002FC20000E0
:100050002DC200002BC2000029C200000C94830EA8
:1000600025C200000C94830D0C945A0D1FC2000091
:100070001DC200001BC2000019C2000017C2000010
:1000800015C2000013C2000011C200000FC2000020
:100090000C94310D0C94080D09C2000007C2000039
:1000A00005C2000003C2000001C20000FFC1000041
:1000B000FDC10000FBC10000F9C10000F7C1000054
:1000C000F5C10000F3C10000F1C10000EFC1000064
:1000D000EDC10000EBC10000E9C10000E7C1000074
:1000E000E5C10000DE1CE31CE81CF41C001D8D1D96
:1000F0000C1D141D1C1D281D341D401D511D5D1D92
:100100008D1D691D751D811D87098A0979097D0964
:100110008309C1098E09920998099C09A009A609B9
:10012000AA09AE09C109B409B809BC0900000A0B43
:1001300002090C0D0E080703040100000000000076
:1001400000000000000000000000000000000000AF
:10015000000000000000000012111000000000006C
:10016000000000000000000000000000000000008F
:10017000000000002200250028002B002E00310086
:10018000340002010000050108010B01005EBCE221
:10019000613FDD83C29C7E20A3FD1F419DC3217F63
:1001A000FCA2401E5F01E3BD3E6082DC237D9FC157
:1001B000421CFEA0E1BF5D0380DE3C62BEE0025C4B
:1001C000DF81633D7C22C09E1D43A1FF4618FAA437
:1001D00027799BC584DA3866E5BB5907DB85673923
:1001E000BAE406581947A5FB7826C49A653BD98717
:1001F000045AB8E6A7F91B45C6987A24F8A6441A0B
:1002000099C7257B3A6486D85B05E7B98CD2306EF6
:10021000EDB3510F4E10F2AC2F7193CD114FADF3E2
:10022000702ECC92D38D6F31B2EC0E50AFF1134DD6
:10023000CE90722C6D33D18F0C52B0EE326C8ED0CA
:10024000530DEFB1F0AE4C1291CF2D73CA947628B6
:10025000ABF517490856B4EA6937D58B5709EBB5A2
:1002600036688AD495CB2977F4AA4816E9B7550B96
:1002700088D6346A2B7597C94A14F6A8742AC8968A
:10028000154BA9F7B6E80A54D7896B350000210051
:10029000240027002A002D00300033000101000057
:1002A000040107010A0100002000230026002900A4
:1002B0002C002F003200000100000301060109019B
:1002C00005050505070508080808020202020A0AD2
:1002D00008080404040401010101010101010303F0
:1002E000030303030303040707070C0C0C0C0C0C9B
:1002F0000C0C0202020206060606060606060B0B98
:100300000B0B0B0B0B0B01021020200808102040D8
:1003100010204080020102010804020101020408C9
:100320001020408080402010080402018004020157
:1003300080402010080402010804020101020408A0
:1003400010204080010204081020408000407A10F4
:10035000F35A00A0724E18090010A5D4E80000E876
:100360007648170000E40B54020000CA9A3B0000D4
:1003700000E1F505000080969800000040420F0063
:100380000000A08601000000102700000000E80324
:10039000000000006400000000000A0000000000EF
:1003A0000100000000002C76D888DC674F0823DFAE
:1003B000C1DFAE59E1B1B796E5E3E453C63AE65181
:1003C000997696E8E6C28426EB898C9B62ED407CA8
:1003D0006FFCEFBC9C9F40F2BAA56FA5F490055A44
:1003E0002AF75C936B6CF9676DC11BFCE0E40D4769
:1003F000FEF520E6B500D0ED902E0300943577058C
:100400000080841E080000204E0A000000C80C3343
:100410003333330F986E12831141EF8D2114893BD2
:10042000E65516CFFEE6DB18D1844B381BF77C1D52
:10043000901DA4BBE424203284725E228100C9F1A5
:1004400024ECA1E53D27FA20B62011241FBECFEFF2
:10045000D1E2DEBFCDBF00E00CBF13E0A0E0B2E010
:10046000E8EEF3E500E00BBF02C007900D92AA3161
:10047000B107D9F728E0AAE1B3E001C01D92AC3181
:10048000B207E1F712E0C4E2D2E000E006C0219733
:100490000109802FFE010E94BB22C332D10780E0F8
:1004A0000807A9F70E94A2160C94E329A9CDFC0124
:1004B000818D928D0895FC0184899589089528E89D
:1004C00032E0FC0131832083FB014089518962893C
:1004D0007389FC0142835383648375830895DC012F
:1004E000ED91FC91008CF18DE02D1994CF93DF9369
:1004F000EC01888D843061F00E945211E88DF0E0AB
:10050000EE0FFF1FE65BFA4F1182108284E0888FA6
:10051000DF91CF9108959B0190E00496982F882752
:10052000642F820F931F0C94200F0F931F93CF9370
:10053000DF931F92CDB7DEB790E00496982F8827FF
:100540008C01060F171F0E9449118FE00E944B116A
:10055000812F0E944B11802F0E944B1180E00E943E
:100560004B1189830E94471189810F90DF91CF91B0
:100570001F910F91089508958CBD9DBD0895CF934F
:10058000FC01C08D80E590E0F7DF60E270E08C2F29
:100590000E94921662E070E08C2FC7DF84FD12C0CB
:1005A00062E070E08C2FC1DF83FF08C048E162E0A9
:1005B00070E08C2FB0DF80E090E00BC080E590E031
:1005C000DBDFE8CF40E162E070E08C2FA4DF81E068
:1005D00090E0CF910895EF92FF921F93CF93DF9316
:1005E000EB017A01FC01178A168A108D8A8181112C
:1005F00009C08B81811106C08C81811103C08D815E
:10060000882301F1E114F104E9F080E590E0B4DF22
:10061000BE016E5F7F4F812F90E0982F882744E0C6
:1006200050E0845F9B4F0E94F70E4F2D60E170E019
:10063000812F71DF4E2D61E170E0812F6CDF81E051
:1006400090E002C080E090E0DF91CF911F91FF9099
:10065000EF900895EF92FF921F93CF93DF93FC01E9
:10066000208D243011F080E020C07B01EC0110E0EF
:1006700080E590E081DF63E070E0812F56DF81113B
:1006800002C0188F05C08831E1F31F5F143081F775
:10069000888D843041F3FD86EC861A8E198E20E019
:1006A000A70162E00E94651181E0DF91CF911F9167
:1006B000FF90EF9008954F925F926F927F928F928A
:1006C0009F92AF92BF92CF92DF92EF92FF920F93E1
:1006D0001F93CF93DF93CDB7DEB7EE970FB6F894A5
:1006E000DEBF0FBECDBF5C018B014A0188E892E0FE
:1006F0009A8389831C861B8648EE53E060E070E095
:100700004D875E876F87788B20ED32E03A872987A7
:10071000988F8F8B198E1A8E1B8E1C8E24E029A326
:1007200099AB88AB1AAA1BAA1CAA1DAA8091AA067B
:100730009091AB06A091AC06B091AD068EA39FA39D
:10074000A8A7B9A78B839C83AD83BE8318861F821D
:10075000F80120E080E090E06AE03191332319F164
:1007600040ED430F4A3080F4689FA001699F500D0F
:100770001124CA01C097830F911D37FD9A958F3FB1
:10078000910559F350F32BC03E3249F5233039F12E
:10079000A2E3B0E0AC0FBD1FA20FB11D8C932F5F81
:1007A00080E090E0DACF2330D1F48DABD501ED912C
:1007B000FC910088F189E02D88E892E09DA38CA34C
:1007C0008AA99BA9ACA9BDA98EA39FA3A8A7B9A7D5
:1007D000A401BE016C5D7F4FC50119952CC24B81F0
:1007E0005C816D817E818091B2069091B306A0916B
:1007F000B406B091B506481759076A077B0709F494
:1008000018C20E94770E6F7077277C5FCE01099621
:1008100021DF813009F00AC288E892E09DA38CA311
:100820008B819C81AD81BE818EA39FA3A8A7B9A710
:1008300045E350E0BE016C5D7F4FCE010996CBDEF3
:10084000892B19F400E010E07DC10E94770E7887B3
:100850006F837627672776277DA36CA342E050E05D
:10086000BE016C5D7F4FCE0109960E943D1081E074
:1008700090E09FAB8EAB42E050E0BE016A5C7F4FE0
:10088000CE0109960E943D1080E091E09FAB8EABB7
:1008900042E050E0BE016A5C7F4FCE0109960E94A3
:1008A0003D101FAA1EAA42E050E0BE016A5C7F4FC5
:1008B000CE0109960E943D1042E050E0BE016A5C04
:1008C0007F4FCE0109960E943D1042E050E0BE01EC
:1008D0006A5C7F4FCE0109960E943D107801D701D6
:1008E0008C91882319F1F8017F018191811117C042
:1008F0006701C01AD10A1C141D04A4F4C8AE41E05B
:1009000050E0BE01685C7F4FCE0109960E943D1009
:10091000A601B801CE0109960E943D1003C08E3297
:1009200019F7E6CF87010F5F1F4FD9CF18AE41E00F
:1009300050E0BE01685C7F4FCE0109960E943D10D9
:1009400000E011E01FAB0EAB42E050E0BE016A5C7C
:100950007F4FCE0109960E943D101FAB0EAB42E0C7
:1009600050E0BE016A5C7F4FCE0109960E943D10A7
:10097000CE01099604DE892B09F464CF63E0E62EEC
:10098000F12C0E94770E2B013C01CE0109960E94AA
:10099000D41018161906A4F00E94770EDC01CB01C2
:1009A00084199509A609B70989389341A105B105AC
:1009B000C8F462E370E080E090E00E943F0EE5CF73
:1009C0004B815C816D817E81898D9A8DAB8DBC8DD3
:1009D000481759076A077B0741F48D8D9E8DC5978F
:1009E00021F406C02FEF3FEFA4C02EEF3FEFA1C0D0
:1009F0008AA19BA10C970CF4B1C04CE050E0BE0161
:100A00006C5D7F4FCE0109960E94D30F8EA190E0BE
:100A1000982F88272FA1822B9BAF8AAF2CA130E083
:100A2000322F22274DA1242B4F815885421753077F
:100A300009F091C097FF8FC08F709270892B09F0D9
:100A4000F2C00AA510E0102F00278BA5082B011576
:100A5000110509F4E5C0C12CD12C88A590E0982F90
:100A6000882729A5822BC816D90608F47AC0C12C7C
:100A7000D12C41E050E0BE01645C7F4FCE0109966D
:100A80000E94D30F8CAD982F907C09F0A4C08111E7
:100A900096C08CAD8111EDCF42E050E0BE01685CA4
:100AA0007F4FCE0109960E94D30F42E050E0BE0175
:100AB0006A5C7F4FCE0109960E94D30FCE01099642
:100AC0000E94F10FCE0109960E94F10FCE01099606
:100AD0000E94F10FCE0109960E94F10F42E050E012
:100AE000BE01665C7F4FCE0109960E94D30F88AD90
:100AF00099AD8115914009F074C02EA93FA9322704
:100B0000232732272130310509F06BC08AAD9BAD18
:100B10008115944009F081C044E050E0BE016E5C54
:100B20007F4FCE0109962DAF3EAF0E94D30F2DAD62
:100B30003EAD8901B1E0EB1AF10821F02F3F3F4FA4
:100B400009F41FCFCE010996D1DC0130110509F45B
:100B50002DCEC80170C02CEF3FEFEBCF2DEF3FEF54
:100B6000E8CF41E050E0BE016A5C7F4FCE010996BC
:100B70000E94D30F8EA9811117C08EA98111F1CFC8
:100B8000CE0109960E94F10FCE0109960E94F10F45
:100B9000CE0109960E94F10FCE0109960E94F10F35
:100BA000FFEFCF1ADF0A59CF8EA99FEF980F9EABA8
:100BB000882319F3CE0109960E94F10FF5CF8CAD71
:100BC0009FEF980F9CAF882309F463CFCE0109965D
:100BD0000E94F10FF4CFCE0109960E94F10F1CAED6
:100BE00058CF612C712C8AAD9BAD98278927982707
:100BF0006816790640F4CE0109960E94F10F8FEF36
:100C0000681A780AF0CFAFEFCA1ADA0AC016D1060E
:100C100009F02FCF26EF3FEF8CCF27EF3FEF89CFA3
:100C20002AEF3FEF86CF2BEF3FEF83CF80E090E0BE
:100C300002C08EEF9FEFEE960FB6F894DEBF0FBEA8
:100C4000CDBFDF91CF911F910F91FF90EF90DF907B
:100C5000CF90BF90AF909F908F907F906F905F905C
:100C60004F900895FC0190810180F281E02DF8946D
:100C70008181892B81832281892F8095282322835A
:100C8000A7E0B0E01197F1F7218182238183A3E2ED
:100C9000B0E01197F1F780817894EFECF0E03197B4
:100CA000F1F7982381E009F480E00895FC01908138
:100CB0000180F281E02D892F809560FF12C0F894A9
:100CC0002281822382838181892B8183A3E2B0E008
:100CD0001197F1F78281982B9283789487ED90E0B9
:100CE00011C0F8942281822382838181892B8183A0
:100CF000AFEFB0E01197F1F78281982B928378944F
:100D00008FE090E00197F1F70895CF92DF92EF9294
:100D1000FF920F931F93CF93DF931F92CDB7DEB750
:100D20006C01E62E08E010E0FF24F39461E08F2DC3
:100D30008E2109F460E0C6014983B8DFFF0C015041
:100D4000110949810115110589F7411115C0F89460
:100D5000D6011196ED91FC91129791818C9180951D
:100D6000892381831196ED91FC91129792818C9148
:100D700080958923828378940F90DF91CF911F9182
:100D80000F91FF90EF90DF90CF900895CF92DF9278
:100D9000EF92FF920F931F93CF93DF931F92CDB7E4
:100DA000DEB78C01F62E40E065E57983AEDFCF2C0F
:100DB0007981D72E760188E0E80EF11CF601619169
:100DC0006F0140E0C801A1DFCE14DF04B9F70F9036
:100DD000DF91CF911F910F91FF90EF90DF90CF9017
:100DE0000895FC0190810180F281E02DF8948181C9
:100DF000292F20958223818378948DE743E050E06A
:100E0000815021F1DA011197F1F730813923C1F3D3
:100E1000F8948281822382838181892B81837894D3
:100E2000ABECB7E01197F1F7F89481812823218387
:100E3000ABE3B1E01197F1F78081982381E009F0ED
:100E400080E07894EBE8F6E03197F1F70895EF92BF
:100E5000FF920F931F93CF93DF9300D000D0CDB7B5
:100E6000DEB77C016AE977E0CE01019671D566EACA
:100E700077E0CE01019699D463E073E07FD4B701A7
:100E800094D4BC01C701B7D4CE01019602D588E83D
:100E900092E09A8389838091E4079091E507A0917D
:100EA000E607B091E7078B839C83AD83BE8343E065
:100EB00059EDBE016F5F7F4F8CEA97E08CDBD70165
:100EC00014960D911C9115970115110519F41092A6
:100ED000E60411C00336110510F003E610E0F70137
:100EE00060817181A80186EE94E00E947825F80166
:100EF000EA51FB4F1082E091AC07F091AD07D701AA
:100F000014964D915C9115970280F381E02D66EE69
:100F100074E08CEA97E019958CEA97E030DB61E0A9
:100F200088E042D6B701CE01019612D565E073E0A4
:100F3000CE01019623D4FC014481558160817181E9
:100F40008EE695E08AD0CE010196A3D46AE070E0E7
:100F500080E090E094D660E088E026D626960FB632
:100F6000F894DEBF0FBECDBFDF91CF911F910F91DF
:100F7000FF90EF900895CF92DF92EF92FF920F9340
:100F80001F93CF93DF93CDB7DEB72F970FB6F894AB
:100F9000DEBF0FBECDBF7C016B0166E073E0E0D425
:100FA000860188E0C80ED11CF80181918F011B8653
:100FB0001A861D861C861F861E8640E1BE016F5F55
:100FC0007F4F90E00E940F26BE016F5F7F4FCE01E2
:100FD0000A96FCD34E855F856A857B85C701A1D3C0
:100FE000CE010A9656D40C151D05F1F6C7012F96B1
:100FF0000FB6F894DEBF0FBECDBFDF91CF911F912A
:101000000F91FF90EF90DF90CF9008950F931F9373
:10101000CF93DF93EC016BD6088119812A813B8144
:10102000DC01CB01801B910BA20BB30B0C811D814A
:101030002E813F8180179107A207B30738F057D65A
:10104000688379838A839B8381E001C080E0DF919C
:10105000CF911F910F9108950895CF92DF92EF9253
:10106000FF920F931F93CF93DF936C017A018B0153
:10107000C0E0D0E0CE15DF0589F0D8016D918D017B
:10108000D601ED91FC910190F081E02DC6011995FA
:10109000892B11F47E0102C02196ECCFC701DF91AC
:1010A000CF911F910F91FF90EF90DF90CF90089517
:1010B000FC01A089B1898C91A689B78982FD0FC0F6
:1010C0009C91818D8F5F8F73228D821749F0218DC6
:1010D000DF01A20FB11D5D969C93818F08958C91C5
:1010E0000895FC01918D828D981761F0828DDF014A
:1010F000A80FB11D5D968C91928D9F5F9F73928F0B
:1011000090E008958FEF9FEF0895FC01918D828DFF
:10111000981731F0828DE80FF11D858D90E00895CC
:101120008FEF9FEF0895FC01918D228D892F90E024
:10113000805C9F4F821B91098F73992708958EE6DB
:1011400095E0F1DF21E0892B09F420E0822F08955A
:101150008BE096E0E8DF21E0892B09F420E0822F84
:101160000895FC01848DDF01A80FB11DA35ABF4F64
:101170002C91848D90E001968F739927848FA68996
:10118000B7892C93A089B1898C9180648C93938DBD
:10119000848D981306C00288F389E02D80818F7DAD
:1011A00080830895EF92FF920F931F93CF93DF9365
:1011B000EC0181E0888F9B8D8C8D981305C0E889A8
:1011C000F989808185FD23C0F62E0B8D10E00F5F1D
:1011D0001F4F0F731127E02E8C8DE8120BC00FB636
:1011E00007FCFACFE889F989808185FFF5CFCE0128
:1011F000B8DFF2CF8B8DFE01E80FF11DE35AFF4FF0
:10120000F0820B8FEA89FB898081806207C0EE89BA
:10121000FF896083E889F98980818064808381E027
:1012200090E0DF91CF911F910F91FF90EF90089583
:10123000CF93DF93EC01888D8823C1F0EA89FB8985
:10124000808185FD05C0A889B9898C9186FD0EC075
:101250000FB607FCF5CF808185FFF2CFA889B98949
:101260008C9185FFEDCFCE017CDFE8CFDF91CF9170
:10127000089580E090E0892B19F06ADF811120C089
:1012800080E090E0892B19F05ADF81111CC080E0CA
:1012900090E0892B41F080E090E0892B21F00E94C2
:1012A0000000811113C080E090E0892BA1F080E064
:1012B00090E0892B81F00E94000081110AC00895FE
:1012C0000E940000DDCF0E940000E1CF0E940000DC
:1012D000EACF0C940000089590E0FC013197E231D0
:1012E000F10508F04EC08827EC57FF4F8F4F0C9444
:1012F000BB22809180008F7703C0809180008F7D1A
:1013000080938000089580918000877FF9CF84B515
:101310008F7702C084B58F7D84BD08958091B00021
:101320008F7703C08091B0008F7D8093B0000895C7
:10133000809190008F7707C0809190008F7D03C0CF
:1013400080919000877F8093900008958091A00005
:101350008F7707C08091A0008F7D03C08091A0008F
:10136000877F8093A0000895809120018F7707C028
:10137000809120018F7D03C080912001877F809321
:10138000200108953FB7F894809157059091580532
:10139000A0915905B0915A0526B5A89B05C02F3FCD
:1013A00019F00196A11DB11D3FBFBA2FA92F982F8B
:1013B0008827820F911DA11DB11DBC01CD0142E006
:1013C000660F771F881F991F4A95D1F708950E94CD
:1013D0003C254F925F926F927F92EF92FF920F9314
:1013E0001F93CF93DF93CDB7DEB7A1970FB6F894D5
:1013F000DEBF0FBECDBF7C01FA01CB0119A22230A6
:1014000008F42AE08E010F5D1F4F422E512C612CF3
:10141000712CBF01A30192010E94C129F901CA01E7
:10142000015011096A3014F4605D01C0695CD80193
:101430006C93232B242B252B61F70115110591F0BB
:10144000F80101900020E9F73197AF01401B510BE3
:10145000D701ED91FC910280F381E02DB801C70125
:10146000199502C080E090E0A1960FB6F894DEBF17
:101470000FBECDBFDF91CF911F910F91FF90EF90E5
:101480007F906F905F904F900895CF93DF93EC0122
:1014900088819981009711F00E94C02319821882D7
:1014A0001D821C821B821A82DF91CF9108950F93B7
:1014B0001F93CF93DF93EC0188819981009729F0E6
:1014C0002A813B812617370788F48B016F5F7F4F96
:1014D0000E945824009761F0998388831B830A83B4
:1014E0002C813D81232B11F4FC01108281E001C08D
:1014F00080E0DF91CF911F910F910895EF92FF92BD
:101500000F931F93CF93DF93EC017B018A01BA0104
:10151000CEDF811103C0CE01B8DF07C01D830C836D
:10152000B701888199810E946325CE01DF91CF9117
:101530001F910F91FF90EF9008958F929F92AF921D
:10154000BF92CF92DF92EF92FF920F931F93CF93B0
:10155000DF937C01EB016C0182E0C80ED11C4701D6
:10156000E5E08E0E911C00E010E0F60141916F0164
:1015700050E060E070E02AE0CE012BDF5C01E88102
:10158000F9810190F081E02D6EE2CE0119958A0D6E
:101590009B1D080F191FC814D90439F7F70145819D
:1015A00050E060E070E02AE0CE0113DF800F911F71
:1015B000DF91CF911F910F91FF90EF90DF90CF902F
:1015C000BF90AF909F908F900895AF92BF92CF92AF
:1015D000DF92EF92FF920F931F93CF93DF93DC0183
:1015E000CD90DC901197C114D10409F442C0149637
:1015F000CD91DC9115972097E1F18C015601750191
:10160000BFEFAB1ABB0AF7018081082E000C990BC3
:101610000E948D28892B99F72197CC0DDD1D88819B
:10162000082E000C990B0E948D28892B91F4AE0195
:101630004F5F5F4F4E195F09D80115965C934E932B
:101640001497CE14DF0450F4B701C6010E94402560
:1016500005C0CE15DF0558F32197E1CFD801ED91F4
:10166000FC91119714968D919C911597E80FF91F95
:101670001082DF91CF911F910F91FF90EF90DF903B
:10168000CF90BF90AF900895FB0144815581FC013C
:10169000248135812417350778F080819181009766
:1016A00059F0FB01608171816115710529F00E947B
:1016B0006A2521E0892B09F020E0822F0895FC01A2
:1016C00024813581FB01448155812417350721F59B
:1016D000FC0180819181FB0160817181009719F08B
:1016E00061157105A1F46115710549F0232BB1F065
:1016F000FB01808190E09195819591090AC0009746
:1017000069F0232B59F0FC01808190E002C00E9417
:101710005A2521E0892B19F020E001C021E0822F19
:101720000895EF92FF920F931F93CF93DF93FC01E5
:10173000248135816115710511F480E018C04115CF
:101740005105A1F07B01EC018A01020F131FB801C2
:10175000AEDE882391F3288139818C819D81B70188
:10176000820F931F0E9463251D830C8381E0DF910C
:10177000CF911F910F91FF90EF900895CF93DF933A
:10178000EC016115710559F0FB0101900020E9F7AA
:101790003197AF01461B570BC4DF811102C0CE0148
:1017A00074DECE01DF91CF910895CF93DF93EC01EA
:1017B000FB014481558160817181B3DF811102C0D9
:1017C000CE0163DECE01DF91CF910895CF93DF93F9
:1017D000EC016115710551F0FB0101900020E9F762
:1017E0003197AF01461B570B89DE01C04EDECE019B
:1017F000DF91CF910895CF93DF93EC01FB01861722
:10180000970751F0608171816115710521F0448164
:10181000558174DE01C039DECE01DF91CF9108958C
:101820000F931F93CF93DF938C01EB01FC01808119
:1018300091810097B1F0688179816115710579F026
:10184000428153812C813D814217530740F00E9411
:1018500063258C819D81F8019583848313C00E9448
:10186000C02388819981F801918380838A819B813B
:10187000938382838C819D819583848319821882CE
:101880001B821A821D821C82DF91CF911F910F91C2
:101890000895FC01808191810C94C023EF92FF9206
:1018A0000F931F93CF93DF93CDB7DEB7A1970FB6FA
:1018B000F894DEBF0FBECDBF7C01CB01BA01F701AA
:1018C00011821082138212821582148242E0420F2A
:1018D0008E010F5F1F4F0E94A125BC01C70176DF5B
:1018E000A1960FB6F894DEBF0FBECDBFDF91CF91AA
:1018F0001F910F91FF90EF9008950F931F93CF9337
:10190000DF93CDB7DEB762970FB6F894DEBF0FBE98
:10191000CDBF8C01CB01F80111821082138212829B
:101920001582148250E0BE016F5F7F4F0E94E62552
:10193000BE016F5F7F4FC80149DF62960FB6F89412
:10194000DEBF0FBECDBFDF91CF911F910F910895E4
:10195000FC011182108213821282158214824BCFF5
:10196000FC01118210821382128215821482611589
:10197000710549F0FB0101900020E9F73197AF01B3
:10198000461B570BBBCD0895BF92CF92DF92EF92CB
:10199000FF920F931F93CF93DF937C016B018A011A
:1019A000E9012417350720F4812F8901C42FD82F8E
:1019B00066E073E0C701D4DFD60114968D919C9147
:1019C000159708171907C8F48C179D0708F4EC0140
:1019D000D601ED91FC911197EC0FFD1FB0801082A4
:1019E0004D915C91BA01600F711FC701EFDED60106
:1019F000ED91FC91EC0FFD1FB082C701DF91CF91FB
:101A00001F910F91FF90EF90DF90CF90BF900895BE
:101A10001F920F920FB60F9211240BB60F922F93B5
:101A20003F934F935F936F937F938F939F93AF9366
:101A3000BF93EF93FF938EE695E093DBFF91EF91D9
:101A4000BF91AF919F918F917F916F915F914F91D6
:101A50003F912F910F900BBE0F900FBE0F901F90D4
:101A600018951F920F920FB60F9211240BB60F927A
:101A70002F933F934F935F936F937F938F939F9396
:101A8000AF93BF93EF93FF938EE695E011DBFF9149
:101A9000EF91BF91AF919F918F917F916F915F91E6
:101AA0004F913F912F910F900BBE0F900FBE0F9053
:101AB0001F9018951F920F920FB60F9211240BB61C
:101AC0000F922F933F934F935F936F937F938F93D7
:101AD0009F93AF93BF93EF93FF938BE096E041DB2F
:101AE000FF91EF91BF91AF919F918F917F916F91F6
:101AF0005F914F913F912F910F900BBE0F900FBEB2
:101B00000F901F9018951F920F920FB60F921124ED
:101B10000BB60F922F933F934F935F936F937F93E7
:101B20008F939F93AF93BF93EF93FF938BE096E0D8
:101B3000BFDAFF91EF91BF91AF919F918F917F910C
:101B40006F915F914F913F912F910F900BBE0F902E
:101B50000FBE0F901F901895CF93DF93282F30E082
:101B6000F901E45DFE4F8491F901EA5FFC4FD491E5
:101B7000F901E054FD4FC491CC2389F08111ACDB15
:101B8000EC2FF0E0EE0FFF1FEA55FD4FA591B49149
:101B9000EC91ED2381E090E021F480E002C080E050
:101BA00090E0DF91CF9108951F93CF93DF93282F7B
:101BB00030E0F901E45DFE4F8491F901EA5FFC4FEA
:101BC000D491F901E054FD4FC491CC23C1F0162FFC
:101BD000811182DBEC2FF0E0EE0FFF1FEE58FE4F7D
:101BE000A591B4918FB7F894111105C09C91ED2F78
:101BF000E095E92302C0EC91ED2BEC938FBFDF91D0
:101C0000CF911F910895CF93DF9390E0FC01EA5F9D
:101C1000FC4F2491FC01E054FD4F8491882361F135
:101C200090E0880F991FFC01E457FD4FC591D491B6
:101C3000FC01EE58FE4FA591B491611109C09FB708
:101C4000F8948881209582238883EC912E230BC001
:101C5000623061F49FB7F8943881822F8095832396
:101C60008883EC912E2B2C939FBF06C08FB7F894DE
:101C7000E8812E2B28838FBFDF91CF9108958F921B
:101C80009F92AF92BF92CF92DF92EF92FF926B0141
:101C90007C0178DB4B015C01C114D104E104F10447
:101CA000E9F070DBDC01CB0188199909AA09BB09AD
:101CB000883E9340A105B10578F321E0C21AD1080E
:101CC000E108F10888EE880E83E0981EA11CB11C83
:101CD000C114D104E104F10421F7DECFFF90EF90AD
:101CE000DF90CF90BF90AF909F908F9008952FB7C7
:101CF000F894609153057091540580915505909129
:101D000056052FBF08951F920F920FB60F92112400
:101D10002F933F938F939F93AF93BF9380915305DE
:101D200090915405A0915505B091560530915205FA
:101D300023E0230F2D3720F40196A11DB11D05C00E
:101D400026E8230F0296A11DB11D20935205809312
:101D5000530590935405A0935505B0935605809173
:101D6000570590915805A0915905B0915A050196D3
:101D7000A11DB11D8093570590935805A093590557
:101D8000B0935A05BF91AF919F918F913F912F9141
:101D90000F900FBE0F901F901895CF92DF92EF9289
:101DA000FF920F931F93CF93DF93EC017A018B0186
:101DB0006C01C40ED51ECC15DD0579F06AD28FE01A
:101DC0006AD28D2F68D28C2F66D2219680E063D2A2
:101DD000F80181938F015BD2EECFC701DF91CF91E4
:101DE0001F910F91FF90EF90DF90CF900895CF92C9
:101DF000DF92EF92FF920F931F93CF93DF93EC014B
:101E00007A018B016C01C40ED51ECC15DD0571F075
:101E100040D280EF40D28D2F3ED28C2F3CD22196E3
:101E2000F80181918F0137D232D2EFCFC701DF9114
:101E3000CF911F910F91FF90EF90DF90CF90089579
:101E40001F93CF93DF931F921F92CDB7DEB7182F4A
:101E50006A8399831ED280EF1ED29981892F1BD26B
:101E6000812F19D26A81862F16D211D281E00F906C
:101E70000F90DF91CF911F9108950895CF93DF9335
:101E80001F92CDB7DEB76983DC01ED91FC91028032
:101E9000F381E02D41E050E0BE016F5F7F4F199567
:101EA0000F90DF91CF9108951F93CF93DF93182F59
:101EB00066E270E00E949502C82FD0E067E270E011
:101EC000812F0E949502DC2FCC279E01282BC9016F
:101ED000DF91CF911F9108951F93CF93DF93182F18
:101EE00060E270E00E949502C82FD0E061E270E0ED
:101EF000812F0E949502DC2FCC279E01282BC9013F
:101F0000DF91CF911F910895AF92BF92CF92DF9250
:101F1000EF92FF921F93CF93DF93182F5B017A010B
:101F200080E590E00E94BC02C0E0D0E0812FBCDFE1
:101F30006C01892B19F0812FB7DFEC01CC15DD0581
:101F4000A9F7209799F463E070E0812F0E94950231
:101F50008431E1F08823D1F0C1E0D0E08C3111F47C
:101F6000C0E0D0E0D195C195D10910C0EC16FD06B6
:101F70000CF4E7011C161D064CF420E0AE01B5017F
:101F8000812FE2D460E470E0812FCCD60E94BB02A6
:101F9000CE01DF91CF911F91FF90EF90DF90CF9016
:101FA000BF90AF900895CF93DF93FC01218D328DC8
:101FB0002115310519F48FEF9FEF10C0EC01421786
:101FC000530708F0A901888D9FDF181619069CF7A2
:101FD000298D3A8D281B390B3A8F298FDF91CF91AC
:101FE00008950F931F93CF93DF931F92CDB7DEB762
:101FF000FC01218D328D232B59F08C0141E050E002
:10200000BE016F5F7F4F808D7FDF181619061CF0B1
:102010008FEF9FEF08C0F801818D928D0197928F0D
:10202000818F898190E00F90DF91CF911F910F9167
:1020300008951F93CF93DF931F92CDB7DEB7FC01B6
:10204000218D328D232B91F0108D80E590E00E9440
:10205000BC0221E041E050E0BE016F5F7F4F812F65
:1020600073D40E94BB02898190E002C08FEF9FEF82
:102070000F90DF91CF911F9108957F928F929F9241
:10208000AF92BF92CF92DF92EF92FF920F931F9386
:10209000CF93DF935C014B016A01FC01068917892C
:1020A000708C80E590E00E94BC02C0E0D0E0872DFB
:1020B00013DF7C01892B19F0872D0EDFEC01CE1583
:1020C000DF05A9F7CC15DD0568F4C0E0D0E0872D69
:1020D00003DF6C01892B19F0872DFEDEEC01CC1596
:1020E000DD05A9F764E270E0872D0E949502E82ED5
:1020F000F12C65E270E0872D0E949502FE2CEE2403
:10210000E82AE701C00FD11F9E013770E72CF12CA0
:10211000C701880F991FAC01425A5A4F7A01FA0140
:1021200080819181820F931FA9014C0D5D1D41306B
:10213000584088F000E018E0021B130BA801B4011E
:1021400056DEA601401B510BB401600F711FF70151
:102150008081918102C0A601B40149DECC0DDD1D54
:102160004D2F64E270E0872D0E948B024C2F65E2B8
:1021700070E0872D0E948B020E94BB02F5018689C8
:1021800097898C0D9D1D978B868BC601DF91CF9112
:102190001F910F91FF90EF90DF90CF90BF90AF9085
:1021A0009F908F907F900895BF92CF92DF92EF9291
:1021B000FF920F931F93CF93DF93CDB7DEB728978E
:1021C0000FB6F894DEBF0FBECDBF8C01F801818D34
:1021D000928D892B49F0D801ED91FC910680F78111
:1021E000E02DC8011995F2CFB08C80E590E00E94F7
:1021F000BC02E12CF12C8B2D57DE6C01892B19F0E0
:102200008B2D52DE7C01EC14FD04A9F70E94BB0269
:102210001E141F0454F548E050E0BE016F5F7F4F6D
:10222000D80158968C9170DE9C0118161906DCF4C2
:1022300089819A81AB81BC81F801808B918BA28BC3
:10224000B38B8D8190E0982F88272E81820F911D6E
:10225000958B848B2F8130E0322F22278885280FA1
:10226000311D328F218FC90102C080E090E0289695
:102270000FB6F894DEBF0FBECDBFDF91CF911F9197
:102280000F91FF90EF90DF90CF90BF9008952C9A20
:1022900008952C9808958EBD00000DB407FEFDCF63
:1022A0008EB50895CF93C82F80E590E00E94BC02C0
:1022B00060E170E08C2F36D54FEF62E070E08C2F3C
:1022C0000E948B02CF910C94BB02FF920F931F933D
:1022D000CF93DF931F921F92CDB7DEB7F82E8A01FE
:1022E0002A836983DFDF80E590E00E94BC022A81B7
:1022F0006981462F422B60E070E08F2D0E948B0297
:102300000115110551F400915B0510915C050F5FFB
:102310001F4F10935C0500935B05412F64E070E054
:102320008F2D0E948B02402F65E070E08F2D0E9460
:102330008B0261E070E08F2DF5D40E94BB0281E03A
:102340000F900F90DF91CF911F910F91FF90089503
:10235000BF92CF92DF92EF92FF920F931F93CF9392
:10236000DF9300D000D0CDB7DEB7FC01208D243044
:1023700009F05AC06A017B018C01B12C63E070E066
:102380008B2D0E949502811103C0F801B08E06C00A
:102390008831D9F3B394F4E0BF12F0CFF801808D07
:1023A000843009F441C096E0EEE6F2E0DE011196D9
:1023B00001900D929A95E1F7F70193819F779C83A5
:1023C00094819D8395819E83B7016E5F7F4F90E0DE
:1023D000982F882744E050E0845F9B4F08DDF80188
:1023E000F08C4D2D60E170E08F2D0E948B024C2D02
:1023F00061E170E08F2D0E948B02F801808D90E0EA
:10240000982F882746E050E0BE016F5F7F4F8A5FBC
:102410009B4FEDDCF801128E118E20E8A60162E0E0
:10242000808D53DF81E001C080E026960FB6F894DE
:10243000DEBF0FBECDBFDF91CF911F910F91FF90F7
:10244000EF90DF90CF90BF900895CF92DF92EF9200
:10245000FF920F931F93CF93DF93CDB7DEB7C25494
:10246000D1090FB6F894DEBF0FBECDBFFC0182814B
:102470009381A481B58123968CAF9DAFAEAFBFAFE2
:10248000239721E023962FAF239723964CAD5DAD84
:102490006EAD7FAD23974BAB5CAB6DAB7EAB89AFC5
:1024A0009AAFABAFBCAF8DA79EA7AFA7B8AB28AB19
:1024B0004DA55EA56FA578A94FA358A769A77AA7D0
:1024C0002EAB4BA95CA96DA97EA949A35AA36BA306
:1024D0007CA38B8F9C8FAD8FBE8F48E852E05C8BC6
:1024E0004B8B3FEF3D8B3E8B3F8B188E5E874D872E
:1024F0002AA7CFA0D8A4E9A4FAA4CF86D88AE98ACB
:10250000FA8A2CA309A11AA12BA13CA109871A8739
:102510002B873C875A8349838B839C83AD83BE83FF
:102520006CE271E080E090E0AADB1FB7F894809144
:102530005D05811123C0E5EFF2E08491EBE3F3E068
:102540009491E82FF0E0EE0FFF1FE457FD4FA591A7
:10255000B491EC91E92319F461E085E325DB61E0B6
:1025600085E351DB8CB580618CBD8CB580648CBDFE
:1025700061E084E348DB61E083E345DB80915D0556
:102580008F5F80935D051FBF249A80E590E00E94D5
:10259000BC0260E880E090E053DC65E58BE190E010
:1025A0004FDC65E58AE190E04BDC0E94BB0280E0F5
:1025B00090E490935F0580935E0580E090E69093B1
:1025C00067058093660580E098E4909361058093A9
:1025D000600580E098E6909369058093680580E047
:1025E00090E5909363058093620580E090E7909377
:1025F0006B0580936A0580E098E59093650580936C
:10260000640580E098E790936D0580936C0580E504
:1026100090E00E94BC0246E050E060E072E089E099
:1026200090E0E5DB44E050E0BE016D5F7F4F8FE05E
:1026300090E0DDDB44E050E0BE01615F7F4F81E070
:1026400090E0D5DB44E050E0BE016B5E7F4F85E05B
:1026500090E0CDDB0E94BB0281E08C8789859A8562
:10266000AB85BC858093AA069093AB06A093AC067D
:10267000B093AD06CE5BDF4F0FB6F894DEBF0FBE52
:10268000CDBFDF91CF911F910F91FF90EF90DF9021
:10269000CF9008956F927F928F929F92AF92BF9248
:1026A000CF92DF92EF92FF920F931F93CF93DF931E
:1026B000EC017093B9066093B8068091B6069091CC
:1026C000B7060E94F1066091B8067091B906809134
:1026D000B6069091B7060E94C60640E068EB80916E
:1026E000B6069091B7060E94850640E060E08091B2
:1026F000B6069091B7060E9485068091B606909125
:10270000B7060E94F1066091B8067091B9068091F3
:10271000B6069091B7060E94C60640E06EEB809127
:10272000B6069091B7060E94850640E060E0809171
:10273000B6069091B7060E9485067E014E0189E09B
:10274000880E911C8E016090B6067090B70688E0E6
:10275000A82EB12CCC24C394D12CC3010E943206E4
:102760008111DC28CC0CA1E0AA1AB108B1F7F8015C
:10277000D1928F01E815F90531F789E0E0E0815049
:1027800049F0D7019D917D01E927F0E0E457FE4F24
:10279000E491F5CF81E09885E91380E0DF91CF9156
:1027A0001F910F91FF90EF90DF90CF90BF90AF906F
:1027B0009F908F907F906F900895CF93C82F8091B6
:1027C000B6069091B7060E94F1066091B806709126
:1027D000B9068091B6069091B7060E94C606CC2332
:1027E000E9F040E064E48091B6069091B7060E945B
:1027F00085066AE070E080E090E041DA8091B606FC
:102800009091B7060E94F1066091B8067091B906E2
:102810008091B6069091B7060E94C60640E064EB30
:102820008091B6069091B7060E94850668E070E038
:1028300080E090E024DA81E0CF910895CF92DF929A
:10284000FF920F931F93CF93DF93CDB7DEB72997F6
:102850000FB6F894DEBF0FBECDBF8C017093B906E2
:102860006093B806CE01019615DFF82E882309F48F
:102870005CC099810130110511F4986001C0977F07
:1028800099838091B6069091B7060E94F1066091F7
:10289000B8067091B9068091B6069091B7060E946D
:1028A000C60640E06EE48091B6069091B7060E949D
:1028B000850640E060E08091B6069091B7060E94E0
:1028C00085068E010F5F1F4F6E0189E0C80ED11C77
:1028D000F80161918F0140E08091B6069091B706B2
:1028E0000E9485060C151D0599F78091B6069091FA
:1028F000B7060E94F1066091B8067091B906809102
:10290000B6069091B7060E94C60640E068E4809142
:10291000B6069091B7060E94850640E060E080917F
:10292000B6069091B7060E9485068F2D29960FB6A0
:10293000F894DEBF0FBECDBFDF91CF911F910F91F5
:10294000FF90DF90CF9008958F929F92AF92BF92A9
:10295000CF92DF92EF92FF920F931F93CF93DF936B
:10296000B82E4B018A01A22E68E270E00E94950207
:10297000C82FD0E069E270E08B2D0E949502DC2F19
:10298000CC27C82B9E013770CB2CD12CC601880FC9
:10299000991FAC014A595A4F6A01FA01808191810D
:1029A000820F931FA801420F531F4130584090F0EF
:1029B00060E078E07B01E21AF30AA701B401EDD9E7
:1029C000A8014E195F09B4016E0D7F1DF6018081CB
:1029D000918102C0A801B401E0D9A1100EC0C00FBE
:1029E000D11F4D2F68E270E08B2D0E948B024C2F7F
:1029F00069E270E08B2D0E948B02DF91CF911F91D5
:102A00000F91FF90EF90DF90CF90BF90AF909F908D
:102A10008F9008952F923F924F925F926F927F9284
:102A20008F929F92AF92BF92CF92DF92EF92FF92DE
:102A30000F931F93CF93DF9300D01F92CDB7DEB7D4
:102A4000FC01848095808114910409F41CC160907C
:102A5000A4077090A5076114710409F414C18B01D7
:102A60009C838B83FB01C480D580C618D708FC01EA
:102A7000E080F180C114D104C9F46091A007709185
:102A8000A107C7010E9487256C01892B09F4FBC0AF
:102A9000F8016081718144815581C6010E94402501
:102AA000F801E480F580EC0CFD1CE7CFD7FE02C0F6
:102AB000570107C04090A0075090A1075401C701DB
:102AC0004AC06091A0077091A107C5010E948725A7
:102AD0004C01892B31F134016A187B08A301B5013F
:102AE000C7010E944025E60CF71CF8016081718146
:102AF00044815581C7010E944025F8018481958158
:102B0000E80EF91EA090A407B090A507A80CB91C68
:102B1000EB81FC81848195818C0D9D1D958384833F
:102B2000D0CFB501C7010F900F900F900F90DF919C
:102B3000CF911F910F91FF90EF90DF90CF90BF90BA
:102B4000AF909F908F907F906F905F904F903F904D
:102B50002F900C946325B2010E948725009729F0DD
:102B6000860D971DAC0CBD1CF6CFA814B90409F452
:102B70008AC0EB81FC81828193818A159B0578F460
:102B8000B5016F5F7F4FC7010E945824009709F479
:102B90007AC0EB81FC8191838083B382A282EB8136
:102BA000FC81E480F580F1E0EF1AF108F7FC6BC0DE
:102BB0004090A4075090A5074114510409F463C044
:102BC000EB81FC81A480B580A114B10409F45BC041
:102BD000A414B50408F457C0EA14FB0420F07501EE
:102BE000F1E0EF1AF108EB81FC81608071802090A8
:102BF000A0073090A107C30188248A94982C9301E0
:102C00002E0D3F1D2817390748F0B10129833A835B
:102C10000E94872529813A81009761F597FC33C08E
:102C2000480C591CC301840D951DA5014419550973
:102C3000BC018C0D9D1D0E944925EB81FC81848186
:102C400095818C0D9D1D9583848320813181F901AF
:102C5000E80FF91F1082EB81FC8180819181F801DE
:102C60006081718144815581880D991D0E944025A4
:102C7000740199CFAC0146195709E416F50608F01E
:102C80004A010196BFCF0F900F900F900F90DF91E8
:102C9000CF911F910F91FF90EF90DF90CF90BF9059
:102CA000AF909F908F907F906F905F904F903F90EC
:102CB0002F9008950F931F931AD860937605709301
:102CC00077058093780590937905E0916E05F091F2
:102CD0006F050680F781E02D8EE695E0199597FF48
:102CE0001EC005D8009176051091770520917805D2
:102CF00030917905DC01CB01801B910BA20BB30B4A
:102D0000009172051091730520917405309175053D
:102D100080179107A207B307C0F28FEF9FEF1F91B3
:102D20000F910895CF93C82F462F61E070E00E9465
:102D30008B0261E070E08C2F0E9495028111F9CF27
:102D4000CF910895CF93DF93CDB7DEB7CD56D1099C
:102D50000FB6F894DEBF0FBECDBF789484B5826005
:102D600084BD84B5816084BD85B5826085BD85B52F
:102D7000816085BD80916E00816080936E001092AD
:102D80008100809181008260809381008091810028
:102D900081608093810080918000816080938000B9
:102DA0008091B10084608093B1008091B000816017
:102DB0008093B00080919100826080939100809117
:102DC0009100816080939100809190008160809358
:102DD00090008091A10082608093A1008091A10069
:102DE00081608093A1008091A00081608093A00009
:102DF0008091210182608093210180912101816075
:102E00008093210180912001816080932001809135
:102E10007A00846080937A0080917A008260809347
:102E20007A0080917A00816080937A0080917A00A4
:102E3000806880937A001092C100E0911B06F091A7
:102E40001C0622E02083E0911706F09118061082FC
:102E5000E0911906F0911A068FEC808310922306F8
:102E6000E0911F06F091200696E09083E0911D0608
:102E7000F0911E06808180618083E0911D06F091B3
:102E80001E06808188608083E0911D06F0911E06F9
:102E9000808180688083E0911D06F0911E0680810C
:102EA0008F7D8083E0917E05F0917F052083E09106
:102EB0007A05F0917B051082E0917C05F0917D050B
:102EC00080E1808310928605E0918205F091830570
:102ED0009083E0918005F0918105808180618083FD
:102EE000E0918005F0918105808188608083E09188
:102EF0008005F0918105808180688083E091800564
:102F0000F091810580818F7D808382E390E0A0E055
:102F1000B0E08093720590937305A0937405B0930D
:102F20007505BAEDEB2EB3E0FB2E0EE112E0D801F1
:102F30008C910E5F1F4F62E00E94030EF701119209
:102F400011927F01F2E00E341F0789F7AEE4CA2E1A
:102F5000A2E0DA2EE12CF12C00E010E0D6018C91F9
:102F6000B2E0CB0ED11C61E00E94030E0F5F1F4F39
:102F70004AE0B801CE0101960E947D0C68E877E036
:102F8000CE0182960E94A80CBE016F5F7F4FCE01DA
:102F900082960E94D50B62EF72E00E94BE0BBC01CC
:102FA000C701865C984F0E94FB0BCE0182960E945F
:102FB000490CCE0101960E94490C4AE0B801CE01AD
:102FC00001960E947D0C68E877E0CE0182960E940F
:102FD000A80CBE016F5F7F4FCE0182960E94D50B79
:102FE00066EF72E00E94BE0BBC01C7018E50994F84
:102FF0000E94FB0BCE0182960E94490CCE010196E5
:103000000E94490C60E0F60180810E94D40DF6E038
:10301000EF0EF11C0C30110509F0A0CFEAEDCE2E19
:10302000E6E0DE2EF6E6EF2EF2E0FF2E00E010E006
:10303000D7018C91B2E0EB0EF11C61E00E94030E0F
:103040000F5F1F4F4AE0B801CE0101960E947D0C30
:1030500062E877E0CE0182960E94A80CBE016F5F05
:103060007F4FCE0182960E94D50BBC01C6010E9403
:10307000FB0BCE0182960E94490CCE0101960E9464
:10308000490CF701B08061E08B2D0E94030E60E0D7
:103090008B2D0E94D40DF6E0CF0ED11C043011050B
:1030A00039F660E08AE30E94030E60E08BE30E9441
:1030B000030E60E08EE30E94030E61E080E20E9456
:1030C000030E82E390E0A0E0B0E08093DA049093F6
:1030D000DB04A093DC04B093DD040E94770E6093C0
:1030E000D6047093D7048093D8049093D9048EEDBE
:1030F00093E0A0E0B0E08093E2049093E304A09317
:10310000E404B093E5040E94770E6093DE047093AC
:10311000DF048093E0049093E10460E1E62E62E036
:10312000F62E00E010E0AA24A394B12CD701DC9085
:10313000B2E0EB0EF11C60E08D2D0E94030E8D2D90
:103140000E94AC0D892B89F420916A0330916B03A6
:10315000C501002E02C0880F991F0A94E2F7822B46
:10316000932B90936B0380936A030F5F1F4F043080
:103170001105E1F660916A0370916B034AE0CE019C
:1031800001960E947D0CBE016F5F7F4F86EA97E03B
:103190000E94100CCE0101960E94490C60916A03B6
:1031A00070916B034AE0CE0101960E947D0C6AE9A2
:1031B00077E0CE0182960E94A80CBE016F5F7F4F20
:1031C000CE0182960E94D50BBC0180EA97E00E9456
:1031D000FB0BCE0182960E94490CCE0101960E9403
:1031E000490C80916A039DEE980F9093050290EC34
:1031F0009093EA0798EA9093EB0796E99093EC078F
:103200008A568093ED0788E892E09A8389838091BB
:10321000EA079091EB07A091EC07B091ED078B8343
:103220009C83AD83BE83CE0101960FD96CE97DEA04
:1032300087EC97E00E942A0362E079ED8CEA97E040
:103240000E942A0361E088E00E94030E60E088E0AB
:103250000E94D40D0AE113E04BE0942ED12CC12C36
:10326000882483945EE0752E78018091D9068111BF
:103270006FC08CEC96E00E94F106811107C010929D
:10328000D7061092D9061092D806F4C040E060EF3D
:103290008CEC96E00E948506AA24A394612C512C04
:1032A000BB24B3948CEC96E00E943206682F8CEC21
:1032B00096E0AD966FAFAD970E943206AD966FADBA
:1032C000AD97613019F48130C9F438C0262D30E053
:1032D00068131EC08091D706B81638F4F901E4537C
:1032E000F94F83818A2151F402C0B81639F060E0A9
:1032F00088E08B1560F0B092D80609C0E62DF0E0AA
:10330000E453F94F83818A29838361E009C05B2CF0
:10331000F901E453F94F93818A2D809589238383A2
:103320008CEC96E00E945606B394AA0C19F46394B0
:10333000AA24A39497E0961508F0B4CFA0E4AB15A7
:1033400038F45092D70651100AC78092D90607C7A1
:103350001092D7061092D9061092D80680E0AFECF2
:10336000B6E05801E8E0AE0EB11CF8019D919193D2
:10337000EA15FB05D9F7882309F47CC088E0E0E072
:10338000815049F0D8019D918D01E927F0E0E45783
:10339000FE4FE491F5CF21E030E0EE2311F020E084
:1033A00030E0F701878190E02817390709F45EC003
:1033B00080818632B1F4F8E0CF9EA001112480E034
:1033C00090E0FC01E40FF51FED58FB4FD701A80F6B
:1033D000B91F2C91208301968830910591F7C394F1
:1033E00045C028E0D29EA001112480E090E0FC01BD
:1033F000E40FF51FEE5DFB4FD701A80FB91F2C910D
:10340000208301968830910591F7D394ECECF6E097
:10341000DE01DE96872D01900D928A95E1F7CE01AF
:10342000CE960E94F106B701CE01CE960E94C60646
:1034300040E06EE4CE01CE960E94850640E060E05A
:10344000CE01CE960E94850640E060E0CE01CE9689
:103450000E94850640E06FE5CE01CE960E9485066B
:1034600040E068E4CE01CE960E9485069A948501DC
:103470009110FACEC092C304D092720438E8432E61
:1034800033E1532E612C712C0E94770EAC967FAFE6
:103490006EAFAC970AEAE02E03E0F02E8AE7C82E62
:1034A00083E0D82E9EE1292E92E0392E2AEDA22E1D
:1034B00023E0B22E01E010E0D5012D913C91F701FF
:1034C00080809180D1018C91B2E02B0E311CAD96A1
:1034D0002FAFAD97AE963FAFAE970E94AC0DAD96B5
:1034E0002FADAD97AE963FADAE972815390509F4CF
:1034F0005FC08816990621F0F7019183808365C02B
:10350000D6018D919C91AC962EAD3FADAC97281B0A
:10351000390B263031050CF458C0D5018D929C92A0
:103520004AE0B801CE01845B9F4F8928A1F40E9434
:103530007D0C64E977E0CE018E5A9F4F0E94A80C63
:10354000BE01645B7F4FCE018E5A9F4F0E94D50B08
:103550006BEF72E013C00E947D0C64E977E0CE014E
:103560008E5A9F4F0E94A80CBE01645B7F4FCE0114
:103570008E5A9F4F0E94D50B6EEF72E00E94BE0BD9
:10358000BC01CE0101960E94A80CCE0101960E94BA
:103590002707CE0101960E94490CCE018E5A9F4FFB
:1035A0000E94490CCE01845B9F4F0E94490C0DC0C4
:1035B0002817390751F0F70191838083AC962EAD1F
:1035C0003FADAC97D6012D933C930F5F1F4F32E078
:1035D000A30EB11C82E0E80EF11C92E0C90ED11CD2
:1035E0000931110509F068CF82E793E00E940608CF
:1035F000811108C066E073E0CE018E5A9F4F0E9491
:10360000B00CDEC084EF91E0A0E0B0E080937603E0
:1036100090937703A0937803B09379030E94770E79
:103620006093720370937303809374039093750394
:10363000B8E1AB2EB2E0BB2E1CE6812E13E0912E3A
:1036400001E010E0D5018C91B2E0AB0EB11C8633E5
:1036500008F0865390917B00282F2870977F922B3B
:1036600090937B008770806480937C0080917A00C7
:10367000806480937A0080917A0086FDFCCF209050
:10368000780080917900312C382AB101032C000C8C
:10369000880B990B0E94AB286B017C01F4016081BF
:1036A0007181072E000C880B990B0E94AB289B019F
:1036B000AC01D4012D923D924D01C701B6010E948B
:1036C000A528882309F44BC020E030E040E251E413
:1036D000C701B6010E940A29AB01BC0122E0CE015C
:1036E000845B9F4F0E944E0C4AE0B801CE018E5A77
:1036F0009F4F0E947D0C6EE877E0CE01885A9F4F65
:103700000E94A80CBE016E5A7F4FCE01885A9F4F6F
:103710000E94D50B63E073E00E94BE0BBE01645BA8
:103720007F4F0E94D50BBC01CE0101960E94A80CD0
:10373000CE0101960E942707CE0101960E94490CF6
:10374000CE01885A9F4F0E94490CCE018E5A9F4F3E
:103750000E94490CCE01845B9F4F0E94490C0F5F71
:103760001F4F0430110509F06DCF44CF8A30910509
:1037700091F02D968FAF2D972E961FAE2E9741E08C
:1037800050E0BE01645B7F4FCE0101960E94910B19
:1037900091DA97FFEBCFBE016F5F7F4FCE018E5A5C
:1037A0009F4F0E94100CCE0101960E94490C60EAC6
:1037B00077E0CE018E5A9F4F0E94440B81113FC08B
:1037C0008EE695E00E949308181619063CF466E010
:1037D00073E0CE0101960E94B00CDACF87EC97E03F
:1037E0000E94D410892B09F4B1C188E1EAE0F4E029
:1037F000DF011D928A95E9F748E150E0BF0187ECAF
:1038000097E00E946F026AE074E0CE0101960E9488
:10381000B00CBE016F5F7F4FCE018E5A9F4F0E944A
:10382000100CCE0101960E94490C60EA77E0CE01AF
:103830008E5A9F4F0E94440B882309F487C166E08B
:1038400073E0CE0101960E94B00CBE016F5F7F4F06
:10385000CE018E5A9F4FDED8CE0101960E94490CB0
:10386000CE018E5A9F4F0E94E50A68E877E0CE01AC
:103870008E5A9F4F0E94440B882361F1AEE4EA2EDA
:10388000A2E0FA2E00E010E0B801665C784FCE01AD
:103890008E5A9F4F0E945F0B882321F061E0F70151
:1038A00080810DC0B8016E50794FCE018E5A9F4F66
:1038B0000E945F0B882329F060E0D7018C910E9461
:1038C000D40D0A5F1F4FB2E0EB0EF11C0834110556
:1038D000D9F63CC162E877E0CE018E5A9F4F0E9434
:1038E000440B882309F432C168962EAD3FAD68972A
:1038F00040918607509187074E5F5F4FBE016E5A19
:103900007F4FCE01845B9F4F0E94C40CF6E6EF2EE2
:10391000F2E0FF2E0AED16E020918607309187072E
:103920002F5F3F4F40E050E0BE016E5A7F4FCE0107
:1039300001960E94C40CB801CE0101960E945F0B53
:10394000D82ECE0101960E94490CDD2009F4EFC06B
:103950002E968EAD9FAD2E97009721F00E94C02528
:10396000962E02C0912C70E0A92CB72EF701C080D2
:10397000D18061E08C2DAD967FAFAD970E94030E94
:10398000AD967FADAD97A114B10409F4CAC0FFEFA5
:10399000AF16B10409F4C7C0F601FF27E45DFE4F7E
:1039A000E4918E2F90E0FC013197E231F10508F0AF
:1039B000B4C08827EE58FF4F8F4FDDC584B58068AF
:1039C00084BD97BCB4C084B5806284BD98BCAFC0D0
:1039D00080918000806880938000892D972F90933C
:1039E000890080938800A3C08091800080628093CA
:1039F0008000892D972F90938B0080938A0097C029
:103A000080918000886080938000892D972F90930B
:103A10008D0080938C008BC08091B0008068809373
:103A2000B0009092B30083C08091B0008062809318
:103A3000B0009092B4007BC0809190008068809329
:103A40009000892D972F90939900809398006FC0D4
:103A500080919000806280939000892D972F9093A1
:103A60009B0080939A0063C080919000886080934F
:103A70009000892D972F90939D0080939C0057C0B4
:103A80008091A00080688093A0008091A0008F7B2F
:103A90008093A000892D972F9093A9008093A80070
:103AA00046C08091A00080628093A000892D972F4E
:103AB0009093AB008093AA003AC08091A0008860E8
:103AC0008093A000892D972F9093AD008093AC0038
:103AD0002EC080912001806880932001892D972F2E
:103AE000909329018093280122C080912001806257
:103AF00080932001892D972F90932B0180932A0189
:103B000016C080912001886080932001892D972F15
:103B100090932D0180932C010AC020E8A216B104D5
:103B200014F460E001C061E08C2D0E94D40D0A5FA6
:103B30001F4F32E0E30EF11C86E0023F180709F048
:103B4000EBCECE01845B9F4F0E94490CCE018E5A72
:103B50009F4F0E94490C1091D5041130D9F138F0D3
:103B6000123009F4F0C1133009F421C2B5C28DEC52
:103B700094E00E940608882309F4AEC280E395E72A
:103B8000A0E0B0E08093D1049093D204A093D3043A
:103B9000B093D4040E94770E6093CD047093CE044A
:103BA0008093CF049093D0044092C9045092CA04E9
:103BB0006092CB047092CC040E94770E6093C5048F
:103BC0007093C6048093C7049093C8041092C404F1
:103BD00081E0EAC185EC94E00E940608882309F49C
:103BE0007BC28091C4049091C304891708F0A7C1D7
:103BF00097E09093BA061092BB061092BC06109202
:103C0000BD061092BE061092BF061092C00610921A
:103C1000C1061092C2061092C3061092C4061092FA
:103C2000C5061092C6061093CB061092C7061092D6
:103C3000C8061092C9061092CA06A8E08A9FC00161
:103C400011248D589B4F9093B9068093B8060E941B
:103C5000770E6093C7067093C8068093C906909349
:103C6000CA061091BA0610FD03C0143009F05FC0F7
:103C70006091B8067091B90680E090E00E941E1431
:103C8000882309F4BCC012FB112710F9812F0E9470
:103C9000DD13882309F4B3C06091B8067091B906AA
:103CA000CE0101960E944A13882309F4A8C011236B
:103CB000F9F06B8170E0762F66278A81682BE3E04C
:103CC00075956795EA95E1F7072E000C880B990B1F
:103CD0000E94AB2820E030E040E05DE30E940A292A
:103CE0006093BB067093BC068093BD069093BE069E
:103CF0008091BA0680FF1BC06D8170E0762F662729
:103D0000662773708C81682B072E000C880B990B2B
:103D10000E94AB2820E030E048EC52E434D46093B9
:103D2000BF067093C0068093C1069093C20610919F
:103D3000BA0611FF62C012FF03C01095117001C0D6
:103D400010E06091B8067091B90681E090E00E94A1
:103D50001E14882309F453C0812F0E94DD13882389
:103D600009F44DC06091B8067091B906CE01019674
:103D70000E944A13882309F442C01123F9F06B8191
:103D800070E0762F66278A81682B33E075956795FA
:103D90003A95E1F7072E000C880B990B0E94AB288F
:103DA00020E030E040E05DE30E940A296093BB061A
:103DB0007093BC068093BD069093BE066F8170E041
:103DC000762F66278E81682B77FF03C071956195EA
:103DD0007109072E000C880B990B0E94AB2820E07C
:103DE00030E040E859E30E940A296093C3067093CB
:103DF000C4068093C5069093C6061092CB068091A8
:103E0000CB06811196C04091C3065091C4066091C3
:103E1000C5067091C60622E0CE01845B9F4F0E94CA
:103E20004E0C4091BF065091C0066091C106709142
:103E3000C20622E0CE018E5A9F4F0E944E0C609126
:103E4000BB067091BC068091BD069091BE066A9635
:103E50001FAE1EAE6A976C961FAE1EAE6C976E9626
:103E60001FAE1EAE6E978E010F5F1F4F22E044E023
:103E700068D6BC01CE01885A9F4F0E94E60B609124
:103E8000C404B8E06B9FB00111246D587B4FCE0184
:103E9000825A9F4F0E94BB0761E073E0CE018C59AC
:103EA0009F4F0E94B00CBE01625A7F4FCE018C59C9
:103EB0009F4F0E94D50B63E073E00E94BE0BBE01D2
:103EC000685A7F4F0E94D50B63E073E00E94BE0BDF
:103ED000BE016E5A7F4F0E94D50B63E073E00E94D3
:103EE000BE0BBE01645B7F4F0E94D50BBC01C801B5
:103EF0000E94A80CC8010E942707C8010E94490C13
:103F0000CE018C599F4F0E94490CCE01825A9F4F7F
:103F10000E94490CCE01885A9F4F0E94490CCE0145
:103F20008E5A9F4F0E94490CCE01845B9F4F0E9486
:103F3000490C8091C4048F5F8093C404CDC010925B
:103F4000C40482E031C085EC94E00E940608882316
:103F500009F4C2C01091C40480917204181708F5C6
:103F60008EE0ECECF6E0DE01D09601900D928A95A1
:103F7000E1F7CE01C0960E94F106E8E01E9FB00175
:103F800011246E5D7B4FCE01C0960E94C60641E0B3
:103F900064E4CE01C0960E9485061F5F1093C4049E
:103FA0009BC01092C40483E08093D50495C085EC37
:103FB00094E00E940608882309F48EC01091C4047E
:103FC00080917204181708F085C08EE0ECECF6E0E2
:103FD000DE01929601900D928A95E1F7CE018296CC
:103FE0000E94F106F8E01F9FB00111246E5D7B4F27
:103FF000CE0182960E94C60640E06EEBCE0182960C
:104000000E9485069E012F5F3F4F69017E013AE0C5
:10401000E30EF11C08E010E0AA24A394B12CCE0119
:1040200082960E9432068111BA28AA0C0150110909
:10403000B1F7D601BD926D01AE15BF0559F76A8182
:1040400070E0762F66278981682B072E000C880B7D
:10405000990B0E94AB2820E030E040E85DE30E942D
:104060000A29AB01BC0122E0CE01845B9F4F0E9474
:104070004E0C6091C404B8E06B9FB00111246E5DDA
:104080007B4FCE018E5A9F4F0E94BB0761E073E0C9
:10409000CE01885A9F4F0E94B00CBE016E5A7F4FCE
:1040A000CE01885A9F4F0E94D50B63E073E00E94B7
:1040B000BE0BBE01645B7F4F0E94D50BBC01CE01DD
:1040C00001960E94A80CCE0101960E942707CE01FE
:1040D00001961ECF1092D5048EED94E00E94060842
:1040E000882381F182E390E0A0E0B0E08093DA04DD
:1040F0009093DB04A093DC04B093DD040E94770E60
:104100006093D6047093D7048093D8049093D90415
:104110008EED93E0A0E0B0E08093E2049093E3049E
:10412000A093E404B093E5040E94770E6093DE044C
:104130007093DF048093E0049093E10461E080E2F7
:104140000E94D40D86ED94E00E940608882321F099
:1041500060E080E20E94D40D0E94390995C98091E7
:10416000CF06882309F4F4C881E0F9C8CF93DF9320
:104170008CEE96E00E94490C86EE96E00E94490C77
:1041800080EE96E00E94490C8AED96E00E94490C70
:10419000CAE3D7E02697CE010E94490C86E0C23FD1
:1041A000D807C1F7C2E8D7E02697CE010E94490C94
:1041B00087E0CA33D807C1F782E897E00E94490C2C
:1041C00088E897E00E94490C8EE897E00E94490C2D
:1041D00084E997E00E94490C8AE997E00E94490C23
:1041E00080EA97E00E94490C86EA97E0DF91CF9140
:1041F0000C94490CCF93DF9388E892E09093F507F5
:104200008093F4071092F6071092F7071092F807C0
:104210001092F907109271051092700548EE53E064
:1042200060E070E0409372055093730560937405ED
:104230007093750528E732E030936F0520936E0583
:10424000EDECF0E0F0937B05E0937A05ECECF0E028
:10425000F0937D05E0937C05E8ECF0E0F0937F05BA
:10426000E0937E05E9ECF0E0F0938105E0938005B2
:10427000EAECF0E0F0938305E0938205EEECF0E0E9
:10428000F0938505E09384051092870510928805C8
:104290001092890510928A0510920E0610920D0652
:1042A00040930F0650931006609311067093120608
:1042B00030930C0620930B0625EC30E03093180663
:1042C0002093170624EC30E030931A062093190649
:1042D00020EC30E030931C0620931B0621EC30E0EC
:1042E00030931E0620931D0622EC30E0309320060A
:1042F00020931F0626EC30E03093220620932106FF
:104300001092240610922506109226061092270677
:104310009093FB078093FA071092FC071092FD0719
:104320001092FE071092FF079093010880930008F7
:1043300010920208109203081092040810920508C7
:1043400090930708809306081092080810920908B5
:1043500010920A0810920B0890930D0880930C0895
:1043600010920E0810920F08109210081092110867
:104370009093A9068093A8061092AA061092AB0605
:104380001092AC061092AD069093B1068093B006E1
:104390001092B2061092B3061092B4061092B506AF
:1043A0009093130880931208109214081092150825
:1043B00010921608109217089093EF078093EE075B
:1043C0001092F0071092F1071092F2071092F30783
:1043D0009093E9078093E8071092EA071092EB07A1
:1043E0001092EC071092ED079093E3078093E20799
:1043F0002FEF2093E4072093E5072093E60720930F
:10440000E7071092CA071092C9074093CB07509351
:10441000CC076093CD077093CE07E0EDF2E0F09308
:10442000C807E093C7079093D6078093D5071092EB
:10443000D7071092D8071092D9071092DA0724E014
:104440002093DF071092AF071092AE074093B0079A
:104450005093B1076093B2077093B307F093AD0721
:10446000E093AC079093BB078093BA071092BC0708
:104470001092BD071092BE071092BF072093C40789
:1044800066E073E086EA97E00E94B00C66E073E0B5
:1044900080EA97E00E94B00C67E073E08AE997E059
:1044A0000E94B00C6CE073E084E997E00E94B00CCD
:1044B0006FE073E08EE897E00E94B00C62E173E079
:1044C00088E897E00E94B00C65E173E082E897E02D
:1044D0000E94B00CCAE3D7E066E073E0CE010E9410
:1044E000B00C269687E0C238D807B1F7C2EFD6E005
:1044F00066E073E0CE010E94B00C269687E0CA33D6
:10450000D807B1F7CAEDD6E066E073E0CE010E94AD
:10451000B00C269686E0C23FD807B1F760E089E08C
:104520000E94030EEFE0F3E0E491E093CC06E9ECA7
:10453000F2E0E491F0E0EE0FFF1FEA55FD4F8591A8
:1045400094919093CE068093CD061092D706109248
:10455000D9061092D806E7EDF6E0129286E0EF3C1D
:10456000F807D9F78CEC96E09093B7068093B606DF
:10457000DF91CF910895EE0FFF1F881F8BBF07902B
:10458000F691E02D19940CD0C2C6BAD640F0B1D63F
:1045900030F021F45F3F19F0A3C65111ECC6A6C656
:1045A000C7D698F39923C9F35523B1F3951B550B3F
:1045B000BB27AA2762177307840738F09F5F5F4FF6
:1045C000220F331F441FAA1FA9F333D00E2E3AF037
:1045D000E0E830D091505040E695001CCAF729D051
:1045E000FE2F27D0660F771F881FBB1F26173707A0
:1045F0004807AB07B0E809F0BB0B802DBF01FF27D0
:1046000093585F4F2AF09E3F510568F069C6B3C6C4
:104610005F3FECF3983EDCF3869577956795B79509
:10462000F7959F5FC9F7880F911D9695879597F924
:104630000895E1E0660F771F881FBB1F621773079D
:104640008407BA0720F0621B730B840BBA0BEE1FB2
:1046500088F7E0950895CF93DF938230910510F4A9
:1046600082E090E0E0911A08F0911B0820E030E031
:10467000C0E0D0E0309711F14081518148175907CF
:10468000C0F04817590761F482819381209719F08F
:104690009B838A832BC090931B0880931A0826C0A3
:1046A0002115310519F04217530718F49A01BE017C
:1046B000DF01EF010280F381E02DDCCF2115310510
:1046C00009F1281B390B2430310590F412968D9195
:1046D0009C9113976115710521F0FB0193838283EF
:1046E00004C090931B0880931A08FD01329644C0C1
:1046F000FD01E20FF31F81939193225031092D9315
:104700003C933AC02091180830911908232B41F4AA
:10471000209108023091090230931908209318085B
:1047200020910602309107022115310541F42DB781
:104730003EB740910A0250910B02241B350BE091C9
:104740001808F0911908E217F307A0F42E1B3F0B8D
:104750002817390778F0AC014E5F5F4F24173507F3
:1047600048F04E0F5F1F509319084093180881932B
:10477000919302C0E0E0F0E0CF01DF91CF91089586
:104780000F931F93CF93DF93009709F48CC0FC0124
:1047900032971382128200911A0810911B0801159A
:1047A000110581F420813181820F931F2091180817
:1047B000309119082817390779F5F0931908E09313
:1047C000180871C0D80140E050E0AE17BF0750F4A0
:1047D00012962D913C911397AD012115310509F1E8
:1047E000D901F3CF9D01DA01338322836081718186
:1047F000860F971F8217930769F4EC01288139818E
:10480000260F371F2E5F3F4F318320838A819B8184
:1048100093838283452B29F4F0931B08E0931A08B5
:1048200042C01396FC93EE931297ED014991599172
:104830009E01240F351FE217F30771F480819181E7
:10484000840F951F029611969C938E93828193817B
:1048500013969C938E931297E0E0F0E0D8011296A5
:104860008D919C911397009719F0F8018C01F6CF68
:104870008D919C9198012E5F3F4F820F931F209145
:104880001808309119082817390769F4309729F466
:1048900010921B0810921A0802C013821282109301
:1048A000190800931808DF91CF911F910F91089577
:1048B0006F927F928F929F92AF92BF92CF92DF9230
:1048C000EF92FF920F931F93CF93DF93EC0100972A
:1048D00081F4CB01DF91CF911F910F91FF90EF9069
:1048E000DF90CF90BF90AF909F908F907F906F9010
:1048F000B2CEFC01E60FF71F9C0122503109E217EE
:10490000F30708F4A8C0D9010D911C91119706175F
:104910001707A8F00530110508F49BC0C8010497DB
:104920008617970708F495C002501109061B170B4C
:10493000019311936D937C93CF0122DF8AC05B01B9
:10494000A01AB10A4C01800E911EA0911A08B091D4
:104950001B0840E050E0E12CF12C109709F44AC00C
:10496000A815B905D1F56D907C901197630182E08F
:10497000C80ED11CCA14DB0480F1A3014A195B09DB
:104980006A0182E0C80ED11C1296BC901297139651
:10499000AC91B5E0CB16D10440F0B282A383518331
:1049A0004083D9016D937C930AC00E5F1F4FC301F2
:1049B000800F911FF90191838083EB2DFA2FE11471
:1049C000F10431F0D7011396FC93EE93129741C096
:1049D000F0931B08E0931A083CC08D919C911197AD
:1049E0004817590708F4AC017D0112960D90BC914F
:1049F000A02DB3CF809118089091190888159905BA
:104A0000E1F446175707C8F4809106029091070217
:104A1000009741F48DB79EB740910A0250910B0266
:104A2000841B950BE817F907B0F4F0931908E0938D
:104A30001808F901718360830CC0CB010CDE7C0186
:104A4000009749F0A801BE011BD0CE0199DEC70135
:104A500004C0CE0102C080E090E0DF91CF911F91B1
:104A60000F91FF90EF90DF90CF90BF90AF909F900D
:104A70008F907F906F90089581E090E0F894A3C4A8
:104A8000FB01DC0102C001900D9241505040D8F76B
:104A900008956817790768F4FB01DC01E40FF51F3E
:104AA000A40FB51F02C002900E9241505040D8F79B
:104AB0000895E6CFFB01DC018D9101908019011072
:104AC000D9F3990B0895FB01DC0101900D920020B0
:104AD000E1F70895FB01DC014150504030F08D9129
:104AE0000190801919F40020B9F7881B990B0895DB
:104AF000FB01DC014150504048F001900D92002034
:104B0000C9F701C01D9241505040E0F70895FB01E4
:104B100051915523A9F0BF01DC014D914517411179
:104B2000E1F759F4CD010190002049F04D91401575
:104B30004111C9F3FB014111EFCF81E090E00197F2
:104B40000895EF920F931F93CF93DF93E80147FDF2
:104B500002C034E001C034E1E42F440FFF0BF7FF43
:104B600003C0F195E195F109E32E022F2E2FAE013E
:104B70006FD0CE01DF91CF911F910F91EF900895EB
:104B80001F93FC0199278827BC01E89411911032EA
:104B9000E9F3193010F01E30C8F31B3249F01D3212
:104BA00041F4689405C026D0610F711D811D911DCF
:104BB000119110531A30B8F33EF49095809570958A
:104BC00061957F4F8F4F9F4F1F910895453251053B
:104BD00018F4423008F004C0FB011082CB010895A4
:104BE000BB274A3031F4992322F4BDE29095819598
:104BF0009F4F16C0592F482F372F262F660F771F2C
:104C0000881F991F660F771F881F991F620F731FD8
:104C1000841F951F660F771F881F991F0895BB2754
:104C2000FB015527AA27880F991FAA1FA41710F068
:104C3000A41B83955051B9F7A05DAA3308F0A95D74
:104C4000A193009779F7B111B1931192CB016DC285
:104C50004F925F926F927F929F92AF92BF92CF924C
:104C6000DF92EF92FF920F931F93CF93DF93CDB715
:104C7000DEB729970FB6F894DEBF0FBECDBF6A012D
:104C8000122FB02E2BE3201720F0FF24F394F00E08
:104C900002C0BCE3FB2E0F2D27E0AE014F5F5F4F3C
:104CA00064D1AC018981982F9970913031F0E1FC89
:104CB00006C0E0FE06C090E205C09DE203C09BE294
:104CC00001C090E0EE2DE07183FF3CC0911102C065
:104CD00083E001C084E0811718F4212F281B01C054
:104CE00020E0E1110BC0F601822F30E2882319F099
:104CF00031938150FBCFC20ED11C20E0992329F0C3
:104D0000D6019C93F60131966F01C6010396E2FE2F
:104D10000AC03EE4D6013C9341E411964C931197AE
:104D200012963C9306C03EE6F601308341E641838D
:104D30003283FC01322F40E2332309F442C0419315
:104D40003150FACF82FF44C0911102C083E001C00C
:104D500084E0811718F4212F281B01C020E0E11105
:104D60000BC0F601822F30E2882319F03193815075
:104D7000FBCFC20ED11C20E0992329F0D6019C93D1
:104D8000F60131966F01C6010396E2FE0BC039E4CD
:104D9000D6013C933EE411963C93119736E412966B
:104DA0003C9307C039E6F60130833EE6318336E6B0
:104DB0003283FC01322F40E2332319F0419331500A
:104DC000FBCFFC01E20FF11D10828EEF9FEFB7C009
:104DD000F1E0911101C0F0E06F2F70E0141615069C
:104DE00024F49A012F5F3F4F02C021E030E0260FEC
:104DF000371FBB2029F06B2D70E06F5F7F4F02C023
:104E000060E070E0260F371F612F70E0261737072C
:104E10001CF4121B212F01C020E03E2D387159F4E3
:104E2000D601322F60E2332319F06D933150FBCF5E
:104E3000C20ED11C20E0FF2331F0D6019C93B601B5
:104E40006F5F7F4F6B01E1110BC0F601922F30E3D2
:104E5000992319F031939150FBCFC20ED11C20E061
:104E60009F2D940F3A81782F7071A72E84FF03C075
:104E7000313309F49150191624F4993018F098E060
:104E800001C091E0E42F852F57FF02C0E0E080E0F1
:104E90006E2F782FE0E0F0E0AEE29A2E3A01691A28
:104EA00071082A01461A570A0B2D10E01195019539
:104EB00011096F3F8FEF780729F4D6019C92C60144
:104EC00001966C014617570784F0661677066CF456
:104ED0007F01E40CF51CA1E0B0E0AC0FBD1FEA0EB1
:104EE000FB1ED7011196BC9002C090E3B92E615011
:104EF00071093196C60101967C016017710724F093
:104F0000D601BC926C01D5CF6417750741F43633D6
:104F100020F4353321F4A11002C081E3B82EF6014C
:104F2000B082F701822F90E2882319F0919381508B
:104F3000FBCFF701E20FF11D108280E090E029968F
:104F40000FB6F894DEBF0FBECDBFDF91CF911F919A
:104F50000F91FF90EF90DF90CF90BF90AF909F9018
:104F60007F906F905F904F900895283008F027E071
:104F70003327DA01990F311D87FD91600096610595
:104F8000710539F432602E5F3D9330E32A95E1F7E5
:104F900008959F3F30F080387105610509F03C5F4E
:104FA0003C5F3D93913008F08068911DDF93CF9373
:104FB0001F930F93FF92EF92192F987F9695E92FE9
:104FC00096959695E90FFF27EA55FC4F99273327C9
:104FD000EE24FF24A701E70105900894079428F424
:104FE000360FE71EF81E491F511D660F771F881FD9
:104FF000991F0694A1F70590079428F4E70EF81E70
:10500000491F561FC11D770F881F991F661F0694E1
:10501000A1F70590079428F4F80E491F561FC71FE3
:10502000D11D880F991F661F771F0694A1F7059061
:10503000079420F4490F561FC71FD81F990F661FEA
:10504000771F881F0694A9F784911095177041F077
:10505000D695C79557954795F794E7941A95C1F754
:10506000ECE4F3E068941590159135916591959174
:1050700005907FE27395E118F10A430B560BC90BBB
:10508000D009C0F7E10CF11E431F561FC91FD01DE8
:105090007EF4703311F48A95E6CFE894015030F035
:1050A000080F0AF40027021708F4202F2395022F77
:1050B0007A3328F079E37D932A95E9F710C07D9340
:1050C0002A9589F6069497956795379517951794BD
:1050D000E118F10A430B560BC90BD00998F0239540
:1050E0007E9173957A3308F070E37C932013B8F7C0
:1050F0007E9170617D9330F0839571E37D9370E3D1
:105100002A95E1F71124EF90FF900F911F91CF9115
:10511000DF91992787FD909508959111DEC0803227
:1051200019F089508550D0F70895DC01FC01672FF4
:1051300071917723E1F7329704C07C916D9370836E
:105140006291AE17BF07C8F3089540D008F481E01C
:105150000895E89409C097FB3EF49095809570956A
:1051600061957F4F8F4F9F4F9923A9F0F92F96E9B3
:10517000BB279395F695879577956795B795F11128
:10518000F8CFFAF4BB0F11F460FF1BC06F5F7F4FC5
:105190008F4F9F4F16C0882311F096E911C07723D7
:1051A00021F09EE8872F762F05C0662371F096E8E0
:1051B000862F70E060E02AF09A95660F771F881FAF
:1051C000DAF7880F9695879597F90895990F000853
:1051D000550FAA0BE0E8FEEF16161706E807F907C9
:1051E000C0F012161306E407F50798F0621B730B64
:1051F000840B950B39F40A2661F0232B242B252BE5
:1052000021F408950A2609F4A140A6958FEF811D87
:10521000811D08950BD07BC06CD028F071D018F0A0
:10522000952309F05DC062C01124A5C081D0A0F310
:10523000959FD1F3950F50E0551F629FF001729F2B
:10524000BB27F00DB11D639FAA27F00DB11DAA1F4A
:10525000649F6627B00DA11D661F829F2227B00D97
:10526000A11D621F739FB00DA11D621F839FA00D22
:10527000611D221F749F3327A00D611D231F849F72
:10528000600D211D822F762F6A2F11249F575040C9
:105290008AF0E1F088234AF0EE0FFF1FBB1F661F64
:1052A000771F881F91505040A9F79E3F510570F01D
:1052B00017C061C05F3FECF3983EDCF386957795AD
:1052C0006795B795F795E7959F5FC1F7FE2B880F18
:1052D000911D9695879597F90895992788270895A0
:1052E00097F99F6780E870E060E008959FEF80EC99
:1052F000089500240A94161617061806090608953C
:1053000000240A9412161306140605060895092EA1
:105310000394000C11F4882352F0BB0F40F4BF2B10
:1053200011F460FF04C06F5F7F4F8F4F9F4F089550
:1053300057FD9058440F551F59F05F3F71F0479546
:10534000880F97FB991F61F09F3F79F0879508952B
:10535000121613061406551FF2CF4695F1DF08C04A
:10536000161617061806991FF1CF86957105610567
:1053700008940895E894BB2766277727CB0197F90F
:105380000895A1E21A2EAA1BBB1BFD010DC0AA1F86
:10539000BB1FEE1FFF1FA217B307E407F50720F09E
:1053A000A21BB30BE40BF50B661F771F881F991F19
:1053B0001A9469F760957095809590959B01AC0162
:1053C000BD01CF01089512E0C4E2D2E000E005C0C3
:1053D000802FFE01D0D82196011DC532D10780E073
:0853E0000807B1F7F894FFCFB4
:1053E800DEADBEEFFE0000001C08800001000000DA
:1053F80036003700380039003A003B003E002400F0
:10540800220030002E0045004400430042002C00DA
:105418002A002800260006000500030002000E00EE
:105428000F001000110018001A001C001E002700B1
:1054380029002B002D002F003100170019001B0038
:105448001D001F0021000B000D000C0007000100CB
:105458005E00000000000000D2082D0893087108C3
:1054680085081809000000009D0A00000000E709EF
:1054780000000000E709E709E709E709E709E70984
:10548800E709E709E709E709E709E709E709E70994
:10549800E709E70900000000E7092D08E709E7091F
:1054A800E709E70900000000E7092D0800000000EF
:1054B8003E0F3D105702F10F19103D0F2A037602D7
:1054C800EB025B03BF02D410D30F6F025F025B02D3
:1054D800A811206F6E00206F666600203100203012
:1054E80000317720000A007261696C00646900610C
:0A54F8006900646F0070776D00001A
:00000001FF
