:1000000024C2000053C2000051C200004FC20000D1
:100010004DC200004BC2000049C2000047C20000B0
:1000200045C2000043C2000041C200003FC20000C0
:100030003DC200003BC2000039C2000037C20000D0
:1000400035C2000033C2000031C200002FC20000E0
:100050002DC200002BC2000029C200000C948F1199
:1000600025C200000C948F100C9466101FC2000073
:100070001DC200001BC2000019C2000017C2000010
:1000800015C2000013C2000011C200000FC2000020
:100090000C943D100C94141009C2000007C200001B
:1000A00005C2000003C2000001C20000FFC1000041
:1000B000FDC10000FBC10000F9C10000F7C1000054
:1000C000F5C10000F3C10000F1C10000EFC1000064
:1000D000EDC10000EBC10000E9C10000E7C1000074
:1000E000E5C10000591E5E1E631E6F1E7B1E081FA9
:1000F000871E8F1E971EA31EAF1EBB1ECC1ED81EB2
:10010000081FE41EF01EFC1EF20CF50CE40CE80CBB
:10011000EE0C2C0DF90CFD0C030D070D0B0D110D44
:10012000150D190D2C0D1F0D230D270D00000A0BA9
:1001300002090C0D0E080703040100000000000076
:1001400000000000000000000000000000000000AF
:10015000000000000000000012111000000000006C
:10016000000000000000000000000000000000008F
:10017000000000002100240027002A002D0030008C
:10018000330001010000040107010A010000220000
:10019000250028002B002E00310034000201000051
:1001A000050108010B01005EBCE2613FDD83C29CDA
:1001B0007E20A3FD1F419DC3217FFCA2401E5F0145
:1001C000E3BD3E6082DC237D9FC1421CFEA0E1BFF7
:1001D0005D0380DE3C62BEE0025CDF81633D7C2229
:1001E000C09E1D43A1FF4618FAA427799BC584DA57
:1001F0003866E5BB5907DB856739BAE40658194705
:10020000A5FB7826C49A653BD987045AB8E6A7F9B6
:100210001B45C6987A24F8A6441A99C7257B3A64E8
:1002200086D85B05E7B98CD2306EEDB3510F4E1016
:10023000F2AC2F7193CD114FADF3702ECC92D38DC4
:100240006F31B2EC0E50AFF1134DCE90722C6D3376
:10025000D18F0C52B0EE326C8ED0530DEFB1F0AEA8
:100260004C1291CF2D73CA947628ABF517490856D6
:10027000B4EA6937D58B5709EBB536688AD495CB84
:100280002977F4AA4816E9B7550B88D6346A2B7536
:1002900097C94A14F6A8742AC896154BA9F7B6E868
:1002A0000A54D7896B35000020002300260029005E
:1002B0002C002F003200000100000301060109019B
:1002C00005050505070508080808020202020A0AD2
:1002D00008080404040401010101010101010303F0
:1002E000030303030303040707070C0C0C0C0C0C9B
:1002F0000C0C0202020206060606060606060B0B98
:100300000B0B0B0B0B0B01021020200808102040D8
:1003100010204080020102010804020101020408C9
:100320001020408080402010080402018004020157
:1003300080402010080402010804020101020408A0
:1003400010204080010204081020408000407A10F4
:10035000F35A00A0724E18090010A5D4E80000E876
:100360007648170000E40B54020000CA9A3B0000D4
:1003700000E1F505000080969800000040420F0063
:100380000000A08601000000102700000000E80324
:10039000000000006400000000000A0000000000EF
:1003A0000100000000002C76D888DC674F0823DFAE
:1003B000C1DFAE59E1B1B796E5E3E453C63AE65181
:1003C000997696E8E6C28426EB898C9B62ED407CA8
:1003D0006FFCEFBC9C9F40F2BAA56FA5F490055A44
:1003E0002AF75C936B6CF9676DC11BFCE0E40D4769
:1003F000FEF520E6B500D0ED902E0300943577058C
:100400000080841E080000204E0A000000C80C3343
:100410003333330F986E12831141EF8D2114893BD2
:10042000E65516CFFEE6DB18D1844B381BF77C1D52
:10043000901DA4BBE424203284725E228100C9F1A5
:1004400024ECA1E53D27D01F761F11241FBECFEF5E
:10045000D1E2DEBFCDBF00E00CBF13E0A0E0B2E010
:10046000E0EDF1E500E00BBF02C007900D92A03275
:10047000B107D9F728E0A0E2B3E001C01D92A43B88
:10048000B207E1F712E0C4E2D2E000E006C0219733
:100490000109802FFE010E94AF21C332D10780E005
:1004A0000807A9F70E94E9130C94D728A9CDFC01ED
:1004B000818D928D0895FC0184899589089522E8A3
:1004C00032E0FC0131832083FB014089518962893C
:1004D0007389FC0142835383648375830895DC012F
:1004E000ED91FC91008CF18DE02D1994CF93DF9369
:1004F000EC01888D843061F00E94C20AE88DF0E042
:10050000EE0FFF1FEF5BFA4F1182108284E0888F9D
:10051000DF91CF9108950F931F93CF93DF931F9295
:10052000CDB7DEB7282F30E02C5F3F4F322F222788
:100530008901060F171F498360D780EF60D7812F8D
:100540005ED7802F5CD74981842F59D754D781E05B
:100550000F90DF91CF911F910F9108950F931F93EB
:10056000CF93DF931F92CDB7DEB790E00496982F1C
:1005700088278C01060F171F40D78FE040D7812FA7
:100580003ED7802F3CD780E03AD7898334D7898102
:100590000F90DF91CF911F910F91089508958CBD19
:1005A0009DBD0895CF93FC01C08D80E590E0F7DFFD
:1005B00060E270E08C2F0E94951362E070E08C2F57
:1005C000CDDF84FD12C062E070E08C2FC7DF83FFB7
:1005D00008C048E162E070E08C2F9DDF80E090E091
:1005E0000BC080E590E0DBDFE8CF40E162E070E047
:1005F0008C2F91DF81E090E0CF910895EF92FF92F0
:100600001F93CF93DF93EB017A01FC01178A168ABF
:10061000108D8A81811109C08B81811106C08C8166
:10062000811103C08D818823F9F0E114F104E1F018
:1006300080E590E0B4DFBE016E5F7F4F812F90E0D8
:10064000982F882744E050E0845F9B4FDFD64F2DE2
:1006500060E170E0812F5FDF4E2D61E170E0812F5E
:100660005ADF81E090E002C080E090E0DF91CF911E
:100670001F91FF90EF900895EF92FF921F93CF93F9
:10068000DF93FC01208D243011F080E020C07B013D
:10069000EC0110E080E590E082DF63E070E0812F04
:1006A0005DDF811102C0188F06C08B7F8831D9F3BE
:1006B0001F5F143079F7888D843039F3FD86EC861E
:1006C0001A8E198E20E0A70162E06FD781E0DF91DA
:1006D000CF911F91FF90EF9008954F925F926F928C
:1006E0007F928F929F92AF92BF92CF92DF92EF92C2
:1006F000FF920F931F93CF93DF93CDB7DEB7EE97A3
:100700000FB6F894DEBF0FBECDBF5C018B014A016E
:1007100082E892E09A8389831C861B8648EE53E028
:1007200060E070E04D875E876F87788B2AEC32E05F
:100730003A872987988F8F8B198E1A8E1B8E1C8E65
:1007400024E029A399AB88AB1AAA1BAA1CAA1DAA4C
:100750008091A0069091A106A091A206B091A30657
:100760008EA39FA3A8A7B9A78B839C83AD83BE83C9
:1007700018861F82F80120E080E090E06AE0319165
:10078000332319F140ED430F4A3080F4689FA001F4
:10079000699F500D1124CA01C097830F911D37FD29
:1007A0009A958F3F910559F350F32BC03E3249F58E
:1007B000233039F1A2E3B0E0AC0FBD1FA20FB11D91
:1007C0008C932F5F80E090E0DACF2330D1F48DABB3
:1007D000D501ED91FC910088F189E02D82E892E04D
:1007E0009DA38CA38AA99BA9ACA9BDA98EA39FA3F5
:1007F000A8A7B9A7A401BE016C5D7F4FC5011995DB
:100800000DC24B815C816D817E818091A8069091A3
:10081000A906A091AA06B091AB06481759076A0726
:100820007B0709F4F9C10E9483116F7077277C5F01
:10083000CE01099621DF813009F0EBC182E892E018
:100840009DA38CA38B819C81AD81BE818EA39FA330
:10085000A8A7B9A745E350E0BE016C5D7F4FCE016C
:100860000996CCDE892B19F400E010E067C10E94E4
:10087000831178876F837627672776277DA36CA3FC
:1008800042E050E0BE016C5D7F4FCE010996E7D596
:1008900081E090E09FAB8EAB42E050E0BE016A5C2D
:1008A0007F4FCE010996DBD580E091E09FAB8EAB08
:1008B00042E050E0BE016A5C7F4FCE010996CFD581
:1008C0001FAA1EAA42E050E0BE016A5C7F4FCE0123
:1008D0000996C5D542E050E0BE016A5C7F4FCE016B
:1008E0000996BDD542E050E0BE016A5C7F4FCE0163
:1008F0000996B5D57801D7018C91882309F1F801C3
:100900007F018191811115C06701C01AD10A1C14A1
:100910001D0494F4C8AE41E050E0BE01685C7F4F16
:10092000CE0109969CD5A601B801CE01099697D5AE
:1009300003C08E3229F7E8CF87010F5F1F4FDBCF4F
:1009400018AE41E050E0BE01685C7F4FCE010996D1
:1009500086D500E011E01FAB0EAB42E050E0BE01D7
:100960006A5C7F4FCE0109967AD51FAB0EAB42E091
:1009700050E0BE016A5C7F4FCE01099670D5CE0172
:10098000099610DE892B09F46FCF63E0E62EF12C77
:100990000E9483112B013C01CE010996BBD418168D
:1009A0001906A4F00E948311DC01CB01841995097A
:1009B000A609B70989389341A105B105C8F462E3D6
:1009C00070E080E090E00E944B11E6CF4B815C81AB
:1009D0006D817E81898D9A8DAB8DBC8D48175907AD
:1009E0006A077B0741F48D8D9E8DC59721F406C063
:1009F0002FEF3FEF9AC02EEF3FEF97C08AA19BA148
:100A00000C970CF4A7C04CE050E0BE016C5D7F4F2A
:100A1000CE01099606D48EA190E0982F88272FA1A9
:100A2000822B9BAF8AAF2CA130E0322F22274DA121
:100A3000242B4F8158854217530709F088C097FF30
:100A400086C08F709270892B09F0E0C00AA510E073
:100A5000102F00278BA5082B0115110509F4D3C011
:100A6000C12CD12C88A590E0982F882729A5822B0E
:100A7000C816D90608F471C0C12CD12C41E050E051
:100A8000BE01645C7F4FCE010996CBD38CAD982F0D
:100A9000907C09F095C0811188C08CAD8111EECF9A
:100AA00042E050E0BE01685C7F4FCE010996B9D3A9
:100AB00042E050E0BE016A5C7F4FCE010996B1D39F
:100AC000CE010996CCD3CE010996C9D3CE010996A1
:100AD000C6D3CE010996C3D342E050E0BE01665CA6
:100AE0007F4FCE0109969DD388AD99AD8115914078
:100AF00009F06BC02EA93FA93227232732272130C6
:100B0000310509F062C08AAD9BAD8115944009F0B2
:100B100077C044E050E0BE016E5C7F4FCE01099685
:100B20002DAF3EAF7ED32DAD3EAD8901B1E0EB1AC6
:100B3000F10821F02F3F3F4F09F42ACFCE0109964B
:100B4000D5DC0130110509F443CEC80167C02CEF94
:100B50003FEFEBCF2DEF3FEFE8CF41E050E0BE019C
:100B60006A5C7F4FCE0109965CD38EA9811113C0B8
:100B70008EA98111F2CFCE01099671D3CE010996CB
:100B80006ED3CE0109966BD3CE01099668D3FFEFE1
:100B9000CF1ADF0A67CF8EA99FEF980F9EAB8823ED
:100BA00039F3CE0109965BD3F6CF8CAD9FEF980F4A
:100BB0009CAF882309F471CFCE01099650D3F5CFAD
:100BC000CE0109964CD31CAE68CF612C712C8AAD36
:100BD0009BAD9827892798276816790638F4CE01A7
:100BE00009963DD38FEF681A780AF1CFAFEFCA1A92
:100BF000DA0AC016D10609F041CF26EF3FEF95CFB4
:100C000027EF3FEF92CF2AEF3FEF8FCF2BEF3FEF52
:100C10008CCF80E090E002C08EEF9FEFEE960FB693
:100C2000F894DEBF0FBECDBFDF91CF911F910F9122
:100C3000FF90EF90DF90CF90BF90AF909F908F90FC
:100C40007F906F905F904F900895FC01908101809C
:100C5000F281E02DF8948181892B81832281892F73
:100C6000809528232283A7E0B0E01197F1F7218136
:100C700082238183A3E2B0E01197F1F78081789419
:100C8000EFECF0E03197F1F7982381E009F480E090
:100C90000895FC0190810180F281E02D892F8095DB
:100CA00060FF12C0F8942281822382838181892B84
:100CB0008183A3E2B0E01197F1F78281982B9283B0
:100CC000789487ED90E011C0F8942281822382838A
:100CD0008181892B8183AFEFB0E01197F1F7828199
:100CE000982B928378948FE090E00197F1F7089524
:100CF000CF92DF92EF92FF920F931F93CF93DF93E8
:100D00001F92CDB7DEB76C01E62E08E010E0FF249D
:100D1000F39461E08F2D8E2109F460E0C6014983D0
:100D2000B8DFFF0C0150110949810115110589F740
:100D3000411115C0F894D6011196ED91FC911297CE
:100D400091818C918095892381831196ED91FC91FD
:100D5000129792818C9180958923828378940F9049
:100D6000DF91CF911F910F91FF90EF90DF90CF9087
:100D70000895CF92DF92EF92FF920F931F93CF933C
:100D8000DF931F92CDB7DEB78C01F62E40E065E50C
:100D90007983AEDFCF2C7981D72E760188E0E80EFB
:100DA000F11CF60161916F0140E0C801A1DFCE1492
:100DB000DF04B9F70F90DF91CF911F910F91FF9052
:100DC000EF90DF90CF900895FC0190810180F28137
:100DD000E02DF8948181292F2095822381837894B6
:100DE0008DE743E050E0815021F1DA011197F1F7EE
:100DF00030813923C1F3F8948281822382838181F7
:100E0000892B81837894ABECB7E01197F1F7F894D4
:100E1000818128232183ABE3B1E01197F1F7808131
:100E2000982381E009F080E07894EBE8F6E03197D0
:100E3000F1F70895EF92FF920F931F93CF93DF93F3
:100E400000D000D0CDB7DEB77C0162E378E0CE0100
:100E500001960E94B40F6EE378E0CE010196B1D7FF
:100E600067EF72E097D7B701ACD7BC01C701CFD706
:100E7000CE0101960E94550FF701048115810115DD
:100E8000110519F41092DD0411C00336110510F09C
:100E900003E610E0F70160817181A8018DED94E017
:100EA0000E946C24F801E352FB4F108261E088E05D
:100EB0000E94E010B701CE0101960E94B40F6FEFBF
:100EC00072E0CE01019666D7FC01448155816081B4
:100ED000718184E695E02CD4CE010196E6D76AE0D4
:100EE00070E080E090E00E944B1160E088E00E949A
:100EF000E01026960FB6F894DEBF0FBECDBFDF918F
:100F0000CF911F910F91FF90EF900895CF93DF93B2
:100F1000CDB7DEB762970FB6F894DEBF0FBECDBF78
:100F20004AE0BC01CE010796F4D76CE278E0CE012E
:100F300001960E94B40FBE01695F7F4FCE010196FA
:100F400040D76CEF72E026D7BC01CE010D960E940F
:100F5000B40FCE010D966EDFCE010D96A6D7CE0151
:100F60000196A3D7CE010796A0D762960FB6F89444
:100F7000DEBF0FBECDBFDF91CF910895CF93DF933A
:100F8000CDB7DEB762970FB6F894DEBF0FBECDBF08
:100F90004AE0BC01CE010796BCD76CE278E0CE01F6
:100FA0000196E2D7BE01695F7F4FCE01019609D756
:100FB00069EF72E0EFD6BC01CE010D96D5D7CE0118
:100FC0000D9638DFCE010D9670D7CE0101966DD704
:100FD000CE0107966AD762960FB6F894DEBF0FBEB1
:100FE000CDBFDF91CF910895CF92DF92EF92FF9224
:100FF0000F931F93CF93DF93CDB7DEB72F970FB625
:10100000F894DEBF0FBECDBF7C016B0160E073E0E2
:10101000B3D7860188E0C80ED11CF80181918F01F9
:101020001B861A861D861C861F861E8640E1BE0111
:101030006F5F7F4F90E00E940325BE016F5F7F4F7F
:10104000CE010A96CFD64E855F856A857B85C7011E
:1010500074D6CE010A9629D70C151D05F1F6C701E5
:101060002F960FB6F894DEBF0FBECDBFDF91CF91A4
:101070001F910F91FF90EF90DF90CF9008950F9305
:101080001F93CF93DF93EC010E9483110881198194
:101090002A813B81DC01CB01801B910BA20BB30B9E
:1010A0000C811D812E813F8180179107A207B30714
:1010B00040F00E948311688379838A839B8381E057
:1010C00001C080E0DF91CF911F910F9108950895A5
:1010D000CF93DF931F92CDB7DEB76983DC01ED912B
:1010E000FC910280F381E02D41E050E0BE016F5F92
:1010F0007F4F19950F90DF91CF9108951F93CF9354
:10110000DF93182F66E270E029DAC82FD0E067E29B
:1011100070E0812F23DADC2FCC279E01282BC90118
:10112000DF91CF911F9108951F93CF93DF93182FD5
:1011300060E270E013DAC82FD0E061E270E0812F46
:101140000DDADC2FCC279E01282BC901DF91CF912E
:101150001F910895AF92BF92DF92EF92FF920F938B
:101160001F93CF93DF93D82E7B018A0180E590E017
:1011700016DAC0E0D0E08D2DC1DF5C01892B19F0BB
:101180008D2DBCDFEC01CA15DB05A9F7209791F482
:1011900063E070E08D2DE2D98431B9F18823A9F1A3
:1011A000C1E0D0E08C3111F4C0E0D0E0D195C19520
:1011B000D1092BC00C171D070CF4E8011C161D06E5
:1011C00024F568E270E08D2DC9D9082F10E069E29E
:1011D00070E08D2DC3D9102F0027082B9E01A70189
:1011E000B8018D2D0E94A5130C0F1D1F412F68E221
:1011F00070E08D2D90D9402F69E270E08D2D8BD954
:1012000060E470E08D2D0E949513C8D9CE01DF9166
:10121000CF911F910F91FF90EF90DF90BF90AF9013
:101220000895CF93DF93FC01218D328D2115310577
:1012300019F48FEF9FEF10C0EC014217530708F02D
:10124000A901888D87DF181619069CF7298D3A8D1C
:10125000281B390B3A8F298FDF91CF9108950F9377
:101260001F93CF93DF931F92CDB7DEB7FC01218D83
:10127000328D232B59F08C0141E050E0BE016F5FAD
:101280007F4F808D67DF181619061CF08FEF9FEFD8
:1012900008C0F801818D928D0197928F818F89818D
:1012A00090E00F90DF91CF911F910F910895FF92E1
:1012B0000F931F93CF93DF931F92CDB7DEB7FC013F
:1012C000218D328D232BE9F0F08C80E590E067D9F9
:1012D00068E270E08F2D42D9082F10E069E270E0DB
:1012E0008F2D3CD9702F6627682B21E030E0AE01AE
:1012F0004F5F5F4F8F2D0E94A51350D9898190E0D9
:1013000002C08FEF9FEF0F90DF91CF911F910F9150
:10131000FF900895BF92CF92DF92EF92FF920F93CA
:101320001F93CF93DF93CDB7DEB728970FB6F8940E
:10133000DEBF0FBECDBF8C01F801818D928D892B50
:1013400049F0D801ED91FC910680F781E02DC801AC
:101350001995F2CFB08C80E590E021D9E12CF12CE9
:101360008B2DCCDE6C01892B19F08B2DC7DE7C0117
:10137000EC14FD04A9F712D91E141F0454F548E01B
:1013800050E0BE016F5F7F4FD80158968C91E2DE2E
:101390009C0118161906DCF489819A81AB81BC8105
:1013A000F801808B918BA28BB38B8D8190E0982F6D
:1013B00088272E81820F911D958B848B2F8130E0A1
:1013C000322F22278885280F311D328F218FC901A6
:1013D00002C080E090E028960FB6F894DEBF0FBE02
:1013E000CDBFDF91CF911F910F91FF90EF90DF90D4
:1013F000CF90BF9008952C9A08952C9808958EBD93
:1014000000000DB407FEFDCF8EB50895CF92DF9298
:10141000EF92FF920F931F93CF93DF93EC017A012A
:101420008B016C01C40ED51ECC15DD0571F0E5DF16
:1014300080EFE5DF8D2FE3DF8C2FE1DF2196F801D0
:1014400081918F01DCDFD7DFEFCFC701DF91CF9133
:101450001F910F91FF90EF90DF90CF9008957F92B2
:101460008F929F92AF92BF92CF92DF92EF92FF92B4
:101470000F931F93CF93DF935C014B016A01FC0133
:1014800006891789708C80E590E089D8C0E0D0E0AB
:10149000872D4ADE7C01892B19F0872D45DEEC0172
:1014A000CE15DF05A9F7CC15DD0568F4C0E0D0E066
:1014B000872D3ADE6C01892B19F0872D35DEEC0182
:1014C000CC15DD05A9F764E270E0872D47D8E82E3A
:1014D000F12C65E270E0872D41D8FE2CEE24E82A3D
:1014E000E701C00FD11F9E013770E72CF12CC70117
:1014F000880F991FAC014C5A5A4F7A01FA0180812A
:101500009181820F931FA9014C0D5D1D4130584000
:1015100088F000E018E0021B130BA801B40176DF8D
:10152000A601401B510BB401600F711FF7018081B0
:10153000918102C0A601B40169DFCC0DDD1D4D2FE4
:1015400064E270E0872D0E948B024C2F65E270E010
:10155000872D0E948B0222D8F501868997898C0DF0
:101560009D1D978B868BC601DF91CF911F910F91A7
:10157000FF90EF90DF90CF90BF90AF909F908F90B3
:101580007F900895CF93C82F80E590E008D860E160
:1015900070E08C2F0E9495134FEF62E070E08C2F6B
:1015A0000E948B02CF910C94CE02FF920F931F9357
:1015B000CF93DF931F921F92CDB7DEB7F82E8A012B
:1015C0002A836983DFDF80E590E00E94CF022A81D1
:1015D0006981462F422B60E070E08F2D0E948B02C4
:1015E0000115110551F40091490510914A050F5F4D
:1015F0001F4F10934A0500934905412F64E070E0A6
:101600008F2D0E948B02402F65E070E08F2D0E948D
:101610008B0261E070E08F2D0E9495130E94CE0234
:1016200081E00F900F90DF91CF911F910F91FF906C
:101630000895BF92CF92DF92EF92FF920F931F9384
:10164000CF93DF9300D000D0CDB7DEB7FC01208D63
:10165000243009F05BC06A017B018C01B12C63E08E
:1016600070E08B2D0E94AE02811103C0F801B08E94
:1016700007C08B7F8831D1F3B394F4E0BF12EFCF72
:10168000F801808D843009F441C096E0E8E6F2E08C
:10169000DE01119601900D929A95E1F7F701938181
:1016A0009F779C8394819D8395819E83B7016E5F14
:1016B0007F4F90E0982F882744E050E0845F9B4F55
:1016C000A5DEF801F08C4D2D60E170E08F2D0E94B9
:1016D0008B024C2D61E170E08F2D0E948B02F8018E
:1016E000808D90E0982F882746E050E0BE016F5F24
:1016F0007F4F8A5F9B4F8ADEF801128E118E20E8A1
:10170000A60162E0808D51DF81E001C080E0269675
:101710000FB6F894DEBF0FBECDBFDF91CF911F9102
:101720000F91FF90EF90DF90CF90BF9008950895B4
:10173000CF92DF92EF92FF920F931F93CF93DF939D
:101740006C017A018B01C0E0D0E0CE15DF0589F095
:10175000D8016D918D01D601ED91FC910190F08140
:10176000E02DC6011995892B11F47E0102C0219646
:10177000ECCFC701DF91CF911F910F91FF90EF90B8
:10178000DF90CF900895FC01A089B1898C91A68942
:10179000B78982FD0FC09C91818D8F5F8F73228DE1
:1017A000821749F0218DDF01A20FB11D5D969C9338
:1017B000818F08958C910895FC01918D828D9817E9
:1017C00061F0828DDF01A80FB11D5D968C91928D25
:1017D0009F5F9F73928F90E008958FEF9FEF089522
:1017E000FC01918D828D981731F0828DE80FF11DEB
:1017F000858D90E008958FEF9FEF0895FC01918D06
:10180000228D892F90E0805C9F4F821B91098F73FE
:101810009927089584E695E0F1DF21E0892B09F40A
:1018200020E0822F089581E096E0E8DF21E0892B17
:1018300009F420E0822F0895FC01848DDF01A80FB8
:10184000B11DA35ABF4F2C91848D90E001968F73E8
:101850009927848FA689B7892C93A089B1898C9107
:1018600080648C93938D848D981306C00288F389CD
:10187000E02D80818F7D80830895EF92FF920F93FA
:101880001F93CF93DF93EC0181E0888F9B8D8C8D2C
:10189000981305C0E889F989808185FD23C0F62E5B
:1018A0000B8D10E00F5F1F4F0F731127E02E8C8DF3
:1018B000E8120BC00FB607FCFACFE889F9898081DE
:1018C00085FFF5CFCE01B8DFF2CF8B8DFE01E80F9B
:1018D000F11DE35AFF4FF0820B8FEA89FB8980816B
:1018E000806207C0EE89FF896083E889F989808179
:1018F0008064808381E090E0DF91CF911F910F9110
:10190000FF90EF900895CF93DF93EC01888D8823AB
:10191000C1F0EA89FB89808185FD05C0A889B98964
:101920008C9186FD0EC00FB607FCF5CF808185FF38
:10193000F2CFA889B9898C9185FFEDCFCE017CDFEC
:10194000E8CFDF91CF91089580E090E0892B19F0E6
:101950006ADF811120C080E090E0892B19F05ADF06
:1019600081111CC080E090E0892B41F080E090E084
:10197000892B21F00E940000811113C080E090E0CB
:10198000892BA1F080E090E0892B81F00E9400007B
:1019900081110AC008950E940000DDCF0E9400005E
:1019A000E1CF0E940000EACF0C940000089590E07F
:1019B000FC013197E231F10508F04EC08827EC5761
:1019C000FF4F8F4F0C94AF21809180008F7703C021
:1019D000809180008F7D80938000089580918000A9
:1019E000877FF9CF84B58F7702C084B58F7D84BDA2
:1019F00008958091B0008F7703C08091B0008F7DF3
:101A00008093B0000895809190008F7707C08091F7
:101A100090008F7D03C080919000877F809390001D
:101A200008958091A0008F7707C08091A0008F7DDE
:101A300003C08091A000877F8093A00008958091CB
:101A400020018F7707C0809120018F7D03C0809196
:101A50002001877F8093200108953FB7F8948091FB
:101A6000500590915105A0915205B091530526B5AE
:101A7000A89B05C02F3F19F00196A11DB11D3FBFC6
:101A8000BA2FA92F982F8827820F911DA11DB11D54
:101A9000BC01CD0142E0660F771F881F991F4A9550
:101AA000D1F708950E9430244F925F926F927F92F7
:101AB000EF92FF920F931F93CF93DF93CDB7DEB7D3
:101AC000A1970FB6F894DEBF0FBECDBF7C01FA011F
:101AD000CB0119A2223008F42AE08E010F5D1F4FBE
:101AE000422E512C612C712CBF01A30192010E9446
:101AF000B528F901CA01015011096A3014F4605D7A
:101B000001C0695CD8016C93232B242B252B61F732
:101B10000115110591F0F80101900020E9F73197C6
:101B2000AF01401B510BD701ED91FC910280F38175
:101B3000E02DB801C701199502C080E090E0A196A0
:101B40000FB6F894DEBF0FBECDBFDF91CF911F91CE
:101B50000F91FF90EF907F906F905F904F9008955E
:101B6000CF93DF93EC0188819981009711F00E9457
:101B7000B422198218821D821C821B821A82DF9174
:101B8000CF9108950F931F93CF93DF93EC0188813A
:101B90009981009729F02A813B812617370788F41D
:101BA0008B016F5F7F4F0E944C23009761F09983F8
:101BB00088831B830A832C813D81232B11F4FC0134
:101BC000108281E001C080E0DF91CF911F910F91E1
:101BD0000895EF92FF920F931F93CF93DF93EC0141
:101BE0007B018A01BA01CEDF811103C0CE01B8DFCB
:101BF00007C01D830C83B701888199810E945724F7
:101C0000CE01DF91CF911F910F91FF90EF9008953A
:101C10008F929F92AF92BF92CF92DF92EF92FF92FC
:101C20000F931F93CF93DF937C01EB016C0182E054
:101C3000C80ED11C4701E5E08E0E911C00E010E0BB
:101C4000F60141916F0150E060E070E02AE0CE01C2
:101C50002BDF5C01E881F9810190F081E02D6EE2DB
:101C6000CE0119958A0D9B1D080F191FC814D904A0
:101C700039F7F701458150E060E070E02AE0CE01DD
:101C800013DF800F911FDF91CF911F910F91FF9074
:101C9000EF90DF90CF90BF90AF909F908F9008957E
:101CA000FB0144815581FC012481358124173507CE
:101CB00078F080819181009759F0FB0160817181FA
:101CC0006115710529F00E945E2421E0892B09F03D
:101CD00020E0822F0895FC0124813581FB0144819D
:101CE00055812417350721F5FC0180819181FB0185
:101CF00060817181009719F061157105A1F461157A
:101D0000710549F0232BB1F0FB01808190E09195A2
:101D1000819591090AC0009769F0232B59F0FC01C5
:101D2000808190E002C00E944E2421E0892B19F0AE
:101D300020E001C021E0822F0895EF92FF920F93DF
:101D40001F93CF93DF93FC012481358161157105C9
:101D500011F480E018C041155105A1F07B01EC01A0
:101D60008A01020F131FB8010DDF882391F3288128
:101D700039818C819D81B701820F931F0E94572466
:101D80001D830C8381E0DF91CF911F910F91FF9014
:101D9000EF900895CF93DF93EC016115710559F031
:101DA000FB0101900020E9F73197AF01461B570B6B
:101DB000C4DF811102C0CE01D3DECE01DF91CF910D
:101DC0000895CF93DF93EC01FB014481558160813D
:101DD0007181B3DF811102C0CE01C2DECE01DF917D
:101DE000CF910895CF93DF93EC016115710551F008
:101DF000FB0101900020E9F73197AF01461B570B1B
:101E0000E8DE01C0ADDECE01DF91CF910895CF9322
:101E1000DF93EC01FB018617970751F06081718118
:101E20006115710521F044815581D3DE01C098DE32
:101E3000CE01DF91CF9108950F931F93CF93DF933E
:101E40008C01EB01FC01808191810097B1F06881E8
:101E500079816115710579F0428153812C813D8131
:101E60004217530740F00E9457248C819D81F8014E
:101E70009583848313C00E94B42288819981F801DC
:101E8000918380838A819B81938382838C819D81CE
:101E900095838483198218821B821A821D821C8278
:101EA000DF91CF911F910F910895FC018081918165
:101EB0000C94B422EF92FF920F931F93CF93DF9372
:101EC000CDB7DEB7A1970FB6F894DEBF0FBECDBF7A
:101ED0007C01CB01BA01F7011182108213821282B8
:101EE0001582148242E0420F8E010F5F1F4F0E9445
:101EF0009524BC01C70176DFA1960FB6F894DEBF2A
:101F00000FBECDBFDF91CF911F910F91FF90EF904A
:101F100008950F931F93CF93DF93CDB7DEB76297EA
:101F20000FB6F894DEBF0FBECDBF8C01CB01F80118
:101F300011821082138212821582148250E0BE0137
:101F40006F5F7F4F0E94DA24BE016F5F7F4FC80131
:101F500049DF62960FB6F894DEBF0FBECDBFDF91AA
:101F6000CF911F910F910895FC011182108213826D
:101F70001282158214824BCFFC01118210821382CF
:101F80001282158214826115710549F0FB010190DE
:101F90000020E9F73197AF01461B570B1ACE089581
:101FA000BF92CF92DF92EF92FF920F931F93CF9346
:101FB000DF937C016B018A01E9012417350720F4C6
:101FC000812F8901C42FD82F60E073E0C701D4DFCF
:101FD000D60114968D919C91159708171907C8F48E
:101FE0008C179D0708F4EC01D601ED91FC91119737
:101FF000EC0FFD1FB08010824D915C91BA01600F13
:10200000711FC701EFDED601ED91FC91EC0FFD1FB2
:10201000B082C701DF91CF911F910F91FF90EF9098
:10202000DF90CF90BF9008951F920F920FB60F923E
:1020300011240BB60F922F933F934F935F936F939F
:102040007F938F939F93AF93BF93EF93FF9384E618
:1020500095E0F2DBFF91EF91BF91AF919F918F914E
:102060007F916F915F914F913F912F910F900BBE98
:102070000F900FBE0F901F9018951F920F920FB6E2
:102080000F9211240BB60F922F933F934F935F93B0
:102090006F937F938F939F93AF93BF93EF93FF9330
:1020A00084E695E070DBFF91EF91BF91AF919F9136
:1020B0008F917F916F915F914F913F912F910F90F1
:1020C0000BBE0F900FBE0F901F9018951F920F928E
:1020D0000FB60F9211240BB60F922F933F934F938D
:1020E0005F936F937F938F939F93AF93BF93EF9380
:1020F000FF9381E096E0A0DBFF91EF91BF91AF915C
:102100009F918F917F916F915F914F913F912F910F
:102110000F900BBE0F900FBE0F901F9018951F923F
:102120000F920FB60F9211240BB60F922F933F937D
:102130004F935F936F937F938F939F93AF93BF93CF
:10214000EF93FF9381E096E01EDBFF91EF91BF914B
:10215000AF919F918F917F916F915F914F913F913F
:102160002F910F900BBE0F900FBE0F901F901895E0
:10217000CF93DF93282F30E0F901E45DFE4F849187
:10218000F901EA5FFC4FD491F901E054FD4FC4918D
:10219000CC2389F081110BDCEC2FF0E0EE0FFF1F58
:1021A000EA55FD4FA591B491EC91ED2381E090E0CB
:1021B00021F480E002C080E090E0DF91CF910895AB
:1021C0001F93CF93DF93282F30E0F901E45DFE4F9A
:1021D0008491F901EA5FFC4FD491F901E054FD4F7D
:1021E000C491CC23C1F0162F8111E1DBEC2FF0E07C
:1021F000EE0FFF1FE457FE4FA591B4918FB7F894EF
:10220000111105C09C91ED2FE095E92302C0EC91DE
:10221000ED2BEC938FBFDF91CF911F910895CF935A
:10222000DF9390E0FC01EA5FFC4F2491FC01E05455
:10223000FD4F8491882361F190E0880F991FFC0184
:10224000EE58FE4FC591D491FC01E457FE4FA59185
:10225000B491611109C09FB7F894888120958223B9
:102260008883EC912E230BC0623061F49FB7F89401
:102270003881822F809583238883EC912E2B2C9399
:102280009FBF06C08FB7F894E8812E2B28838FBF9D
:10229000DF91CF9108958F929F92AF92BF92CF928C
:1022A000DF92EF92FF926B017C01D7DB4B015C0167
:1022B000C114D104E104F104E9F0CFDBDC01CB016E
:1022C00088199909AA09BB09883E9340A105B1055F
:1022D00078F321E0C21AD108E108F10888EE880EEF
:1022E00083E0981EA11CB11CC114D104E104F104C7
:1022F00021F7DECFFF90EF90DF90CF90BF90AF90AF
:102300009F908F9008952FB7F89460914C0570912D
:102310004D0580914E0590914F052FBF08951F9256
:102320000F920FB60F9211242F933F938F939F9389
:10233000AF93BF9380914C0590914D05A0914E05B0
:10234000B0914F0530914B0523E0230F2D3720F43A
:102350000196A11DB11D05C026E8230F0296A11DFF
:10236000B11D20934B0580934C0590934D05A09390
:102370004E05B0934F058091500590915105A09165
:102380005205B09153050196A11DB11D80935005D2
:1023900090935105A0935205B0935305BF91AF910F
:1023A0009F918F913F912F910F900FBE0F901F9093
:1023B0001895CF92DF92EF92FF920F931F93CF93D6
:1023C000DF93EC017A018B016C01C40ED51ECC1594
:1023D000DD0579F012D88FE012D88D2F10D88C2F10
:1023E0000ED8219680E00BD8F80181938F0103D895
:1023F000EECFC701DF91CF911F910F91FF90EF902A
:10240000DF90CF9008950F931F937DDF60936C054D
:1024100070936D0580936E0590936F05E091640550
:10242000F09165050680F781E02D84E695E0199529
:1024300097FF1EC068DF00916C0510916D0520911B
:102440006E0530916F05DC01CB01801B910BA20B57
:10245000B30B009168051091690520916A053091D0
:102460006B0580179107A207B307C0F28FEF9FEFAC
:102470001F910F9108956F927F928F929F92AF92CA
:10248000BF92CF92DF92EF92FF920F931F93CF9361
:10249000DF93EC017093AF066093AE068091AC06BB
:1024A0009091AD060E94E4066091AE067091AF0671
:1024B0008091AC069091AD060E94B90640E068EBB1
:1024C0008091AC069091AD060E94780640E060E0F5
:1024D0008091AC069091AD060E9478068091AC0682
:1024E0009091AD060E94E4066091AE067091AF0631
:1024F0008091AC069091AD060E94B90640E06EEB6B
:102500008091AC069091AD060E94780640E060E0B4
:102510008091AC069091AD060E9478067E014E0136
:1025200089E0880E911C8E016090AC067090AD061B
:1025300088E0A82EB12CCC24C394D12CC3010E94D6
:1025400025068111DC28CC0CA1E0AA1AB108B1F74C
:10255000F801D1928F01E815F90531F789E0E0E043
:10256000815049F0D7019D917D01E927F0E0EA55BE
:10257000FE4FE491F5CF81E09885E91380E0DF918B
:10258000CF911F910F91FF90EF90DF90CF90BF9070
:10259000AF909F908F907F906F900895CF93C82FAA
:1025A0008091AC069091AD060E94E4066091AE0663
:1025B0007091AF068091AC069091AD060E94B9066D
:1025C000CC23E9F040E064E48091AC069091AD0644
:1025D0000E9478066AE070E080E090E05CDE809126
:1025E000AC069091AD060E94E4066091AE06709133
:1025F000AF068091AC069091AD060E94B90640E00E
:1026000064EB8091AC069091AD060E94780668E07C
:1026100070E080E090E03FDE81E0CF910895CF92BE
:10262000DF92FF920F931F93CF93DF93CDB7DEB767
:1026300029970FB6F894DEBF0FBECDBF8C01709303
:10264000AF066093AE06CE01019615DFF82E882303
:1026500009F45CC099810130110511F4986001C042
:10266000977F99838091AC069091AD060E94E40615
:102670006091AE067091AF068091AC069091AD0668
:102680000E94B90640E06EE48091AC069091AD06E0
:102690000E94780640E060E08091AC069091AD0623
:1026A0000E9478068E010F5F1F4F6E0189E0C80EF1
:1026B000D11CF80161918F0140E08091AC069091AE
:1026C000AD060E9478060C151D0599F78091AC06A1
:1026D0009091AD060E94E4066091AE067091AF063F
:1026E0008091AC069091AD060E94B90640E068E486
:1026F0008091AC069091AD060E94780640E060E0C3
:102700008091AC069091AD060E9478068F2D299697
:102710000FB6F894DEBF0FBECDBFDF91CF911F91F2
:102720000F91FF90DF90CF900895CF93C82F462F41
:1027300061E070E00E948B0261E070E08C2F0E94EB
:10274000AE028111F9CFCF910895AF92BF92CF928F
:10275000DF92EF92FF920F931F93CF93DF931F921D
:102760001F92CDB7DEB77A836983BA01A901E981E7
:10277000FA81F770082F10E0000F111F045A1A4F4A
:10278000D8018D919C918E0F9F1F2E0F3F1F2130DE
:10279000384090F07A015B0120E038E06901CE1A00
:1027A000DF0AA60106DEA7014C195D09B5016C0D13
:1027B0007D1DF801808191810F900F90DF91CF9165
:1027C0001F910F91FF90EF90DF90CF90BF90AF904F
:1027D000F0CDCF93DF93CDB7DEB7CA56D1090FB690
:1027E000F894DEBF0FBECDBF789484B5826084BDFF
:1027F00084B5816084BD85B5826085BD85B5816005
:1028000085BD80916E00816080936E001092810082
:10281000809181008260809381008091810081603D
:1028200080938100809180008160809380008091FE
:10283000B10084608093B1008091B000816080938A
:10284000B00080919100826080939100809191000E
:1028500081608093910080919000816080939000CE
:102860008091A10082608093A1008091A10081608D
:102870008093A1008091A00081608093A00080914E
:1028800021018260809321018091210181608093E8
:1028900021018091200181608093200180917A0044
:1028A000846080937A0080917A00826080937A00BD
:1028B00080917A00816080937A0080917A008068AC
:1028C00080937A001092C100E0911106F0911206F7
:1028D00022E02083E0910D06F0910E061082E09137
:1028E0000F06F09110068FEC808310921906E0918C
:1028F0001506F091160696E09083E0911306F0918C
:102900001406808180618083E0911306F0911406A3
:10291000808188608083E0911306F09114068081A5
:1029200080688083E0911306F091140680818F7D8A
:102930008083E0917405F09175052083E091700526
:10294000F09171051082E0917205F091730580E1BC
:10295000808310927C05E0917805F0917905908351
:10296000E0917605F0917705808180618083E09128
:102970007605F0917705808188608083E091760507
:10298000F0917705808180688083E0917605F091F1
:10299000770580818F7D808382E390E0A0E0B0E0C6
:1029A0008093680590936905A0936A05B0936B05C1
:1029B00048EEE42E46E0F42E52EAA52E53E0B52E62
:1029C00060EE862E63E0962E72E1C72E72E0D72E5F
:1029D00000E010E066246394712CD6018C91B2E083
:1029E000CB0ED11C62E01BDCF401619271924F01AD
:1029F000D5011D921D925D010F5F1F4F4AE0B80186
:102A0000CE01019686DA64E178E0CE018296ACDAF6
:102A1000BE016F5F7F4FCE018296D3D9BC01C70143
:102A2000F6D9CE01829641DACE0101963EDAB6E0C1
:102A3000EB0EF11C0831110581F638E4C32E32E0AB
:102A4000D32EE12CF12C00E010E0F6018081F2E0C1
:102A5000CF0ED11C61E0E3DB0F5F1F4F4AE0B801EE
:102A6000CE01019656DA60E278E0CE0182967CDAF9
:102A7000BE016F5F7F4FCE018296A3D96CEE72E0EC
:102A800089D9BC01C7018054984FC1D9CE01829623
:102A90000CDACE01019609DA4AE0B801CE010196BE
:102AA00038DA60E278E0CE0182965EDABE016F5FCE
:102AB0007F4FCE01829685D960EF72E06BD9BC0161
:102AC000C7018858984FA3D9CE018296EED9CE017E
:102AD0000196EBD960E0D6018C9172DBB6E0EB0E8B
:102AE000F11C0C30110509F0B0CF62E083E097DBF8
:102AF00090EDC92E96E0D92E20E6E22E22E0F22EAD
:102B000000E010E0F7018081F2E0EF0EF11C61E0DF
:102B100086DB0F5F1F4F4AE0B801CE010196F9D95D
:102B20006AE178E0CE0182961FDABE016F5F7F4FC7
:102B3000CE01829646D9BC01C60169D9CE018296E2
:102B4000B4D9CE010196B1D9D701BC9061E08B2DEB
:102B500066DB60E08B2D34DBB6E0CB0ED11C04309D
:102B6000110581F660E08AE35ADB60E08BE357DB16
:102B700060E08EE354DB80E395E7A0E0B0E0809373
:102B8000DC039093DD03A093DE03B093DF03BBDB94
:102B90006093D8037093D9038093DA039093DB0397
:102BA00080E69AEEA0E0B0E08093D9049093DA0436
:102BB000A093DB04B093DC04A6DB6093D504709390
:102BC000D6048093D7049093D80461E080E227DB99
:102BD00082E390E0A0E0B0E08093C8049093C90441
:102BE000A093CA04B093CB048EDB6093C4047093AB
:102BF000C5048093C6049093C7048EED93E0A0E0D3
:102C0000B0E08093D0049093D104A093D204B09309
:102C1000D30479DB6093CC047093CD048093CE040D
:102C20009093CF04BAE0EB2EB2E0FB2E00E010E070
:102C3000AA24A394B12CF701D080F2E0EF0EF11C8E
:102C400060E08D2DECDA8D2D93DA892B89F42091BB
:102C5000700330917103C501002E02C0880F991FC7
:102C60000A94E2F7822B932B909371038093700365
:102C70000F5F1F4F04301105F1F6609170037091E2
:102C800071034AE0CE01019644D9BE016F5F7F4FC8
:102C90008EE398E0D1D8CE01019607D960917003F8
:102CA000709171034AE0CE01019633D962E378E076
:102CB000CE01829659D9BE016F5F7F4FCE018296B9
:102CC00080D8BC0188E398E0A2D8CE018296EDD8E6
:102CD000CE010196EAD861E088E0A1DA60E088E000
:102CE0006FDA00E213E0FBE09F2ED12CC12C882488
:102CF0008394AEE07A2E78018091CF0681116FC067
:102D000082EC96E00E94E406811107C01092CD0685
:102D10001092CF061092CE06F4C040E060EF82EC35
:102D200096E00E947806AA24A394612C512CBB241F
:102D3000B39482EC96E00E942506682F82EC96E020
:102D4000AB966FAFAB970E942506AB966FADAB9776
:102D5000613019F48130C9F438C0262D30E0681391
:102D60001EC08091CD06B81638F4F901EE53F94F24
:102D700083818A2151F402C0B81639F060E088E0FE
:102D80008B1560F0B092CE0609C0E62DF0E0EE5350
:102D9000F94F83818A29838361E009C05B2CF901A3
:102DA000EE53F94F93818A2D80958923838382EC9A
:102DB00096E00E944906B394AA0C19F46394AA24DD
:102DC000A39497E0961508F0B4CFA0E4AB1538F4BF
:102DD0005092CD065110E4C68092CF06E1C6109203
:102DE000CD061092CF061092CE0680E0A5ECB6E09C
:102DF0005801E8E0AE0EB11CF8019D919193EA15DF
:102E0000FB05D9F7882309F47CC088E0E0E0815015
:102E100049F0D8019D918D01E927F0E0EA55FE4F78
:102E2000E491F5CF21E030E0EE2311F020E030E036
:102E3000F701878190E02817390709F45EC0808187
:102E40008632B1F4F8E0CF9EA001112480E090E03A
:102E5000FC01E40FF51FEF59FB4FD701A80FB91F75
:102E60002C91208301968830910591F7C39445C039
:102E700028E0D29EA001112480E090E0FC01E40F44
:102E8000F51FE05FFB4FD701A80FB91F2C912083DE
:102E900001968830910591F7D394E2ECF6E0DE01DB
:102EA000DE96872D01900D928A95E1F7CE01CE96A0
:102EB0000E94E406B701CE01CE960E94B90640E01A
:102EC0006EE4CE01CE960E94780640E060E0CE012E
:102ED000CE960E94780640E060E0CE01CE960E9439
:102EE000780640E06FE5CE01CE960E94780640E07D
:102EF00068E4CE01CE960E9478069A9485019110DE
:102F0000FACEC092B104D0926004FDD91B0152E701
:102F1000C52E53E0D52E62E1862E62E0962E72EA2F
:102F2000E72E73E0F72EE0EEAE2EE3E0BE2E01E0DA
:102F300010E0D5014D905C90F70160807180D40164
:102F40008C91B2E08B0E911C13D946145704D9F022
:102F50006816790621F0F701918380831DC0D601A0
:102F60008D919C91F101E81BF90B3697ACF0D501DE
:102F70006D927C92C801672819F40E94BE070CC0AC
:102F80000E94860709C04816590631F0F70191835F
:102F90008083D6012D923C920F5F1F4FB2E0AB0EA3
:102FA000B11CE2E0EE0EF11CF2E0CF0ED11C0931B3
:102FB000110509F0BECF88ED93E00E943F08811112
:102FC00008C060E073E0CE018E5A9F4F0E94BC0F94
:102FD000DDC080E395E7A0E0B0E08093DC03909350
:102FE000DD03A093DE03B093DF038DD96093D80394
:102FF0007093D9038093DA039093DB0332E4C32EFA
:1030000032E0D32E42EDE42E43E0F42E01E010E056
:10301000D6018C91B2E0CB0ED11C863308F08653DA
:1030200090917B00282F2870977F922B90937B00A4
:103030008770806480937C0080917A0080648093A4
:103040007A0080917A0086FDFCCF609078008091B4
:103050007900712C782AB301072C000C880B990B8E
:103060000E949F274B015C01F70160817181072E4F
:10307000000C880B990B0E949F279B01AC01D70184
:103080006D927D927D01C501B4010E94992788232C
:1030900009F44BC02AE137E64CE151E4C501B40123
:1030A0000E94FE27AB01BC0122E0CE01845B9F4F52
:1030B0000E945A0F4AE0B801CE018E5A9F4F0E94DB
:1030C000890F66E278E0CE01885A9F4F0E94B40FC4
:1030D000BE016E5A7F4FCE01885A9F4F0E94E10E6B
:1030E00067EF72E00E94CA0EBE01645B7F4F0E94D0
:1030F000E10EBC01CE0101960E94B40FCE010196F3
:103100000E941A07CE0101960E94550FCE01885ADF
:103110009F4F0E94550FCE018E5A9F4F0E94550F10
:10312000CE01845B9F4F0E94550F0F5F1F4F0430ED
:10313000110509F06DCF45CF8A30910591F02D969C
:103140008FAF2D972E961FAE2E9741E050E0BE0117
:10315000645B7F4FCE0101960E949D0E54D997FF6C
:10316000EBCFBE016F5F7F4FCE018E5A9F4F0E9403
:103170001C0FCE0101960E94550F68E378E0CE0146
:103180008E5A9F4F0E94500E81110FC084E695E029
:103190000E94FE0B181619060CF08EC160E073E059
:1031A000CE0101960E94BC0FD9CF60E073E0CE0142
:1031B00001960E94BC0F6896AEACBFAC6897A11494
:1031C000B10409F401C180903C0890903D0881143D
:1031D000910409F4F9C0ED80FE80E818F9086496BE
:1031E0000EAD1FAD6497E114F104B9F46091380895
:1031F00070913908C8010E947B248C01892B09F445
:10320000E3C069817A814D815E81C8010E943424C6
:103210008D819E81080F191FE9CFF7FE02C068015A
:1032200007C060903808709039086501C80135C042
:103230006091380870913908C8010E947B244C01C4
:10324000892B31F15401A01AB10AA501B801C601B8
:103250000E943424CA0CDB1C69817A814D815E8115
:10326000C6010E9434248D819E81C80ED91E009112
:103270003C0810913D08080D191D68968EAD9FAD54
:1032800068978E0D9F1D68969FAF8EAF6897D0CFC1
:10329000B801C6010E94572497C0B3010E947B2445
:1032A000009729F0880D991DCE0CDF1CF6CFCA14AB
:1032B000DB0409F489C066968EAD9FAD66978C15C8
:1032C0009D0588F4B6016F5F7F4FC8010E944C23B3
:1032D000009709F479C064969FAF8EAF64976696A5
:1032E000DFAECEAE669768960EAD1FAD6897015003
:1032F000110917FD69C060903C0870903D08611489
:10330000710409F461C06896AEACBFAC6897A114B3
:10331000B10409F459C0A614B70408F455C00A153D
:103320001B0518F085010150110964968EAC9FAC05
:1033300064974090380850903908C401CC24CA944E
:10334000DC2C1401200E311E2816390628F0B2019B
:103350000E947B24009779F5D7FC36C06C0C7D1C4D
:10336000C401860D971DA50146195709BC018E0D94
:103370009F1D0E943D2468968EAD9FAD68978E0D6F
:103380009F1D68969FAF8EAF689764962EAD3FAD38
:103390006497F901E80FF91F108264968EAD9FAD16
:1033A000649769817A814D815E818C0D9D1D0E949B
:1033B000342486019CCF9C01281939090217130770
:1033C00008F069010196C0CFCE0101960E94550F09
:1033D0006496CEACDFAC6497C114D10409F444C048
:1033E00068960EAD1FAD689701151105E9F15601FC
:1033F0007501BFEFAB1ABB0AF7018081082E000CE4
:10340000990B0E948127892B99F7015011090C0D06
:103410001D1DD8018C91082E000C990B0E9481274C
:10342000892B89F40F5F1F4FA8014E195F09689619
:103430005FAF4EAF6897CE14DF0458F4B701C601F2
:103440000E94342406C00E151F0560F301501109B7
:10345000E0CF6496EEADFFAD649768968EAD9FADFC
:103460006897E80FF91F108260E278E0CE018E5A6B
:103470009F4F0E94500E882309F4A8C318E4E12E40
:1034800012E0F12E00E010E0B8016054784FCE0158
:103490008E5A9F4F0E946B0E882309F488C361E007
:1034A000F70180810E94E0100A5F1F4FB2E0EB0E2F
:1034B000F11C0834110541F7CE018E5A9F4F0E942E
:1034C000550F1091C304113009F43FC038F0123089
:1034D00009F4F5C1133009F426C2BAC28BEB94E0AB
:1034E0000E943F08882309F4B3C280E395E7A0E077
:1034F000B0E08093BF049093C004A093C104B09344
:10350000C2040E9483116093BB047093BC04809337
:10351000BD049093BE0488E893E1A0E0B0E08093FE
:10352000B7049093B804A093B904B093BA040E946E
:1035300083116093B3047093B4048093B5049093A3
:10354000B6041092B20481E0EBC183EB94E00E94D8
:103550003F08882309F47CC28091B2049091B104A1
:10356000891708F0A8C197E09093B0061092B106B1
:103570001092B2061092B3061092B4061092B506DD
:103580001092B6061092B7061092B8061092B906BD
:103590001092BA061092BB061092BC061093C10698
:1035A0001092BD061092BE061092BF061092C00681
:1035B000A8E08A9FC00111248F599B4F9093AF06BA
:1035C0008093AE060E9483116093BD067093BE0681
:1035D0008093BF069093C0061091B00610FD03C003
:1035E000143009F05EC06091AE067091AF0680E0C5
:1035F00090E015D8882309F4BDC012FB112710F9FB
:10360000812F0E94CE12882309F4B4C06091AE06C7
:103610007091AF06CE0101960E943B12882309F4F7
:10362000A9C01123F9F06B8170E0762F66278A819B
:10363000682BE3E075956795EA95E1F7072E000C96
:10364000880B990B0E949F2720E030E040E05DE36B
:103650000E94FE276093B1067093B2068093B30672
:103660009093B4068091B00680FF1BC06D8170E01E
:10367000762F6627662773708C81682B072E000CC7
:10368000880B990B0E949F2720E030E048EC52E421
:103690006ED66093B5067093B6068093B706909386
:1036A000B8068091B00681FF63C082FF04C0809598
:1036B000182F117001C010E06091AE067091AF0636
:1036C00081E090E00E940F13882309F453C0812FFA
:1036D0000E94CE12882309F44DC06091AE0670910D
:1036E000AF06CE0101960E943B12882309F442C026
:1036F0001123F9F06B8170E0762F66278A81682BA1
:1037000033E0759567953A95E1F7072E000C880B25
:10371000990B0E949F2720E030E040E05DE30E948B
:10372000FE276093B1067093B2068093B306909320
:10373000B4066F8170E0762F66278E81682B77FF45
:1037400003C0719561957109072E000C880B990BC8
:103750000E949F2720E030E040E859E30E94FE27C6
:103760006093B9067093BA068093BB069093BC062B
:103770001092C1068091C106811197C04091B9068F
:103780005091BA066091BB067091BC0622E0CE0152
:10379000845B9F4F0E945A0F4091B5065091B60628
:1037A0006091B7067091B80622E0CE018E5A9F4F05
:1037B0000E945A0F6091B1067091B2068091B306D3
:1037C0009091B4066A961FAE1EAE6A976C961FAEB5
:1037D0001EAE6C976E961FAE1EAE6E978E010F5F7B
:1037E0001F4F22E044E00E949524BC01CE01885A7C
:1037F0009F4F0E94F20E6091B204B8E06B9FB0013F
:1038000011246F597B4FCE01825A9F4F0E94F407BB
:1038100065EF72E0CE018C599F4F0E94BC0FBE0134
:10382000625A7F4FCE018C599F4F0E94E10E67EF85
:1038300072E00E94CA0EBE01685A7F4F0E94E10EDC
:1038400067EF72E00E94CA0EBE016E5A7F4F0E945F
:10385000E10E67EF72E00E94CA0EBE01645B7F4F0B
:103860000E94E10EBC01C8010E94B40FC8010E9471
:103870001A07C8010E94550FCE018C599F4F0E9414
:10388000550FCE01825A9F4F0E94550FCE01885A84
:103890009F4F0E94550FCE018E5A9F4F0E94550F89
:1038A000CE01845B9F4F0E94550F8091B2048F5FC1
:1038B0008093B204CDC01092B20482E031C083EB99
:1038C00094E00E943F08882309F4C2C01091B2041A
:1038D00080916004181708F58EE0E2ECF6E0DE0156
:1038E000D09601900D928A95E1F7CE01C0960E9484
:1038F000E406E8E01E9FB0011124605F7B4FCE011B
:10390000C0960E94B90641E064E4CE01C0960E94D0
:1039100078061F5F1093B2049BC01092B20483E03C
:103920008093C30495C083EB94E00E943F088823F2
:1039300009F48EC01091B20480916004181708F049
:1039400085C08EE0E2ECF6E0DE01929601900D92E9
:103950008A95E1F7CE0182960E94E406F8E01F9F67
:10396000B0011124605F7B4FCE0182960E94B906A0
:1039700040E06EEBCE0182960E9478069E012F5F9A
:103980003F4F69017E013AE0E30EF11C08E010E0D0
:10399000AA24A394B12CCE0182960E9425068111FF
:1039A000BA28AA0C01501109B1F7D601BD926D01D8
:1039B000AE15BF0559F76A8170E0762F66278981B9
:1039C000682B072E000C880B990B0E949F2720E084
:1039D00030E040E85DE30E94FE27AB01BC0122E03D
:1039E000CE01845B9F4F0E945A0F6091B204B8E0F1
:1039F0006B9FB0011124605F7B4FCE018E5A9F4FA9
:103A00000E94F40765EF72E0CE01885A9F4F0E9432
:103A1000BC0FBE016E5A7F4FCE01885A9F4F0E9445
:103A2000E10E67EF72E00E94CA0EBE01645B7F4F39
:103A30000E94E10EBC01CE0101960E94B40FCE019E
:103A400001960E941A07CE0101961ECF1092C30460
:103A50008CEC94E00E943F08882381F182E390E09F
:103A6000A0E0B0E08093C8049093C904A093CA0476
:103A7000B093CB040E9483116093C4047093C50477
:103A80008093C6049093C7048EED93E0A0E0B0E06D
:103A90008093D0049093D104A093D204B093D30424
:103AA0000E9483116093CC047093CD048093CE0464
:103AB0009093CF0461E080E20E94E01084EC94E0F7
:103AC0000E943F08882321F060E080E20E94E0101D
:103AD00085ED94E00E943F08882309F45EC080E6EB
:103AE0009AEEA0E0B0E08093D9049093DA04A0931A
:103AF000DB04B093DC040E9483116093D5047093BF
:103B0000D6048093D7049093D8048091D40468E0BD
:103B100078E0882309F1CE0101960E94B40F69EF85
:103B200072E0CE0101960E94CA0EBC01CE01845BF8
:103B30009F4F0E94B40FCE01845B9F4F0E941A07D3
:103B4000CE01845B9F4F0E94550FCE0101960E94CB
:103B5000550F1092D40421C0CE01845B9F4F0E9468
:103B6000B40F6CEF72E0CE01845B9F4F0E94CA0ECF
:103B7000BC01CE0101960E94B40FCE0101960E94B5
:103B80001A07CE0101960E94550FCE01845B9F4F0C
:103B90000E94550F81E08093D4040E94A40CB5C903
:103BA0008091C506882309F41AC981E01FC9B801AC
:103BB0006858784FCE018E5A9F4F0E946B0E882313
:103BC00009F472CC60E0D7018C916CCC6AE178E0AA
:103BD000CE018E5A9F4F0E94500E882309F432C1A5
:103BE00068962EAD3FAD689740911E0850911F0812
:103BF0004E5F5F4FBE016E5A7F4FCE01845B9F4F79
:103C00000E94D00FB0E6EB2EB2E0FB2E00ED16E0E6
:103C100020911E0830911F082F5F3F4F40E050E079
:103C2000BE016E5A7F4FCE0101960E94D00FB8019F
:103C3000CE0101960E946B0ED82ECE0101960E94F5
:103C4000550FDD2009F4EEC02E968EAD9FAD2E9758
:103C5000009719F089D6962E02C0912C70E0A92CFD
:103C6000B72EF701C080D18061E08C2DAB967FAF7D
:103C7000AB970E940F11AB967FADAB97A114B10427
:103C800009F4CAC0FFEFAF16B10409F4C7C0F601CA
:103C9000FF27E45DFE4FE4918E2F90E0FC01319709
:103CA000E231F10508F0B4C08827EE58FF4F8F4F7E
:103CB00056C384B5806884BD97BCB4C084B58062A7
:103CC00084BD98BCAFC080918000806880938000E4
:103CD000892D972F9093890080938800A3C08091AD
:103CE0008000806280938000892D972F90938B00B5
:103CF00080938A0097C080918000886080938000C4
:103D0000892D972F90938D0080938C008BC080918C
:103D1000B00080688093B0009092B30083C080911F
:103D2000B00080628093B0009092B4007BC080911C
:103D30009000806880939000892D972F9093990030
:103D4000809398006FC08091900080628093900073
:103D5000892D972F90939B0080939A0063C0809148
:103D60009000886080939000892D972F90939D00FC
:103D700080939C0057C08091A00080688093A00031
:103D80008091A0008F7B8093A000892D972F909326
:103D9000A9008093A80046C08091A0008062809313
:103DA000A000892D972F9093AB008093AA003AC072
:103DB0008091A00088608093A000892D972F909318
:103DC000AD008093AC002EC080912001806880936C
:103DD0002001892D972F909329018093280122C0DB
:103DE00080912001806280932001892D972F9093EC
:103DF0002B0180932A0116C0809120018860809356
:103E00002001892D972F90932D0180932C010AC0BA
:103E100020E8A216B10414F460E001C061E08C2D2A
:103E20000E94E0100A5F1F4F32E0E30EF11C86E0B3
:103E3000083E180709F0ECCECE01845B9F4F0E942C
:103E4000550F3ACB64E178E0CE018E5A9F4F0E9425
:103E5000500E8823E9F1F0EEEF2EF3E0FF2EA8EEEE
:103E6000CA2EA6E0DA2E01E010E020911808309169
:103E700019082E5F3F4F40E050E0BE016E5A7F4F61
:103E8000CE0101960E94D00FB601CE0101960E948C
:103E90006B0EB82ECE0101960E94550FBB2061F02B
:103EA000D7018D919C91892B21F4C8010E94BE07F6
:103EB00003C0C8010E9486070F5F1F4FB6E0CB0EFC
:103EC000D11CE2E0EE0EF11C0931110571F6F4CAC5
:103ED0006EE078E0CE018E5A9F4F0E94500E8823EC
:103EE00009F4EACAE0E0F0E01995E6CACF93DF935F
:103EF00082EE96E00E94550F8CED96E00E94550FE1
:103F000086ED96E00E94550F80ED96E00E94550FD9
:103F1000C8E7D7E02697CE010E94550F86E0C83E3D
:103F2000D807C1F7C0ECD7E02697CE010E94550F05
:103F300087E0C837D807C1F7C8E0D8E02697CE0198
:103F40000E94550F87E0C03CD807C1F788E098E091
:103F50000E94550F8EE098E00E94550F84E198E092
:103F60000E94550F8AE198E00E94550F80E298E088
:103F70000E94550F86E298E00E94550F8CE298E06F
:103F80000E94550F82E398E00E94550F88E398E065
:103F90000E94550F8EE398E0DF91CF910C94550F5E
:103FA000CF93DF9382E892E090938D0880938C0802
:103FB00010928E0810928F0810929008109291081B
:103FC000109267051092660548EE53E060E070E0DD
:103FD000409368055093690560936A0570936B057B
:103FE00022E732E03093650520936405EDECF0E0C4
:103FF000F0937105E0937005ECECF0E0F09373053D
:10400000E0937205E8ECF0E0F0937505E093740539
:10401000E9ECF0E0F0937705E0937605EAECF0E068
:10402000F0937905E0937805EEECF0E0F0937B05F2
:10403000E0937A0510927D0510927E0510927F051F
:104040001092800510920406109203064093050614
:104050005093060660930706709308063093020695
:104060002093010625EC30E030930E0620930D06D8
:1040700024EC30E03093100620930F0620EC30E063
:10408000309312062093110621EC30E03093140691
:104090002093130622EC30E0309316062093150689
:1040A00026EC30E0309318062093170610921A067B
:1040B00010921B0610921C0610921D0690939308F6
:1040C0008093920810929408109295081092960886
:1040D00010929708909399088093980810929A08E4
:1040E00010929B0810929C0810929D0890939F0834
:1040F00080939E081092A0081092A1081092A20826
:104100001092A3089093A5088093A4081092A60883
:104110001092A7081092A8081092A90890939F06E1
:1041200080939E061092A0061092A1061092A206FD
:104130001092A3069093A7068093A6061092A80655
:104140001092A9061092AA061092AB069093AB08A3
:104150008093AA081092AC081092AD081092AE0895
:104160001092AF0890938708809386081092880871
:104170001092890810928A0810928B0890938108F7
:10418000809380081092820810928308109284080D
:104190001092850890937B0880937A082FEF2093E4
:1041A0007C0820937D0820937E0820937F0810923E
:1041B000620810926108409363085093640860930A
:1041C000650870936608EAECF2E0F0936008E0930B
:1041D0005F0890936E0880936D0810926F0810929C
:1041E0007008109271081092720824E020937708EA
:1041F0001092470810924608409348085093490887
:1042000060934A0870934B08F0934508E093440884
:1042100090935308809352081092540810925508B6
:10422000109256081092570820935C0860E073E0E3
:104230008EE398E00E94BC0F60E073E088E398E0B2
:104240000E94BC0F61E073E082E398E00E94BC0F23
:1042500066E073E08CE298E00E94BC0F69E073E0D6
:1042600086E298E00E94BC0F6CE073E080E298E088
:104270000E94BC0F6FE073E08AE198E00E94BC0FDF
:1042800063E173E084E198E00E94BC0F68E173E0B1
:104290008EE098E00E94BC0F6CE173E088E098E04B
:1042A0000E94BC0FC0ECD7E060E073E0CE010E943A
:1042B000BC0F269688E0C830D807B1F7C8E7D7E02A
:1042C00060E073E0CE010E94BC0F269687E0C03C00
:1042D000D807B1F7C8EED6E060E073E0CE010E94E7
:1042E000BC0F269687E0C837D807B1F7C0EDD6E0F7
:1042F00060E073E0CE010E94BC0F269686E0C83EC7
:10430000D807B1F760E089E00E940F11EFE0F3E019
:10431000E491E093C206E9ECF2E0E491F0E0EE0F04
:10432000FF1FEA55FD4F859194919093C4068093A9
:10433000C3061092CD061092CF061092CE06EDEC79
:10434000F6E0129286E0E53CF807D9F782EC96E0B9
:104350009093AD068093AC06DF91CF910895EE0F58
:10436000FF1F881F8BBF0790F691E02D19940CD08A
:10437000C2C6BAD640F0B1D630F021F45F3F19F092
:10438000A3C65111ECC6A6C6C7D698F39923C9F3A4
:104390005523B1F3951B550BBB27AA27621773074B
:1043A000840738F09F5F5F4F220F331F441FAA1FFF
:1043B000A9F333D00E2E3AF0E0E830D091505040BF
:1043C000E695001CCAF729D0FE2F27D0660F771F6D
:1043D000881FBB1F261737074807AB07B0E809F04F
:1043E000BB0B802DBF01FF2793585F4F2AF09E3FE4
:1043F000510568F069C6B3C65F3FECF3983EDCF345
:10440000869577956795B795F7959F5FC9F7880F5C
:10441000911D9695879597F90895E1E0660F771FAE
:10442000881FBB1F621773078407BA0720F0621B3F
:10443000730B840BBA0BEE1F88F7E0950895CF93AA
:10444000DF938230910510F482E090E0E091B208B1
:10445000F091B30820E030E0C0E0D0E0309711F1F7
:104460004081518148175907C0F04817590761F436
:1044700082819381209719F09B838A832BC090932C
:10448000B3088093B20826C02115310519F04217F0
:10449000530718F49A01BE01DF01EF010280F38196
:1044A000E02DDCCF2115310509F1281B390B243013
:1044B000310590F412968D919C91139761157105B9
:1044C00021F0FB019383828304C09093B30880930F
:1044D000B208FD01329644C0FD01E20FF31F819343
:1044E0009193225031092D933C933AC02091B0080A
:1044F0003091B108232B41F4209102023091030244
:104500003093B1082093B00820910002309101024D
:104510002115310541F42DB73EB740910402509169
:104520000502241B350BE091B008F091B108E217A9
:10453000F307A0F42E1B3F0B2817390778F0AC01C6
:104540004E5F5F4F2417350748F04E0F5F1F5093A3
:10455000B1084093B0088193919302C0E0E0F0E08D
:10456000CF01DF91CF9108950F931F93CF93DF93E6
:10457000009709F48CC0FC013297138212820091DB
:10458000B2081091B3080115110581F42081318121
:10459000820F931F2091B0083091B1082817390776
:1045A00079F5F093B108E093B00871C0D80140E00C
:1045B00050E0AE17BF0750F412962D913C9113971F
:1045C000AD012115310509F1D901F3CF9D01DA01C2
:1045D0003383228360817181860F971F821793072F
:1045E00069F4EC0128813981260F371F2E5F3F4F78
:1045F000318320838A819B8193838283452B29F495
:10460000F093B308E093B20842C01396FC93EE9384
:104610001297ED01499159919E01240F351FE21720
:10462000F30771F480819181840F951F0296119692
:104630009C938E938281938113969C938E93129771
:10464000E0E0F0E0D80112968D919C9113970097CD
:1046500019F0F8018C01F6CF8D919C9198012E5F95
:104660003F4F820F931F2091B0083091B108281757
:10467000390769F4309729F41092B3081092B20800
:1046800002C0138212821093B1080093B008DF9128
:10469000CF911F910F9108956F927F928F929F9269
:1046A000AF92BF92CF92DF92EF92FF920F931F9340
:1046B000CF93DF93EC01009781F4CB01DF91CF9191
:1046C0001F910F91FF90EF90DF90CF90BF90AF9030
:1046D0009F908F907F906F90B2CEFC01E60FF71FF6
:1046E0009C0122503109E217F30708F4A8C0D90150
:1046F0000D911C91119706171707A8F005301105A9
:1047000008F49BC0C80104978617970708F495C062
:1047100002501109061B170B019311936D937C93A3
:10472000CF0122DF8AC05B01A01AB10A4C01800EC2
:10473000911EA091B208B091B30840E050E0E12C86
:10474000F12C109709F44AC0A815B905D1F56D9060
:104750007C901197630182E0C80ED11CCA14DB045F
:1047600080F1A3014A195B096A0182E0C80ED11CDD
:104770001296BC9012971396AC91B5E0CB16D1046B
:1047800040F0B282A38351834083D9016D937C931F
:104790000AC00E5F1F4FC301800F911FF901918363
:1047A0008083EB2DFA2FE114F10431F0D701139639
:1047B000FC93EE93129741C0F093B308E093B208D4
:1047C0003CC08D919C9111974817590708F4AC0192
:1047D0007D0112960D90BC91A02DB3CF8091B008B1
:1047E0009091B10888159905E1F446175707C8F468
:1047F0008091000290910102009741F48DB79EB71D
:104800004091040250910502841B950BE817F907AB
:10481000B0F4F093B108E093B008F90171836083BC
:104820000CC0CB010CDE7C01009749F0A801BE0151
:104830001BD0CE0199DEC70104C0CE0102C080E0CA
:1048400090E0DF91CF911F910F91FF90EF90DF905B
:10485000CF90BF90AF909F908F907F906F90089572
:1048600081E090E0F894A3C4FB01DC0102C0019058
:104870000D9241505040D8F708956817790768F4B1
:10488000FB01DC01E40FF51FA40FB51F02C002906D
:104890000E9241505040D8F70895E6CFFB01DC015D
:1048A0008D91019080190110D9F3990B0895FB01A6
:1048B000DC0101900D920020E1F70895FB01DC017D
:1048C0004150504030F08D910190801919F4002032
:1048D000B9F7881B990B0895FB01DC01415050404A
:1048E00048F001900D920020C9F701C01D9241507F
:1048F0005040E0F70895FB0151915523A9F0BF0105
:10490000DC014D9145174111E1F759F4CD010190BA
:10491000002049F04D9140154111C9F3FB014111AF
:10492000EFCF81E090E001970895EF920F931F93EE
:10493000CF93DF93E80147FD02C034E001C034E1CA
:10494000E42F440FFF0BF7FF03C0F195E195F10948
:10495000E32E022F2E2FAE016FD0CE01DF91CF912B
:104960001F910F91EF9008951F93FC0199278827BD
:10497000BC01E89411911032E9F3193010F01E30A7
:10498000C8F31B3249F01D3241F4689405C026D0AB
:10499000610F711D811D911D119110531A30B8F3D3
:1049A0003EF490958095709561957F4F8F4F9F4F06
:1049B0001F9108954532510518F4423008F004C0A3
:1049C000FB011082CB010895BB274A3031F49923B3
:1049D00022F4BDE2909581959F4F16C0592F482F24
:1049E000372F262F660F771F881F991F660F771F97
:1049F000881F991F620F731F841F951F660F771FF3
:104A0000881F991F0895BB27FB015527AA27880FE8
:104A1000991FAA1FA41710F0A41B83955051B9F732
:104A2000A05DAA3308F0A95DA193009779F7B111B1
:104A3000B1931192CB016DC24F925F926F927F92B0
:104A40009F92AF92BF92CF92DF92EF92FF920F931D
:104A50001F93CF93DF93CDB7DEB729970FB6F894A6
:104A6000DEBF0FBECDBF6A01122FB02E2BE3201781
:104A700020F0FF24F394F00E02C0BCE3FB2E0F2DB8
:104A800027E0AE014F5F5F4F64D1AC018981982F61
:104A90009970913031F0E1FC06C0E0FE06C090E272
:104AA00005C09DE203C09BE201C090E0EE2DE071E5
:104AB00083FF3CC0911102C083E001C084E08117F4
:104AC00018F4212F281B01C020E0E1110BC0F601D2
:104AD000822F30E2882319F031938150FBCFC20E30
:104AE000D11C20E0992329F0D6019C93F601319640
:104AF0006F01C6010396E2FE0AC03EE4D6013C9374
:104B000041E411964C93119712963C9306C03EE6F1
:104B1000F601308341E641833283FC01322F40E2CB
:104B2000332309F442C041933150FACF82FF44C08D
:104B3000911102C083E001C084E0811718F4212F95
:104B4000281B01C020E0E1110BC0F601822F30E2EA
:104B5000882319F031938150FBCFC20ED11C20E085
:104B6000992329F0D6019C93F60131966F01C60175
:104B70000396E2FE0BC039E4D6013C933EE4119665
:104B80003C93119736E412963C9307C039E6F60140
:104B900030833EE6318336E63283FC01322F40E239
:104BA000332319F041933150FBCFFC01E20FF11D8B
:104BB00010828EEF9FEFB7C0F1E0911101C0F0E0DD
:104BC0006F2F70E01416150624F49A012F5F3F4FE3
:104BD00002C021E030E0260F371FBB2029F06B2DEB
:104BE00070E06F5F7F4F02C060E070E0260F371FFC
:104BF000612F70E0261737071CF4121B212F01C00C
:104C000020E03E2D387159F4D601322F60E2332373
:104C100019F06D933150FBCFC20ED11C20E0FF2361
:104C200031F0D6019C93B6016F5F7F4F6B01E111AC
:104C30000BC0F601922F30E3992319F03193915074
:104C4000FBCFC20ED11C20E09F2D940F3A81782F0C
:104C50007071A72E84FF03C0313309F491501916E7
:104C600024F4993018F098E001C091E0E42F852FEA
:104C700057FF02C0E0E080E06E2F782FE0E0F0E028
:104C8000AEE29A2E3A01691A71082A01461A570AA9
:104C90000B2D10E01195019511096F3F8FEF7807EB
:104CA00029F4D6019C92C60101966C01461757075C
:104CB00084F0661677066CF47F01E40CF51CA1E025
:104CC000B0E0AC0FBD1FEA0EFB1ED7011196BC90E1
:104CD00002C090E3B92E615071093196C601019668
:104CE0007C016017710724F0D601BC926C01D5CF0E
:104CF0006417750741F4363320F4353321F4A110DD
:104D000002C081E3B82EF601B082F701822F90E253
:104D1000882319F091938150FBCFF701E20FF11D29
:104D2000108280E090E029960FB6F894DEBF0FBEA7
:104D3000CDBFDF91CF911F910F91FF90EF90DF904A
:104D4000CF90BF90AF909F907F906F905F904F906B
:104D50000895283008F027E03327DA01990F311D34
:104D600087FD916000966105710539F432602E5F10
:104D70003D9330E32A95E1F708959F3F30F0803866
:104D80007105610509F03C5F3C5F3D93913008F08F
:104D90008068911DDF93CF931F930F93FF92EF9243
:104DA000192F987F9695E92F96959695E90FFF27ED
:104DB000EA55FC4F99273327EE24FF24A701E7018A
:104DC00005900894079428F4360FE71EF81E491F33
:104DD000511D660F771F881F991F0694A1F7059034
:104DE000079428F4E70EF81E491F561FC11D770FC0
:104DF000881F991F661F0694A1F70590079428F451
:104E0000F80E491F561FC71FD11D880F991F661F17
:104E1000771F0694A1F70590079420F4490F561FB9
:104E2000C71FD81F990F661F771F881F0694A9F701
:104E300084911095177041F0D695C7955795479571
:104E4000F794E7941A95C1F7ECE4F3E068941590B1
:104E5000159135916591959105907FE27395E118D3
:104E6000F10A430B560BC90BD009C0F7E10CF11E38
:104E7000431F561FC91FD01D7EF4703311F48A954D
:104E8000E6CFE894015030F0080F0AF4002702172B
:104E900008F4202F2395022F7A3328F079E37D93AD
:104EA0002A95E9F710C07D932A9589F6069497957F
:104EB0006795379517951794E118F10A430B560B30
:104EC000C90BD00998F023957E9173957A3308F039
:104ED00070E37C932013B8F77E9170617D9330F07E
:104EE000839571E37D9370E32A95E1F71124EF90A8
:104EF000FF900F911F91CF91DF91992787FD90959A
:104F000008959111DEC0803219F089508550D0F794
:104F10000895DC01FC01672F71917723E1F7329747
:104F200004C07C916D9370836291AE17BF07C8F384
:104F3000089540D008F481E00895E89409C097FBF3
:104F40003EF490958095709561957F4F8F4F9F4F60
:104F50009923A9F0F92F96E9BB279395F6958795A4
:104F600077956795B795F111F8CFFAF4BB0F11F467
:104F700060FF1BC06F5F7F4F8F4F9F4F16C088230E
:104F800011F096E911C0772321F09EE8872F762F44
:104F900005C0662371F096E8862F70E060E02AF085
:104FA0009A95660F771F881FDAF7880F9695879571
:104FB00097F90895990F0008550FAA0BE0E8FEEF46
:104FC00016161706E807F907C0F012161306E407CD
:104FD000F50798F0621B730B840B950B39F40A26C6
:104FE00061F0232B242B252B21F408950A2609F4A4
:104FF000A140A6958FEF811D811D08950BD07BC028
:105000006CD028F071D018F0952309F05DC062C013
:105010001124A5C081D0A0F3959FD1F3950F50E046
:10502000551F629FF001729FBB27F00DB11D639F5A
:10503000AA27F00DB11DAA1F649F6627B00DA11D00
:10504000661F829F2227B00DA11D621F739FB00DA6
:10505000A11D621F839FA00D611D221F749F332716
:10506000A00D611D231F849F600D211D822F762FAF
:105070006A2F11249F5750408AF0E1F088234AF0AC
:10508000EE0FFF1FBB1F661F771F881F91505040F8
:10509000A9F79E3F510570F017C061C05F3FECF368
:1050A000983EDCF3869577956795B795F795E795E4
:1050B0009F5FC1F7FE2B880F911D9695879597F9F5
:1050C000089599278827089597F99F6780E870E0E9
:1050D00060E008959FEF80EC089500240A9416166E
:1050E000170618060906089500240A9412161306D6
:1050F000140605060895092E0394000C11F4882364
:1051000052F0BB0F40F4BF2B11F460FF04C06F5F7F
:105110007F4F8F4F9F4F089557FD9058440F551F55
:1051200059F05F3F71F04795880F97FB991F61F029
:105130009F3F79F087950895121613061406551FA0
:10514000F2CF4695F1DF08C0161617061806991F0C
:10515000F1CF86957105610508940895E894BB2701
:1051600066277727CB0197F90895A1E21A2EAA1B8B
:10517000BB1BFD010DC0AA1FBB1FEE1FFF1FA21707
:10518000B307E407F50720F0A21BB30BE40BF50B04
:10519000661F771F881F991F1A9469F7609570958D
:1051A000809590959B01AC01BD01CF01089512E05F
:1051B000C4E2D2E000E005C0802FFE01D0D82196E5
:1051C000011DC532D10780E00807B1F7F894FFCF81
:1051D0000000B408800001000000360037003800ED
:1051E00039002400220030002E0045004400430016
:1051F00042002C002A0028002600060005000300BB
:1052000002000E000F001000110018001A001C0010
:105210001E003A003B003E00270029002B002D0015
:105220002F003100170019001B001D001F00210076
:105230000B000D000C00070001005E0000000000E4
:1052400000003D0C980BFE0BDC0BF00B830C0000F8
:105250000000080E00000000520D00000000520D7A
:10526000520D520D520D520D520D520D520D520D46
:10527000520D520D520D520D520D520D520D000095
:105280000000520D980B520D520D520D520D0000A0
:105290000000520D980B0000000068082F0A57020A
:1052A0002F09570967083C037602FE026D03D202FC
:1052B0008A0911096F025F025B02190B206F6E00F1
:1052C000206F666600317720002031002030000A10
:1052D000007261696C00646900616900646F00704C
:1052E000776D0073746174007273740068620000FB
:00000001FF
