:100000002DC200005CC200005AC2000058C20000AD
:1000100056C2000054C2000052C2000050C200008C
:100020004EC200004CC200004AC2000048C200009C
:1000300046C2000044C2000042C2000040C20000AC
:100040003EC200003CC200003AC2000038C20000BC
:1000500036C2000034C2000032C200000C940D1DF4
:100060002EC200000C946D210C94A32128C2000024
:1000700026C2000024C2000022C2000020C20000EC
:100080001EC200001CC200001AC2000018C20000FC
:100090000C9418220C944E2212C2000010C20000D0
:1000A0000EC200000CC200000AC2000008C200001C
:1000B00006C2000004C2000002C2000000C200002C
:1000C000FEC10000FCC10000FAC10000F8C1000040
:1000D000F6C10000F4C10000F2C10000F0C1000050
:1000E000EEC10000731E781E7D1E871E911E0A1F22
:1000F0009B1EA31EAB1EB51EBF1EC91ED81EE21E30
:100100000A1FEC1EF61E001F2C1F2F1F1E1F221F72
:10011000281F661F331F371F3D1F411F451F4B1FE1
:100120004F1F531F661F591F5D1F611F005EBCE2FA
:10013000613FDD83C29C7E20A3FD1F419DC3217FC3
:10014000FCA2401E5F01E3BD3E6082DC237D9FC1B7
:10015000421CFEA0E1BF5D0380DE3C62BEE0025CAB
:10016000DF81633D7C22C09E1D43A1FF4618FAA497
:1001700027799BC584DA3866E5BB5907DB85673983
:10018000BAE406581947A5FB7826C49A653BD98777
:10019000045AB8E6A7F91B45C6987A24F8A6441A6B
:1001A00099C7257B3A6486D85B05E7B98CD2306E57
:1001B000EDB3510F4E10F2AC2F7193CD114FADF343
:1001C000702ECC92D38D6F31B2EC0E50AFF1134D37
:1001D000CE90722C6D33D18F0C52B0EE326C8ED02B
:1001E000530DEFB1F0AE4C1291CF2D73CA94762817
:1001F000ABF517490856B4EA6937D58B5709EBB503
:1002000036688AD495CB2977F4AA4816E9B7550BF6
:1002100088D6346A2B7597C94A14F6A8742AC896EA
:10022000154BA9F7B6E80A54D7896B3500000A0BBD
:1002300002090C0D0E080703040100000000000075
:1002400000000000000000000000000000000000AE
:10025000000000000000000012111000000000006B
:10026000000000000000000000000000000000008E
:1002700000000102102020080810204010204080BB
:10028000020102010804020101020408102040805A
:1002900080402010080402018004020180402010E8
:1002A0000804020108040201010204081020408031
:1002B000010204081020408005050505070508080F
:1002C0000808020202020A0A0808040404040101E0
:1002D00001010101010103030303030303030407F5
:1002E00007070C0C0C0C0C0C0C0C0202020206068C
:1002F0000606060606060B0B0B0B0B0B0B0B000082
:1003000020002300260029002C002F0032000001CD
:100310000000030106010901000022002500280059
:100320002B002E00310034000201000005010801FD
:100330000B0100002100240027002A002D003000BE
:10034000330001010000040107010A0100407A1096
:10035000F35A00A0724E18090010A5D4E80000E876
:100360007648170000E40B54020000CA9A3B0000D4
:1003700000E1F505000080969800000040420F0063
:100380000000A08601000000102700000000E80324
:10039000000000006400000000000A0000000000EF
:1003A0000100000000002C76D888DC674F0823DFAE
:1003B000C1DFAE59E1B1B796E5E3E453C63AE65181
:1003C000997696E8E6C28426EB898C9B62ED407CA8
:1003D0006FFCEFBC9C9F40F2BAA56FA5F490055A44
:1003E0002AF75C936B6CF9676DC11BFCE0E40D4769
:1003F000FEF520E6B500D0ED902E0300943577058C
:100400000080841E080000204E0A000000C80C3343
:100410003333330F986E12831141EF8D2114893BD2
:10042000E65516CFFEE6DB18D1844B381BF77C1D52
:10043000901DA4BBE424203284725E228100C9F1A5
:1004400024ECA1E53D27260521116C118A1598158C
:10045000A315ED17D52180221B23A10511241FBE52
:10046000CFEFD1E2DEBFCDBF00E00CBF13E0A0E0D4
:10047000B2E0EAE8F0E600E00BBF02C007900D92A0
:10048000A834B107D9F727E0A8E4B3E001C01D9272
:10049000AC36B207E1F714E0CAE5D4E000E006C0EC
:1004A00022970109FE010BBF0E94C22AC634D10760
:1004B00080E00807A9F70E940B290C943430A0CDE6
:1004C0000F931F93CF93DF93EC010E94571D088178
:1004D00019812A813B81601B710B820B930B0C816C
:1004E0001D812E813F81601771078207930740F0BD
:1004F0000E94571D688379838A839B8381E001C0B2
:1005000080E0DF91CF911F910F910895CF92DF92FC
:10051000EF92FF920F931F93CF93DF9300D000D001
:10052000CDB7DEB77C016B0169E373E00E94FB2469
:100530008601C12CD12CF80161918F0140E1CE01DF
:1005400001960E948325BE016F5F7F4FC7010E9405
:100550003126CE0101960E949324FFEFCF1ADF0AC5
:1005600088E0C816D10439F7C70126960FB6F8946B
:10057000DEBF0FBECDBFDF91CF911F910F91FF90D6
:10058000EF90DF90CF9008958F92AF92BF92CF926D
:10059000DF92EF92FF920F931F93CF93DF93CDB72C
:1005A000DEB72E970FB6F894DEBF0FBECDBFC9825F
:1005B000DA82EB82FC820D831E832F833887498782
:1005C0005A876B877C878D879E87882D8C3031F08A
:1005D0008B3031F08A3031F01FE105C01FE703C0D6
:1005E0001FE501C01FE3CE0101960E940A0DB5016F
:1005F000CE0101960E94030E40E06EE4CE0101960A
:100600000E94A70D40E060E0CE0101960E94A70D78
:1006100040E060E0CE0101960E94A70D40E0612F0E
:10062000CE0101960E94A70D40E068E4CE0101963C
:100630000E94A70D2E960FB6F894DEBF0FBECDBF59
:10064000DF91CF911F910F91FF90EF90DF90CF90AE
:10065000BF90AF908F9008955F926F927F928F922C
:100660009F92AF92BF92CF92DF92EF92FF920F9341
:100670001F93CF93DF93C0EBD3E087EB682E83E02B
:10068000782E5524539499249394BE0189ED93E0D8
:100690000E94620E811116C09A949092AF035A94F0
:1006A0005092AE03DF91CF911F910F91FF90EF9089
:1006B000DF90CF90BF90AF909F908F907F906F9082
:1006C0005F90089567E0CE010E94F50E21E030E0D2
:1006D000882311F020E030E0F301808190E02817BA
:1006E000390709F44EC088818632B1F488E0989EBB
:1006F000900111242A573C4F80E090E0F901E80F67
:10070000F91FDE01A80FB91F4C9140830196883074
:100710009105A1F7939435C0E8E05E9E9001112405
:10072000225A3C4F80E090E0F901E80FF91FDE010A
:10073000A80FB91F4C914083019688309105A1F70D
:10074000539480900A025E01C090D903D090DA03DE
:10075000E090DB03F090DC030091DD031091DE03F9
:100760002091DF033091E0034091E1035091E203D7
:100770006091E3037091E4038091E5039091E603B7
:1007800003DF2896F8E06F0E711C83E0C03ED807A7
:1007900009F482CF7ACFAF92BF92CF92DF92EF92DD
:1007A000FF920F931F93CF93DF93CDB7DEB72E97B2
:1007B0000FB6F894DEBF0FBECDBFC982DA82EB82DE
:1007C000FC820D831E832F83388749875A876B8766
:1007D0007C878D879E87CE0101960E940A0DB50108
:1007E000CE0101960E94030E41E064E4CE01019621
:1007F0000E94A70D2E960FB6F894DEBF0FBECDBF98
:10080000DF91CF911F910F91FF90EF90DF90CF90EC
:10081000BF90AF900895AF92BF92CF92DF92EF92C8
:10082000FF920F931F93CF93DF93CDB7DEB76A97F5
:100830000FB6F894DEBF0FBECDBFCD86DE86EF8645
:10084000F88A098B1A8B2B8B3C8B4D8B5E8B6F8BB5
:10085000788F898F9A8FCE010D960E940A0DB5016F
:10086000CE010D960E94030E40E06EEBCE010D9678
:100870000E94A70D8E010F5F1F4F7E018AE0E80ED8
:10088000F11CCE010D960E94E80DF80181938F01B5
:10089000EE15FF05B1F76A8170E0762F6627898132
:1008A000682B882777FD8095982F0E94872920E064
:1008B00030E040E85DE30E94372A6A960FB6F8946C
:1008C000DEBF0FBECDBFDF91CF911F910F91FF9083
:1008D000EF90DF90CF90BF90AF900895FF920F936D
:1008E0001F93CF93DF93CDB7DEB762970FB6F8941F
:1008F000DEBF0FBECDBF8C01F62E8D309105ECF51D
:100900004AE0CE010D960E94AF25B8016F5F7F4F80
:100910004AE0CE0107960E94AF256EE772E0CE0155
:1009200001960E94FB24BE01695F7F4FCE010196B4
:100930000E944A2660E972E00E945B26BE01635F66
:100940007F4F0E944A26BC0188E296E00E948A23DB
:10095000CE0101960E949324CE0107960E94932413
:10096000CE010D960E949324F801EE0FFF1FED5A61
:10097000FD4F6F2D80810E94A01F62960FB6F894E4
:10098000DEBF0FBECDBFDF91CF911F910F91FF90C2
:100990000895EF92FF920F931F93CF93DF93CDB7FC
:1009A000DEB762970FB6F894DEBF0FBECDBF8C01E5
:1009B0007B0185309105ECF54AE0CE010D960E9451
:1009C000AF25B8016F5F7F4F4AE0CE0107960E94C6
:1009D000AF2568E972E0CE0101960E94FB24BE01BA
:1009E000695F7F4FCE0101960E944A2660E972E05E
:1009F0000E945B26BE01635F7F4F0E944A26BC01B6
:100A000088E296E00E948A23CE0101960E949324F8
:100A1000CE0107960E949324CE010D960E94932446
:100A2000F801EE0FFF1FE55BFD4FB70180810E94CB
:100A30004F1E62960FB6F894DEBF0FBECDBFDF919A
:100A4000CF911F910F91FF90EF9008950F93CF9347
:100A5000DF9300E020E040E060E08FEC95E00E9452
:100A6000042389EC95E00E94FA220FEF2FEF4FEF5D
:100A70006FEF83EC95E00E9404238CE295E00E94E6
:100A8000791781E195E00E94791769E373E083EDBE
:100A900094E00E94FB2469E373E08DEC94E00E94F3
:100AA000FB246FEA72E087EC94E00E94FB2464EB85
:100AB00072E081EC94E00E94FB2467EB72E08BEB28
:100AC00094E00E94FB246AEB72E085EB94E00E94C4
:100AD000FB246DEB72E08FEA94E00E94FB24C7E6F2
:100AE000D4E069E373E0CE010E94FB24269684E003
:100AF000CF3AD807B1F7CFE1D4E069E373E0CE0194
:100B00000E94FB24269684E0C736D807B1F7C7E0D9
:100B1000D4E069E373E0CE010E94FB24269684E0D2
:100B2000CF31D807B1F769E089ED93E00E94400E1C
:100B300069ED73E088E493E0DF91CF910F910C941D
:100B4000010FCF93DF9389E194E00E94932483E126
:100B500094E00E9493248DE094E00E94932487E027
:100B600094E00E949324C7E6D4E02697CE010E9429
:100B7000932484E0CF31D807C1F7CFEAD4E0269799
:100B8000CE010E94932484E0C736D807C1F78FEACC
:100B900094E00E94932485EB94E00E9493248BEBD5
:100BA00094E00E94932481EC94E00E94932487ECCB
:100BB00094E00E9493248DEC94E00E94932483EDB2
:100BC00094E0DF91CF910C949324CF92DF92EF9237
:100BD000FF920F931F93CF93DF93CDB7DEB72C9780
:100BE0000FB6F894DEBF0FBECDBF26E040E855E259
:100BF00060E070E088E296E00E940B2126E040E091
:100C000052EC61E070E085EC96E00E940B2105E17A
:100C100012E07BEDE72E74E0F72EF80180810E5F85
:100C20001F4F62E00E94671FF701119211927F012E
:100C3000F2E005341F0789F763E5C62E62E0D62E81
:100C4000E12CF12C00E010E0F6018081F2E0CF0E03
:100C5000D11C61E00E94671F0F5F1F4F4AE0B8017F
:100C6000CE0107960E94AF2565EB74E0CE01019698
:100C70000E945A25BE01695F7F4FCE0101960E94F6
:100C80004A2661EC72E00E945B26BC01C7018959CB
:100C90009B4F0E944525CE0101960E949324CE01D0
:100CA00007960E9493244AE0B801CE0107960E945D
:100CB000AF2565EB74E0CE0101960E945A25BE0176
:100CC000695F7F4FCE0101960E944A2665EC72E073
:100CD0000E945B26BC01C701815E9B4F0E94452597
:100CE000CE0101960E949324CE0107960E94932480
:100CF00060E070E0C801F2DD86E0E80EF11C0C3027
:100D0000110509F0A1CF4BE4C42E42E0D42E57E0E8
:100D1000E52E54E0F52E00E010E0F6018081F2E0CF
:100D2000CF0ED11C61E00E94671F0F5F1F4F4AE08A
:100D3000B801CE0107960E94AF256FEA74E0CE019C
:100D400001960E945A25BE01695F7F4FCE01019630
:100D50000E944A26BC01C7010E944525CE0101968A
:100D60000E949324CE0107960E94932460E070E0D5
:100D7000C8010FDE86E0E80EF11C0430110569F6AB
:100D800005E412E0F80180810E5F1F4F60E00E94D1
:100D9000671FF2E00B341F07A9F761E080910B0297
:100DA0000E94671F85E390E0A0E0B0E08093030419
:100DB00090930404A0930504B09306040E94571D69
:100DC0006093FF03709300048093010490930204E6
:100DD00086EB93E0A0E0B0E08093FB039093FC03EC
:100DE000A093FD03B093FE030E94571D6093F70389
:100DF0007093F8038093F9039093FA030DE012E0E7
:100E0000F80180810E5F1F4F60E00E94671FF2E0D3
:100E100005311F07A9F786E30E94D51F892B49F4E6
:100E20008091D9049091DA0481609093DA048093E0
:100E3000D90487E30E94D51F892B49F48091D904F6
:100E40009091DA0482609093DA048093D90488E365
:100E50000E94D51F892B49F48091D9049091DA041E
:100E600084609093DA048093D90489E30E94D51FAB
:100E7000892B49F48091D9049091DA048860909389
:100E8000DA048093D9046091D9047091DA044AE0BD
:100E9000CE0101960E94AF25BE016F5F7F4F83EDAB
:100EA00094E00E946225CE0101960E9493246091F5
:100EB000D9047091DA044AE0CE0107960E94AF256A
:100EC00067EC74E0CE0101960E945A25BE01695F6D
:100ED0007F4FCE0101960E944A26BC018DEC94E022
:100EE0000E944525CE0101960E949324CE010796CB
:100EF0000E9493240091D9048DEE800F8093760296
:100F00000A5626E948EA60ECCE0101960E940423C5
:100F10008B819C81AD81BE818093CB059093CC0564
:100F2000A093CD05B093CE0525E333E03A83298322
:100F3000AE014F5F5F4F61E772E081EE95E00E9486
:100F40003D1560916F02709170028CE295E00E94F5
:100F5000711660916D0270916E0281E195E00E94C0
:100F6000711661E088E00E94671F60E088E00E94DF
:100F7000A01F6AEC72E088E296E00E949A2363ED7B
:100F800074E088E296E00E948A2369EC75E088E2CA
:100F900096E00E94AA2360DB2C960FB6F894DEBF81
:100FA0000FBECDBFDF91CF911F910F91FF90EF90BA
:100FB000DF90CF900895EF92FF920F931F93CF93FE
:100FC000DF9300D000D0CDB7DEB77C0167EC74E0D2
:100FD000CE0101960E945A2563ED74E0CE01019680
:100FE0000E944A266CED72E00E945B26B7010E94C7
:100FF0004A26BC01C7010E944525CE0101960E94E8
:10100000932440916B0250916C0285E393E09A83A4
:1010100089830091C5051091C6052091C7053091BF
:10102000C8050B831C832D833E83BE016F5F7F4FFA
:1010300081E195E00E94F81520E030E044E650E0C0
:1010400067E475E0C7010E940327E0911105F09164
:101050001205D70114964D915C9115970280F3818A
:10106000E02D67E475E081E195E0199581E195E077
:101070000E94FF1561E088E00E94A01FB701CE0129
:1010800001960E945A2568E373E0CE0101960E9402
:101090005B26BC0185EC96E00E946823CE01019698
:1010A0000E9493246AE070E080E090E00E94861D38
:1010B00060E088E00E94A01FB70188E296E00E94ED
:1010C0008A2326960FB6F894DEBF0FBECDBFDF9100
:1010D000CF911F910F91FF90EF9008957F928F9283
:1010E0009F92AF92BF92CF92DF92EF92FF920F93B7
:1010F0001F93CF93DF93CDB7DEB7C056D1090FB69C
:10110000F894DEBF0FBECDBF8FEE93E0D9D9882310
:1011100009F492C16EED72E088E296E00E949A2393
:1011200080E395E7A0E0B0E08093F3039093F403AD
:10113000A093F503B093F6030E94571D6093EF034D
:101140007093F0038093F1039093F20399249394A6
:101150008091AF03891508F4CCC067E088E493E080
:1011600054D6E92CF12C6701B3E0CC0CDD1CBA9508
:10117000E1F796012A573C4F6901B90188E493E0F1
:1011800083D788E493E073D68111B1C088E493E0FB
:1011900052D65701AA0CBB1CAA0CBB1CE1E0F0E024
:1011A000EC0FFD1FAE0EBF1EF501608371838283BD
:1011B000938387010F5F1F4F60E070E088E493E046
:1011C00040D6000F111F000F111F21E030E02C0F3F
:1011D0003D1F020F131FF801608371838283938385
:1011E00061E070E088E493E02CD6AB01BC01F7012C
:1011F0003296EE0FFF1FEE0FFF1F21E030E02C0FA5
:101200003D1FE20FF31F408351836283738322E00B
:10121000CE018D5B9F4F0E94D925F80140815181FD
:101220006281738122E0CE01875B9F4F0E94D925A6
:10123000F501408151816281738122E0CE01815BA1
:101240009F4F0E94D925B601CE01855A9F4F5ED986
:1012500061EF72E0CE018B5A9F4F0E94FB24BE01CA
:10126000655A7F4FCE018B5A9F4F0E944A266CEDE4
:1012700072E00E945B26BE01615B7F4F0E944A269E
:101280006CED72E00E945B26BE01675B7F4F0E949F
:101290004A266CED72E00E945B26BE016D5B7F4FBB
:1012A0000E944A26BC01CE01CD960E945A25CE014D
:1012B000CD9681DECE01CD960E949324CE018B5A2D
:1012C0009F4F0E949324CE01855A9F4F0E949324E2
:1012D000CE01815B9F4F0E949324CE01875B9F4F7D
:1012E0000E949324CE018D5B9F4F0E949324939480
:1012F0002FCF772473948091AE03871508F49CC098
:101300008091D80381112AC0F8E07F9EC00111248A
:10131000825A9C4F5C01C090D903D090DA03E090D0
:10132000DB03F090DC030091DD031091DE032091DC
:10133000DF033091E0034091E1035091E2036091BB
:10134000E3037091E4038091E5039091E60323DACF
:101350008091D8038F5F8093D8036CC089ED93E0B0
:1013600037D4882309F466C028E0729E4001112416
:10137000C401825A9C4F4C015C01C090D903D090AB
:10138000DA03E090DB03F090DC030091DD031091C1
:10139000DE032091DF033091E0034091E10350919F
:1013A000E2036091E3037091E4038091E50390917F
:1013B000E60331DAAB01BC0122E0CE01CD960E94FA
:1013C000D925B401CE01875B9F4FA0D861EF72E0B1
:1013D000CE018D5B9F4F0E94FB24BE01675B7F4F58
:1013E000CE018D5B9F4F0E944A266CED72E00E94F9
:1013F0005B26BE01635C7F4F0E944A26BC01CE0182
:1014000001960E945A25CE010196D5DDCE010196A6
:101410000E949324CE018D5B9F4F0E949324CE01A6
:10142000875B9F4F0E949324CE01CD960E94932408
:101430001092D80373945FCFC05ADF4F0FB6F89461
:10144000DEBF0FBECDBFDF91CF911F910F91FF90F7
:10145000EF90DF90CF90BF90AF909F908F907F9054
:101460000895CF93DF93CDB7DEB762970FB6F894A8
:10147000DEBF0FBECDBF4AE0BC01CE010D960E947B
:10148000AF2561EC74E0CE0107960E945A25BE019B
:10149000635F7F4FCE0107960E944A2665EF72E098
:1014A0000E945B26BC01CE0101960E945A25CE0106
:1014B000019681DDCE0101960E949324CE0107960C
:1014C0000E949324CE010D960E94932462960FB63B
:1014D000F894DEBF0FBECDBFDF91CF910895CF93BB
:1014E000DF93CDB7DEB762970FB6F894DEBF0FBEBD
:1014F000CDBF4AE0BC01CE010D960E94AF2561EC44
:1015000074E0CE0107960E945A25BE01635F7F4FAB
:10151000CE0107960E944A2668EF72E00E945B2681
:10152000BC01CE0101960E945A25CE01019643DDF1
:10153000CE0101960E949324CE0107960E94932427
:10154000CE010D960E94932462960FB6F894DEBFEA
:101550000FBECDBFDF91CF9108950F931F93CF930F
:10156000DF93CDB7DEB768970FB6F894DEBF0FBE36
:10157000CDBF8C0122E0CE0107960E94D9254AE01A
:10158000B801CE0143960E94AF256BEB74E0CE010B
:101590000D960E945A25BE016D5E7F4FCE010D96BD
:1015A0000E944A266CED72E00E945B26BE01695FD4
:1015B0007F4F0E944A26BC01CE0101960E945A2507
:1015C000CE010196F8DCCE0101960E949324CE0153
:1015D0000D960E949324CE0143960E949324CE013F
:1015E00007960E94932468960FB6F894DEBF0FBE4C
:1015F000CDBFDF91CF911F910F9108958F929F9250
:10160000AF92BF92CF92DF92EF92FF920F931F9310
:10161000CF93DF9305E112E0DBEDED2ED4E0FD2E5C
:10162000C1E0D0E0F80180810E5F1F4F0E94D51FFE
:10163000F70120813181819391937F018217930774
:101640001CF4CE010EDF05C02817390714F4CE01B3
:1016500046DF2196C931D10529F787EE93E00E9434
:101660006002882309F453C084EF91E0A0E0B0E069
:101670008093EB039093EC03A093ED03B093EE0300
:101680000E94571D6093E7037093E8038093E9037A
:101690009093EA0305E412E0CBE0AC2EC5E0BC2E4B
:1016A000C1E0D0E0F80180810E5F1F4F0E942A1E2A
:1016B0004C01BC01882777FD8095982F0E948729CF
:1016C0006B017C01F50160817181882777FD809530
:1016D000982F0E9487299B01AC01F501819291927C
:1016E0005F01C701B6010E941929882361F020E03B
:1016F00030E040E251E4C701B6010E94372AAB0155
:10170000BC01CE012ADF2196C430D10559F6DF9104
:10171000CF911F910F91FF90EF90DF90CF90BF90EE
:10172000AF909F908F9008950F931F93CF93DF9367
:10173000CDB7DEB762970FB6F894DEBF0FBECDBF50
:101740008C0169E373E0CE010D960E94FB2485ECC9
:1017500096E00E94FD1F892BC1F14AE065EC76E01E
:10176000CE0101960E944524BE016F5F7F4FCE01DE
:101770000D960E946225CE0101960E9493246DEC85
:1017800074E0CE010D960E94F526882301F369E3EB
:1017900073E0CE0101960E94FB24AE014F5F5F4FC4
:1017A0006DEC74E0CE010D960E94BC27CE0101962F
:1017B0000E949324CE010D960E94A428BE01635F6F
:1017C0007F4FC8010E946E2455C08CE295E00E94B4
:1017D0009C16892B09F449C088E1EBEAF5E0DF01AA
:1017E0001D928A95E9F7E0912C05F0912D05008C6A
:1017F000F18DE02D48E150E06BEA75E08CE295E078
:1018000019956BEA75E0CE0107960E94FB246DECFA
:1018100074E0CE0107960E94F526882311F169E352
:1018200073E0CE0101960E94FB24AE014F5F5F4F33
:101830006DEC74E0CE0107960E94BC27CE010196A4
:101840000E949324CE0107960E94A428BE01695FDE
:101850007F4FC8010E946E24CE0107960E949324F8
:1018600009C0CE0107960E94932469E373E0C80182
:101870000E94FB24CE010D960E949324C80162961B
:101880000FB6F894DEBF0FBECDBFDF91CF911F9191
:101890000F910895DF92EF92FF920F931F93CF93D2
:1018A000DF93CDB7DEB762970FB6F894DEBF0FBEF9
:1018B000CDBFCE010D9638DF69E373E0CE010D9602
:1018C0000E94B42681117BC065EB74E0CE010D96B9
:1018D0000E94F526882339F100E010E0E12CF12C7C
:1018E000B80169597B4FCE010D960E94A22688232C
:1018F00019F061E070E00BC0B801615E7B4FCE0172
:101900000D960E94A226882329F060E070E0C701AE
:101910000E946E048FEFE81AF80A0A5F1F4F08341E
:101920001105F1F64CC06FEA74E0CE010D960E94ED
:10193000F526882309F443C029893A894091B304E4
:101940005091B4044E5F5F4FBE01635F7F4FCE0185
:1019500007960E94792717E0E12E14E0F12E00E0AF
:1019600010E02091B3043091B4042F5F3F4F40E06A
:1019700050E0BE01635F7F4FCE0101960E94792740
:10198000B701CE0101960E94A226D82ECE01019663
:101990000E949324DD2039F0CE0107960E94002991
:1019A000C8010E94C9040F5F1F4F86E0E80EF11CBA
:1019B00004301105B1F6CE0107960E949324CE01A2
:1019C0000D960E94932462960FB6F894DEBF0FBE68
:1019D000CDBFDF91CF911F910F91FF90EF90DF90DE
:1019E000089587EF93E00E946002882329F06FEF4B
:1019F00080910B020E94A01F8FEF93E00E94600273
:101A0000882329F060E080910B020E94A01FF6DD80
:101A100041DF64CBFF920F931F93CF93DF93FC01C1
:101A20000081C181D281F8948981F02EF0948F21B8
:101A3000898378941DE7115029F182E090E00E949B
:101A4000BD1D88818023B9F3F8948A818F218A8310
:101A50008981802B8983789484EF91E00E94BD1D59
:101A6000F89489818F21898380E590E00E94BD1DD3
:101A70008881802311E009F010E0789484EA91E0F5
:101A80000E94BD1D812FDF91CF911F910F91FF907B
:101A900008951F93CF93DF93FC011081C181D28100
:101AA000912F909560FF12C0F8948A8189238A83D0
:101AB0008981812B89838AE090E00E94BD1D8A8103
:101AC000812B8A83789487E390E011C0F8948A810F
:101AD00089238A838981812B898381E490E00E9414
:101AE000BD1D8A81812B8A83789485E090E0DF9107
:101AF000CF911F910C94BD1D0F931F93CF93DF9334
:101B0000FC011081C181D281F8948981812B898364
:101B10008A81012F009580238A8383E090E00E94D0
:101B2000BD1D8981802389838AE090E00E94BD1DCC
:101B3000C881789485E390E00E94BD1D1C2381E05C
:101B400009F480E0DF91CF911F910F910895CF921A
:101B5000DF92EF92FF920F931F93CF93DF931F9229
:101B6000CDB7DEB76C01E62E08E010E0FF24F39459
:101B700061E09F2D9E2109F460E0C601498389DF61
:101B8000FF0C0150110949810115110589F7411117
:101B900015C0F894D6011196ED91FC9112979181A0
:101BA0008C918095892381831196ED91FC911297F8
:101BB00092818C9180958923828378940F90DF9114
:101BC000CF911F910F91FF90EF90DF90CF900895EC
:101BD000EF92FF920F931F93CF93DF938C01C8E096
:101BE000D0E0F12CEE24E394C80186DF8111FE28B9
:101BF000EE0C2197C9F78F2DDF91CF911F910F9197
:101C0000FF90EF900895CF92DF92EF92FF920F93A3
:101C10001F93CF93DF931F92CDB7DEB77C01162FB2
:101C200040E065E5798393DFC12E7981D72E00E00E
:101C300010E0F60161916F0140E0C70188DF0F5F9E
:101C40001F4F08301105A9F70F90DF91CF911F9119
:101C50000F91FF90EF90DF90CF900895FC011386D5
:101C60001586148627E030E0DF01A20FB31F13961C
:101C70001C922115310519F021503109F5CF089535
:101C80001F93CF93DF93EC01162F60E0812F0E940A
:101C9000671F612F70E0FB01EE58FD4FE491E88370
:101CA000FB01E854FD4FE491F0E0EE0FFF1FE2501E
:101CB000FD4F859194919A838983CE01DF91CF91D5
:101CC0001F91CCCFAF92BF92CF92DF92EF92FF9253
:101CD0000F931F93CF93DF931F92CDB7DEB75C01B5
:101CE000E62ED72EFC018585811158C0C50192DEF4
:101CF000811105C0F5011386158614866AC040E07F
:101D000060EFC50124DF01E0F12CC12C11E0C50119
:101D1000F3DE682FC5016983EFDE6981613019F454
:101D20008130B9F432C02F2D30E068131BC0F501AB
:101D30008385181730F4E20FF31F8381802349F461
:101D400002C0181731F060E0193058F4F50114871B
:101D500008C0F501EF0DF11D8381802B838361E0C5
:101D600009C0C12EF501E20FF31F8381902F9095DA
:101D700089238383C5018DDE1F5F000F11F4F39467
:101D800001E0F7E0FF1508F0C2CF113438F0F5019B
:101D9000C386C11018C081E0858715C0F501138680
:101DA0001586148680E0EE2DFD2D20E030E0D50173
:101DB000A20FB31F13969C9191932F5F3F4F283032
:101DC0003105A9F706C0F5018381882339F381E045
:101DD000EACF0F90DF91CF911F910F91FF90EF907D
:101DE000DF90CF90BF90AF900895DC0180E061500C
:101DF00038F0ED91E827F0E0E45DFE4F8491F7CFF5
:101E00000895FC01718360830895FC016770648309
:101E10001582168217821086118612861386148602
:101E2000158616861786108A81E0858B118A128A9C
:101E3000138A148A0895FC016581768187819085D3
:101E400008956115710531F4FC0161857285838502
:101E5000948508956130710531F4FC0165857685BE
:101E600087859089089560E070E0CB010895FC01BA
:101E700085890895EF92FF920F931F93CF93DF937D
:101E8000EC017B015B834A8388819981C3DD6A8190
:101E90007B8188819981B7DE40E06EE488819981F9
:101EA00056DE40E060E08881998151DE8701E12CB7
:101EB000F12CF80161918F0140E08881998147DE22
:101EC000FFEFEF1AFF0A88E0E816F10491F7888126
:101ED0009981A0DD6A817B818881998194DE40E0CF
:101EE00068E48881998133DE40E060E088819981EF
:101EF000DF91CF911F910F91FF90EF9028CECF925D
:101F0000DF92EF92FF920F931F93CF93DF93EC0139
:101F10008B015B834A83888199817CDD6A817B8127
:101F20008881998170DE40E068EB888199810FDEBD
:101F300040E060E0888199810ADE888199816ADDCC
:101F40006A817B81888199815EDE40E06EEB8881C9
:101F50009981FDDD40E060E088819981F8DD6801CC
:101F6000E12CF12C8881998133DEF60181936F0198
:101F7000FFEFEF1AFF0A89E0E816F10499F768E02D
:101F8000C80133DF91E0F8012085821390E0892FAA
:101F9000DF91CF911F910F91FF90EF90DF90CF9045
:101FA0000895EF92FF920F931F93CF93DF93CDB7D6
:101FB000DEB729970FB6F894DEBF0FBECDBF8C01F8
:101FC0007B01FC0153834283BE016F5F7F4F97DF2C
:101FD000882391F08981EA94EF2811F4886001C088
:101FE000877F8983F80142815381BE016F5F7F4FF4
:101FF000C80140DF81E001C080E029960FB6F89467
:10200000DEBF0FBECDBFDF91CF911F910F91FF902B
:10201000EF9008951F93CF93DF93EC01142F3B8330
:102020002A83A901BEDF882351F188819981F2DCDE
:102030006A817B8188819981E6DD112399F040E0F6
:1020400064E48881998183DD6AE070E080E090E05B
:102050000E94861D88819981DDDC6A817B8188816F
:102060009981D1DD40E064EB8881998170DD68E081
:1020700070E080E090E00E94861D81E001C080E079
:10208000DF91CF911F910895FF920F931F93CF93EC
:10209000DF93CDB7DEB729970FB6F894DEBF0FBE3A
:1020A000CDBF8C01FC017383628381E0858B0E942C
:1020B000571DF801618B728B838B948B448140FD9B
:1020C00003C0443009F054C042FBFF24F0F8F8018B
:1020D000228133814F2D60E070E0C8019BDF8823AF
:1020E00009F4A3C0F80142815381BE016F5F7F4FA5
:1020F000C80105DF882309F498C0FF20E1F06B8157
:1021000070E0762F66278A81682B53E07595679576
:102110005A95E1F7882777FD8095982F0E948729A7
:1021200020E030E040E05DE30E94372AF80165835B
:10213000768387839087F801848180FF19C06D8141
:1021400070E0762F6627662773708C81682B88274E
:1021500077FD8095982F0E94872920E030E048EC99
:1021600052E40E941D29F801618772878387948752
:10217000F801F480F1FE57C0F2FE05C0F094FF2D87
:10218000F170FF2E01C0F12CF801228133814F2D17
:1021900061E070E0C8013EDF882309F446C0F80121
:1021A00042815381BE016F5F7F4FC801A8DE882343
:1021B000E1F1FF20E1F06B8170E0762F66278A81E4
:1021C000682B23E0759567952A95E1F7882777FDB9
:1021D0008095982F0E94872920E030E040E05DE361
:1021E0000E94372AF80165837683878390876F8101
:1021F00070E0762F66278E81682B77FF03C071957C
:1022000061957109882777FD8095982F0E9487290D
:1022100020E030E040E859E30E94372AF801658762
:1022200076878787908BF801158A29960FB6F894E0
:10223000DEBF0FBECDBFDF91CF911F910F91FF90F9
:1022400008950F9300E020E040E060E085ED95E028
:102250000E9404230F910895FB0142815381648100
:102260007581FC01428353836483758317821682D0
:102270000895FB0120E080E090E06AE03191332393
:1022800009F170ED730F7A3080F4DC016A9FC001B0
:102290006B9F900D1124C097830F911D37FD9A9568
:1022A0008F3F910559F350F314C03E3291F423301F
:1022B00081F0DA01A20FB11D12968C932F5F80E09E
:1022C00090E0DCCF233029F4FA01858381E090E0AF
:1022D000089580E090E008950F9300E020E040E052
:1022E00060E08BED95E00E9404230F910895AF927A
:1022F000BF92CF92DF92EF92FF920F931F93CF93F3
:10230000DF9300D01F921F92CDB7DEB78C017B0107
:102310000E94571DF8017783668376276727762703
:102320007A836983085F1F4F42E050E0BE016F5F10
:102330007F4FC80167D481E090E09C838B8342E0AB
:1023400050E0BE016D5F7F4FC8015CD480E091E03A
:102350009C838B8342E050E0BE016D5F7F4FC801DC
:1023600051D41C821B8242E050E0BE016D5F7F4F62
:10237000C80148D442E050E0BE016D5F7F4FC80104
:1023800041D442E050E0BE016D5F7F4FC8013AD4B6
:102390006701F6018081882301F1F7016F018191C6
:1023A000811113C05601AE18BF081A141B0484F41F
:1023B000AD8241E050E0BE016B5F7F4FC80122D487
:1023C000A501B701C8011ED403C08E3239F7EACF88
:1023D0007601FFEFEF1AFF0ADCCF1D8241E050E0EB
:1023E000BE016B5F7F4FC8010DD4E12CFF24F39435
:1023F000FC82EB8242E050E0BE016D5F7F4FC8017E
:1024000001D4FC82EB8242E050E0BE016D5F7F4F61
:10241000C801F8D381E090E00F900F900F900F90DB
:102420000F90DF91CF911F910F91FF90EF90DF9070
:10243000CF90BF90AF9008954F925F926F927F922E
:102440008F929F92AF92BF92CF92DF92EF92FF92C4
:102450000F931F93CF93DF93CDB7DEB763970FB67C
:10246000F894DEBF0FBECDBF7C015B016A010E9404
:10247000571D2B013C018701085F1F4F4501A12C0F
:10248000B12CC80159D41816190694F00E94571D92
:10249000641975098609970986169706A806B9066C
:1024A000D0F062E370E080E090E00E94861DE9CF0A
:1024B000F7014281538164817581808D918DA28D58
:1024C000B38D481759076A077B0741F4848D958DB2
:1024D000C59721F406C08FEF9FEFE1C08EEF9FEF0D
:1024E000DEC0C80156D30C97E4F04CE050E0BE01CA
:1024F0006F5F7F4FC801C1D36C818B810E946924BB
:102500009A8B898BF701E680F7806A8189810E9426
:102510006924E816F90641F489899A8997FF04C06D
:1025200008C08DEF9FEFBBC0C8014DD38CEF9FEF6C
:10253000B6C08F709270892B29F0C80144D38BEFFD
:102540009FEFADC068858F810E9469245C01009770
:1025500019F0E12CF12C1DC0C80135D38AEF9FEF93
:102560009EC041E050E0BE01635F7F4FC80185D34C
:102570008D85811116C08D858111F3CFC80155D38A
:10258000C80153D3C80151D3C8014FD3FFEFEF1A8D
:10259000FF0A6E818D810E946924E816F90608F30E
:1025A00009C08D859FEF980F9D87882321F3C8016F
:1025B0003CD3F7CFE12CF12C41E050E0BE016D5E41
:1025C0007F4FC8015AD38B89982F907C59F4882368
:1025D00061F08B899FEF980F9B8B882331F0C801A6
:1025E00024D3F7CFC80121D31B8A8B898111E4CF73
:1025F00042E050E0BE01615F7F4FC8013ED342E040
:1026000050E0BE01635F7F4FC80137D3C8010DD3CF
:10261000C8010BD3C80109D3C80107D342E050E079
:10262000BE016F5E7F4FC80128D38F8598898115C1
:10263000914029F48D859E858115914019F0812C5A
:10264000912C14C089899A898115944029F0C80178
:10265000BAD287EF9FEF23C0B6016E5F7F4F44E091
:1026600050E0C8010AD381E090E019C089899A89B5
:102670009827892798278816990630F4C801D5D25B
:102680002FEF821A920AF2CF8FEFE81AF80AEA14B3
:10269000FB0409F091CFC80196D286EF9FEF6396B5
:1026A0000FB6F894DEBF0FBECDBFDF91CF911F9163
:1026B0000F91FF90EF90DF90CF90BF90AF909F90E1
:1026C0008F907F906F905F904F9008958F929F9220
:1026D000AF92BF92CF92DF92EF92FF920F931F9330
:1026E000CF93DF9300D000D0CDB7DEB78C015B0174
:1026F0006A01BFDD4C01009709F057C0F801428123
:102700005381648175818091DD059091DE05A091F2
:10271000DF05B091E005481759076A077B0709F400
:1027200048C00E94571D7801F8E0EF0EF11C6F7051
:1027300077277C5FC701D5D2813009F03EC085E3A1
:1027400093E09A838983F80182819381A481B58182
:102750008B839C83AD83BE8345E350E0BE016F5FF6
:102760007F4FC70145D2892B19F4812C912C1AC0B7
:10277000B501C801BCDD892BC1F3C70140D2892B4B
:10278000A1F333E0A32EB12CA60168E873E1C801E0
:1027900053DE4C01F1E0AF1AB10821F08F3F2FEF6B
:1027A000920791F3C70110D208C088248394912C1A
:1027B00004C09EEF892E99249A94C40126960FB6E0
:1027C000F894DEBF0FBECDBFDF91CF911F910F9167
:1027D000FF90EF90DF90CF90BF90AF909F908F9041
:1027E000089520911D06222399F03FB7F894209177
:1027F0001D06213059F42DB320931B064DB32091B3
:102800001C06209524232DBB3FBF02C030931B061E
:102810008CBD9DBD089580911D06882361F09FB7F2
:10282000F89420911D0680911B06213019F48DBB70
:102830009FBF08958FBF089544E050E0BC0181E040
:1028400090E0E2C644E050E0BC0185E090E0DCC6E8
:1028500044E050E0BC018FE090E0D6C68F929F929A
:10286000AF92BF92CF92DF92EF92FF920F931F939E
:10287000CF93DF931F921F92CDB7DEB74C016A0151
:1028800059018BE096E069837A835BD680E590E01E
:10289000A8DF46E050E069817A8189E090E0B4D613
:1028A000C6010296D5DFC8010296C6DFC7010296AF
:1028B000C9DFB1DFF5014281538164817581F40183
:1028C00042835383648375830F900F90DF91CF9180
:1028D0001F910F91FF90EF90DF90CF90BF90AF903E
:1028E0009F908F9008956F927F928F929F92AF9258
:1028F000BF92CF92DF92EF92FF920F931F93CF93ED
:10290000DF93CDB7DEB76E970FB6F894DEBF0FBE7C
:10291000CDBF6C015B017A014901380100E02FEF66
:102920004FEF6FEFCE0149960E94042325E333E079
:102930003A8329838B8D9C8DAD8DBE8D8B839C833B
:10294000AD83BE8338872F83F30182819381A48175
:10295000B58189879A87AB87BC873E872D87F4012D
:1029600082819381A481B5818F87988BA98BBA8B43
:102970003C8B2B8BF70142815381648175814D8B98
:102980005E8B6F8B788FCE0101967C018E01095F83
:102990001F4F9E01235F3F4FAE014D5E5F4FB5015C
:1029A000C6015CDF6E960FB6F894DEBF0FBECDBFDA
:1029B000DF91CF911F910F91FF90EF90DF90CF901B
:1029C000BF90AF909F908F907F906F900895CF921F
:1029D000DF92EF92FF920F931F93CF93DF93CDB7C8
:1029E000DEB768970FB6F894DEBF0FBECDBF6B01A0
:1029F0007901DA0112964D915D916D917C91159757
:102A00004D8B5E8B6F8B788FA5E3B3E0BA83A98380
:102A100021E0288F0D891E892F89388D0B831C8317
:102A20002D833E83B887AF83F70102811381248110
:102A3000358109871A872B873C87BE87AD874F87EB
:102A4000588B698B7A8B8E010F5F1F4F9E01295F18
:102A50003F4FAE01435F5F4FB60145DF68960FB64B
:102A6000F894DEBF0FBECDBFDF91CF911F910F91C4
:102A7000FF90EF90DF90CF9008950F931F93CF9327
:102A8000DF93CDB7DEB762970FB6F894DEBF0FBE07
:102A9000CDBFDB01FA0142815381648175814F878B
:102AA000588B698B7A8BE5E3F3E0FA83E98321E0C5
:102AB0002A8B0F85188929893A890B831C832D83DA
:102AC0003E83F887EF8349875A876B877C879E010F
:102AD0002F5F3F4FAE01495F5F4FBD0178DF6296C8
:102AE0000FB6F894DEBF0FBECDBFDF91CF911F911F
:102AF0000F91089525E333E0FC0131832083FB012E
:102B00004281538164817581FC01428353836483D4
:102B1000758308950F9300E020E040E060E081EFCE
:102B200095E00E94042381EE95E00F910C94FA2227
:102B30000F9300E020E040E060E087EF95E00E9426
:102B400004230F9108950F9300E020E040E060E03F
:102B50008DEF95E00E9404230F910895DC01ED9123
:102B6000FC91008CF18DE02D199425E333E0FC01FC
:102B700031832083FB014089518962897389FC017B
:102B800042835383648375830895FC018489958906
:102B90000895FC01818D928D0895CF93DF931F924C
:102BA000CDB7DEB76983DC01ED91FC910280F38142
:102BB000E02D41E050E0BE016F5F7F4F19950F900F
:102BC000DF91CF9108950895CF93DF93EC01888D25
:102BD000843059F0A3D2E88DF0E0EE0FFF1FE751EB
:102BE000FA4F1182108284E0888FDF91CF9108958F
:102BF000FC01178A168A6E5F7F4F808DF2C3FC013D
:102C0000808D31C4CF93DF93EC019A018E899F8927
:102C1000AB01BC01888DA3D32E893F89280F391FB2
:102C20003F8B2E8BDF91CF9108950F931F93CF93FE
:102C3000DF931F92CDB7DEB78C01FC01818D928DA1
:102C4000892B51F041E050E0BE016F5F7F4F808DD6
:102C5000D9D2181619061CF08FEF9FEF08C0F801A3
:102C6000818D928D0197928F818F898190E00F9055
:102C7000DF91CF911F910F910895CF93DF93EC01D6
:102C8000898D9A8D009719F48FEF9FEF0FC0481729
:102C9000590708F0AC01888DB5D218161906A4F7AB
:102CA000298D3A8D281B390B3A8F298FDF91CF91CF
:102CB0000895CF93DF931F92CDB7DEB7FC01218D2E
:102CC000328D232B41F0BE016F5F7F4F808D1BD370
:102CD000898190E002C08FEF9FEF0F90DF91CF913D
:102CE0000895FF920F931F93CF93DF93EC018B0115
:102CF000888D8430D1F4F12C8F2DEDD1811102C05B
:102D0000F88E06C08831E1F3F39484E0F812F4CF32
:102D1000888D843051F01D870C871A8E198E20E023
:102D2000A80162E021D281E001C080E0DF91CF9173
:102D30001F910F91FF9008950F931F93CF93DF93EF
:102D4000CDB7DEB728970FB6F894DEBF0FBECDBF64
:102D50008C01F801818D928D892B49F0D801ED917C
:102D6000FC910680F781E02DC8011995F2CF808D86
:102D7000A3D2181619063CF548E050E0BE016F5F7B
:102D80007F4FD80158968C913DD218161906ECF455
:102D9000BE016F5F7F4FC8010E960E9410238D8188
:102DA00090E0982F88272E81820F911DF801958B36
:102DB000848B8F8190E0982F88272885820F911D22
:102DC000928F818F02C080E090E028960FB6F89431
:102DD000DEBF0FBECDBFDF91CF911F910F91089540
:102DE0008F929F92AF92BF92CF92DF92EF92FF921B
:102DF0000F931F93CF93DF9300D000D0CDB7DEB7F2
:102E00008C017B014A01FC01808D843009F05DC09A
:102E100073E0A72E74E0B72EC12CD12CC5011DD4B0
:102E2000811103C0F801C08E0AC08831D9F3FFEFC9
:102E3000CF1ADF0AB394E4E0CE16D10479F7F80193
:102E4000808D843009F441C096E0E8E7F2E0DE01CD
:102E5000119601900D929A95E1F7F70193819F7772
:102E60009C8394819D8395819E83B7016E5F7F4F84
:102E700090E0982F882744E050E0845F9B4FC4D3B4
:102E8000F801808D90E00496F82EEE24692DC7019C
:102E900040963AD3682DC701419636D3F801808D0C
:102EA00090E0982F882746E050E0BE016F5F7F4F8B
:102EB0008A5F9B4FA9D3F801128E118E20E8A401DE
:102EC00062E0808D51D181E001C080E026960FB68E
:102ED000F894DEBF0FBECDBFDF91CF911F910F9150
:102EE000FF90EF90DF90CF90BF90AF909F908F902A
:102EF0000895CF93DF93EC011B821A8248EE53E0D2
:102F000060E070E04C835D836E837F838FEF92E09F
:102F100099838883CE010E960E94FA2284E0888FDE
:102F2000DF91CF910895CF92DF92EF92FF920F93AE
:102F30001F93CF93DF93CDB7DEB7AF970FB6F8945B
:102F4000DEBF0FBECDBF7C018B016A01CE010196B1
:102F50000E94FA22CE010996CCDFCE018A960E9409
:102F6000FA2261EE75E0CE018496C4DDBE016C5D8F
:102F70007F4FCE01019670D9AE01465D5F4FB8011B
:102F8000CE010196A3DB81309105C1F4D701ED910B
:102F9000FC910088F189E02D85E393E09DA38CA34B
:102FA0000CA51DA52EA53FA50EA31FA328A739A7D5
:102FB000A601BE016C5D7F4FC7011995AF960FB694
:102FC000F894DEBF0FBECDBFDF91CF911F910F915F
:102FD000FF90EF90DF90CF9008950F9300E020E0F6
:102FE00040E060E083E096E00E9404230F910895A2
:102FF000CF92DF92EF92FF920F9330E0C12CF2E17B
:10300000DF2EFAE7EF2EF12C4C155D056E057F05DE
:1030100040F4F694E794D794C7943F5F3630A1F715
:1030200037E041E04327211102C050E701C050E5DD
:10303000242F30E03595279523700C70202B252BFD
:10304000FC012083417041830F91FF90EF90DF904E
:10305000CF90089590E0982F882744E050E0845F57
:103060009B4FD2C2282F30E02C5F3F4F922F8827F2
:10307000860F971FF2C262E070E0F4CFFB01282FA9
:1030800030E02C5F3F4F922F8827642F8E0F9F1FB9
:103090003BC2CF93DF93C82FD62F472F64E070E059
:1030A000EDDF4D2F65E070E08C2FDF91CF91E6CF03
:1030B000462F62E070E0E2CFCF93DF93C82FD62F88
:1030C000472F60E170E0DADF4D2F61E170E08C2F77
:1030D000DF91CF91D3CF0F931F93CF93DF9300D086
:1030E000CDB7DEB7182F00E021E040E059E06DE3F6
:1030F00070E0CE0101967CDF89819A8172DB63E00A
:1031000070E0812FAFDF8B8386DB8B810F900F9078
:103110000F90DF91CF911F910F9108950F931F93FF
:10312000CF93DF931F921F92CDB7DEB7182F00E029
:1031300021E040E059E06DE370E0CE01019658DFF8
:1031400089819A814EDB40E150E0612F8BE096E06F
:1031500023D46FEF812FACDF5EDB0F900F90DF91F8
:10316000CF911F910F910895CF92DF92EF92FF922E
:103170000F931F93CF93DF931F921F92CDB7DEB7AC
:10318000182FD62E7A01C22E8FEF860F853070F55C
:10319000812FC4DF00E021E040E059E06DE370E002
:1031A000CE01019625DF89819A811BDB4D2D4C29AB
:1031B00060E070E0812F62DFE114F10411F0B701EB
:1031C0000AC06091090670910A066F5F7F4F709385
:1031D0000A0660930906812F5CDF41E050E0612F11
:1031E0008BE096E0D9D317DB81E001C080E00F903F
:1031F0000F90DF91CF911F910F91FF90EF90DF9093
:10320000CF900895AF92BF92CF92DF92EF92FF924C
:103210000F931F93CF93DF931F921F92CDB7DEB70B
:10322000182F5B016A0100E021E040E059E06DE306
:1032300070E0CE010196DCDE89819A81D2DA612FBD
:103240008BE096E06AD27C01009799F463E070E02D
:10325000812F08DF843109F18823F9F021E030E083
:103260008C3111F420E030E0EE24FF24E21AF30A5E
:1032700014C0C816D9060CF476011E141F046CF491
:1032800000E09701A501612F8BE096E03AD340E47E
:1032900050E0612F8BE096E07FD3BDDAC7010F903D
:1032A0000F90DF91CF911F910F91FF90EF90DF90E2
:1032B000CF90BF90AF9008950F931F93CF93DF935C
:1032C00000D01F92CDB7DEB7182F00E021E040E01C
:1032D00059E06DE370E0CE0101968ADE89819A8122
:1032E00080DA612F8BE096E018D28B839C8393DA8F
:1032F0008B819C810F900F900F900F90DF91CF9159
:103300001F910F910895EF92FF920F931F93CF9308
:10331000DF931F921F92CDB7DEB7182F7B0100E01D
:1033200021E040E059E06DE370E0CE01019660DEFF
:1033300089819A8156DA01E021E030E0A701612F0E
:103340008BE096E0DED267DA81E090E00F900F909C
:10335000DF91CF911F910F91FF90EF9008959F9271
:10336000AF92BF92CF92DF92EF92FF920F931F9393
:10337000CF93DF931F921F92CDB7DEB7982E6B01CC
:103380005A01790100E021E040E059E06DE370E08E
:10339000CE0101962DDE89819A8123DA692D8BE099
:1033A00096E08BD18E159F0528F4692D8BE096E071
:1033B00084D17C0187019501A601692D8BE096E0FF
:1033C000C6D129DAC7010F900F90DF91CF911F91DD
:1033D0000F91FF90EF90DF90CF90BF90AF909F90B4
:1033E0000895CF92DF92EF92FF920F931F93CF93A6
:1033F000DF931F921F92CDB7DEB7182F7B016A01B2
:10340000FB018081811109C08181811106C0828107
:10341000811103C083818823C9F0C114D104B1F0A4
:1034200000E021E040E059E06DE370E0CE0101965C
:10343000DFDD89819A81D5D9B701812F0BDEB601F5
:10344000812F3ADEE8D981E090E002C080E090E090
:103450000F900F90DF91CF911F910F91FF90EF9000
:10346000DF90CF9008950F931F93CF93DF931F9218
:103470001F92CDB7DEB7182F00E021E040E059E001
:103480006DE370E0CE010196B3DD89819A81A9D9FF
:1034900040E250E0612F8BE096E07ED2812FEBDDA1
:1034A00084FD1AC0812FE7DD83FF07C068E1812F0B
:1034B000FFDDB1D980E090E015C0ADD9ADD200E01C
:1034C00021E040E059E06DE370E0CE01019690DD2F
:1034D00089819A8186D9E2CF60E1812FE9DD9BD98C
:1034E00081E090E00F900F90DF91CF911F910F91AD
:1034F00008958EBD00000DB407FEFDCF8EB5089572
:103500002C9808952C9A08951F93CF93DF931F92C0
:103510001F92CDB7DEB7182F6A839983F1DF80EF52
:10352000E8DF9981892FE5DF812FE3DF6A81862F2C
:10353000E0DFE8DF81E00F900F90DF91CF911F91E6
:103540000895CF93DF93EC016CE271E080E090E0AE
:10355000DDD230D2249A80911D06882399F09FB73E
:10356000F89480911D06813059F48DB380931B0629
:103570002DB380911C06809582238DBB9FBF02C016
:1035800090931B0680E58CBD1DBC60E880E090E058
:10359000BBDF65E58BE190E0B7DF65E58AE190E0B0
:1035A000B3DF80911D06882361F09FB7F8942091C6
:1035B0001D0680911B06213019F48DBB9FBF01C0F1
:1035C0008FBF80E090E49983888380E090E69987BC
:1035D000888780E098E49B838A8380E098E69B87D5
:1035E0008A8780E090E59D838C8380E090E79D87CB
:1035F0008C8780E098E59F838E8380E098E79F87A3
:103600008E87DF91CF910895CF92DF92EF92FF9254
:103610000F931F93CF93DF93EC017A018B016C0121
:10362000C40ED51ECC15DD0571F06ADF80EF61DFB9
:103630008D2F5FDF8C2F5DDF2196F80181918F0147
:1036400058DF60DFEFCFC701DF91CF911F910F915E
:10365000FF90EF90DF90CF9008951F93CF93DF936B
:103660001F92CDB7DEB7182F99834ADF8FE041DF75
:103670009981892F3EDF812F3CDF80E03ADF89830B
:1036800041DF89810F90DF91CF911F9108951F93A2
:10369000CF93DF93182F60E270E0E4DCC82FD0E016
:1036A00061E270E0812FDEDCDC2FCC279E01282B2D
:1036B000C901DF91CF911F910895FF920F931F933E
:1036C000CF93DF93F62EC0E0D0E08F2DE0DF8C01AA
:1036D000009719F08F2DDBDFEC01C017D107A9F798
:1036E000CE01DF91CF911F910F91FF9008951F930D
:1036F000CF93DF93182F66E270E0B4DCC82FD0E0E0
:1037000067E270E0812FAEDCDC2FCC279E01282BF6
:10371000C901DF91CF911F910895FF920F931F93DD
:10372000CF93DF93F62EC0E0D0E08F2DE0DF8C0149
:10373000009719F08F2DDBDFEC01C017D107A9F737
:10374000CE01DF91CF911F910F91FF9008956F925D
:103750007F929F92AF92BF92CF92DF92EF92FF92B1
:103760000F931F93CF93DF931F92CDB7DEB7D82E61
:10377000962E3A01590164E270E0892D998372DC3A
:10378000E82EF12C65E270E0892D6CDCFE2CEE2435
:10379000E82AE60CF71C970137706D2C9981792E79
:1037A000690C711C690C711CD301ED91FC91E20F45
:1037B000F31FC901800F911F8130984098F0C12CF0
:1037C00048E0D42EC21AD30AA601B501CF011CDFEE
:1037D000A8014C195D09B5016C0D7D1DF3018081B7
:1037E000918103C0A801B501CF010EDFE00EF11EEB
:1037F0004F2D64E270E0892D41DC4E2D65E270E0D2
:10380000892D0F90DF91CF911F910F91FF90EF9035
:10381000DF90CF90BF90AF909F907F906F902ECC15
:10382000CF92DF92EF92FF920F931F93CF93DF938C
:10383000EC017A018B016C01C40ED51ECC15DD059F
:1038400079F05EDE8FE055DE8D2F53DE8C2F51DE5A
:10385000219680E04EDEF80181938F0153DEEECF9A
:10386000C701DF91CF911F910F91FF90EF90DF90F3
:10387000CF900895AF92BF92CF92DF92EF92FF92D6
:103880000F931F93CF93DF931F921F92CDB7DEB795
:103890005A8349835901E981FA81F7707C01E60E68
:1038A000F11CE60EF11CD70118968D919C91199789
:1038B0008E0F9F1F98012E0F3F1F2130384090F030
:1038C000C12C68E0D62ECE1ADF0AA601B501A8DF0A
:1038D000A8014C195D09B5016C0D7D1DF7018085AE
:1038E000918502C0A801B5010F900F90DF91CF9193
:1038F0001F910F91FF90EF90DF90CF90BF90AF900E
:103900008FCF8F929F92AF92BF92CF92DF92EF9222
:10391000FF920F931F93CF93DF936C01962E5A0162
:103920007901802E68E270E0892D9CDBC82FD0E001
:1039300069E270E0892D96DBDC2FCC27C82B87014C
:103940009501AE01692DC60195DF811018C0CE0D1D
:10395000DF1D4D2F68E270E0892D90DB4C2F69E26E
:1039600070E0892DDF91CF911F910F91FF90EF9023
:10397000DF90CF90BF90AF909F908F907FCBDF91E3
:10398000CF911F910F91FF90EF90DF90CF90BF905C
:10399000AF909F908F900895CF93C62F61E070E015
:1039A0008C2F6CDB61E070E08C2F5CDB8111FACF37
:1039B000CF910895CF93CFB7F89480911E068111CF
:1039C00023C0EDEEF2E08491E7EAF2E09491E82F73
:1039D000F0E0EE0FFF1FEE5CFC4FA591B4918C91CF
:1039E000892319F461E085E3ABD261E085E36FD20E
:1039F0008CB580618CBD8CB580648CBD61E084E346
:103A000066D261E083E363D280911E068F5F80936C
:103A10001E06CFBFCF91089508951F920F920FB643
:103A20000F9211242F933F938F939F93AF93BF9344
:103A30008091200690912106A0912206B091230644
:103A400030911F0623E0230F2D3720F40196A11D8E
:103A5000B11D05C026E8230F0296A11DB11D2093BC
:103A60001F068093200690932106A0932206B09310
:103A700023068091240690912506A0912606B091F8
:103A800027060196A11DB11D80932406909325065B
:103A9000A0932606B0932706BF91AF919F918F9177
:103AA0003F912F910F900FBE0F901F9018952FB739
:103AB000F8946091200670912106809122069091E1
:103AC00023062FBF08953FB7F89480912406909164
:103AD0002506A0912606B091270626B5A89B05C00D
:103AE0002F3F19F00196A11DB11D3FBF6627782F0A
:103AF000892F9A2F620F711D811D911D42E0660F63
:103B0000771F881F991F4A95D1F708958F929F922A
:103B1000AF92BF92CF92DF92EF92FF926B017C0146
:103B2000D2DF4B015C01C114D104E104F104E1F0E6
:103B300073DFC9DF681979098A099B09683E7340F8
:103B40008105910580F321E0C21AD108E108F1084E
:103B500088EE880E83E0981EA11CB11CC114D1040C
:103B6000E104F10431F7DFCFFF90EF90DF90CF90C9
:103B7000BF90AF909F908F9008958230910538F05C
:103B8000880F991F880F991F05970197F1F70895DE
:103B9000789484B5826084BD84B5816084BD85B528
:103BA000826085BD85B5816085BDEEE6F0E08081EF
:103BB00081608083E1E8F0E0108280818260808310
:103BC000808181608083E0E8F0E080818160808393
:103BD000E1EBF0E0808184608083E0EBF0E08081C5
:103BE00081608083E1E9F0E0808182608083808170
:103BF00081608083E0E9F0E0808181608083E1EA98
:103C0000F0E0808182608083808181608083E0EA4F
:103C1000F0E0808181608083E1E2F1E08081826078
:103C20008083808181608083E0E2F1E08081816037
:103C30008083EAE7F0E08081846080838081826015
:103C400080838081816080838081806880831092FE
:103C5000C1000895863308F0865320917B00982F89
:103C60009870277F922B90937B008770209177022A
:103C700090E4299F90011124822B80937C008091F5
:103C80007A00806480937A0080917A0086FDFCCF70
:103C9000809178002091790090E0922B08951F93F5
:103CA000CF93DF93182FEB0161E011D1209711F42E
:103CB00060E004C0CF3FD10531F461E0812FDF9196
:103CC000CF911F913DC1E12FF0E0E45DFD4F4491A4
:103CD00050E0FA013197E231F10508F09BC0EE584F
:103CE000FF4F0C94BC2A84B5806884BDC7BD97C0C3
:103CF00084B5806284BDC8BD92C080918000806818
:103D000080938000D0938900C093880088C0809100
:103D10008000806280938000D0938B00C0938A00E3
:103D20007EC080918000886080938000D0938D0059
:103D3000C0938C0074C08091B00080688093B00004
:103D4000C093B3006CC08091B00080628093B000DB
:103D5000C093B40064C0809190008068809390000C
:103D6000D0939900C09398005AC0809190008062CF
:103D700080939000D0939B00C0939A0050C0809194
:103D80009000886080939000D0939D00C0939C0029
:103D900046C08091A00080688093A0008091A00020
:103DA0008F7B8093A000D093A900C093A80037C058
:103DB0008091A00080628093A000D093AB00C0935C
:103DC000AA002DC08091A00088608093A000D093AD
:103DD000AD00C093AC0023C0809120018068809327
:103DE0002001D0932901C093280119C0809120019E
:103DF000806280932001D0932B01C0932A010FC0D1
:103E000080912001886080932001D0932D01C09380
:103E10002C0105C0C038D1050CF04FCF49CFDF9140
:103E2000CF911F91089590E0FC013197E231F105A7
:103E300008F04CC0EC57FF4F0C94BC2A80918000D6
:103E40008F7703C0809180008F7D809380000895DC
:103E500080918000877FF9CF84B58F7702C084B5C9
:103E60008F7D84BD08958091B0008F7703C08091CD
:103E7000B0008F7D8093B0000895809190008F777F
:103E800007C0809190008F7D03C080919000877F54
:103E90008093900008958091A0008F7707C0809153
:103EA000A0008F7D03C08091A000877F8093A00039
:103EB0000895809120018F7707C0809120018F7D28
:103EC00003C080912001877F809320010895CF93C4
:103ED000DF9390E0FC01EE58FD4F2491FC01E85483
:103EE000FD4F8491882349F190E0880F991FFC01D0
:103EF000EE5CFC4FA591B491885E9C4FFC01C5918E
:103F0000D4919FB7611108C0F8948C9120958223B9
:103F10008C93888182230AC0623051F4F8948C918A
:103F2000322F309583238C938881822B888304C021
:103F3000F8948C91822B8C939FBFDF91CF91089541
:103F40000F931F93CF93DF931F92CDB7DEB7282F28
:103F500030E0F901E45DFD4F8491F901EE58FD4F29
:103F60001491F901E854FD4F04910023C1F0882316
:103F700019F0698358DF6981E02FF0E0EE0FFF1F31
:103F8000E85EFC4FA591B4919FB7F8948C916111B4
:103F900003C01095812301C0812B8C939FBF0F908C
:103FA000DF91CF911F910F910895CF93DF93282F29
:103FB00030E0F901E45DFD4F8491F901EE58FD4FC9
:103FC000D491F901E854FD4FC491CC2389F08111BB
:103FD0002ADFEC2FF0E0EE0FFF1FE250FD4FA5911E
:103FE000B4912C912D2381E090E021F480E002C077
:103FF00080E090E0DF91CF910895FC01818D228DCA
:1040000090E0805C9F4F821B91098F7399270895E0
:10401000FC01918D828D981731F0828DE80FF11D92
:10402000858D90E008958FEF9FEF0895FC01918DAD
:10403000828D981761F0828DDF01A80FB11D5D960A
:104040008C91928D9F5F9F73928F90E008958FEF78
:104050009FEF08958CEC91E2892B39F080E090E09D
:10406000892B19F099D1811124C087E792E2892B1D
:1040700039F080E090E0892B19F039D281111CC011
:1040800080E090E0892B41F080E090E0892B21F0E6
:104090000E940000811113C080E090E0892BA1F004
:1040A00080E090E0892B81F00E94000081110AC01D
:1040B00008950E940000D9CF0E940000E1CF0E9425
:1040C0000000EACF0C9400000895FC01848DDF010C
:1040D000A80FB11DA35ABF4F2C91848D90E001967B
:1040E0008F739927848FA689B7892C93A089B1896A
:1040F0008C9180648C93938D848D981306C0028874
:10410000F389E02D80818F7D80830895CF93DF93A5
:10411000EC01888D8823C1F0EA89FB89808185FDC7
:1041200005C0A889B9898C9186FD0EC00FB607FC21
:10413000F5CF808185FFF2CFA889B9898C9185FF61
:10414000EDCFCE01C2DFE8CFDF91CF910895CF92BE
:10415000DF92FF920F931F93CF93DF931F92CDB700
:10416000DEB76C0181E0D60158968C9358975B9628
:104170009C915B975C968C915C97981307C05096C6
:10418000ED91FC915197808185FD2DC0F601038D45
:1041900010E00F5F1F4F0F731127F02EF601848D73
:1041A000F81210C00FB607FCF9CFD6015096ED916A
:1041B000FC915197808185FFF1CFC601698385DF2E
:1041C0006981ECCF838DE80FF11DE35AFF4F6083C7
:1041D000D6015B960C935B975296ED91FC915397A9
:1041E000808180620CC0D6015696ED91FC91579764
:1041F00060835096ED91FC9151978081806480831B
:1042000081E090E00F90DF91CF911F910F91FF908F
:10421000DF90CF900895BF92CF92DF92EF92FF92FE
:10422000CF93DF93EC016A017B01B22EE889F98913
:1042300082E08083411581EE580761057105A1F088
:1042400060E079E08DE390E0A70196010E949A2A50
:1042500021503109410951095695479537952795C0
:10426000211580E1380798F0E889F989108260E823
:1042700074E88EE190E0A70196010E949A2A2150ED
:104280003109410951095695479537952795EC8590
:10429000FD853083EE85FF852083188EEC89FD89AE
:1042A000B082EA89FB89808180618083EA89FB8909
:1042B000808188608083EA89FB898081806880832F
:1042C000EA89FB8980818F7D8083DF91CF91FF9088
:1042D000EF90DF90CF90BF9008951F920F920FB68E
:1042E0000F9211240BB60F922F938F939F93EF93FE
:1042F000FF93E0913806F09139068081E0913E0607
:10430000F0913F0682FD12C09081809141068F5F3F
:104310008F7320914206821751F0E0914106F0E040
:10432000E85DF94F958F8093410601C08081FF9130
:10433000EF919F918F912F910F900BBE0F900FBE19
:104340000F901F9018951F920F920FB60F92112485
:104350000BB60F922F933F934F935F936F937F937F
:104360008F939F93AF93BF93EF93FF9388E296E071
:10437000ACDEFF91EF91BF91AF919F918F917F91B3
:104380006F915F914F913F912F910F900BBE0F90C6
:104390000FBE0F901F90189588E296E02EDE21E068
:1043A000892B09F420E0822F089510922B06109299
:1043B0002A0688EE93E0A0E0B0E080932C0690936C
:1043C0002D06A0932E06B0932F0685E293E09093DE
:1043D00029068093280685EC90E09093350680931B
:1043E000340684EC90E0909337068093360680EC98
:1043F00090E0909339068093380681EC90E090939A
:104400003B0680933A0682EC90E090933D068093C1
:104410003C0686EC90E090933F0680933E06109217
:1044200041061092420610924306109244060895E7
:104430001F920F920FB60F9211240BB60F922F936B
:104440008F939F93EF93FF93E091D506F091D6065B
:104450008081E091DB06F091DC0682FD12C0908144
:104460008091DE068F5F8F732091DF06821751F0F7
:10447000E091DE06F0E0EB53F94F958F8093DE0676
:1044800001C08081FF91EF919F918F912F910F90AB
:104490000BBE0F900FBE0F901F9018951F920F929A
:1044A0000FB60F9211240BB60F922F933F934F9399
:1044B0005F936F937F938F939F93AF93BF93EF938C
:1044C000FF9385EC96E001DEFF91EF91BF91AF91F4
:1044D0009F918F917F916F915F914F913F912F911C
:1044E0000F900BBE0F900FBE0F901F90189585EC8C
:1044F00096E083DD21E0892B09F420E0822F0895E6
:104500001092C8061092C70688EE93E0A0E0B0E0D3
:104510008093C9069093CA06A093CB06B093CC06AD
:1045200085E293E09093C6068093C5068DEC90E0FB
:104530009093D2068093D1068CEC90E09093D406B1
:104540008093D30688EC90E09093D6068093D506AE
:1045500089EC90E09093D8068093D7068AEC90E09F
:104560009093DA068093D9068EEC90E09093DC0667
:104570008093DB061092DE061092DF061092E006B2
:104580001092E1060895AF92BF92CF92DF92EF9220
:10459000FF920F931F93CF93DF936C017B01C0E0D9
:1045A000D0E000E010E0F601EC0FFD1F4AE050E023
:1045B0006281C70138D15C016EE2C70197D08A0DD4
:1045C0009B1D080F191F2196C330D10561F74AE0E2
:1045D00050E0F6016581C70126D1800F911FDF9160
:1045E000CF911F910F91FF90EF90DF90CF90BF90F0
:1045F000AF90089525E333E0FC01318320831282DC
:1046000013821482158208950F93FC0185E393E0D1
:104610009183808362834383248305830F9108956C
:10462000FB014081518162817381FC01428353838C
:1046300064837583089585E393E090936307809383
:104640006207109264071092650710926607109235
:1046500067070895CF92DF92EF92FF920F931F9317
:10466000CF93DF937C016A01EB0100E010E00C15B1
:104670001D0571F06991D701ED91FC910190F081D8
:10468000E02DC7011995892B19F00F5F1F4FEFCF50
:10469000C801DF91CF911F910F91FF90EF90DF90B4
:1046A000CF9008956115710581F0DB010D90002018
:1046B000E9F7AD0141505109461B570BDC01ED9163
:1046C000FC910280F381E02D199480E090E0089540
:1046D000DC01ED91FC91DB0114964D915C911597F5
:1046E0006D917C910280F381E02D1994DC01ED91B4
:1046F000FC910190F081E02D1994DB01ED91FC918A
:1047000011970190F081E02DBC01CD01199467E370
:1047100073E0C8CF0F931F93CF93DF93EC01D8DFE3
:104720008C01CE01F4DF800F911FDF91CF911F919B
:104730000F9108950F931F93CF93DF93EC01B2DF96
:104740008C01CE01E4DF800F911FDF91CF911F918B
:104750000F9108950F931F93CF93DF93EC01CDDF5B
:104760008C01CE01D4DF800F911FDF91CF911F917B
:104770000F9108958F929F92AF92BF92DF92EF9226
:10478000FF920F931F93CF93DF93CDB7DEB7A1971F
:104790000FB6F894DEBF0FBECDBF7C01F42FD52E2F
:1047A000CB0119A2223008F42AE08E010F5D1F4FC1
:1047B000822E912CA12CB12C6F2F7D2DA50194015F
:1047C000B9D6F22FD32ECA01015011096A3014F460
:1047D000E0E301C0E7E3E60FD801EC93232B242BA1
:1047E000252B51F7B801C7015DDFA1960FB6F894EC
:1047F000DEBF0FBECDBFDF91CF911F910F91FF9014
:10480000EF90DF90BF90AF909F908F90089521150B
:10481000310541F4DC01ED91FC910190F081E02D36
:10482000642F1994A7CF9A01462F50E060E070E002
:10483000EECF0F931F93CF93DF93EC0138D96887A6
:1048400079878A879B87E881F9810680F781E02D47
:10485000CE01199597FF14C02AD9088519852A8594
:104860003B85601B710B820B930B0C811D812E818C
:104870003F81601771078207930728F38FEF9FEF3F
:10488000DF91CF911F910F910895EF92FF920F93B7
:104890001F93CF93DF93EC018B01E42E69E373E068
:1048A000AAD0C801C6DFFF24E7FCF09497FD09C039
:1048B0008E159F0531F0682FCE01D9D1C801B9DF1F
:1048C000F5CFCE01DF91CF911F910F91FF90EF9027
:1048D000089570E09B01382BC9010895FC01DB01AC
:1048E0001182108213821282158214828D919C9102
:1048F00011979183808312968D919C911397938346
:10490000828314968D919C9115979583848311963B
:104910001C921E9213961C921E92129715961C9230
:104920001E9214970895FC0180819181E7C6CF9370
:10493000DF93EC0188819981009709F0DFD6198215
:1049400018821D821C821B821A82DF91CF910895EA
:104950000F931F93CF93DF93EC018B016F5F7F4F1A
:10496000888199815AD7009731F0998388831B8376
:104970000A8381E001C080E0DF91CF911F910F9108
:104980000895CF93DF93EC0188819981892B29F0D9
:104990008A819B818617970758F4CE01D9DF882337
:1049A00041F08C819D81892B19F4E881F981108275
:1049B00081E0DF91CF910895EF92FF920F931F93C3
:1049C000CF93DF93EC017B018A01BA01DADF811119
:1049D00003C0CE01ACDF07C01D830C83B701888103
:1049E00099810E94422DCE01DF91CF911F910F91AD
:1049F000FF90EF900895FC011182108213821282C1
:104A0000158214826115710551F0FB01019000209F
:104A1000E9F7AF0141505109461B570BCDCF08951F
:104A20000F931F93CF93DF938C01EB01FC018081E7
:104A30009181009791F0428153812C813D814217F1
:104A4000530750F0688179810E94422D8C819D81AD
:104A5000F8019583848312C051D688819981F80129
:104A6000918380838A819B81938382838C819D81C2
:104A700095838483198218821B821A821D821C826C
:104A8000DF91CF911F910F910895CF93DF93EC01A8
:104A9000FB018617970751F06081718161157105DF
:104AA00021F04481558188DF01C041DFCE01DF91D3
:104AB000CF910895FC011182108213821282158217
:104AC0001482E3CFCF93DF93EC018617970709F0A9
:104AD000A7DFCE01DF91CF910895CF93DF93EC0153
:104AE0006115710559F0FB0101900020E9F7AF0154
:104AF00041505109461B570B5FDF01C018DFCE0143
:104B0000DF91CF9108950F931F93CF93DF93CDB78C
:104B1000DEB729970FB6F894DEBF0FBECDBF8C016C
:104B2000862FF8011182108213821282158214825C
:104B300050E0BE016F5F7F4F90E00E94A92DBE0143
:104B40006F5F7F4FC801C9DF29960FB6F894DEBFAB
:104B50000FBECDBFDF91CF911F910F9108950F939D
:104B60001F93CF93DF93CDB7DEB762970FB6F8945C
:104B7000DEBF0FBECDBF8C01CB01F80111821082C8
:104B8000138212821582148250E0BE016F5F7F4F44
:104B9000B7D7BE016F5F7F4FC8019FDF62960FB628
:104BA000F894DEBF0FBECDBFDF91CF911F910F9163
:104BB0000895EF92FF920F931F93CF93DF93CDB79A
:104BC000DEB7A1970FB6F894DEBF0FBECDBF7C0154
:104BD000CB01BA01F7011182108213821282158271
:104BE000148242E0420F8E010F5F1F4FCFD4BC01F1
:104BF000C70173DFA1960FB6F894DEBF0FBECDBF1D
:104C0000DF91CF911F910F91FF90EF900895EF9258
:104C1000FF920F931F93CF93DF93EC017B010C81E5
:104C20001D816115710511F480E014C04115510515
:104C300081F0040F151FB801A4DE8823A9F3288191
:104C400039818C819D81B701820F931F1BD71D83F2
:104C50000C8381E0DF91CF911F910F91FF90EF9036
:104C60000895FB014481558160817181D0CFCF933C
:104C7000DF931F921F92CDB7DEB769831A8241E09E
:104C800050E0BE016F5F7F4FC2DF0F900F90DF914A
:104C9000CF910895CF93DF93EC01FB0144815581BF
:104CA00060817181B4DF811102C0CE0140DECE018E
:104CB000DF91CF910895CF93DF93EC0161157105DA
:104CC00061F0FB0101900020E9F7AF01415051096B
:104CD000461B570B9CDF811102C0CE0128DECE019E
:104CE000DF91CF910895CF93DF93DC01ED91FC919B
:104CF000EB01A881B981309711F01097C9F4109792
:104D000059F0EB012C813D81232B31F08C9190E007
:104D100091958195910913C0309779F0DC01149633
:104D20008D919C911597892B41F0808190E007C06F
:104D3000BD01CF01DF91CF919CC680E090E0DF9173
:104D4000CF910895FC0144815581FB012481358177
:104D50004217530739F4C7DF21E0892B09F020E01F
:104D6000822F089580E00895FC0124813581232B52
:104D700031F421E06115710599F0FB0108C0FC01D7
:104D8000808191816115710531F421E0FC01808100
:104D9000882331F004C06DD621E0892B09F020E092
:104DA000822F0895FA01DB0114964D915C911597BD
:104DB000DC0114962D913C911597241B350B2E1771
:104DC0003F0780F08D919C91009761F0DB016D9120
:104DD0007C916115710531F08E0F9F1F5AD621E02D
:104DE000892B09F020E0822F0895FC014481558130
:104DF000FB01248135814217530718F040E050E051
:104E0000D1CF80E008950F931F93CF93DF93EB01F1
:104E100041155105E1F02097D1F0FC0164817581C5
:104E20002617370798F4621B730B8A01015011098A
:104E30006017710708F48B01FC0160817181620FBA
:104E4000731FA801CE0133D6C00FD11F1882DF9186
:104E5000CF911F910F910895AF92BF92CF92DF92A1
:104E6000EF92FF920F931F93CF93DF937B01EA01A1
:104E7000FB01448155814115510561F1FC012481FB
:104E800035812115310531F12417350718F1C21785
:104E9000D30710F0E9012197FC0100811181C801BD
:104EA000AA24AA94BB24BA946801CC0EDD1EC816AD
:104EB000D90698F0F7016081718108D6009769F0F2
:104EC0009C01201B310BC217D30708F495010196F2
:104ED0005901EDCF8FEF9FEF01C0C501DF91CF9159
:104EE0001F910F91FF90EF90DF90CF90BF90AF9008
:104EF0000895BF92CF92DF92EF92FF920F931F938C
:104F0000CF93DF936C017B01EA01890124173507F8
:104F100020F48D2FE901042F182F69E373E0C601F7
:104F20006ADDD70114968D919C911597C817D90702
:104F3000C0F48017910708F48C01D701ED91FC9122
:104F40001197E00FF11FB08010826D917C916C0F72
:104F50007D1FC601C2DDD701ED91FC91E00FF11F6D
:104F6000B082C601DF91CF911F910F91FF90EF901A
:104F7000DF90CF90BF9008952F923F924F925F9213
:104F80006F927F928F929F92AF92BF92CF92DF9259
:104F9000EF92FF920F931F93CF93DF93EC015B018E
:104FA0007A014C805D804114510409F4BAC0FB01C0
:104FB000648075806114710409F4B3C0FA01C4807F
:104FC000D580C618D70808811981C114D104B1F45D
:104FD000F50160817181C80179D5EC01009709F470
:104FE000A0C0F7016081718144815581CE0127D530
:104FF000F701048115810C0F1D1FEACFD7FC05C0F6
:10500000FB012080318042013FC04801F5016081F1
:105010007181C8015BD52C01009709F13201601A3A
:10502000710AA301B801C4010AD5680C791CF70103
:105030006081718144815581C30101D5F70184806C
:105040009580860C971CF50104811581040D151DB2
:105050008C819D818C0D9D1D9D838C83D7CFB80144
:10506000C401DF91CF911F910F91FF90EF90DF90DE
:10507000CF90BF90AF909F908F907F906F905F90F8
:105080004F903F902F90FEC4B101C8011FD50097EB
:1050900031F08C01060D171D8C0C9D1CF5CF84146E
:1050A000950409F43EC08A819B818815990528F4EE
:1050B000B401CE014DDC8823A1F14C815D814150CA
:1050C000510957FD2EC0B501CE01C6DE8C0197FDFA
:1050D00028C088819981F50124813581200F311FF5
:1050E000820F931F4C815D81421B530BBC018C0DC1
:1050F0009D1DAED48C819D818C0D9D1D9D838C83C7
:10510000E881F981E80FF91F108288819981F70100
:105110006081718144815581800F911F90D4A801D5
:10512000CECFDF91CF911F910F91FF90EF90DF9045
:10513000CF90BF90AF909F908F907F906F905F9037
:105140004F903F902F900895AF92BF92CF92DF92F1
:10515000EF92FF920F931F93CF93DF937C01DC01BB
:10516000CD90DC901197C114D10409F43EC014967F
:10517000CD91DC9115972097C1F156018501BFEFC4
:10518000AB1ABB0AF8018081992787FD90954FD40F
:10519000892BA1F72197CC0DDD1D8881992787FDEB
:1051A000909545D4892B89F4AE014F5F5F4F401B2A
:1051B000510BD70115965C934E931497C016D106E8
:1051C00048F4B801C6013BD405C0C017D10760F34D
:1051D0002197E3CFD701ED91FC91119714968D9112
:1051E0009C911597E80FF91F1082DF91CF911F91C5
:1051F0000F91FF90EF90DF90CF90BF90AF90089508
:10520000FC0180819181009709F0EBC360E070E0C0
:10521000CB01089508950E94C81DFCDF0E94E5059A
:10522000CAE2D0E20E94F10C2097E1F30E942A200A
:10523000F9CFA8D008F481E008950CD0DEC0D6D014
:1052400040F0CDD030F021F45F3F19F0BFC05111D4
:1052500008C1C2C0E3D098F39923C9F35523B1F331
:10526000951B550BBB27AA2762177307840738F0D5
:105270009F5F5F4F220F331F441FAA1FA9F333D034
:105280000E2E3AF0E0E830D091505040E695001CE8
:10529000CAF729D0FE2F27D0660F771F881FBB1FA4
:1052A000261737074807AB07B0E809F0BB0B802D7E
:1052B000BF01FF2793585F4F2AF09E3F510568F0CA
:1052C00085C0CFC05F3FECF3983EDCF386957795C1
:1052D0006795B795F7959F5FC9F7880F911D9695CC
:1052E000879597F90895E1E0660F771F881FBB1F28
:1052F000621773078407BA0720F0621B730B840BD5
:10530000BA0BEE1F88F7E0950895E89409C097FB63
:105310003EF490958095709561957F4F8F4F9F4F8C
:105320009923A9F0F92F96E9BB279395F6958795D0
:1053300077956795B795F111F8CFFAF4BB0F11F493
:1053400060FF1BC06F5F7F4F8F4F9F4F16C088233A
:1053500011F096E911C0772321F09EE8872F762F70
:1053600005C0662371F096E8862F70E060E02AF0B1
:105370009A95660F771F881FDAF7880F969587959D
:1053800097F90895990F0008550FAA0BE0E8FEEF72
:1053900016161706E807F907C0F012161306E407F9
:1053A000F50798F0621B730B840B950B39F40A26F2
:1053B00061F0232B242B252B21F408950A2609F4D0
:1053C000A140A6958FEF811D811D089597F99F67D4
:1053D00080E870E060E008959FEF80EC089500247D
:1053E0000A941616170618060906089500240A944A
:1053F00012161306140605060895092E0394000CD0
:1054000011F4882352F0BB0F40F4BF2B11F460FF5E
:1054100004C06F5F7F4F8F4F9F4F089557FD905887
:10542000440F551F59F05F3F71F04795880F97FB68
:10543000991F61F09F3F79F0879508951216130622
:105440001406551FF2CF4695F1DF08C01616170651
:105450001806991FF1CF8695710561050894089586
:10546000E894BB2766277727CB0197F908950BD0DF
:10547000C4CFB5DF28F0BADF18F0952309F0A6CF26
:10548000ABCF1124EECFCADFA0F3959FD1F3950FD8
:1054900050E0551F629FF001729FBB27F00DB11DB8
:1054A000639FAA27F00DB11DAA1F649F6627B00D48
:1054B000A11D661F829F2227B00DA11D621F739F31
:1054C000B00DA11D621F839FA00D611D221F749F3F
:1054D0003327A00D611D231F849F600D211D822F86
:1054E000762F6A2F11249F5750408AF0E1F08823CD
:1054F0004AF0EE0FFF1FBB1F661F771F881F9150DA
:105500005040A9F79E3F510570F060CFAACF5F3F92
:10551000ECF3983EDCF3869577956795B795F7950C
:10552000E7959F5FC1F7FE2B880F911D9695879594
:1055300097F90895A1E21A2EAA1BBB1BFD010DC00D
:10554000AA1FBB1FEE1FFF1FA217B307E407F50733
:1055500020F0A21BB30BE40BF50B661F771F881F0F
:10556000991F1A9469F760957095809590959B01A5
:10557000AC01BD01CF010895EE0FFF1F0590F4911E
:10558000E02D19940790F691E02D1994EF920F9366
:105590001F93CF93DF93E80147FF02C034E101C0BE
:1055A00034E0E42FFF27E7FDF095F7FF03C0F19506
:1055B000E195F109E32E022F2E2FAE01EDD2CE019F
:1055C000DF91CF911F910F91EF900895CF93DF93CB
:1055D0008230910510F482E090E0E0916A07F0914A
:1055E0006B0720E030E0A0E0B0E0309739F1408177
:1055F000518148175907B8F04817590771F482814B
:105600009381109729F013969C938E9312972CC038
:1056100090936B0780936A0727C02115310531F0FD
:105620004217530718F0A901DB0101C0EF019A01ED
:10563000BD01DF010280F381E02DD7CF21153105B7
:10564000F9F0281B390B2430310580F48A819B81C5
:105650006115710521F0FB019383828304C090934F
:105660006B0780936A07FE01329644C0FE01E20F89
:10567000F31F8193919322503109398328833AC0D3
:105680002091680730916907232B41F42091020291
:10569000309103023093690720936807209100023C
:1056A000309101022115310541F42DB73EB74091EB
:1056B000040250910502241B350BE0916807F0911C
:1056C0006907E217F307A0F42E1B3F0B28173907D1
:1056D00078F0AC014E5F5F4F2417350748F04E0F4E
:1056E0005F1F50936907409368078193919302C0AD
:1056F000E0E0F0E0CF01DF91CF910895CF93DF9309
:10570000009709F487C0FC01329713821282C0917E
:105710006A07D0916B07209781F420813181280F8F
:10572000391F80916807909169078217930779F56F
:10573000F0936907E09368076DC0DE0120E030E078
:10574000AE17BF0750F412964D915C9113979D01CF
:105750004115510509F1DA01F3CFB383A2834081EA
:105760005181840F951F8A179B0771F48D919C912D
:105770001197840F951F02969183808312968D91C5
:105780009C911397938382832115310529F4F0931B
:105790006B07E0936A073EC0D9011396FC93EE9322
:1057A00012974D915D91A40FB51FEA17FB0779F48D
:1057B00080819181840F951F0296D90111969C9347
:1057C0008E938281938113969C938E931297E0E03F
:1057D000F0E08A819B81009719F0FE01EC01F9CF7E
:1057E000CE01029628813981820F931F209168078C
:1057F000309169072817390769F4309729F4109216
:105800006B0710926A0702C013821282D093690755
:10581000C0936807DF91CF9108956F927F928F9226
:105820009F92AF92BF92CF92DF92EF92FF920F932F
:105830001F93CF93DF93EC01CB01209779F4DF9195
:10584000CF911F910F91FF90EF90DF90CF90BF907D
:10585000AF909F908F907F906F90B8CEFE01E60F33
:10586000F71F9E0122503109E217F30708F4A8C080
:10587000D9010D911C91119706171707B0F005304B
:10588000110508F49BC0A801445051094617570759
:1058900008F494C002501109061B170B01931193D1
:1058A0006D937C93CF012ADF89C05B01A01AB10AF6
:1058B0004E01800E911EA0916A07B0916B07612C7A
:1058C000712C60E070E0109709F449C0A815B90583
:1058D000C9F5ED90FC901197670142E0C40ED11C10
:1058E000CA14DB0478F147018A189B08640142E07E
:1058F000C40ED11C1296BC9012971396AC91B5E0D1
:10590000CB16D10440F0B282A38391828082D90168
:105910008D939C9309C00E5F1F4F0E0D1F1DF90143
:1059200011830083EB2DFA2F6115710531F0DB0136
:105930001396FC93EE93129741C0F0936B07E0939C
:105940006A073CC06D917C9111976616770608F442
:105950003B01BD0112960D90BC91A02DB4CF60917A
:1059600068077091690768157905E9F46816790682
:10597000D0F440910002509101024115510541F4CB
:105980004DB75EB76091040270910502461B570B3C
:10599000E417F507A8F4F0936907E0936807F901A5
:1059A000918380830BC012DE7C01009749F0A8012F
:1059B000BE0145D0CE01A2DEC70104C0CE0102C0A7
:1059C00080E090E0DF91CF911F910F91FF90EF90D9
:1059D000DF90CF90BF90AF909F908F907F906F900F
:1059E00008951F93FC0199278827BC01E894119121
:1059F0001032E9F3193010F01E30C8F31B3249F0B1
:105A00001D3241F4689405C08FD0610F711D811D56
:105A1000911D119110531A30B8F33EF49095809572
:105A2000709561957F4F8F4F9F4F1F9108959111F2
:105A300008C3803219F089508550D0F70895FB01D2
:105A4000DC0102C001900D9241505040D8F70895FA
:105A50006817790768F4FB01DC01E40FF51FA40F58
:105A6000B51F02C002900E9241505040D8F70895E1
:105A7000E6CFFB01DC018D91019080190110D9F373
:105A8000990B0895FB01DC0101900D920020E1F7D4
:105A90000895FB01DC014150504030F08D910190A0
:105AA000801919F40020B9F7881B990B0895FB01A0
:105AB000DC014150504048F001900D920020C9F7A0
:105AC00001C01D9241505040E0F70895FB015191F3
:105AD0005523A9F0BF01DC014D9145174111E1F7B4
