:1000000012C2000041C200003FC200003DC2000019
:100010003BC2000039C2000037C2000035C20000F8
:1000200033C2000031C200002FC200002DC2000008
:100030002BC2000029C2000027C2000025C2000018
:1000400023C2000021C200001FC200001DC2000028
:100050001BC2000019C2000017C200000C9451100E
:1000600013C200000C94440F0C941B0F0DC200002F
:100070000BC2000009C2000007C2000005C2000058
:1000800003C2000001C20000FFC10000FDC100006A
:10009000FBC10000F9C10000F7C10000F5C100007C
:1000A000F3C10000F1C10000EFC10000EDC100008C
:1000B000EBC10000E9C10000E7C10000E5C100009C
:1000C000E3C10000E1C10000DFC10000DDC10000AC
:1000D000DBC10000D9C10000D7C10000D5C10000BC
:1000E000D3C10000000B030BF20AF60AFC0A3A0B1C
:1000F000070B0B0B110B150B190B1F0B230B270BEE
:100100003A0B2D0B310B350B005EBCE2613FDD83FA
:10011000C29C7E20A3FD1F419DC3217FFCA2401EE7
:100120005F01E3BD3E6082DC237D9FC1421CFEA0D7
:10013000E1BF5D0380DE3C62BEE0025CDF81633DC7
:100140007C22C09E1D43A1FF4618FAA427799BC5B7
:1001500084DA3866E5BB5907DB856739BAE40658A7
:100160001947A5FB7826C49A653BD987045AB8E697
:10017000A7F91B45C6987A24F8A6441A99C7257B87
:100180003A6486D85B05E7B98CD2306EEDB3510F77
:100190004E10F2AC2F7193CD114FADF3702ECC9267
:1001A000D38D6F31B2EC0E50AFF1134DCE90722C57
:1001B0006D33D18F0C52B0EE326C8ED0530DEFB147
:1001C000F0AE4C1291CF2D73CA947628ABF5174937
:1001D0000856B4EA6937D58B5709EBB536688AD427
:1001E00095CB2977F4AA4816E9B7550B88D6346A17
:1001F0002B7597C94A14F6A8742AC896154BA9F707
:10020000B6E80A54D7896B35000021002400270086
:100210002A002D0030003300010100000401070115
:100220000A01000020002300260029002C002F00D6
:100230003200000100000301060109010505050562
:10024000070508080808020202020A0A080804044E
:10025000040401010101010101010303030303037C
:100260000303040707070C0C0C0C0C0C0C0C02020B
:10027000020206060606060606060B0B0B0B0B0B08
:100280000B0B010210202008081020401020408095
:10029000020102010804020101020408102040804A
:1002A00080402010080402018004020180402010D8
:1002B0000804020108040201010204081020408021
:1002C00001020408102040800000220025002800C0
:1002D0002B002E003100340002010000050108014E
:1002E0000B0100000A0B02090C0D0E0807030401A4
:1002F00000000000000000000000000000000000FE
:1003000000000000000000000000000000001211CA
:1003100010000000000000000000000000000000CD
:10032000000000000000000000407A10F35A00A016
:10033000724E18090010A5D4E80000E876481700AE
:1003400000E40B54020000CA9A3B000000E1F505EE
:10035000000080969800000040420F000000A08638
:1003600001000000102700000000E803000000006A
:100370006400000000000A0000000000010000000E
:1003800000002C76D888DC674F0823DFC1DFAE5928
:10039000E1B1B796E5E3E453C63AE651997696E8BB
:1003A000E6C28426EB898C9B62ED407C6FFCEFBC3F
:1003B0009C9F40F2BAA56FA5F490055A2AF75C936A
:1003C0006B6CF9676DC11BFCE0E40D47FEF520E6A0
:1003D000B500D0ED902E0300943577050080841E83
:1003E000080000204E0A000000C80C333333330FDE
:1003F000986E12831141EF8D2114893BE65516CF7B
:10040000FEE6DB18D1844B381BF77C1D901DA4BB86
:10041000E424203284725E228100C9F124ECA1E53B
:100420003D27B319F81311241FBECFEFD1E2DEBF71
:10043000CDBF00E00CBF13E0A0E0B2E0E8EFF2E4D3
:1004400000E00BBF02C007900D92A038B107D9F7AA
:1004500026E0A0E8B3E001C01D92AB34B207E1F79B
:1004600012E0C2E1D2E000E006C021970109802F2E
:10047000FE010E940E1BC131D10780E00807A9F7D9
:100480000E9417140C946B21BBCDFC01818D928DC1
:100490000895FC0184899589089520ED32E0FC01DE
:1004A00031832083FB014089518962897389FC0172
:1004B00042835383648375830895DC01ED91FC913D
:1004C000008CF18DE02D1994CF93DF93EC01888D92
:1004D000843061F00E942313E88DF0E0EE0FFF1FDF
:1004E000EC51FC4F1182108284E0888FDF91CF9114
:1004F00008959B0190E00496982F8827642F820F1F
:10050000931F0C94F0100F931F93CF93DF931F92C0
:10051000CDB7DEB790E00496982F88278C01060FA0
:10052000171F0E941A138FE00E941C13812F0E9434
:100530001C13802F0E941C1380E00E941C138983CF
:100540000E949B1089810F90DF91CF911F910F9195
:10055000089508958CBD9DBD0895CF93FC01C08D75
:1005600080E590E0F7DF60E270E08C2F97D462E0E6
:1005700070E08C2FC8DF84FD12C062E070E08C2F29
:10058000C2DF83FF08C048E162E070E08C2FB1DF7A
:1005900080E090E00BC080E590E0DCDFE8CF40E158
:1005A00062E070E08C2FA5DF81E090E0CF910895AC
:1005B000EF92FF921F93CF93DF93EB017A01FC013F
:1005C000178A168A108D8A81811109C08B81811149
:1005D00006C08C81811103C08D81882301F1E11453
:1005E000F104E9F080E590E0B5DFBE016E5F7F4F7A
:1005F000812F90E0982F882744E050E0845F9B4F44
:100600000E94C7104F2D60E170E0812F72DF4E2DE8
:1006100061E170E0812F6DDF81E090E002C080E059
:1006200090E0DF91CF911F91FF90EF900895EF92AE
:10063000FF921F93CF93DF93FC01208D243011F0A4
:1006400080E020C07B01EC0110E080E590E082DFDB
:1006500063E070E0812F57DF811102C0188F05C061
:100660008831E1F31F5F143081F7888D843041F3C6
:10067000FD86EC861A8E198E20E0A70162E00E94AA
:10068000371381E0DF91CF911F91FF90EF90089594
:100690004F925F926F927F928F929F92AF92BF9292
:1006A000CF92DF92EF92FF920F931F93CF93DF933E
:1006B000CDB7DEB7EE970FB6F894DEBF0FBECDBF55
:1006C0005C018B014A0180ED92E09A8389831C864C
:1006D0001B8648EE53E060E070E04D875E876F87D1
:1006E000788B2AEA32E03A872987988F8F8B198E88
:1006F0001A8E1B8E1C8E24E029A399AB88AB1AAAF4
:100700001BAA1CAA1DAA8091130590911405A09103
:100710001505B09116058EA39FA3A8A7B9A78B8333
:100720009C83AD83BE8318861F82F80120E080E0A1
:1007300090E06AE03191332319F140ED430F4A30E4
:1007400080F4689FA001699F500D1124CA01C097D1
:10075000830F911D37FD9A958F3F910559F350F303
:100760002BC03E3249F5233039F1A2E3B0E0AC0FA3
:10077000BD1FA20FB11D8C932F5F80E090E0DACFF8
:100780002330D1F48DABD501ED91FC910088F18936
:10079000E02D80ED92E09DA38CA38AA99BA9ACA932
:1007A000BDA98EA39FA3A8A7B9A7A401BE016C5D94
:1007B0007F4FC50119952CC24B815C816D817E8173
:1007C00080911B0590911C05A0911D05B0911E05FF
:1007D000481759076A077B0709F418C20E94451099
:1007E0006F7077277C5FCE01099621DF813009F099
:1007F0000AC280ED92E09DA38CA38B819C81AD8188
:10080000BE818EA39FA3A8A7B9A745E350E0BE0170
:100810006C5D7F4FCE010996CBDE892B19F400E089
:1008200010E07DC10E94451078876F837627672787
:1008300076277DA36CA342E050E0BE016C5D7F4F44
:10084000CE0109960E94101281E090E09FAB8EAB22
:1008500042E050E0BE016A5C7F4FCE0109960E94E3
:10086000101280E091E09FAB8EAB42E050E0BE0101
:100870006A5C7F4FCE0109960E9410121FAA1EAA21
:1008800042E050E0BE016A5C7F4FCE0109960E94B3
:10089000101242E050E0BE016A5C7F4FCE01099623
:1008A0000E94101242E050E0BE016A5C7F4FCE0110
:1008B00009960E9410127801D7018C91882319F1B2
:1008C000F8017F018191811117C06701C01AD10A17
:1008D0001C141D04A4F4C8AE41E050E0BE01685CE5
:1008E0007F4FCE0109960E941012A601B801CE01D9
:1008F00009960E94101203C08E3219F7E6CF8701C5
:100900000F5F1F4FD9CF18AE41E050E0BE01685CC9
:100910007F4FCE0109960E94101200E011E01FAB3C
:100920000EAB42E050E0BE016A5C7F4FCE010996FB
:100930000E9410121FAB0EAB42E050E0BE016A5C99
:100940007F4FCE0109960E941012CE01099605DE56
:10095000892B09F464CF63E0E62EF12C0E94451048
:100960002B013C01CE0109960E94A7121816190608
:10097000A4F00E944510DC01CB0184199509A60959
:10098000B70989389341A105B105C8F462E370E065
:1009900080E090E00E940D10E5CF4B815C816D817D
:1009A0007E81898D9A8DAB8DBC8D481759076A075A
:1009B0007B0741F48D8D9E8DC59721F406C02FEFE6
:1009C0003FEFA4C02EEF3FEFA1C08AA19BA10C97DF
:1009D0000CF4B1C04CE050E0BE016C5D7F4FCE0125
:1009E00009960E94A5118EA190E0982F88272FA12B
:1009F000822B9BAF8AAF2CA130E0322F22274DA152
:100A0000242B4F8158854217530709F091C097FF57
:100A10008FC08F709270892B09F0F2C00AA510E088
:100A2000102F00278BA5082B0115110509F4E5C02F
:100A3000C12CD12C88A590E0982F882729A5822B3E
:100A4000C816D90608F47AC0C12CD12C41E050E078
:100A5000BE01645C7F4FCE0109960E94A5118CAD4A
:100A6000982F907C09F0A4C0811196C08CAD8111A3
:100A7000EDCF42E050E0BE01685C7F4FCE010996A9
:100A80000E94A51142E050E0BE016A5C7F4FCE019A
:100A900009960E94A511CE0109960E94C311CE01AC
:100AA00009960E94C311CE0109960E94C311CE017E
:100AB00009960E94C31142E050E0BE01665C7F4F80
:100AC000CE0109960E94A51188AD99AD811591407E
:100AD00009F074C02EA93FA93227232732272130DD
:100AE000310509F06BC08AAD9BAD8115944009F0CA
:100AF00081C044E050E0BE016E5C7F4FCE0109969C
:100B00002DAF3EAF0E94A5112DAD3EAD8901B1E0E4
:100B1000EB1AF10821F02F3F3F4F09F41FCFCE0110
:100B20000996D2DC0130110509F42DCEC80170C040
:100B30002CEF3FEFEBCF2DEF3FEFE8CF41E050E060
:100B4000BE016A5C7F4FCE0109960E94A5118EA955
:100B5000811117C08EA98111F1CFCE0109960E9493
:100B6000C311CE0109960E94C311CE0109960E94BD
:100B7000C311CE0109960E94C311FFEFCF1ADF0AFD
:100B800059CF8EA99FEF980F9EAB882319F3CE0102
:100B900009960E94C311F5CF8CAD9FEF980F9CAFC3
:100BA000882309F463CFCE0109960E94C311F4CFC4
:100BB000CE0109960E94C3111CAE58CF612C712C36
:100BC0008AAD9BAD9827892798276816790640F447
:100BD000CE0109960E94C3118FEF681A780AF0CFF0
:100BE000AFEFCA1ADA0AC016D10609F02FCF26EFE6
:100BF0003FEF8CCF27EF3FEF89CF2AEF3FEF86CF34
:100C00002BEF3FEF83CF80E090E002C08EEF9FEFAD
:100C1000EE960FB6F894DEBF0FBECDBFDF91CF9139
:100C20001F910F91FF90EF90DF90CF90BF90AF900A
:100C30009F908F907F906F905F904F900895FF925C
:100C40000F931F93CF93DF93CDB7DEB762970FB6A5
:100C5000F894DEBF0FBECDBF8C01F62E4AE0CE0168
:100C60000196FDD74AE0B801CE010796F8D76EEDA0
:100C700072E0CE010D960E94620EBE01695F7F4F49
:100C8000CE010D96ACD760EF72E092D7BE016F5FD8
:100C90007F4FA5D7EED0CE010D96DCD7CE010796BB
:100CA000D9D7CE010196D6D7000F111FF801E05F0A
:100CB000FD4F6F2D80810E94A20F62960FB6F894AF
:100CC000DEBF0FBECDBFDF91CF911F910F91FF907F
:100CD0000895EF92FF920F931F93CF93DF9300D06D
:100CE00000D0CDB7DEB77C0168EF72E0CE0101968F
:100CF000E9D769EC75E0CE01019671D76AE173E03E
:100D000057D7B7016CD7BC01C7018FD7CE01019669
:100D1000A1D780ED92E09A83898380910706909114
:100D20000806A0910906B0910A068B839C83AD83C7
:100D3000BE8343E059EDBE016F5F7F4F8FEC95E0BE
:100D400037DCD70114960D911C91159701151105EB
:100D500019F41092800311C00336110510F003E658
:100D600010E0F70160817181A80180E893E00E94A2
:100D7000631DF801E058FC4F1082E091CF05F0911F
:100D8000D005D70114964D915C9115970280F3819F
:100D9000E02D60E873E08FEC95E019958FEC95E01D
:100DA000DCDBC70166D026960FB6F894DEBF0FBE17
:100DB000CDBFDF91CF911F910F91FF90EF900895DC
:100DC0000F931F93CF93DF93EC016FEF80E20E94AC
:100DD000A20F0CEE13E0CE01DD0FAA0BBB0BF80146
:100DE00084839583A683B7830E944510F8016083AE
:100DF000718382839383DF91CF911F910F91089527
:100E00000F931F93CF93DF93EC010E94451008814D
:100E100019812A813B81DC01CB01801B910BA20B44
:100E2000B30B0C811D812E813F8180179107A20792
:100E3000B30740F00E944510688379838A839B83BF
:100E400081E001C080E0DF91CF911F910F91089563
:100E5000CF93DF93BC0184E794E048D7EC016CE1C9
:100E600073E084E794E042D78C0F9D1FDF91CF9110
:100E70000895CF93DF93FC01448155816081718196
:100E800084E794E080D2EC016CE173E084E794E0C5
:100E90002DD78C0F9D1FDF91CF910895CF93C82F31
:100EA000462F61E070E025DB61E070E08C2F2BDBEA
:100EB0008111FACFCF910895CF92DF92EF92FF92F6
:100EC0000F931F93CF93DF93CDB7DEB7C254D109F1
:100ED0000FB6F894DEBF0FBECDBFFC0182819381B7
:100EE000A481B58123968CAF9DAFAEAFBFAF2397E2
:100EF00021E023962FAF239723964CAD5DAD6EADC9
:100F00007FAD23974BAB5CAB6DAB7EAB89AF9AAF3C
:100F1000ABAFBCAF8DA79EA7AFA7B8AB28AB4DA515
:100F20005EA56FA578A94FA358A769A77AA72EAB8E
:100F30004BA95CA96DA97EA949A35AA36BA37CA365
:100F40008B8F9C8FAD8FBE8F40ED52E05C8B4B8BB7
:100F50003FEF3D8B3E8B3F8B188E5E874D872AA7D8
:100F6000CFA0D8A4E9A4FAA4CF86D88AE98AFA8ABD
:100F70002CA309A11AA12BA13CA109871A872B87B1
:100F80003C875A8349838B839C83AD83BE836CE209
:100F900071E080E090E00E940D101FB7F8948091FE
:100FA0001706811123C0E1E7F2E08491E7EBF2E05C
:100FB0009491E82FF0E0EE0FFF1FE85FFD4FA59141
:100FC000B491EC91E92319F461E085E3BBD761E0CA
:100FD00085E3E7D78CB580618CBD8CB580648CBD12
:100FE00061E084E3DED761E083E3DBD7809117061D
:100FF0008F5F809317061FBF249A80E590E0AADADE
:1010000060E880E090E00E94F01065E58BE190E000
:101010000E94F01065E58AE190E00E94F01099DAF4
:1010200080E090E4909365048093640480E090E60F
:1010300090936D0480936C0480E098E4909367042F
:101040008093660480E098E690936F0480936E042A
:1010500080E090E5909369048093680480E090E7D5
:10106000909371048093700480E098E590936B04F2
:1010700080936A0480E098E79093730480937204ED
:1010800080E590E067DA46E050E060E072E089E0F9
:1010900090E00E94C71044E050E0BE016D5F7F4FBA
:1010A0008FE090E00E94C71044E050E0BE01615F15
:1010B0007F4F81E090E00E94C71044E050E0BE0105
:1010C0006B5E7F4F85E090E00E94C71042DA81E0BE
:1010D0008C8789859A85AB85BC8580931305909311
:1010E0001405A0931505B0931605CE5BDF4F0FB620
:1010F000F894DEBF0FBECDBFDF91CF911F910F914E
:10110000FF90EF90DF90CF90089590911F05E091B0
:101110002005F0912105392F309580FF13C0F894F8
:101120002281832F822382838181892B8183A3E281
:10113000B0E01197F1F78281982B9283789487ED34
:1011400090E012C0F8942281832F822382838181D0
:10115000892B8183AFEFB0E01197F1F78281982B53
:10116000928378948FE090E00197F1F70895809151
:101170001F05E0912005F0912105F8949181982BAD
:1011800091832281982F909529232283A7E0B0E0B4
:101190001197F1F7218192239183A3E2B0E0119797
:1011A000F1F790817894EFECF0E03197F1F7982324
:1011B00081E009F480E00895EF92FF920F931F936E
:1011C000CF93DF931F92CDB7DEB7082F88E0E82ECC
:1011D000F12C11E081E0912F902309F480E06983E4
:1011E00094DF110F81E0E81AF1086981E114F1043C
:1011F00089F7611113C0F894E0912005F091210561
:10120000918180911F05809598239183E09120051D
:10121000F091210592818923828378940F90DF9148
:10122000CF911F910F91FF90EF90089590911F051E
:10123000E0912005F0912105F8948181292F2095D6
:101240008223818378948DE743E050E0815021F13F
:10125000DA011197F1F730813923C1F3F8948281D3
:10126000822382838181892B81837894ABE7B7E0E5
:101270001197F1F7F894818128232183A3E1B1E04C
:101280001197F1F78081982381E009F080E078944C
:10129000E3E6F6E03197F1F708951F93CF93DF93DC
:1012A00060E085E589DFCCE5D4E01C2F185F60E0C5
:1012B000899182DF1C13FBCFDF91CF911F9108959D
:1012C0008F929F92AF92BF92CF92DF92EF92FF9256
:1012D0000F931F93CF93DF93B82E4B018A01A22E59
:1012E00068E270E010D9C82FD0E069E270E08B2D81
:1012F0000AD9DC2FCC27C82B9E013770CB2CD12CE0
:10130000C601880F991FAC0144595B4F6A01FA016D
:1013100080819181820F931FA801420F531F41309A
:10132000584090F060E078E07B01E21AF30AA701F0
:10133000B40103D7A8014E195F09B4016E0D7F1DDA
:10134000F6018081918102C0A801B401F6D6A110F6
:101350000CC0C00FD11F4D2F68E270E08B2DC9D893
:101360004C2F69E270E08B2DC4D8DF91CF911F9193
:101370000F91FF90EF90DF90CF90BF90AF909F9034
:101380008F9008950895CF92DF92EF92FF920F937E
:101390001F93CF93DF936C017A018B01C0E0D0E003
:1013A000CE15DF0589F0D8016D918D01D601ED9143
:1013B000FC910190F081E02DC6011995892B11F463
:1013C0007E0102C02196ECCFC701DF91CF911F9122
:1013D0000F91FF90EF90DF90CF900895FC01918DD9
:1013E000828D981761F0828DDF01A80FB11D5D9687
:1013F0008C91928D9F5F9F73928F90E008958FEFF5
:101400009FEF0895FC01918D828D981731F0828DA8
:10141000E80FF11D858D90E008958FEF9FEF0895FF
:10142000FC01918D228D892F90E0805C9F4F821B63
:1014300091098F739927089584E794E0F1DF21E003
:10144000892B09F420E0822F0895FC01848DDF01AF
:10145000A80FB11DA35ABF4F2C91848D90E0019627
:101460008F739927848FA689B7892C93A089B18916
:101470008C9180648C93938D848D981306C0028820
:10148000F389E02D80818F7D80830895EF92FF9214
:101490000F931F93CF93DF93EC0181E0888F9B8D97
:1014A0008C8D981305C0E889F989808185FD23C05A
:1014B000F62E0B8D10E00F5F1F4F0F731127E02EDC
:1014C0008C8DE8120BC00FB607FCFACFE889F989BA
:1014D000808185FFF5CFCE01B8DFF2CF8B8DFE0185
:1014E000E80FF11DE35AFF4FF0820B8FEA89FB8969
:1014F0008081806207C0EE89FF896083E889F9896D
:1015000080818064808381E090E0DF91CF911F91A2
:101510000F91FF90EF900895CF93DF93EC01888DAA
:101520008823C1F0EA89FB89808185FD05C0A889EF
:10153000B9898C9186FD0EC00FB607FCF5CF80816E
:1015400085FFF2CFA889B9898C9185FFEDCFCE01B7
:101550007CDFE8CFDF91CF91089580E090E0892B88
:1015600019F06ADF811125C080E090E0892B41F0FD
:1015700080E090E0892B21F00E94000081111CC0C6
:1015800080E090E0892B41F080E090E0892B21F011
:101590000E940000811113C080E090E0892BA1F02F
:1015A00080E090E0892B81F00E94000081110AC048
:1015B00008950E940000D8CF0E940000E1CF0E9451
:1015C0000000EACF0C940000089590E0FC013197F0
:1015D000E231F10508F04EC08827EE58FF4F8F4FDB
:1015E0000C940E1B809180008F7703C08091800047
:1015F0008F7D80938000089580918000877FF9CF50
:1016000084B58F7702C084B58F7D84BD08958091A5
:10161000B0008F7703C08091B0008F7D8093B000C1
:101620000895809190008F7707C0809190008F7D02
:1016300003C080919000877F8093900008958091EF
:10164000A0008F7707C08091A0008F7D03C080919C
:10165000A000877F8093A0000895809120018F775C
:1016600007C0809120018F7D03C080912001877F7A
:101670008093200108953FB7F8948091410690919E
:101680004206A0914306B091440626B5A89B05C02A
:101690002F3F19F00196A11DB11D3FBFBA2FA92FF1
:1016A000982F8827820F911DA11DB11DBC01CD016E
:1016B00042E0660F771F881F991F4A95D1F708955A
:1016C0000E94271D0F931F93CF93DF93EC01888116
:1016D0009981009729F02A813B812617370788F4E2
:1016E0008B016F5F7F4F0E94431C009761F09983CD
:1016F00088831B830A832C813D81232B11F4FC01F9
:10170000108281E001C080E0DF91CF911F910F91A5
:101710000895CF93DF93EC0188819981009711F0B0
:101720000E94AB1B198218821D821C821B821A82A6
:10173000DF91CF910895EF92FF920F931F93CF9374
:10174000DF93EC017B018A01BA01BCDF811103C088
:10175000CE01DFDF07C01D830C83B701888199812B
:101760000E944E1DCE01DF91CF911F910F91FF90EE
:10177000EF900895AF92BF92CF92DF92EF92FF92D7
:101780000F931F93CF93DF93DC01CD90DC901197E3
:10179000C114D10409F442C01496CD91DC9115977F
:1017A0002097E1F18C0156017501BFEFAB1ABB0A1E
:1017B000F7018081082E000C990B0E943D20892B97
:1017C00099F72197CC0DDD1D8881082E000C990B0F
:1017D0000E943D20892B91F4AE014F5F5F4F4E195F
:1017E0005F09D80115965C934E931497CE14DF04CD
:1017F00050F4B701C6010E942B1D05C0CE15DF05B0
:1018000058F32197E1CFD801ED91FC9111971496EF
:101810008D919C911597E80FF91F1082DF91CF9160
:101820001F910F91FF90EF90DF90CF90BF90AF90FE
:1018300008952F923F924F925F926F927F928F9274
:101840009F92AF92BF92CF92DF92EF92FF920F934F
:101850001F93CF93DF9300D01F92CDB7DEB7FC016B
:10186000448055804114510409F413C1FB01648084
:1018700075806114710409F40CC17A016B019C83B9
:101880008B83FA01A480B580A618B708FC010081FB
:101890001181A114B104C1F4F60160817181C80104
:1018A0000E94721D5C01892B09F4F3C0F70160816D
:1018B000718144815581C5010E942B1DF70104816E
:1018C00015810A0D1B1DE8CFB7FE02C0480106C0F6
:1018D000FB01208031804201C80148C0F6016081CF
:1018E0007181C4010E94721D2C01892B29F13201E2
:1018F00068187908A301B401C8010E942B1D060DC8
:10190000171DF7016081718144815581C8010E94D2
:101910002B1DF70184819581080F191FF601848022
:101920009580840C951CEB81FC81848195818A0DC6
:101930009B1D95838483D2CFB401C8010F900F9073
:101940000F900F90DF91CF911F910F91FF90EF902B
:10195000DF90CF90BF90AF909F908F907F906F90CF
:101960005F904F903F902F900C944E1DB1010E94BC
:10197000721D009729F0860D971D8A0C9B1CF6CFCF
:101980008414950409F485C0EB81FC8182819381E4
:101990008815990578F4B4016F5F7F4FC8010E94E4
:1019A000431C009709F475C0EB81FC81918380830F
:1019B00093828282EB81FC8104811581015011099F
:1019C00017FD67C0F601248035802114310409F425
:1019D00060C0EB81FC81648075806114710409F43E
:1019E00058C06214730408F454C00615170518F0A3
:1019F000830101501109EB81FC8140805180C201BB
:101A000088248A94982C9201200F311F28173907B7
:101A100058F0F6016081718129833A830E94721D1A
:101A200029813A81009761F597FC33C0280C391C55
:101A3000C201820D931DA30142195309BC018A0DF5
:101A40009B1D0E94341DEB81FC81848195818A0D50
:101A50009B1D9583848320813181F901E80FF91F53
:101A60001082EB81FC8180819181F701608171811D
:101A700044815581880D991D0E942B1D84019ECFA4
:101A8000AC01441955090417150708F04A010196DD
:101A9000BDCF0F900F900F900F90DF91CF911F91BE
:101AA0000F91FF90EF90DF90CF90BF90AF909F90FD
:101AB0008F907F906F905F904F903F902F90089500
:101AC000FB0144815581FC012481358124173507B0
:101AD00078F080819181009759F0FB0160817181DC
:101AE0006115710529F00E94551D21E0892B09F02F
:101AF00020E0822F0895CF93DF93DC01ED91FC91DC
:101B0000EB01A881B981309711F01097C9F41097B3
:101B100059F0EB012C813D81232B31F08C9190E029
:101B200091958195910914C0309781F0DC0114964C
:101B30008D919C911597892B49F0808190E008C088
:101B4000BD01CF01DF91CF910C94451D80E090E065
:101B5000DF91CF910895EF92FF920F931F93CF9350
:101B6000DF93FC01248135816115710511F480E05A
:101B700018C041155105A1F07B01EC018A01020F4B
:101B8000131FB8019FDD882391F3288139818C814F
:101B90009D81B701820F931F0E944E1D1D830C83F0
:101BA00081E0DF91CF911F910F91FF90EF90089509
:101BB000CF93DF93EC016115710559F0FB010190A2
:101BC0000020E9F73197AF01461B570BC4DF8111A5
:101BD00002C0CE019EDDCE01DF91CF910895CF935B
:101BE000DF93EC01FB014481558160817181B3DF9A
:101BF000811102C0CE018DDDCE01DF91CF9108951C
:101C0000CF93DF93EC016115710551F0FB01019059
:101C10000020E9F73197AF01461B570B8CDD01C05F
:101C200078DDCE01DF91CF910895CF93DF93EC0162
:101C3000FB018617970751F060817181611571056D
:101C400021F04481558177DD01C063DDCE01DF9154
:101C5000CF910895FC01808191810C94AB1B0F936F
:101C60001F93CF93DF93CDB7DEB762970FB6F8948B
:101C7000DEBF0FBECDBF8C01CB01F80111821082F7
:101C8000138212821582148250E0BE016F5F7F4F73
:101C90000E94AB1DBE016F5F7F4FC801B1DF62962E
:101CA0000FB6F894DEBF0FBECDBFDF91CF911F916D
:101CB0000F910895FC011182108213821282158205
:101CC0001482B3CFFC01118210821382128215821A
:101CD00014826115710549F0FB0101900020E9F7BC
:101CE0003197AF01461B570B26CD0895611571053D
:101CF00079F0FB0101900020E9F73197AF01461B15
:101D0000570BDC01ED91FC910280F381E02D1994D9
:101D100080E090E008954F925F926F927F92EF92F1
:101D2000FF920F931F93CF93DF93CDB7DEB7A197A9
:101D30000FB6F894DEBF0FBECDBF7C01FA01CB0118
:101D400019A2223008F42AE08E010F5D1F4F422EA7
:101D5000512C612C712CBF01A30192010E944921D9
:101D6000F901CA01015011096A3014F4605D01C023
:101D7000695CD8016C93232B242B252B61F7B801C8
:101D8000C701B4DFA1960FB6F894DEBF0FBECDBF7A
:101D9000DF91CF911F910F91FF90EF907F906F9007
:101DA0005F904F9008958F929F92AF92BF92CF9283
:101DB000DF92EF92FF920F931F93CF93DF937C01FB
:101DC000EB016C0182E0C80ED11C4701E5E08E0EEC
:101DD000911C00E010E0F60141916F0150E060E0DD
:101DE00070E02AE0CE0197DF5C01E881F981019083
:101DF000F081E02D6EE2CE0119958A0D9B1D080F32
:101E0000191FC814D90439F7F701458150E060E083
:101E100070E02AE0CE017FDF800F911FDF91CF912C
:101E20001F910F91FF90EF90DF90CF90BF90AF90F8
:101E30009F908F9008951F920F920FB60F921124CA
:101E40000BB60F922F933F934F935F936F937F93B4
:101E50008F939F93AF93BF93EF93FF9384E794E0A7
:101E6000F4DAFF91EF91BF91AF919F918F917F91A4
:101E70006F915F914F913F912F910F900BBE0F90FB
:101E80000FBE0F901F9018951F920F920FB60F92D2
:101E900011240BB60F922F938F939F93EF93FF9381
:101EA000E0918404F09185048081E0918A04F091AE
:101EB0008B0482FD12C0908180918D048F5F8F739F
:101EC00020918E04821751F0E0918D04F0E0EC58DF
:101ED000FB4F958F80938D0401C08081FF91EF911E
:101EE0009F918F912F910F900BBE0F900FBE0F906F
:101EF0001F901895CF93DF93282F30E0F901EE5112
:101F0000FD4F8491F901EE57FD4FD491F901E45C46
:101F1000FD4FC491CC2389F0811157DBEC2FF0E009
:101F2000EE0FFF1FEE5DFD4FA591B491EC91ED23F7
:101F300081E090E021F480E002C080E090E0DF9159
:101F4000CF9108951F93CF93DF93282F30E0F901AD
:101F5000EE51FD4F8491F901EE57FD4FD491F901F7
:101F6000E45CFD4FC491CC23C1F0162F81112DDB11
:101F7000EC2FF0E0EE0FFF1FE853FD4FA591B49159
:101F80008FB7F894111105C09C91ED2FE095E923CE
:101F900002C0EC91ED2BEC938FBFDF91CF911F919D
:101FA0000895CF93DF9390E0FC01EE57FD4F24910D
:101FB000FC01E45CFD4F8491882361F190E0880F7F
:101FC000991FFC01E85FFD4FC591D491FC01E853D6
:101FD000FD4FA591B491611109C09FB7F894888114
:101FE000209582238883EC912E230BC0623061F40C
:101FF0009FB7F8943881822F809583238883EC9152
:102000002E2B2C939FBF06C08FB7F894E8812E2B00
:1020100028838FBFDF91CF9108958F929F92AF92C7
:10202000BF92CF92DF92EF92FF926B017C0123DB94
:102030004B015C01C114D104E104F104E9F01BDBA4
:10204000DC01CB0188199909AA09BB09883E934094
:10205000A105B10578F321E0C21AD108E108F10821
:1020600088EE880E83E0981EA11CB11CC114D10417
:10207000E104F10421F7DECFFF90EF90DF90CF90E5
:10208000BF90AF909F908F9008952FB7F894609174
:102090003D0670913E0680913F06909140062FBF0D
:1020A00008951F920F920FB60F9211242F933F9312
:1020B0008F939F93AF93BF9380913D0690913E067F
:1020C000A0913F06B091400630913C0623E0230FDB
:1020D0002D3720F40196A11DB11D05C026E8230F60
:1020E0000296A11DB11D20933C0680933D0690935E
:1020F0003E06A0933F06B093400680914106909122
:102100004206A0914306B09144060196A11DB11D5F
:102110008093410690934206A0934306B0934406F1
:10212000BF91AF919F918F913F912F910F900FBED3
:102130000F901F9018952C9A0895CF92DF92EF92EE
:10214000FF920F931F93CF93DF93EC017A018B01E2
:102150006C01C40ED51ECC15DD0579F06BD28FE075
:102160006BD28D2F69D28C2F67D2219680E064D2FA
:10217000F80181938F01DFDFEECFC701DF91CF91AF
:102180001F910F91FF90EF90DF90CF900895CF9225
:10219000DF92EF92FF920F931F93CF93DF93EC01A7
:1021A0007A018B016C01C40ED51ECC15DD0571F0D2
:1021B00041D280EF41D28D2F3FD28C2F3DD221963C
:1021C000F80181918F0138D2B6DFEFCFC701DF91DF
:1021D000CF911F910F91FF90EF90DF90CF900895D6
:1021E0001F93CF93DF931F921F92CDB7DEB7182FA7
:1021F0006A8399831FD280EF1FD29981892F1CD2C5
:10220000812F1AD26A81862F17D295DF81E00F9035
:102210000F90DF91CF911F9108950895CF93DF9391
:102220001F92CDB7DEB76983DC01ED91FC9102808E
:10223000F381E02D41E050E0BE016F5F7F4F1995C3
:102240000F90DF91CF9108951F93CF93DF93182FB5
:1022500066E270E00E948302C82FD0E067E270E07F
:10226000812F0E948302DC2FCC279E01282BC901DD
:10227000DF91CF911F9108951F93CF93DF93182F74
:1022800060E270E00E948302C82FD0E061E270E05B
:10229000812F0E948302DC2FCC279E01282BC901AD
:1022A000DF91CF911F910895AF92BF92CF92DF92AD
:1022B000EF92FF921F93CF93DF93182F5B017A0168
:1022C00080E590E00E94AA02C0E0D0E0812FBCDF50
:1022D0006C01892B19F0812FB7DFEC01CC15DD05DE
:1022E000A9F7209799F463E070E0812F0E948302A0
:1022F0008431F1F08823E1F0C1E0D0E08C3111F4B9
:10230000C0E0D0E0D195C195D10912C0EC16FD0610
:102310000CF4E7011C161D065CF420E0AE01B501CB
:10232000812F0E94600960E470E0812F0E944E07B7
:102330000E94A902CE01DF91CF911F91FF90EF90F3
:10234000DF90CF90BF90AF900895CF93DF93FC01C3
:10235000218D328D2115310519F48FEF9FEF10C0BB
:10236000EC014217530708F0A901888D9DDF18166C
:1023700019069CF7298D3A8D281B390B3A8F298F26
:10238000DF91CF9108950F931F93CF93DF931F9207
:10239000CDB7DEB7FC01218D328D232B59F08C0196
:1023A00041E050E0BE016F5F7F4F808D7DDF1816EA
:1023B00019061CF08FEF9FEF08C0F801818D928DF8
:1023C0000197928F818F898190E00F90DF91CF915B
:1023D0001F910F9108951F93CF93DF931F92CDB755
:1023E000DEB7FC01218D328D232B99F0108D80E515
:1023F00090E00E94AA0221E041E050E0BE016F5F40
:102400007F4F812F0E9460090E94A902898190E07C
:1024100002C08FEF9FEF0F90DF91CF911F91089532
:102420007F928F929F92AF92BF92CF92DF92EF9264
:10243000FF920F931F93CF93DF935C014B016A01CF
:10244000FC0106891789708C80E590E00E94AA0241
:10245000C0E0D0E0872D10DF7C01892B19F0872D9B
:102460000BDFEC01CE15DF05A9F7CC15DD0568F40F
:10247000C0E0D0E0872D00DF6C01892B19F0872D9B
:10248000FBDEEC01CC15DD05A9F764E270E0872DD9
:102490000E948302E82EF12C65E270E0872D0E94F5
:1024A0008302FE2CEE24E82AE701C00FD11F9E0113
:1024B0003770E72CF12CC701880F991FAC014C59DC
:1024C0005B4F7A01FA0180819181820F931FA901EC
:1024D0004C0D5D1D4130584088F000E018E0021BB3
:1024E000130BA801B40153DEA601401B510BB4012C
:1024F000600F711FF7018081918102C0A601B401B4
:1025000046DECC0DDD1D4D2F64E270E0872D0E946C
:1025100079024C2F65E270E0872D0E9479020E94BB
:10252000A902F501868997898C0D9D1D978B868B55
:10253000C601DF91CF911F910F91FF90EF90DF9037
:10254000CF90BF90AF909F908F907F900895BF9253
:10255000CF92DF92EF92FF920F931F93CF93DF936F
:10256000CDB7DEB728970FB6F894DEBF0FBECDBF4C
:102570008C01F801818D928D892B49F0D801ED9164
:10258000FC910680F781E02DC8011995F2CFB08C3F
:1025900080E590E00E94AA02E12CF12C8B2D54DE04
:1025A0006C01892B19F08B2D4FDE7C01EC14FD049E
:1025B000A9F70E94A9021E141F0454F548E050E038
:1025C000BE016F5F7F4FD80158968C916DDE9C01E4
:1025D00018161906DCF489819A81AB81BC81F80157
:1025E000808B918BA28BB38B8D8190E0982F882765
:1025F0002E81820F911D958B848B2F8130E0322F9D
:1026000022278885280F311D328F218FC90102C0F2
:1026100080E090E028960FB6F894DEBF0FBECDBFE5
:10262000DF91CF911F910F91FF90EF90DF90CF90AE
:10263000BF9008952C9808958EBD00000DB407FE3C
:10264000FDCF8EB50895CF93C82F80E590E00E940E
:10265000AA0260E170E08C2F0E944E074FEF62E00B
:1026600070E08C2F0E947902CF910C94A902FF9206
:102670000F931F93CF93DF931F921F92CDB7DEB7B7
:10268000F82E8A012A836983DEDF80E590E00E94CC
:10269000AA022A816981462F422B60E070E08F2DCB
:1026A0000E9479020115110551F40091450610911F
:1026B00046060F5F1F4F1093460600934506412FB5
:1026C00064E070E08F2D0E947902402F65E070E099
:1026D0008F2D0E94790261E070E08F2D0E944E07DD
:1026E0000E94A90281E00F900F90DF91CF911F917E
:1026F0000F91FF900895BF92CF92DF92EF92FF92D9
:102700000F931F93CF93DF9300D000D0CDB7DEB7E8
:10271000FC01208D243009F05AC06A017B018C0134
:10272000B12C63E070E08B2D0E948302811103C005
:10273000F801B08E06C08831D9F3B394F4E0BF122B
:10274000F0CFF801808D843009F441C096E0E8EDC7
:10275000F2E0DE01119601900D929A95E1F7F701F2
:1027600093819F779C8394819D8395819E83B701FC
:102770006E5F7F4F90E0982F882744E050E0845FA1
:102780009B4F05DDF801F08C4D2D60E170E08F2D41
:102790000E9479024C2D61E170E08F2D0E94790238
:1027A000F801808D90E0982F882746E050E0BE0128
:1027B0006F5F7F4F8A5F9B4FEADCF801128E118EAC
:1027C00020E8A60162E0808D52DF81E001C080E058
:1027D00026960FB6F894DEBF0FBECDBFDF91CF9126
:1027E0001F910F91FF90EF90DF90CF90BF900895D1
:1027F000CF93DF938DE295E02DDA83E395E02ADA3B
:10280000C1E8D5E02697CE0125DA85E0C933D8079F
:10281000C9F7C9ECD5E02697CE011CDA85E0C138AE
:10282000D807C9F789EC95E0DF91CF9113CACF9310
:10283000DF93CDB7DEB7E5970FB6F894DEBF0FBED6
:10284000CDBF789484B5826084BD84B5816084BD39
:1028500085B5826085BD85B5816085BD80916E003E
:10286000816080936E00109281008091810082606F
:1028700080938100809181008160809381008091AC
:1028800080008160809380008091B100846080939B
:10289000B1008091B00081608093B0008091910080
:1028A000826080939100809191008160809391007B
:1028B000809190008160809390008091A10082605F
:1028C0008093A1008091A10081608093A1008091FC
:1028D000A00081608093A00080912101826080939C
:1028E000210180912101816080932101809120014B
:1028F00081608093200180917A00846080937A00C7
:1029000080917A00826080937A0080917A00816061
:1029100080937A0080917A00806880937A00109288
:10292000C10088EE93E00E94E006E0918404F091FB
:10293000850482E08083E0918004F091810410821C
:10294000E0918204F09183048FEC808310928C04D8
:10295000E0918804F091890486E08083E091860408
:10296000F0918704808180618083E0918604F091FA
:102970008704808188608083E0918604F0918704D9
:10298000808180688083E0918604F0918704808153
:102990008F7D808300E112E0D8018C910E5F1F4F84
:1029A00061E0FFDAB2E008321B07B1F761E080E2D4
:1029B000F8DAA6EFEA2EA3E0FA2E08E212E0F80118
:1029C00080810E5F1F4F62E0ECDAD7011D921D92ED
:1029D0007D01B2E008351B0791F760E089E3E1DA99
:1029E00060E088E3DEDA60E087E3DBDA60E086E37C
:1029F000D8DA60E08AE3D5DA60E08BE3D2DA60E02F
:102A00008EE3CFDA61E087E0CCDA61E08BE0C9DA0F
:102A100061E08CE0C6DA61E08DE0C3DA86E36ADA71
:102A2000892B49F48091F4039091F5038160909390
:102A3000F5038093F40387E35DDA892B49F48091F1
:102A4000F4039091F50382609093F5038093F4036F
:102A500088E350DA892B49F48091F4039091F503CF
:102A600084609093F5038093F40389E343DA892B20
:102A700049F48091F4039091F50388609093F503F5
:102A80008093F4036091F4037091F5034AE0CE0162
:102A90000196E5D88091C9059091CA050097B9F0D3
:102AA00069817A816115710589F04091CB0550915A
:102AB000CC052D813E814217530740F0EFD78D8121
:102AC0009E819093CE058093CD0517C044D6898111
:102AD0009A819093CA058093C9058B819C819093BC
:102AE000CC058093CB058D819E819093CE058093FC
:102AF000CD051A8219821C821B821E821D82CE0184
:102B00000196A8D8E12CF12C00E010E00F5F1F4FD8
:102B10004AE0B801CE010196A2D86DEF72E0CE0175
:102B20008296D0D8BE016F5F7F4FCE01829657D874
:102B30006FEF72E03DD8BC01C7018F579A4F75D82F
:102B4000CE01829687D8CE01019684D84AE0B8019A
:102B5000CE01019684D86DEF72E0CE018296B2D894
:102B6000BE016F5F7F4FCE01829639D863E073E07C
:102B70001FD8BC01C701875C9A4F57D8CE018296F7
:102B800069D8CE01019666D8E6E0EE0EF11C0C3055
:102B9000110509F0BBCF6091F4037091F5034AE091
:102BA000CE0101965CD868EF72E0CE0182968AD899
:102BB000BE016F5F7F4FCE01829611D8BC0183E3C7
:102BC00095E033D8CE01829645D8CE01019642D801
:102BD0008091F4039DEE980F9093050290EC9093F2
:102BE0000D0698EA90930E0696E990930F068A5682
:102BF0008093100680ED92E09A83898380910D0680
:102C000090910E06A0910F06B09110068B839C83C5
:102C1000AD83BE83CE0101960E945C076CE97DEA1C
:102C20008AEE95E00E94170362E079ED8FEC95E063
:102C30000E94170388E093E00E94280789EC95E042
:102C40000E943907E0910B06F0910C060190F0818B
:102C5000E02D64E774E08BE096E019956CE173E099
:102C600084E794E043D800E010E060E070E0C80141
:102C70000E941F060F5F1F4F0C301105B1F7E8EEE1
:102C80008E2EE3E09E2EA12CB12C8EE394E0F8E092
:102C9000F80FFCABF8E84F2EF3E15F2E612C712C9E
:102CA00066EFC62E63E0D62E78E2E72E72E0F72EAE
:102CB00001E010E0D7018C91B2E0EB0EF11C1AD9C3
:102CC000F60120813181D6018D939D936D0182178C
:102CD0009307B4F44AE0B801CE0182960E942F0E09
:102CE0006FE173E0CE0188960E94620EBE016E5DB8
:102CF0007F4FCE0188960E94EF0D61E273E018C00D
:102D00002817390764F54AE0B801CE0182960E947F
:102D10002F0E6FE173E0CE0188960E94620EBE0115
:102D20006E5D7F4FCE0188960E94EF0D64E273E0E6
:102D30000E94D80DBC01CE0101960E945A0ECE0110
:102D400001960E946906CE0101960E942A0ECE01CC
:102D500088960E942A0ECE0182960E942A0E0F5F4C
:102D60001F4F0931110509F0A5CF8AEE95E0EFDB81
:102D7000892B09F46AC084E190E00E94E00688E1B2
:102D8000E6E2F4E0DF011D928A95E9F748E150E0C0
:102D9000BF018AEE95E00E945D0266E274E0CE011A
:102DA00082960E94620ECE0182960E94390763E3EA
:102DB00075E0CE0182960E94600D882361F06EE17D
:102DC00073E0CE0101960E94620EAE014F5F5F4F2D
:102DD00063E375E013C06DE275E0CE0182960E9458
:102DE000600D882371F16EE173E0CE0101960E94BF
:102DF000620EAE014F5F5F4F6DE275E0CE018296CD
:102E00000E94190CCE0101960E942A0ECE018296D4
:102E10000E94BA0B8AA19BA199A788A78CA19DA10A
:102E20009BA78AA78EA19FA19DA78CA71BA21AA2D0
:102E30001DA21CA21FA21EA2CE0182960E942A0ED3
:102E40000AC0CE0182960E942A0E6EE173E0CE0186
:102E500088960E94620E8CA59DA5892B09F487C0D7
:102E6000E8A5F9A58081882309F481C067E273E0B1
:102E7000CE0101960E94620EBE016F5F7F4FCE01B0
:102E800088960E94600D182FCE0101960E942A0E8E
:102E9000112351F0BE01685D7F4FCE0101960E9463
:102EA0005A0ECE0101962BC06BE273E0CE01019663
:102EB0000E94620EBE016F5F7F4FCE0188960E9416
:102EC000600D182FCE0101960E942A0E1123D1F019
:102ED000BE01685D7F4FCE0182960E945A0E60E36C
:102EE00073E0CE0101960E94620ECE0101960E940F
:102EF0006906CE0101960E942A0ECE0182960E949A
:102F00002A0E35C041E8C42E45E0D42E59E3E52E03
:102F100055E0F52E00E010E02CA43DA4F6018481DC
:102F200095812816390651F4B601CE0188960E9483
:102F30007B0D892B19F461E070E00AC2F7018481EE
:102F400095812816390641F4B701CE0188960E9472
:102F50007B0D892B09F4FAC10F5F1F4FF6E0CF0EEE
:102F6000D11C26E0E20EF11C0C301105A9F6CE01B1
:102F700088960E942A0E8CE494E00E940007882321
:102F800009F4B5C185E393E00E94280780914A04C3
:102F900090914B048130910509F497C082309105DE
:102FA00009F4A2C0892B09F0A2C180912C058111DE
:102FB0005FC00E941609811109C010922A05109263
:102FC0002C0510922B05EAE2F5E06DC060E080EF81
:102FD0000E94DC0801E0F12CE12C11E00E94B7080E
:102FE0008DAB0E94B7089DA9913019F48130C9F4C6
:102FF00035C0EF2DF0E098131EC080912A051817F8
:1030000040F4DF01A15EBA4F13968C91802349F4FE
:1030100002C0181731F090E0193060F410932B05BE
:1030200009C0EF2DF0E0E15EFA4F8381802B8383AE
:1030300091E008C0E12EE15EFA4F2381802F809558
:1030400082238383892F0E9485081F5F000F11F45C
:10305000F39401E087E08F1508F0C0CF113440F001
:10306000E0922A05E11078C181E080932C0574C1BB
:1030700010922A0510922C0510922B0580E0A2E2F6
:10308000B5E0ECE5F4E09D91919394E0E436F90726
:10309000D1F7882309F491CF81E090E090934B041D
:1030A00080934A0424C11292A5E0E232FA07D9F7CC
:1030B0008AEF90E0A0E0B0E0809350049093510438
:1030C000A0935204B093530408C10E9416090E94B1
:1030D0004D0961E084E40E94DC0882E090E0909376
:1030E0004B0480934A04F1C00E9416090E944D09C6
:1030F00060E08EEB0E94DC083EE3C32E34E0D32E6A
:1031000028E0E22EF12C01E010E00E94B7088111C6
:10311000102B000F91E0E91AF108B9F7D6011D93C1
:103120006D01B7E4CB16B4E0DB0651F7AEE3B4E0D3
:10313000E0E0FCA9FA1739F08D91E827F0E0E85FAC
:10314000FE4FE491F6CF80914604E813BAC0809117
:103150005C04823249F0883239F0803139F088E4F9
:1031600093E00E942807C3C080E001C081E0609125
:103170003F0470E0762F662790913E04692B8823E8
:1031800099F083E0660F771F8A95E1F780914504F7
:103190008031B9F4209144048CE090E0821B9109C5
:1031A000607F680F791F0DC080914204807611F412
:1031B000687F07C0803211F46C7F03C0803409F44B
:1031C0006E7F1FA61EA619AA18AA1BAA1AAA072E46
:1031D000000C880B990B6BD720E030E040E85DE3F2
:1031E000A1D78E010F5F1F4F22E044E095D4BC01B0
:1031F000CE018E960E94000E6EE173E0CE0188969D
:103200000E94620E0CE514E0D8018D918D011BA285
:103210001AA21DA21CA21FA21EA240E1BE016F5F46
:103220007F4F90E0ACD4BE016F5F7F4FCE0182969E
:103230000E94000E4EA15FA16AA17BA1CE018896DB
:103240000E94AB0DCE0182960E942A0EB4E0043695
:103250001B07D1F668EF72E0CE0101960E94620E64
:1032600069EC75E0CE0101960E94EF0D6DE573E00B
:103270000E94D80DBE01685D7F4F0E94EF0D6AE18C
:1032800073E00E94D80DBE01625D7F4F0E94EF0D7A
:10329000BC01CE0182960E945A0ECE0182960E94F7
:1032A0006906CE0182960E942A0ECE0101960E94E6
:1032B0002A0ECE0188960E942A0ECE018E960E947A
:1032C0002A0E10924B0410924A048092500490925D
:1032D0005104A0925204B09253040E94451060938E
:1032E0004C0470934D0480934E0490934F0484E5F6
:1032F00094E00E9400078823B1F085E693E00E94E5
:103300002807409258045092590460925A047092CF
:103310005B040E944510609354047093550480939D
:103320005604909357048CEE93E00E940007882384
:1033300021F060E080E20E94A20F6AE070E080E08D
:1033400090E00E940D100E94AD0AAACC60E070E0EF
:10335000C8010E941F0600CE80912205882309F42F
:1033600087CE81E08CCECF93DF9380ED92E0909377
:1033700019068093180610921A0610921B061092D6
:103380001C0610921D06109277041092760448EEE7
:1033900053E060E070E040937804509379046093C8
:1033A0007A0470937B042EE532E030937504209309
:1033B000740425EC30E0309381042093800424ECE5
:1033C00030E0309383042093820420EC30E030938B
:1033D00085042093840421EC30E03093870420930B
:1033E000860422EC30E0309389042093880426EC94
:1033F00030E030938B0420938A0410928D04109255
:103400008E0410928F041092900490931F06809364
:103410001E0610922006109221061092220610928B
:103420002306909325068093240610922606109278
:103430002706109228061092290690932B06809357
:103440002A0610922C0610922D0610922E0610922B
:103450002F06909331068093300610923206109218
:10346000330610923406109235069093120580931D
:103470001105109213051092140510921505109263
:10348000160590931A058093190510921B0510924A
:103490001C0510921D0510921E059093370680930F
:1034A0003606109238061092390610923A0610929B
:1034B0003B06909312068093110610921306109209
:1034C0001406109215061092160690930C0680931F
:1034D0000B0610920D0610920E0610920F06109217
:1034E000100690930606809305062FEF209307069B
:1034F000209308062093090620930A061092ED05F2
:103500001092EC054093EE055093EF056093F005A3
:103510007093F105EAEAF2E0F093EB05E093EA0537
:103520009093F9058093F8051092FA051092FB0527
:103530001092FC051092FD0524E0209302061092E3
:10354000D2051092D1054093D3055093D4056093D2
:10355000D5057093D605F093D005E093CF059093F1
:10356000DE058093DD051092DF051092E0051092D4
:10357000E1051092E2052093E7056EE173E089EC26
:1035800095E00E94620EC1E8D5E06EE173E0CE01E5
:103590000E94620E269685E0C93CD807B1F7C9E3C0
:1035A000D5E06EE173E0CE010E94620E269685E0C2
:1035B000C138D807B1F76EE173E083E395E00E946C
:1035C000620E6AE773E08DE295E00E94620E60E0B1
:1035D00089E00E94D10FEBE8F2E0E491E0931F054F
:1035E000E5E4F2E0E491F0E0EE0FFF1FEE5DFD4F49
:1035F00085919491909321058093200510922A053E
:1036000010922C0510922B05EAE2F5E0129285E06B
:10361000E232F807D9F7DF91CF910895EE0FFF1F3F
:10362000881F8BBF0790F691E02D1994CF93DF93FD
:103630008230910510F482E090E0E0914906F0912B
:103640004A0620E030E0C0E0D0E0309711F1408140
:10365000518148175907C0F04817590761F4828112
:103660009381209719F09B838A832BC090934A06FD
:103670008093490626C02115310519F042175307DA
:1036800018F49A01BE01DF01EF010280F381E02D01
:10369000DCCF2115310509F1281B390B2430310508
:1036A00090F412968D919C9113976115710521F0FC
:1036B000FB019383828304C090934A06809349065A
:1036C000FD01329644C0FD01E20FF31F81939193F7
:1036D000225031092D933C933AC0209147063091F6
:1036E0004806232B41F420910802309109023093BF
:1036F00048062093470620910602309107022115C3
:10370000310541F42DB73EB740910A0250910B02AA
:10371000241B350BE0914706F0914806E217F307AA
:10372000A0F42E1B3F0B2817390778F0AC014E5F31
:103730005F4F2417350748F04E0F5F1F5093480620
:10374000409347068193919302C0E0E0F0E0CF01FF
:10375000DF91CF9108950F931F93CF93DF9300973D
:1037600009F48CC0FC013297138212820091490641
:1037700010914A060115110581F420813181820FD3
:10378000931F20914706309148062817390779F58D
:10379000F0934806E093470671C0D80140E050E03E
:1037A000AE17BF0750F412962D913C911397AD01BF
:1037B0002115310509F1D901F3CF9D01DA013383D8
:1037C000228360817181860F971F8217930769F4A6
:1037D000EC0128813981260F371F2E5F3F4F31833F
:1037E00020838A819B8193838283452B29F4F093E4
:1037F0004A06E093490642C01396FC93EE93129753
:10380000ED01499159919E01240F351FE217F307ED
:1038100071F480819181840F951F029611969C937B
:103820008E938281938113969C938E931297E0E0FE
:10383000F0E0D80112968D919C911397009719F0A2
:10384000F8018C01F6CF8D919C9198012E5F3F4F2E
:10385000820F931F20914706309148062817390799
:1038600069F4309729F410924A061092490602C072
:10387000138212821093480600934706DF91CF917E
:103880001F910F9108956F927F928F929F92AF92A6
:10389000BF92CF92DF92EF92FF920F931F93CF933D
:1038A000DF93EC01009781F4CB01DF91CF911F9161
:1038B0000F91FF90EF90DF90CF90BF90AF909F90CF
:1038C0008F907F906F90B2CEFC01E60FF71F9C01A6
:1038D00022503109E217F30708F4A8C0D9010D916D
:1038E0001C91119706171707A8F00530110508F469
:1038F0009BC0C80104978617970708F495C002502B
:103900001109061B170B019311936D937C93CF0143
:1039100022DF8AC05B01A01AB10A4C01800E911E01
:10392000A0914906B0914A0640E050E0E12CF12C0C
:10393000109709F44AC0A815B905D1F56D907C908F
:103940001197630182E0C80ED11CCA14DB0480F118
:10395000A3014A195B096A0182E0C80ED11C1296C4
:10396000BC9012971396AC91B5E0CB16D10440F001
:10397000B282A38351834083D9016D937C930AC0A3
:103980000E5F1F4FC301800F911FF9019183808348
:10399000EB2DFA2FE114F10431F0D7011396FC93CB
:1039A000EE93129741C0F0934A06E09349063CC05B
:1039B0008D919C9111974817590708F4AC017D012E
:1039C00012960D90BC91A02DB3CF80914706909197
:1039D000480688159905E1F446175707C8F4809101
:1039E000060290910702009741F48DB79EB740916F
:1039F0000A0250910B02841B950BE817F907B0F4EB
:103A0000F0934806E0934706F901718360830CC088
:103A1000CB010CDE7C01009749F0A801BE011BD050
:103A2000CE0199DEC70104C0CE0102C080E090E063
:103A3000DF91CF911F910F91FF90EF90DF90CF908A
:103A4000BF90AF909F908F907F906F90089581E08E
:103A500090E0F89440C4FB01DC0102C001900D929B
:103A600041505040D8F708956817790768F4FB0172
:103A7000DC01E40FF51FA40FB51F02C002900E92E7
:103A800041505040D8F70895E6CFFB01DC018D91FD
:103A9000019080190110D9F3990B0895FB01DC0105
:103AA00001900D920020E1F70895FB01DC014150E7
:103AB000504030F08D910190801919F40020B9F731
:103AC000881B990B0895FB01DC014150504048F0E0
:103AD00001900D920020C9F701C01D924150504045
:103AE000E0F70895FB0151915523A9F0BF01DC01D6
:103AF0004D9145174111E1F759F4CD010190002096
:103B000049F04D9140154111C9F3FB014111EFCF2F
:103B100081E090E001970895EF920F931F93CF9368
:103B2000DF93E80147FD02C034E001C034E1E42F37
:103B3000440FFF0BF7FF03C0F195E195F109E32E68
:103B4000022F2E2FAE0134D0CE01DF91CF911F91E5
:103B50000F91EF9008954532510518F4423008F066
:103B600004C0FB011082CB010895BB274A3031F419
:103B7000992322F4BDE2909581959F4F01C0BB2708
:103B8000FB015527AA27880F991FAA1FA41710F019
:103B9000A41B83955051B9F7A05DAA3308F0A95D25
:103BA000A193009779F7B111B1931192CB016DC236
:103BB0004F925F926F927F929F92AF92BF92CF92FD
:103BC000DF92EF92FF920F931F93CF93DF93CDB7C6
:103BD000DEB729970FB6F894DEBF0FBECDBF6A01DE
:103BE000122FB02E2BE3201720F0FF24F394F00EB9
:103BF00002C0BCE3FB2E0F2D27E0AE014F5F5F4FED
:103C000064D1AC018981982F9970913031F0E1FC39
:103C100006C0E0FE06C090E205C09DE203C09BE244
:103C200001C090E0EE2DE07183FF3CC0911102C015
:103C300083E001C084E0811718F4212F281B01C004
:103C400020E0E1110BC0F601822F30E2882319F049
:103C500031938150FBCFC20ED11C20E0992329F073
:103C6000D6019C93F60131966F01C6010396E2FEE0
:103C70000AC03EE4D6013C9341E411964C9311975F
:103C800012963C9306C03EE6F601308341E641833E
:103C90003283FC01322F40E2332309F442C04193C6
:103CA0003150FACF82FF44C0911102C083E001C0BD
:103CB00084E0811718F4212F281B01C020E0E111B6
:103CC0000BC0F601822F30E2882319F03193815026
:103CD000FBCFC20ED11C20E0992329F0D6019C9382
:103CE000F60131966F01C6010396E2FE0BC039E47E
:103CF000D6013C933EE411963C93119736E412961C
:103D00003C9307C039E6F60130833EE6318336E660
:103D10003283FC01322F40E2332319F041933150BA
:103D2000FBCFFC01E20FF11D10828EEF9FEFB7C0B9
:103D3000F1E0911101C0F0E06F2F70E0141615064C
:103D400024F49A012F5F3F4F02C021E030E0260F9C
:103D5000371FBB2029F06B2D70E06F5F7F4F02C0D3
:103D600060E070E0260F371F612F70E026173707DD
:103D70001CF4121B212F01C020E03E2D387159F494
:103D8000D601322F60E2332319F06D933150FBCF0F
:103D9000C20ED11C20E0FF2331F0D6019C93B60166
:103DA0006F5F7F4F6B01E1110BC0F601922F30E383
:103DB000992319F031939150FBCFC20ED11C20E012
:103DC0009F2D940F3A81782F7071A72E84FF03C026
:103DD000313309F49150191624F4993018F098E011
:103DE00001C091E0E42F852F57FF02C0E0E080E0A2
:103DF0006E2F782FE0E0F0E0AEE29A2E3A01691AD9
:103E000071082A01461A570A0B2D10E011950195E9
:103E100011096F3F8FEF780729F4D6019C92C601F4
:103E200001966C014617570784F0661677066CF406
:103E30007F01E40CF51CA1E0B0E0AC0FBD1FEA0E61
:103E4000FB1ED7011196BC9002C090E3B92E6150C1
:103E500071093196C60101967C016017710724F043
:103E6000D601BC926C01D5CF6417750741F4363387
:103E700020F4353321F4A11002C081E3B82EF601FD
:103E8000B082F701822F90E2882319F0919381503C
:103E9000FBCFF701E20FF11D108280E090E0299640
:103EA0000FB6F894DEBF0FBECDBFDF91CF911F914B
:103EB0000F91FF90EF90DF90CF90BF90AF909F90C9
:103EC0007F906F905F904F900895283008F027E022
:103ED0003327DA01990F311D87FD91600096610546
:103EE000710539F432602E5F3D9330E32A95E1F796
:103EF00008959F3F30F080387105610509F03C5FFF
:103F00003C5F3D93913008F08068911DDF93CF9323
:103F10001F930F93FF92EF92192F987F9695E92F99
:103F200096959695E90FFF27EE57FC4F9927332773
:103F3000EE24FF24A701E70105900894079428F4D4
:103F4000360FE71EF81E491F511D660F771F881F89
:103F5000991F0694A1F70590079428F4E70EF81E20
:103F6000491F561FC11D770F881F991F661F069492
:103F7000A1F70590079428F4F80E491F561FC71F94
:103F8000D11D880F991F661F771F0694A1F7059012
:103F9000079420F4490F561FC71FD81F990F661F9B
:103FA000771F881F0694A9F784911095177041F028
:103FB000D695C79557954795F794E7941A95C1F705
:103FC000E8E2F3E06894159015913591659195912B
:103FD00005907FE27395E118F10A430B560BC90B6C
:103FE000D009C0F7E10CF11E431F561FC91FD01D99
:103FF0007EF4703311F48A95E6CFE894015030F0E6
:10400000080F0AF40027021708F4202F2395022F27
:104010007A3328F079E37D932A95E9F710C07D93F0
:104020002A9589F60694979567953795179517946D
:10403000E118F10A430B560BC90BD00998F02395F0
:104040007E9173957A3308F070E37C932013B8F770
:104050007E9170617D9330F0839571E37D9370E381
:104060002A95E1F71124EF90FF900F911F91CF91C6
:10407000DF91992787FD909508959111B6C0803200
:1040800019F089508550D0F70895DC01FC01672FA5
:1040900071917723E1F7329704C07C916D9370831F
:1040A0006291AE17BF07C8F30895E89409C097FB63
:1040B0003EF490958095709561957F4F8F4F9F4FFF
:1040C0009923A9F0F92F96E9BB279395F695879543
:1040D00077956795B795F111F8CFFAF4BB0F11F406
:1040E00060FF1BC06F5F7F4F8F4F9F4F16C08823AD
:1040F00011F096E911C0772321F09EE8872F762FE3
:1041000005C0662371F096E8862F70E060E02AF023
:104110009A95660F771F881FDAF7880F969587950F
:1041200097F908950BD07BC06CD028F071D018F0AF
:10413000952309F05DC062C01124A5C081D0A0F311
:10414000959FD1F3950F50E0551F629FF001729F2C
:10415000BB27F00DB11D639FAA27F00DB11DAA1F4B
:10416000649F6627B00DA11D661F829F2227B00D98
:10417000A11D621F739FB00DA11D621F839FA00D23
:10418000611D221F749F3327A00D611D231F849F73
:10419000600D211D822F762F6A2F11249F575040CA
:1041A0008AF0E1F088234AF0EE0FFF1FBB1F661F65
:1041B000771F881F91505040A9F79E3F510570F01E
:1041C00017C061C05F3FECF3983EDCF386957795AE
:1041D0006795B795F795E7959F5FC1F7FE2B880F19
:1041E000911D9695879597F90895992788270895A1
:1041F00097F99F6780E870E060E008959FEF80EC9A
:10420000089500240A94161617061806090608953C
:1042100000240A9412161306140605060895092EA2
:104220000394000C11F4882352F0BB0F40F4BF2B11
:1042300011F460FF04C06F5F7F4F8F4F9F4F089551
:1042400057FD9058440F551F59F05F3F71F0479547
:10425000880F97FB991F61F09F3F79F0879508952C
:10426000121613061406551FF2CF4695F1DF08C04B
:10427000161617061806991FF1CF86957105610568
:1042800008940895E894BB2766277727CB0197F910
:104290000895A1E21A2EAA1BBB1BFD010DC0AA1F87
:1042A000BB1FEE1FFF1FA217B307E407F50720F09F
:1042B000A21BB30BE40BF50B661F771F881F991F1A
:1042C0001A9469F760957095809590959B01AC0163
:1042D000BD01CF01089512E0C2E1D2E000E005C0C7
:1042E000802FFE019BD92196011DC331D10780E0AB
:0842F0000807B1F7F894FFCFB5
:1042F800DEADBEEFFE0000004B06800001000000AE
:10430800270029002B002D002F003100170019006D
:104318001B001D001F0021002400220030002E0079
:1043280045004400430042002C002A0028002600D3
:1043380006000500030002000E000F001000110027
:1043480018001A001C001E00200000000000460A89
:10435800C309100AEE09020A8C0A00000000600B6B
:10436800600B600B600B600B600B600B600B600BED
:10437800600B600B600B600B600B600B600B000048
:104388000000600BC309600B600B600B600B000042
:104398000000600BC309000000000E111012450256
:1043A800C311EB110D1117036402D8024803AD02C3
:1043B800A712A5115D024D0249027B1300000000FF
:1043C800D30E00000000600B01005E000000577271
:1043D8006974696E6720746F2072656C617920005A
:1043E8002076616C756520007261696C007200202E
:1043F8006F6E00206F6666005261696C6475696E45
:104408006F20616464726573733A20000D0A006955
:10441800002031002030006366670070696E670015
:10442800706F6E670070726F63657373696E672073
:104438006F6E657769726500556E6B6E6F776E206B
:104448003177697265206465766963650020317724
:104458006972652000544F444F207265706561741D
:10446800656420696E70757473007261696C2A00E6
:020000023000CC
:10E000000D9489F10D94B2F10D94B2F10D94B2F129
:10E010000D94B2F10D94B2F10D94B2F10D94B2F1F0
:10E020000D94B2F10D94B2F10D94B2F10D94B2F1E0
:10E030000D94B2F10D94B2F10D94B2F10D94B2F1D0
:10E040000D94B2F10D94B2F10D94B2F10D94B2F1C0
:10E050000D94B2F10D94B2F10D94B2F10D94B2F1B0
:10E060000D94B2F10D94B2F10D94B2F10D94B2F1A0
:10E070000D94B2F10D94B2F10D94B2F10D94B2F190
:10E080000D94B2F10D94B2F10D94B2F10D94B2F180
:10E090000D94B2F10D94B2F10D94B2F10D94B2F170
:10E0A0000D94B2F10D94B2F10D94B2F10D94B2F160
:10E0B0000D94B2F10D94B2F10D94B2F10D94B2F150
:10E0C0000D94B2F10D94B2F10D94B2F10D94B2F140
:10E0D0000D94B2F10D94B2F10D94B2F10D94B2F130
:10E0E0000D94B2F141546D656761323536300041AF
:10E0F000726475696E6F206578706C6F72657220DE
:10E1000073746B3530305632206279204D4C530099
:10E11000426F6F746C6F616465723E004875683F52
:10E1200000436F6D70696C6564206F6E203D200048
:10E130004350552054797065202020203D20005FF9
:10E140005F4156525F415243485F5F3D2000415658
:10E1500052204C696243205665723D20004743437C
:10E160002056657273696F6E203D20004350552024
:10E1700049442020202020203D20004C6F7720663D
:10E18000757365202020203D20004869676820665F
:10E190007573652020203D200045787420667573D6
:10E1A00065202020203D20004C6F636B2066757336
:10E1B000652020203D20004D617220203720323024
:10E1C000313300312E362E3800342E332E350056A2
:10E1D00023202020414444522020206F7020636F70
:10E1E00064652020202020696E73747275637469E1
:10E1F0006F6E2061646472202020496E74657272B3
:10E20000757074006E6F20766563746F7200726A49
:10E210006D702020006A6D70200057686174207056
:10E220006F72743A00506F7274206E6F7420737541
:10E2300070706F72746564004D7573742062652030
:10E2400061206C6574746572002000577269747483
:10E25000696E672045450052656164696E672045B7
:10E26000450045452065727220636E743D00504F35
:10E27000525400303D5A65726F2061646472003FF1
:10E280003D43505520737461747300403D454550C3
:10E29000524F4D207465737400423D426C696E6B41
:10E2A000204C454400453D44756D70204545505215
:10E2B0004F4D00463D44756D7020464C415348001B
:10E2C000483D48656C70004C3D4C69737420492F83
:10E2D0004F20506F72747300513D51756974005234
:10E2E0003D44756D702052414D00563D73686F7707
:10E2F00020696E7465727275707420566563746FF0
:10E30000727300593D506F727420626C696E6B00BD
:10E310002A0011241FBECFEFD1E2DEBFCDBF01E046
:10E320000CBF12E0A0E0B2E0EEE1FDEF03E00BBFB6
:10E3300002C007900D92A030B107D9F712E0A0E01B
:10E34000B2E001C01D92AE30B107E1F70F9460F367
:10E350000D948DFE01E20EBF0FEF0DBF11241FBE05
:10E360000D9460F30D9400F020E030E040ED57E0B4
:10E3700005C0FA013197F1F72F5F3F4F2817390792
:10E38000C0F308959C01260F311DC901A0E0B0E043
:10E390002F5F3F4FABBFFC018791882361F08093D3
:10E3A000C6008091C00086FFFCCF8091C0008064D1
:10E3B0008093C000EACF08958DE08093C6008091DD
:10E3C000C00086FFFCCF8091C00080648093C000B5
:10E3D0008AE08093C6008091C00086FFFCCF8091C8
:10E3E000C00080648093C00008950F94C2F10F9420
:10E3F000DCF10895FC019081992359F09093C600B7
:10E400008091C00086FFFCCF8091C0008064809323
:10E41000C0003196992379F70895282F982F929567
:10E420009F70892F805D8A3308F0895F8093C600D2
:10E430008091C00086FFFCCF8091C00080648093F3
:10E44000C000822F8F70982F905D9A3308F0995FEB
:10E450009093C6008091C00086FFFCCF8091C000E1
:10E4600080648093C00008959C01FB01853691056E
:10E470001CF46330710594F0C90164E670E00F94F8
:10E480002EFE605D7F4F6093C6008091C00086FFC6
:10E49000FCCF8091C00080648093C0002B30310598
:10E4A00014F43297B4F0C90164E670E00F942EFEC4
:10E4B0006AE070E00F942EFE605D7F4F6093C600AF
:10E4C0008091C00086FFFCCF8091C0008064809363
:10E4D000C000C9016AE070E00F942EFEC0968093E0
:10E4E000C6008091C00086FFFCCF8091C000806490
:10E4F0008093C00008951F93182F8EE692EE60E07F
:10E500000F94C2F11093C6008091C00086FFFCCF2B
:10E510008091C00080648093C0000F94DCF11F9153
:10E5200008952F923F924F925F926F927F928F92B7
:10E530009F92AF92BF92CF92DF92EF92FF920F9392
:10E540001F93DF93CF93CDB7DEB762970FB6F894E2
:10E55000DEBF0FBECDBF382E622ECA01DB015C01CB
:10E560006D01772420E2222E2E010894411C511CBB
:10E570008BC081E0A81680E0B80681E0C80680E084
:10E58000D80628F0C601AA27BB270F940DF2BB2797
:10E59000AD2D9C2D8B2D0F940DF28A2D0F940DF225
:10E5A0002092C6008091C00086FFFCCF8091C00001
:10E5B00080648093C0009DE29093C6008091C0006B
:10E5C00086FFFCCF8091C00080648093C0002092C1
:10E5D000C6008091C00086FFFCCF8091C00080649F
:10E5E0008093C00019828601750188249924A1E0D6
:10E5F0003A1651F03A1620F0B2E03B1661F409C029
:10E600000BBFF701779007C0C7010F9477FE782EF4
:10E6100002C0F7017080872D0F940DF22092C60082
:10E620008091C00086FFFCCF8091C0008064809301
:10E63000C000872D8052F401EF70F0708F3520F408
:10E64000E40DF51D708204C0E40DF51D8EE280839B
:10E650000894E11CF11C011D111D0894811C911CE2
:10E6600090E18916910409F0C2CF80E190E0A0E02A
:10E67000B0E0A80EB91ECA1EDB1E198AC2010F9493
:10E68000FAF10F94DCF16A94662009F072CF629679
:10E690000FB6F894DEBF0FBECDBFCF91DF911F91B3
:10E6A0000F91FF90EF90DF90CF90BF90AF909F9031
:10E6B0008F907F906F905F904F903F902F90089534
:10E6C0002F923F924F925F926F927F928F929F9282
:10E6D000AF92BF92CF92DF92EF92FF920F931F9370
:10E6E000DF93CF93CDB7DEB7CD53D1400FB6F894BB
:10E6F000DEBF0FBECDBF01E20EBF0FEF0DBF94B75F
:10E70000F894A89514BE80916000886180936000A1
:10E7100010926000789493FF05C0E0910002F091A0
:10E7200001021995279A2F9A8091C00082608093E8
:10E73000C00080E18093C40088E18093C1000000A4
:10E74000EE24FF24870144E0A42EB12CCC24DD2448
:10E7500024C0C5010197F1F70894E11CF11C011DCB
:10E76000111D21E2E2162EE4F20620E0020720E06D
:10E77000120718F031E0C32ED12CC801B70127ECE5
:10E780003BE140E050E00F9441FE611571058105C9
:10E79000910519F485B1805885B98091C00087FD35
:10E7A00003C0C114D104A9F2A6014F5F5F4FC25E3E
:10E7B000DE4F59834883CE51D140C25EDE4F8881FF
:10E7C0009981CE51D140019711F00D9410FEC05D9A
:10E7D000DE4F19821882C053D14060E0C15DDE4F28
:10E7E0001882CF52D14088249924C35DDE4F19820C
:10E7F0001882CD52D140C05EDE4F188219821A8233
:10E800001B82C052D140CE5CDE4F188219821A8220
:10E810001B82C253D140EE24FF2487010BBFF701B6
:10E8200007911691C45CDE4F19830883CC53D14005
:10E830000D940BFEC25EDE4F28813981CE51D1404E
:10E840002130310509F52091C600C25EDE4F1982E4
:10E850001882CE51D14022C02F5F3F4F4F4F5F4FA4
:10E86000213082E138078AE7480780E0580780F0C6
:10E87000C45CDE4FE881F981CC53D140EF5FFF4F9C
:10E8800019F0EE27FF27099420E030E040E050E047
:10E890008091C00087FFE0CF2091C600C35DDE4FAE
:10E8A00048815981CD52D1404F5F5F4FC35DDE4FEC
:10E8B00059834883CD52D140213209F063C64A3092
:10E8C000510508F05FC60894811C911C53E0851621
:10E8D000910409F059C600E010E018C081E280936D
:10E8E000C6008091C00086FFFCCF8091C00080648C
:10E8F0008093C0002F5F3F4F2931310579F70F9486
:10E90000DCF10F5F1F4F0530110519F020E030E0FA
:10E91000E5CF10920A0210920B0210920C02109294
:10E920000D02109206021092070210920802109235
:10E930000902109202021092030210920402109235
:10E9400005028FEE90EE60E00F94F5F180E191EE1C
:10E9500060E00F94C2F18091C00087FFFCCF9091DE
:10E96000C600903608F09F759032B8F09093C600BC
:10E970008091C00086FFFCCF8091C00080648093AE
:10E98000C000A0E2A093C6008091C00086FFFCCF2B
:10E990008091C00080648093C000983409F4D7C18E
:10E9A0009934B8F4923409F459C1933458F490333B
:10E9B00019F1903308F4E3C59F33A1F1903409F0C5
:10E9C000DEC5BDC0953409F470C1963409F0D7C5D1
:10E9D00098C1923509F42BC2933538F49C3409F46C
:10E9E000F5C1913509F0CBC518C2963509F445C279
:10E9F000993509F0C4C567C483E792EE62E00F94CD
:10EA0000F5F110920602109207021092080210927D
:10EA1000090210920A0210920B0210920C0210923C
:10EA20000D0213C18FE792EE62E00F94F5F18FEEC5
:10EA300090EE60E00F94F5F181E291EE60E00F94CA
:10EA4000C2F187EB91EE60E00F94F5F180E391EE77
:10EA500060E00F94C2F184EE90EE60E00F94F5F167
:10EA60008FE391EE60E00F94C2F186E090E061E008
:10EA700070E00F9434F20F94DCF18DE591EE60E0DC
:10EA80000F94C2F189EC91EE60E00F94F5F18EE401
:10EA900091EE60E00F94C2F183EC91EE60E00F9490
:10EAA000F5F18CE691EE60E00F94C2F18EE10F94E7
:10EAB0000DF288E90F940DF281E00F940DF20F949E
:10EAC000DCF18BE791EE60E00F94C2F119E0E0E039
:10EAD000F0E010935700E4918E2F0F940DF20F94F5
:10EAE000DCF18AE891EE60E00F94C2F1E3E0F0E03F
:10EAF00010935700E4918E2F0F940DF20F94DCF1D8
:10EB000089E991EE60E00F94C2F1E2E0F0E0109349
:10EB10005700E4918E2F0F940DF20F94DCF188EAE8
:10EB200091EE60E00F94C2F1E1E0F0E01093570045
:10EB30001491812F0F940DF20F94DCF107CF8BE825
:10EB400092EE62E00F94F5F18BE492EE60E00F94A8
:10EB5000F5F10F94DCF100E010E019C0C8016F2D51
:10EB60000F947FFEFF2031F489E492EE60E00F9471
:10EB7000C2F10BC0F092C6008091C00086FFFCCFAE
:10EB80008091C00080648093C0000F5F1F4FC80158
:10EB900081519F41A0E0B0E0ABBFFC01F790BAE229
:10EBA000FB1621F0E2E000301E07C1F60F94DCF105
:10EBB0000F94DCF187E592EE60E00F94F5F10F948D
:10EBC000DCF1CC24DD2400E010E01EC0C8010F946D
:10EBD00077FEF82E882331F489E492EE60E00F94FA
:10EBE000C2F10BC08093C6008091C00086FFFCCFAD
:10EBF0008091C00080648093C000FE1419F00894D6
:10EC0000C11CD11C0F5F1F4FC80181519F41A0E063
:10EC1000B0E0ABBFFC01E790FAE2EF1621F022E092
:10EC20000030120799F60F94DCF10F94DCF182E6C4
:10EC300092EE60E00F94C2F1C60161E070E00F94C3
:10EC400034F20F94DCF10F94DCF110920202109276
:10EC50000302109204021092050278CE89E992EE26
:10EC600062E00F94F5F1279A2F9A16C02F9880E052
:10EC700090E0E0EDF7E03197F1F7019684369105E9
:10EC8000C1F72F9A80E090E0E0EDF7E03197F1F7DF
:10EC9000019684369105C1F78091C00087FFE6CFC9
:10ECA0008091C00087FFFCCF64C485EA92EE62E0E9
:10ECB0000F94F5F140910202509103026091040219
:10ECC0007091050281E020E10F9491F2809102029F
:10ECD00090910302A0910402B091050280509F4FD1
:10ECE000AF4FBF4F8093020290930302A0930402A0
:10ECF000B093050280509041A040B04008F426CE69
:10ED0000A4CF83EB92EE62E00F94F5F140910602FE
:10ED100050910702609108027091090280E020E1A1
:10ED20000F9491F28091060290910702A09108023F
:10ED3000B091090280509F4FAF4FBF4F80930602A2
:10ED400090930702A0930802B0930902FFCD80ECD4
:10ED500092EE62E00F94F5F183E792EE60E00F949B
:10ED6000F5F18FE792EE60E00F94F5F18BE892EE0B
:10ED700060E00F94F5F189E992EE60E00F94F5F10F
:10ED800085EA92EE60E00F94F5F183EB92EE60E09D
:10ED90000F94F5F180EC92EE60E00F94F5F187ECC2
:10EDA00092EE60E00F94F5F188ED92EE60E00F9442
:10EDB000F5F18FED92EE60E00F94F5F18AEE92EEB0
:10EDC00060E00F94F5F183E093EEBDCD87EC92EE19
:10EDD00062E00F94F5F181E40F947BF282E40F94EA
:10EDE0007BF283E40F947BF284E40F947BF285E45E
:10EDF0000F947BF286E40F947BF287E40F947BF20E
:10EE000088E40F947BF28AE40F947BF28BE40F94F6
:10EE10007BF28CE40F947BF299CD88ED92EE62E068
:10EE20000F94F5F1772473948824992409C48FED05
:10EE300092EE62E00F94F5F140910A0250910B02BC
:10EE400060910C0270910D0282E020E10F9491F22A
:10EE500080910A0290910B02A0910C02B0910D02D8
:10EE600080509F4FAF4FBF4F80930A0290930B0289
:10EE7000A0930C02B0930D0269CD8AEE92EE62E08F
:10EE80000F94F5F184EE90EE60E00F94F5F18FECC5
:10EE900091EE60E00F94F5F1662477244301CC5D98
:10EEA000DE4F19821882C452D140D401C301B695F5
:10EEB000A79597958795CA5DDE4F88839983AA8326
:10EEC000BB83C652D140CC5DDE4FA881B981C4520C
:10EED000D1401196CC5DDE4FB983A883C452D14096
:10EEE000CD0162E070E00F9434F2B0E2B093C6005E
:10EEF0008091C00086FFFCCF8091C0008064809329
:10EF0000C000EDE2E093C6008091C00086FFFCCF18
:10EF10008091C00080648093C000F0E2F093C6004E
:10EF20008091C00086FFFCCF8091C00080648093F8
:10EF3000C000CA5DDE4FE880F9800A811B81C6529D
:10EF4000D140BB27A12F902F8F2D0F940DF2CA5DBA
:10EF5000DE4F8881C652D1400F940DF2B0E2FB2EF5
:10EF6000F092C6008091C00086FFFCCF8091C00067
:10EF700080648093C0000DE30093C6008091C000C0
:10EF800086FFFCCF8091C00080648093C00010E2B7
:10EF90001093C6008091C00086FFFCCF8091C00016
:10EFA00080648093C0008BBEF3012791C65DDE4F65
:10EFB0002883CA52D140A22EBB24CC24DD2408943D
:10EFC000611C711C811C911C8BBEF3018791282E42
:10EFD0003324442455240894611C711C811C911C09
:10EFE0008BBEF3013791C55DDE4F3883CB52D140E4
:10EFF0000894611C711C811C911C8BBEF30147910C
:10F00000C45DDE4F4883CC52D140ADEFEA2EAFEF66
:10F01000FA2EAFEF0A2FAFEF1A2F6E0C7F1C801E57
:10F02000911E142D032DF22CEE24EA0CFB1C0C1D5A
:10F030001D1D0F940DF220E22093C6008091C000A8
:10F0400086FFFCCF8091C00080648093C000C65DC5
:10F05000DE4F8881CA52D1400F940DF230E23093D6
:10F06000C6008091C00086FFFCCF8091C000806404
:10F070008093C000C45DDE4F8881CC52D1400F9494
:10F080000DF240E24093C6008091C00086FFFCCFA5
:10F090008091C00080648093C000C55DDE4F888190
:10F0A000CB52D1400F940DF250E25093C6008091A4
:10F0B000C00086FFFCCF8091C00080648093C000B8
:10F0C0008FEFE8168FEFF80680E0080780E018075A
:10F0D00031F484E092EE60E00F94C2F1DFC0D80119
:10F0E000C7018070907CA070B0708050904CA040A0
:10F0F000B040D1F52FEF3FE340E050E0E222F322B1
:10F1000004231523CA5DDE4FA880B980CA80DB8046
:10F11000C652D140AE0CBF1CC01ED11EAA0CBB1CD7
:10F12000CC1CDD1C8EE092EE60E00F94C2F1BB2798
:10F13000A12F902F8F2D0F940DF28E2D0F940DF285
:10F1400030E23093C6008091C00086FFFCCF8091F2
:10F15000C00080648093C0004EE34093C60080915D
:10F16000C00086FFFCCF87C08EE09EEFA0E0B0E03D
:10F17000E822F9220A231B239CE0E91694E9F90608
:10F1800090E0090790E0190709F088C0C45DDE4FE0
:10F19000A881CC52D140EA2EFF2400E010E0102FCD
:10F1A0000F2DFE2CEE24C55DDE4FB881CB52D14031
:10F1B000EB0EF11C011D111DD601C501817090706F
:10F1C000A070B070DC0199278827E80EF91E0A1F8D
:10F1D0001B1F20EF30E040E050E0A222B322C42207
:10F1E000D52241E1AA0CBB1CCC1CDD1C4A95D1F7F1
:10F1F000EA0CFB1C0C1D1D1D81E090E0A0E0B0E0BE
:10F20000282239224A225B2235E1220C331C441C7D
:10F21000551C3A95D1F7E20CF31C041D151D57013E
:10F220006801AA0CBB1CCC1CDD1C85E192EE60E0E1
:10F230000F94C2F1C801AA27BB270F940DF2BB2778
:10F24000A12F902F8F2D0F940DF28E2D0F940DF274
:10F2500090E29093C6008091C00086FFFCCF809121
:10F26000C00080648093C000AEE3A093C60080918C
:10F27000C00086FFFCCF8091C00080648093C000F6
:10F28000C601AA27BB270F940DF2BB27AD2D9C2DDD
:10F290008B2D0F940DF28A2D0F940DF20F94DCF14B
:10F2A000CC5DDE4FE881F981C452D140F99709F471
:10F2B0004DCBF4E0EF2EF12C012D112D6E0C7F1CA7
:10F2C000801E911EF2CD83E093EE62E00F94F5F183
:10F2D0008AE192EE60E00F94C2F18091C00087FF56
:10F2E000FCCF1091C6001F751093C6008091C0001E
:10F2F00086FFFCCF8091C00080648093C0000F9493
:10F30000DCF1812F81548A3108F036C1163409F4BA
:10F3100095C0173490F4133409F44EC0143430F40B
:10F320001134F1F0123409F01DC130C0143409F465
:10F3300059C0153409F016C16BC01A3409F4C4C0A1
:10F340001B3438F4173409F48FC0183409F00AC19B
:10F35000A1C01B3409F4D2C01C3409F003C1E8C0B9
:10F360008FEF81B90DC082B1809582B980E090E0C5
:10F37000E0EDF7E03197F1F70196883C9105C1F790
:10F380008091C00087FFEFCF12B8EFC08FEF84B934
:10F390000DC085B1809585B980E090E0E0EDF7E0A3
:10F3A0003197F1F70196883C9105C1F78091C00033
:10F3B00087FFEFCF15B8D9C08FEF87B90DC088B1DF
:10F3C000809588B980E090E0E0EDF7E03197F1F7C3
:10F3D0000196883C9105C1F78091C00087FFEFCF6F
:10F3E00018B8C3C08FEF8AB90DC08BB180958BB9A7
:10F3F00080E090E0E0EDF7E03197F1F70196883C8E
:10F400009105C1F78091C00087FFEFCF1BB8ADC059
:10F410008FEF8DB90DC08EB180958EB980E090E0F0
:10F42000E0EDF7E03197F1F70196883C9105C1F7DF
:10F430008091C00087FFEFCF1EB897C08FEF80BBD1
:10F440000DC081B3809581BB80E090E0E0EDF7E0F6
:10F450003197F1F70196883C9105C1F78091C00082
:10F4600087FFEFCF11BA81C08FEF83BB0DC084B38C
:10F47000809584BB80E090E0E0EDF7E03197F1F714
:10F480000196883C9105C1F78091C00087FFEFCFBE
:10F4900014BA6BC08FEF809301010FC080910201FD
:10F4A00080958093020180E090E0E0EDF7E03197F5
:10F4B000F1F70196883C9105C1F78091C00087FF64
:10F4C000EDCF1092020151C08FEF809304010FC065
:10F4D0008091050180958093050180E090E0E0ED4A
:10F4E000F7E03197F1F70196883C9105C1F78091DB
:10F4F000C00087FFEDCF1092050137C08FEF8093DA
:10F5000007010FC08091080180958093080180E079
:10F5100090E0E0EDF7E03197F1F70196883C910536
:10F52000C1F78091C00087FFEDCF109208011DC088
:10F530008FEF80930A010FC080910B01809580931B
:10F540000B0180E090E0E0EDF7E03197F1F70196F4
:10F55000883C9105C1F78091C00087FFEDCF1092E4
:10F560000B0103C085E292EEEEC98091C00087FFD7
:10F57000FCCF8091C600EAC988E392EEE4C98CE131
:10F5800091EEE1C988249924933011F1943028F444
:10F59000913089F09230B8F408C0953061F195301F
:10F5A000F0F0963009F048C043C02B3109F042C951
:10F5B00091E06BE13FC96227C15DDE4F2883CF52E6
:10F5C000D14092E037C9B22FA0E0622793E032C960
:10F5D000822F90E0A82BB92B622794E02BC92E3004
:10F5E00009F039C3622795E0C05DDE4F19821882A9
:10F5F000C053D1401FC9E1E0F0E0EC0FFD1FC05D3A
:10F60000DE4F08811981C053D140E00FF11F2083E4
:10F610000F5F1F4FC05DDE4F19830883C053D14079
:10F6200062270A171B0709F005C9D80196E002C92D
:10F63000261709F010C303C0973009F0FBC87724E0
:10F640009981933109F412C19431C8F4963009F4C8
:10F65000D8C0973050F4923009F406C1933009F4C1
