:1000000024C2000053C2000051C200004FC20000D1
:100010004DC200004BC2000049C2000047C20000B0
:1000200045C2000043C2000041C200003FC20000C0
:100030003DC200003BC2000039C2000037C20000D0
:1000400035C2000033C2000031C200002FC20000E0
:100050002DC200002BC2000029C200000C94B4087D
:1000600025C200000C94380F0C940F0F1FC2000023
:100070001DC200001BC2000019C2000017C2000010
:1000800015C2000013C2000011C200000FC2000020
:100090000C94E60E0C94BD0E09C2000007C20000CD
:1000A00005C2000003C2000001C20000FFC1000041
:1000B000FDC10000FBC10000F9C10000F7C1000054
:1000C000F5C10000F3C10000F1C10000EFC1000064
:1000D000EDC10000EBC10000E9C10000E7C1000074
:1000E000E5C10000801D851D8A1D961DA21D2F1EC5
:1000F000AE1DB61DBE1DCA1DD61DE21DF31DFF1D82
:100100002F1E0B1E171E231EF907FC07EB07EF0718
:10011000F5073308000804080A080E081208180832
:100120001C082008330826082A082E0800000A0B9D
:1001300002090C0D0E080703040100000000000076
:1001400000000000000000000000000000000000AF
:10015000000000000000000012111000000000006C
:10016000000000000000000000000000000000008F
:10017000000000002100240027002A002D0030008C
:10018000330001010000040107010A010000220000
:10019000250028002B002E00310034000201000051
:1001A000050108010B01005EBCE2613FDD83C29CDA
:1001B0007E20A3FD1F419DC3217FFCA2401E5F0145
:1001C000E3BD3E6082DC237D9FC1421CFEA0E1BFF7
:1001D0005D0380DE3C62BEE0025CDF81633D7C2229
:1001E000C09E1D43A1FF4618FAA427799BC584DA57
:1001F0003866E5BB5907DB856739BAE40658194705
:10020000A5FB7826C49A653BD987045AB8E6A7F9B6
:100210001B45C6987A24F8A6441A99C7257B3A64E8
:1002200086D85B05E7B98CD2306EEDB3510F4E1016
:10023000F2AC2F7193CD114FADF3702ECC92D38DC4
:100240006F31B2EC0E50AFF1134DCE90722C6D3376
:10025000D18F0C52B0EE326C8ED0530DEFB1F0AEA8
:100260004C1291CF2D73CA947628ABF517490856D6
:10027000B4EA6937D58B5709EBB536688AD495CB84
:100280002977F4AA4816E9B7550B88D6346A2B7536
:1002900097C94A14F6A8742AC896154BA9F7B6E868
:1002A0000A54D7896B35000020002300260029005E
:1002B0002C002F003200000100000301060109019B
:1002C00005050505070508080808020202020A0AD2
:1002D00008080404040401010101010101010303F0
:1002E000030303030303040707070C0C0C0C0C0C9B
:1002F0000C0C0202020206060606060606060B0B98
:100300000B0B0B0B0B0B01021020200808102040D8
:1003100010204080020102010804020101020408C9
:100320001020408080402010080402018004020157
:1003300080402010080402010804020101020408A0
:1003400010204080010204081020408000407A10F4
:10035000F35A00A0724E18090010A5D4E80000E876
:100360007648170000E40B54020000CA9A3B0000D4
:1003700000E1F505000080969800000040420F0063
:100380000000A08601000000102700000000E80324
:10039000000000006400000000000A0000000000EF
:1003A0000100000000002C76D888DC674F0823DFAE
:1003B000C1DFAE59E1B1B796E5E3E453C63AE65181
:1003C000997696E8E6C28426EB898C9B62ED407CA8
:1003D0006FFCEFBC9C9F40F2BAA56FA5F490055A44
:1003E0002AF75C936B6CF9676DC11BFCE0E40D4769
:1003F000FEF520E6B500D0ED902E0300943577058C
:100400000080841E080000204E0A000000C80C3343
:100410003333330F986E12831141EF8D2114893BD2
:10042000E65516CFFEE6DB18D1844B381BF77C1D52
:10043000901DA4BBE424203284725E228100C9F1A5
:1004400024ECA1E53D278D1E491E11241FBECFEFD0
:10045000D1E2DEBFCDBF00E00CBF13E0A0E0B2E010
:10046000E0EFFEE400E00BBF02C007900D92A43164
:10047000B107D9F727E0A4E1B3E001C01D92A93983
:10048000B207E1F712E0C4E2D2E000E006C0219733
:100490000109802FFE010E944E20C332D10780E067
:1004A0000807A9F70E9484130C946727A9CDFC01C3
:1004B000818D928D0895FC0184899589089522E8A3
:1004C00032E0FC0131832083FB014089518962893C
:1004D0007389FC0142835383648375830895DC012F
:1004E000ED91FC91008CF18DE02D1994CF93DF9369
:1004F000EC01888D843059F072D7E88DF0E0EE0F72
:10050000FF1FE853FB4F1182108284E0888FDF9138
:10051000CF9108950F931F93CF93DF931F92CDB781
:10052000DEB7282F30E02C5F3F4F322F2227890182
:10053000060F171F498364D680EF90D6812F8ED681
:10054000802F8CD64981842F89D658D681E00F9090
:10055000DF91CF911F910F9108950F931F93CF9328
:10056000DF931F92CDB7DEB790E00496982F8827CF
:100570008C01060F171F44D68FE070D6812F6ED6E0
:10058000802F6CD680E06AD6898338D689810F9017
:10059000DF91CF911F910F91089508958CBD9DBD5E
:1005A0000895EF92FF921F93CF93DF93FC01208D6C
:1005B000243011F080E01FC07B01EC0110E080E5E9
:1005C00090E0ECDF63E070E0812FC7DF811102C0B3
:1005D000188F05C08831E1F31F5F143081F7888DD3
:1005E000843041F3FD86EC861A8E198E20E0A70137
:1005F00062E006D781E0DF91CF911F91FF90EF90ED
:1006000008954F925F926F927F928F929F92AF92D6
:10061000BF92CF92DF92EF92FF920F931F93CF93EF
:10062000DF93CDB7DEB7EE970FB6F894DEBF0FBEFF
:10063000CDBF5C018B014A0182E892E09A838983F5
:100640001C861B8648EE53E060E070E04D875E87B5
:100650006F87788B2AEC32E03A872987988F8F8BC7
:10066000198E1A8E1B8E1C8E24E029A399AB88ABA1
:100670001AAA1BAA1CAA1DAA8091270690912806D7
:10068000A0912906B0912A068EA39FA3A8A7B9A777
:100690008B839C83AD83BE8318861F82F80120E084
:1006A00080E090E06AE03191332319F140ED430F8F
:1006B0004A3080F4689FA001699F500D1124CA013F
:1006C000C097830F911D37FD9A958F3F910559F380
:1006D00050F32BC03E3249F5233039F1A2E3B0E0AC
:1006E000AC0FBD1FA20FB11D8C932F5F80E090E077
:1006F000DACF2330D1F48DABD501ED91FC91008898
:10070000F189E02D82E892E09DA38CA38AA99BA9A0
:10071000ACA9BDA98EA39FA3A8A7B9A7A401BE0198
:100720006C5D7F4FC501199529C24B815C816D813C
:100730007E8180912F0690913006A0913106B09174
:100740003206481759076A077B0709F415C200D516
:100750006F7077277C5FCE01099623DF813009F027
:1007600008C282E892E09DA38CA38B819C81AD811D
:10077000BE818EA39FA3A8A7B9A745E350E0BE0101
:100780006C5D7F4FCE0109960E948710892B19F46A
:1007900000E010E07AC1DCD478876F837627672782
:1007A00076277DA36CA342E050E0BE016C5D7F4FD5
:1007B000CE0109960E94CA1081E090E09FAB8EABFB
:1007C00042E050E0BE016A5C7F4FCE0109960E9474
:1007D000CA1080E091E09FAB8EAB42E050E0BE01DA
:1007E0006A5C7F4FCE0109960E94CA101FAA1EAAFA
:1007F00042E050E0BE016A5C7F4FCE0109960E9444
:10080000CA1042E050E0BE016A5C7F4FCE010996FB
:100810000E94CA1042E050E0BE016A5C7F4FCE01E8
:1008200009960E94CA107801D7018C91882319F18A
:10083000F8017F018191811117C06701C01AD10AA7
:100840001C141D04A4F4C8AE41E050E0BE01685C75
:100850007F4FCE0109960E94CA10A601B801CE01B1
:1008600009960E94CA1003C08E3219F7E6CF87019D
:100870000F5F1F4FD9CF18AE41E050E0BE01685C5A
:100880007F4FCE0109960E94CA1000E011E01FAB15
:100890000EAB42E050E0BE016A5C7F4FCE0109968C
:1008A0000E94CA101FAB0EAB42E050E0BE016A5C72
:1008B0007F4FCE0109960E94CA10CE0109960E9470
:1008C0006111892B09F464CF63E0E62EF12C40D44A
:1008D0002B013C01CE0109960E941410181619062E
:1008E00094F036D4DC01CB0184199509A609B70927
:1008F00089389341A105B105C0F462E370E080E05E
:1009000090E0EED3E7CF4B815C816D817E81898D54
:100910009A8DAB8DBC8D481759076A077B0741F448
:100920008D8D9E8DC59721F406C02FEF3FEFA4C09B
:100930002EEF3FEFA1C08AA19BA10C970CF4B1C090
:100940004CE050E0BE016C5D7F4FCE0109960E94E5
:10095000CE0F8EA190E0982F88272FA1822B9BAFDE
:100960008AAF2CA130E0322F22274DA1242B4F81BA
:1009700058854217530709F091C097FF8FC08F70B9
:100980009270892B09F0F2C00AA510E0102F002701
:100990008BA5082B0115110509F4E5C0C12CD12C3C
:1009A00088A590E0982F882729A5822BC816D906FC
:1009B00008F47AC0C12CD12C41E050E0BE01645C47
:1009C0007F4FCE0109960E94CE0F8CAD982F907C60
:1009D00009F0A4C0811196C08CAD8111EDCF42E029
:1009E00050E0BE01685C7F4FCE0109960E94CE0F99
:1009F00042E050E0BE016A5C7F4FCE0109960E9442
:100A0000CE0FCE0109960E94EC0FCE0109960E94EE
:100A1000EC0FCE0109960E94EC0FCE0109960E94C0
:100A2000EC0F42E050E0BE01665C7F4FCE010996BC
:100A30000E94CE0F88AD99AD8115914009F074C028
:100A40002EA93FA93227232732272130310509F06B
:100A50006BC08AAD9BAD8115944009F081C044E024
:100A600050E0BE016E5C7F4FCE0109962DAF3EAFC8
:100A70000E94CE0F2DAD3EAD8901B1E0EB1AF10819
:100A800021F02F3F3F4F09F422CFCE0109962EDDF2
:100A90000130110509F430CEC80170C02CEF3FEFD2
:100AA000EBCF2DEF3FEFE8CF41E050E0BE016A5CB5
:100AB0007F4FCE0109960E94CE0F8EA9811117C0DB
:100AC0008EA98111F1CFCE0109960E94EC0FCE01C3
:100AD00009960E94EC0FCE0109960E94EC0FCE0100
:100AE00009960E94EC0FFFEFCF1ADF0A59CF8EA9AB
:100AF0009FEF980F9EAB882319F3CE0109960E94B1
:100B0000EC0FF5CF8CAD9FEF980F9CAF882309F4C5
:100B100063CFCE0109960E94EC0FF4CFCE01099667
:100B20000E94EC0F1CAE58CF612C712C8AAD9BAD8E
:100B30009827892798276816790640F4CE010996E8
:100B40000E94EC0F8FEF681A780AF0CFAFEFCA1A45
:100B5000DA0AC016D10609F02FCF26EF3FEF8CCF6F
:100B600027EF3FEF89CF2AEF3FEF86CF2BEF3FEF05
:100B700083CF80E090E002C08EEF9FEFEE960FB63D
:100B8000F894DEBF0FBECDBFDF91CF911F910F91C3
:100B9000FF90EF90DF90CF90BF90AF909F908F909D
:100BA0007F906F905F904F900895FC01908101803D
:100BB000F281E02DF8948181892B81832281892F14
:100BC000809528232283A7E0B0E01197F1F72181D7
:100BD00082238183A3E2B0E01197F1F780817894BA
:100BE000EFECF0E03197F1F7982381E009F480E031
:100BF0000895FC0190810180F281E02D892F80957C
:100C000060FF12C0F8942281822382838181892B24
:100C10008183A3E2B0E01197F1F78281982B928350
:100C2000789487ED90E011C0F8942281822382832A
:100C30008181892B8183AFEFB0E01197F1F7828139
:100C4000982B928378948FE090E00197F1F70895C4
:100C5000CF92DF92EF92FF920F931F93CF93DF9388
:100C60001F92CDB7DEB76C01E62E08E010E0FF243E
:100C7000F39461E08F2D8E2109F460E0C601498371
:100C8000B8DFFF0C0150110949810115110589F7E1
:100C9000411115C0F894D6011196ED91FC9112976F
:100CA00091818C918095892381831196ED91FC919E
:100CB000129792818C9180958923828378940F90EA
:100CC000DF91CF911F910F91FF90EF90DF90CF9028
:100CD0000895CF92DF92EF92FF920F931F93CF93DD
:100CE000DF931F92CDB7DEB78C01F62E40E065E5AD
:100CF0007983AEDFCF2C7981D72E760188E0E80E9C
:100D0000F11CF60161916F0140E0C801A1DFCE1432
:100D1000DF04B9F70F90DF91CF911F910F91FF90F2
:100D2000EF90DF90CF900895FC0190810180F281D7
:100D3000E02DF8948181292F209582238183789456
:100D40008DE743E050E0815021F1DA011197F1F78E
:100D500030813923C1F3F894828182238283818197
:100D6000892B81837894ABECB7E01197F1F7F89475
:100D7000818128232183ABE3B1E01197F1F78081D2
:100D8000982381E009F080E07894EBE8F6E0319771
:100D9000F1F708950F931F93CF93DF9300D000D006
:100DA000CDB7DEB78C0167E177E0CE01019685D73C
:100DB00063E277E0CE010196ADD66DEF72E093D697
:100DC000B801A8D6BC01C801CBD6CE01019616D772
:100DD00061E088E00E94890FB801CE0101966DD7CD
:100DE0006FEF72E0CE0101967ED6FC014481558101
:100DF000608171818BEE94E0BFD3CE010196FED667
:100E00006AE070E080E090E06BD160E088E00E94F2
:100E1000890F26960FB6F894DEBF0FBECDBFDF91C7
:100E2000CF911F910F910895CF92DF92EF92FF9291
:100E30000F931F93CF93DF93CDB7DEB72F970FB6E6
:100E4000F894DEBF0FBECDBF7C016B0160E073E0A4
:100E50003CD7860188E0C80ED11CF80181918F0132
:100E60001B861A861D861C861F861E8640E1BE01D3
:100E70006F5F7F4F90E00E949323BE016F5F7F4FB3
:100E8000CE010A9658D64E855F856A857B85C70157
:100E9000FDD5CE010A96B2D60C151D05F1F6C70197
:100EA0002F960FB6F894DEBF0FBECDBFDF91CF9166
:100EB0001F910F91FF90EF90DF90CF9008950F93C7
:100EC0001F93CF93DF93EC0143D1088119812A81CD
:100ED0003B81DC01CB01801B910BA20BB30B0C817E
:100EE0001D812E813F8180179107A207B30738F03B
:100EF0002FD1688379838A839B8381E001C080E05E
:100F0000DF91CF911F910F9108953FB7F894809191
:100F1000D7049091D804A091D904B091DA0426B5F1
:100F2000A89B05C02F3F19F00196A11DB11D3FBF21
:100F3000BA2FA92F982F8827820F911DA11DB11DAF
:100F4000BC01CD0142E0660F771F881F991F4A95AB
:100F5000D1F708950895FF920F931F93CF93DF93D6
:100F60001F92CDB7DEB7FC01218D328D232BE9F026
:100F7000F08C80E590E012DB68E270E08F2DEDDA16
:100F8000082F10E069E270E08F2DE7DA702F6627F6
:100F9000682B21E030E0AE014F5F5F4F8F2D0E9444
:100FA0003E13FBDA898190E002C08FEF9FEF0F9034
:100FB000DF91CF911F910F91FF90089590E0FC0178
:100FC0003197E231F10508F04EC08827EC57FF4F0A
:100FD0008F4F0C944E20809180008F7703C08091BA
:100FE00080008F7D80938000089580918000877FAE
:100FF000F9CF84B58F7702C084B58F7D84BD089505
:101000008091B0008F7703C08091B0008F7D809376
:10101000B0000895809190008F7707C08091900074
:101020008F7D03C080919000877F8093900008950A
:101030008091A0008F7707C08091A0008F7D03C0B2
:101040008091A000877F8093A00008958091200167
:101050008F7707C0809120018F7D03C08091200190
:10106000877F809320010895CF93DF9390E0FC0168
:10107000EA5FFC4F2491FC01E054FD4F84918823EA
:1010800061F190E0880F991FFC01EE58FE4FC59169
:10109000D491FC01E457FE4FA591B491611109C0B0
:1010A0009FB7F8948881209582238883EC912E2322
:1010B0000BC0623061F49FB7F8943881822F80951D
:1010C00083238883EC912E2B2C939FBF06C08FB770
:1010D000F894E8812E2B28838FBFDF91CF9108955C
:1010E0008F929F92AF92BF92CF92DF92EF92FF9238
:1010F0006B017C010ADF4B015C01C114D104E104E6
:10110000F104E9F002DFDC01CB0188199909AA0991
:10111000BB09883E9340A105B10578F321E0C21ACE
:10112000D108E108F10888EE880E83E0981EA11C22
:10113000B11CC114D104E104F10421F7DECFFF900A
:10114000EF90DF90CF90BF90AF909F908F900895D9
:101150002FB7F8946091D3047091D4048091D50492
:101160009091D6042FBF08951F920F920FB60F9241
:1011700011242F933F938F939F93AF93BF938091AD
:10118000D3049091D404A091D504B091D6043091A9
:10119000D20423E0230F2D3720F40196A11DB11DA9
:1011A00005C026E8230F0296A11DB11D2093D2048D
:1011B0008093D3049093D404A093D504B093D60421
:1011C0008091D7049091D804A091D904B091DA0409
:1011D0000196A11DB11D8093D7049093D804A093CC
:1011E000D904B093DA04BF91AF919F918F913F9151
:1011F0002F910F900FBE0F901F9018952C9A089565
:101200002C9808951F93CF93DF93182F66E270E018
:10121000A4D9C82FD0E067E270E0812F9ED9DC2FDF
:10122000CC279E01282BC901DF91CF911F910895F2
:101230001F93CF93DF93182F60E270E08ED9C82FF1
:10124000D0E061E270E0812F88D9DC2FCC279E01AD
:10125000282BC901DF91CF911F9108958EBD000009
:101260000DB407FEFDCF8EB50895CF92DF92EF92B9
:10127000FF920F931F93CF93DF93EC017A018B01C1
:101280006C01C40ED51ECC15DD0579F0B9DF8FE0F9
:10129000E5DF8D2FE3DF8C2FE1DF219680E0DEDFBD
:1012A000F80181938F01AADFEECFC701DF91CF91C3
:1012B0001F910F91FF90EF90DF90CF900895CF9204
:1012C000DF92EF92FF920F931F93CF93DF93EC0186
:1012D0007A018B016C01C40ED51ECC15DD0571F0B1
:1012E0008FDF80EFBBDF8D2FB9DF8C2FB7DF21962B
:1012F000F80181918F01B2DF81DFEFCFC701DF916C
:10130000CF911F910F91FF90EF90DF90CF900895B4
:10131000AF92BF92DF92EF92FF920F931F93CF9302
:10132000DF93D82E7B018A0180E590E037D9C0E0B9
:10133000D0E08D2D67DF5C01892B19F08D2D62DFE8
:10134000EC01CA15DB05A9F7209791F463E070E082
:101350008D2D03D98431B9F18823A9F1C1E0D0E002
:101360008C3111F4C0E0D0E0D195C195D1092BC0EA
:101370000C171D070CF4E8011C161D0624F568E285
:1013800070E08D2DEAD8082F10E069E270E08D2D15
:10139000E4D8102F0027082B9E01A701B8018D2D3E
:1013A0000E943E130C0F1D1F412F68E270E08D2D2F
:1013B000B1D8402F69E270E08D2DACD860E470E0C8
:1013C0008D2D0E942E13E9D8CE01DF91CF911F9170
:1013D0000F91FF90EF90DF90BF90AF900895CF9363
:1013E000C82F80E590E0DAD860E170E08C2F0E9491
:1013F0002E134FEF62E070E08C2F8CD8CF91CDC8C8
:10140000FF920F931F93CF93DF931F921F92CDB73D
:10141000DEB7F82E8A012A836983E1DF80E590E058
:10142000BDD82A816981462F422B60E070E08F2D64
:1014300071D80115110551F40091D0041091D10417
:101440000F5F1F4F1093D1040093D004412F64E02D
:1014500070E08F2D5FD8402F65E070E08F2D5AD857
:1014600061E070E08F2D0E942E1397D881E00F90DD
:101470000F90DF91CF911F910F91FF900895BF9230
:10148000CF92DF92EF92FF920F931F93CF93DF9350
:1014900000D000D0CDB7DEB7FC01208D243009F09C
:1014A00059C06A017B018C01B12C63E070E08B2D87
:1014B00054D8811103C0F801B08E06C08831D9F329
:1014C000B394F4E0BF12F1CFF801808D843009F4B9
:1014D00041C096E0E8E6F2E0DE01119601900D923F
:1014E0009A95E1F7F70193819F779C8394819D837F
:1014F00095819E83B7016E5F7F4F90E0982F88277C
:1015000044E050E0845F9B4FDADEF801F08C4D2D13
:1015100060E170E08F2D0E948A024C2D61E170E045
:101520008F2D0E948A02F801808D90E0982F8827E5
:1015300046E050E0BE016F5F7F4F8A5F9B4FBFDE8A
:10154000F801128E118E20E8A60162E0808D58DF2E
:1015500081E001C080E026960FB6F894DEBF0FBE92
:10156000CDBFDF91CF911F910F91FF90EF90DF9052
:10157000CF90BF9008950895CF92DF92EF92FF929F
:101580000F931F93CF93DF936C017A018B01C0E01F
:10159000D0E0CE15DF0589F0D8016D918D01D6011F
:1015A000ED91FC910190F081E02DC6011995892BF8
:1015B00011F47E0102C02196ECCFC701DF91CF91DB
:1015C0001F910F91FF90EF90DF90CF900895FC0155
:1015D000A089B1898C91A689B78982FD0FC09C91A1
:1015E000818D8F5F8F73228D821749F0218DDF01EE
:1015F000A20FB11D5D969C93818F08958C910895E3
:10160000FC01918D828D981761F0828DDF01A80F0A
:10161000B11D5D968C91928D9F5F9F73928F90E02C
:1016200008958FEF9FEF0895FC01918D828D98179B
:1016300031F0828DE80FF11D858D90E008958FEFD8
:101640009FEF0895FC01918D228D892F90E0805CA1
:101650009F4F821B91098F73992708958BEE94E019
:10166000F1DF21E0892B09F420E0822F089588E83A
:1016700095E0E8DF21E0892B09F420E0822F08952E
:10168000FC01848DDF01A80FB11DA35ABF4F2C911F
:10169000848D90E001968F739927848FA689B789EE
:1016A0002C93A089B1898C9180648C93938D848DC7
:1016B000981306C00288F389E02D80818F7D808396
:1016C0000895EF92FF920F931F93CF93DF93EC0156
:1016D00081E0888F9B8D8C8D981305C0E889F989EE
:1016E000808185FD23C0F62E0B8D10E00F5F1F4F0C
:1016F0000F731127E02E8C8DE8120BC00FB607FC7C
:10170000FACFE889F989808185FFF5CFCE01B8DF6E
:10171000F2CF8B8DFE01E80FF11DE35AFF4FF082EF
:101720000B8FEA89FB898081806207C0EE89FF897F
:101730006083E889F98980818064808381E090E01A
:10174000DF91CF911F910F91FF90EF900895CF936C
:10175000DF93EC01888D8823C1F0EA89FB898081C1
:1017600085FD05C0A889B9898C9186FD0EC00FB68C
:1017700007FCF5CF808185FFF2CFA889B9898C91CC
:1017800085FFEDCFCE017CDFE8CFDF91CF910895CB
:1017900080E090E0892B19F06ADF811120C080E0A1
:1017A00090E0892B19F05ADF81111CC080E090E095
:1017B000892B41F080E090E0892B21F00E9400000D
:1017C000811113C080E090E0892BA1F080E090E0CF
:1017D000892B81F00E94000081110AC008950E94A7
:1017E0000000DDCF0E940000E1CF0E940000EACFA0
:1017F0000C94000008950E94CF224F925F926F9246
:101800007F92EF92FF920F931F93CF93DF93CDB709
:10181000DEB7A1970FB6F894DEBF0FBECDBF7C0137
:10182000FA01CB0119A2223008F42AE08E010F5DE3
:101830001F4F422E512C612C712CBF01A30192012C
:101840000E944527F901CA01015011096A3014F4B8
:10185000605D01C0695CD8016C93232B242B252B80
:1018600061F70115110591F0F80101900020E9F7E9
:101870003197AF01401B510BD701ED91FC910280D4
:10188000F381E02DB801C701199502C080E090E016
:10189000A1960FB6F894DEBF0FBECDBFDF91CF91FA
:1018A0001F910F91FF90EF907F906F905F904F90FE
:1018B0000895CF93DF93EC0188819981009711F00F
:1018C0000E945321198218821D821C821B821A8257
:1018D000DF91CF9108950F931F93CF93DF93EC0186
:1018E00088819981009729F02A813B812617370743
:1018F00088F48B016F5F7F4F0E94EB21009761F0AE
:10190000998388831B830A832C813D81232B11F4C7
:10191000FC01108281E001C080E0DF91CF911F9136
:101920000F910895EF92FF920F931F93CF93DF9340
:10193000EC017B018A01BA01CEDF811103C0CE0127
:10194000B8DF07C01D830C83B701888199810E948D
:10195000F622CE01DF91CF911F910F91FF90EF9072
:1019600008958F929F92AF92BF92CF92DF92EF92A3
:10197000FF920F931F93CF93DF937C01EB016C01D8
:1019800082E0C80ED11C4701E5E08E0E911C00E0FC
:1019900010E0F60141916F0150E060E070E02AE054
:1019A000CE012BDF5C01E881F9810190F081E02D0F
:1019B0006EE2CE0119958A0D9B1D080F191FC814E0
:1019C000D90439F7F701458150E060E070E02AE082
:1019D000CE0113DF800F911FDF91CF911F910F91E7
:1019E000FF90EF90DF90CF90BF90AF909F908F903F
:1019F0000895FB0144815581FC0124813581241720
:101A0000350778F080819181009759F0FB01608162
:101A100071816115710529F00E94FD2221E0892B59
:101A200009F020E0822F0895FC0124813581FB011B
:101A3000448155812417350721F5FC01808191816E
:101A4000FB0160817181009719F061157105A1F4A6
:101A50006115710549F0232BB1F0FB01808190E005
:101A60009195819591090AC0009769F0232B59F04F
:101A7000FC01808190E002C00E94ED2221E0892BD0
:101A800019F020E001C021E0822F0895EF92FF922B
:101A90000F931F93CF93DF93FC0124813581611550
:101AA000710511F480E018C041155105A1F07B01CA
:101AB000EC018A01020F131FB8010DDF882391F397
:101AC000288139818C819D81B701820F931F0E94EB
:101AD000F6221D830C8381E0DF91CF911F910F913E
:101AE000FF90EF900895CF93DF93EC01611571059E
:101AF00059F0FB0101900020E9F73197AF01461B37
:101B0000570BC4DF811102C0CE01D3DECE01DF91BD
:101B1000CF910895CF93DF93EC01FB014481558170
:101B200060817181B3DF811102C0CE01C2DECE01BE
:101B3000DF91CF910895CF93DF93EC01611571058B
:101B400051F0FB0101900020E9F73197AF01461BEE
:101B5000570BE8DE01C0ADDECE01DF91CF910895D5
:101B6000CF93DF93EC01FB018617970751F060815B
:101B700071816115710521F044815581D3DE01C069
:101B800098DECE01DF91CF9108950F931F93CF93ED
:101B9000DF938C01EB01FC01808191810097B1F012
:101BA000688179816115710579F0428153812C81B9
:101BB0003D814217530740F00E94F6228C819D819F
:101BC000F8019583848313C00E94532188819981F1
:101BD000F801918380838A819B81938382838C81A6
:101BE0009D8195838483198218821B821A821D82AB
:101BF0001C82DF91CF911F910F910895FC0180818C
:101C000091810C945321EF92FF920F931F93CF93E6
:101C1000DF93CDB7DEB7A1970FB6F894DEBF0FBE46
:101C2000CDBF7C01CB01BA01F70111821082138272
:101C300012821582148242E0420F8E010F5F1F4F05
:101C40000E942523BC01C70176DFA1960FB6F89448
:101C5000DEBF0FBECDBFDF91CF911F910F91FF90DF
:101C6000EF9008950F931F93CF93DF93CDB7DEB717
:101C700062970FB6F894DEBF0FBECDBF8C01CB01CB
:101C8000F80111821082138212821582148250E0B0
:101C9000BE016F5F7F4F0E946A23BE016F5F7F4F5F
:101CA000C80149DF62960FB6F894DEBF0FBECDBF04
:101CB000DF91CF911F910F910895FC011182108245
:101CC00013821282158214824BCFFC011182108282
:101CD00013821282158214826115710549F0FB018D
:101CE00001900020E9F73197AF01461B570B1ACE40
:101CF0000895BF92CF92DF92EF92FF920F931F93BE
:101D0000CF93DF937C016B018A01E901241735072A
:101D100020F4812F8901C42FD82F60E073E0C70120
:101D2000D4DFD60114968D919C9115970817190749
:101D3000C8F48C179D0708F4EC01D601ED91FC91D5
:101D40001197EC0FFD1FB08010824D915C91BA018C
:101D5000600F711FC701EFDED601ED91FC91EC0F12
:101D6000FD1FB082C701DF91CF911F910F91FF90AE
:101D7000EF90DF90CF90BF9008951F920F920FB613
:101D80000F9211240BB60F922F933F934F935F93B3
:101D90006F937F938F939F93AF93BF93EF93FF9333
:101DA0008BEE94E06DDCFF91EF91BF91AF919F912D
:101DB0008F917F916F915F914F913F912F910F90F4
:101DC0000BBE0F900FBE0F901F9018951F920F9291
:101DD0000FB60F9211240BB60F922F933F934F9390
:101DE0005F936F937F938F939F93AF93BF93EF9383
:101DF000FF938BEE94E0EBDBFF91EF91BF91AF91FE
:101E00009F918F917F916F915F914F913F912F9112
:101E10000F900BBE0F900FBE0F901F9018951F9242
:101E20000F920FB60F9211240BB60F922F933F9380
:101E30004F935F936F937F938F939F93AF93BF93D2
:101E4000EF93FF9388E895E01BDCFF91EF91BF9142
:101E5000AF919F918F917F916F915F914F913F9142
:101E60002F910F900BBE0F900FBE0F901F901895E3
:101E70001F920F920FB60F9211240BB60F922F9351
:101E80003F934F935F936F937F938F939F93AF9302
:101E9000BF93EF93FF9388E895E099DBFF91EF9173
:101EA000BF91AF919F918F917F916F915F914F9172
:101EB0003F912F910F900BBE0F900FBE0F901F9070
:101EC0001895CF93DF93282F30E0F901E45DFE4FA2
:101ED0008491F901EA5FFC4FD491F901E054FD4F80
:101EE000C491CC2389F0811169D8EC2FF0E0EE0F7A
:101EF000FF1FEA55FD4FA591B491EC91ED2381E0D0
:101F000090E021F480E002C080E090E0DF91CF918A
:101F100008951F93CF93DF93282F30E0F901E45DFC
:101F2000FE4F8491F901EA5FFC4FD491F901E0542E
:101F3000FD4FC491CC23C1F0162F81113FD8EC2F57
:101F4000F0E0EE0FFF1FE457FE4FA591B4918FB75D
:101F5000F894111105C09C91ED2FE095E92302C082
:101F6000EC91ED2BEC938FBFDF91CF911F910895F2
:101F7000CF93DF931F92CDB7DEB76983DC01ED917C
:101F8000FC910280F381E02D41E050E0BE016F5FE3
:101F90007F4F19950F90DF91CF910895CF93DF93E5
:101FA000FC01218D328D2115310519F48FEF9FEF42
:101FB00010C0EC014217530708F0A901888DA8D979
:101FC000181619069CF7298D3A8D281B390B3A8F64
:101FD000298FDF91CF9108950F931F93CF93DF93B4
:101FE0001F92CDB7DEB7FC01218D328D232B59F026
:101FF0008C0141E050E0BE016F5F7F4F808D88D93A
:10200000181619061CF08FEF9FEF08C0F801818D9C
:10201000928D0197928F818F898190E00F90DF914F
:10202000CF911F910F910895BF92CF92DF92EF92BF
:10203000FF920F931F93CF93DF93CDB7DEB728970F
:102040000FB6F894DEBF0FBECDBF8C01F801818DB5
:10205000928D892B49F0D801ED91FC910680F78192
:10206000E02DC8011995F2CFB08C80E590E00E9478
:10207000CE02E12CF12C8B2DC5D86C01892B19F0E7
:102080008B2DC0D87C01EC14FD04A9F70E94CD0271
:102090001E141F0454F548E050E0BE016F5F7F4FEF
:1020A000D80158968C9134D99C0118161906DCF485
:1020B00089819A81AB81BC81F801808B918BA28B45
:1020C000B38B8D8190E0982F88272E81820F911DF0
:1020D000958B848B2F8130E0322F22278885280F23
:1020E000311D328F218FC90102C080E090E0289617
:1020F0000FB6F894DEBF0FBECDBFDF91CF911F9119
:102100000F91FF90EF90DF90CF90BF900895EF92E6
:10211000FF921F93CF93DF93EB017A01FC01178AA3
:10212000168A108D8A81811109C08B81811106C0A8
:102130008C81811103C08D81882321F1E114F10488
:1021400009F180E590E00E94CE02BE016E5F7F4FF4
:10215000812F90E0982F882744E050E0845F9B4FC8
:10216000AED84F2D60E170E0812F0E948A024E2D83
:1021700061E170E0812F0E948A020E94CD0281E01D
:1021800090E002C080E090E0DF91CF911F91FF903E
:10219000EF9008957F928F929F92AF92BF92CF92CD
:1021A000DF92EF92FF920F931F93CF93DF935C0127
:1021B0004B016A01FC0106891789708C80E590E06B
:1021C0000E94CE02C0E0D0E0872D32D87C01892B5E
:1021D00019F0872D2DD8EC01CE15DF05A9F7CC1508
:1021E000DD0568F4C0E0D0E0872D22D86C01892B92
:1021F00019F0872D1DD8EC01CC15DD05A9F764E297
:1022000070E0872D0E94AD02E82EF12C65E270E0AF
:10221000872D0E94AD02FE2CEE24E82AE701C00FB4
:10222000D11F9E013770E72CF12CC701880F991F31
:10223000AC0145525B4F7A01FA0180819181820F96
:10224000931FA9014C0D5D1D4130584088F000E0FE
:1022500018E0021B130BA801B40131D8A601401BE2
:10226000510BB401600F711FF7018081918102C091
:10227000A601B40124D8CC0DDD1D4D2F64E270E021
:10228000872D0E948A024C2F65E270E0872D0E9404
:102290008A020E94CD02F501868997898C0D9D1DC9
:1022A000978B868BC601DF91CF911F910F91FF9085
:1022B000EF90DF90CF90BF90AF909F908F907F90E6
:1022C0000895CF93FC01C08D80E590E00E94CE027E
:1022D00060E270E08C2FC2D162E070E08C2F0E942F
:1022E000AD0284FD19C062E070E08C2F0E94AD0247
:1022F00083FF0BC048E162E070E08C2F0E948A02ED
:102300000E94CD0280E090E011C00E94CD0280E5E5
:1023100090E00E94CE02E0CF40E162E070E08C2FBE
:102320000E948A020E94CD0281E090E0CF91089540
:102330000F931F930E94A8086093F3047093F40412
:102340008093F5049093F604E091EB04F091EC0493
:102350000680F781E02D8BEE94E0199597FF1FC062
:102360000E94A8080091F3041091F4042091F50450
:102370003091F604DC01CB01801B910BA20BB30B57
:102380000091EF041091F0042091F1043091F204D7
:1023900080179107A207B307B8F28FEF9FEF1F9145
:1023A0000F9108956F927F928F929F92AF92BF92FA
:1023B000CF92DF92EF92FF920F931F93CF93DF9311
:1023C000EC01709336066093350680913306909148
:1023D00034060E949406609135067091360680910D
:1023E0003306909134060E94690640E068EB8091C4
:1023F0003306909134060E94280640E060E0809108
:102400003306909134060E942806809133069091FD
:1024100034060E94940660913506709136068091CC
:102420003306909134060E94690640E06EEB80917D
:102430003306909134060E94280640E060E08091C7
:102440003306909134060E9428067E014E0189E0F1
:10245000880E911C8E01609033067090340688E0DF
:10246000A82EB12CCC24C394D12CC3010E94D50535
:102470008111DC28CC0CA1E0AA1AB108B1F7F8014F
:10248000D1928F01E815F90531F789E0E0E081503C
:1024900049F0D7019D917D01E927F0E0EA55FE4F13
:1024A000E491F5CF81E09885E91380E0DF91CF9149
:1024B0001F910F91FF90EF90DF90CF90BF90AF9062
:1024C0009F908F907F906F900895CF93C82F8091A9
:1024D0003306909134060E949406609135067091FF
:1024E000360680913306909134060E946906CC230B
:1024F000F1F040E064E480913306909134060E944C
:1025000028066AE070E080E090E00E947008809108
:102510003306909134060E949406609135067091BE
:10252000360680913306909134060E94690640E099
:1025300064EB80913306909134060E94280668E08F
:1025400070E080E090E00E94700881E0CF910895F3
:10255000CF92DF92FF920F931F93CF93DF93CDB76C
:10256000DEB729970FB6F894DEBF0FBECDBF8C0142
:102570007093360660933506CE01019613DFF82E70
:10258000882309F45CC099810130110511F4986029
:1025900001C0977F998380913306909134060E9401
:1025A00094066091350670913606809133069091BD
:1025B00034060E94690640E06EE4809133069091F3
:1025C00034060E94280640E060E080913306909136
:1025D00034060E9428068E010F5F1F4F6E0189E0AE
:1025E000C80ED11CF80161918F0140E08091330643
:1025F000909134060E9428060C151D0599F78091CC
:102600003306909134060E949406609135067091CD
:10261000360680913306909134060E94690640E0A8
:1026200068E480913306909134060E94280640E0C9
:1026300060E080913306909134060E9428068F2D29
:1026400029960FB6F894DEBF0FBECDBFDF91CF91B4
:102650001F910F91FF90DF90CF900895CF93C82FD7
:10266000462F61E070E00E948A0261E070E08C2FEA
:102670000E94AD028111F9CFCF910895AF92BF9220
:10268000CF92DF92EF92FF920F931F93CF93DF933E
:102690001F921F92CDB7DEB77A836983BA01A90171
:1026A000E981FA81F770082F10E0000F111F0D511A
:1026B0001B4FD8018D919C918E0F9F1F2E0F3F1F96
:1026C0002130384098F07A015B0120E038E0690160
:1026D000CE1ADF0AA6010E943509A7014C195D092F
:1026E000B5016C0D7D1DF801808191810F900F90D7
:1026F000DF91CF911F910F91FF90EF90DF90CF90DE
:10270000BF90AF900C943509CF93DF93CDB7DEB770
:10271000CA56D1090FB6F894DEBF0FBECDBF78946C
:1027200084B5826084BD84B5816084BD85B58260D6
:1027300085BD85B5816085BD80916E008160809387
:102740006E001092810080918100826080938100F0
:102750008091810081608093810080918000816000
:10276000809380008091B10084608093B10080915B
:10277000B00081608093B00080919100826080936E
:1027800091008091910081608093910080919000F0
:102790008160809390008091A10082608093A1006D
:1027A0008091A10081608093A1008091A000816050
:1027B0008093A0008091210182608093210180910B
:1027C00021018160809321018091200181608093AB
:1027D000200180917A00846080937A0080917A0051
:1027E000826080937A0080917A00816080937A0081
:1027F00080917A00806880937A001092C100E09105
:102800009805F091990522E02083E0919405F091DC
:1028100095051082E0919605F09197058FEC8083E5
:102820001092A005E0919C05F0919D0596E09083A3
:10283000E0919A05F0919B05808180618083E09111
:102840009A05F0919B05808188608083E0919A05CC
:10285000F0919B05808180688083E0919A05F091DA
:102860009B0580818F7D8083E091FB04F091FC04C7
:102870002083E091F704F091F8041082E091F904CC
:10288000F091FA0480E1808310920305E091FF0447
:10289000F09100059083E091FD04F091FE048081A9
:1028A00080618083E091FD04F091FE048081886066
:1028B0008083E091FD04F091FE0480818068808334
:1028C000E091FD04F091FE0480818F7D808382E39E
:1028D00090E0A0E0B0E08093EF049093F004A09328
:1028E000F104B093F204B4EDEB2EB3E0FB2E08E15B
:1028F00012E0D8018C910E5F1F4F62E00E943408F5
:10290000F701119211927F01F2E008341F0789F755
:10291000A8E4CA2EA2E0DA2EE12CF12C00E010E0AF
:10292000D6018C91B2E0CB0ED11C61E00E9434083C
:102930000F5F1F4F4AE0B801CE01019693D965E0C1
:1029400077E0CE018296B9D9BE016F5F7F4FCE018D
:102950008296E0D86CEE72E0C6D8BC01C7018954FB
:10296000994FFED8CE01829649D9CE01019646D91B
:102970004AE0B801CE01019675D965E077E0CE0155
:1029800082969BD9BE016F5F7F4FCE018296C2D8DF
:1029900060EF72E0A8D8BC01C7018159994FE0D817
:1029A000CE0182962BD9CE01019628D960E0F6019E
:1029B0008081AFDAF6E0EF0EF11C0C30110509F062
:1029C000AFCFE7E5CE2EE6E0DE2EF0E6EF2EF2E02A
:1029D000FF2E00E010E0D7018C91B2E0EB0EF11C6D
:1029E00061E00E9434080F5F1F4F4AE0B801CE013A
:1029F000019638D96FEF76E0CE0182965ED9BE019E
:102A00006F5F7F4FCE01829685D8BC01C601A8D8E2
:102A1000CE018296F3D8CE010196F0D8F701B080AE
:102A200061E08B2D0E94340860E08B2D72DAF6E0B5
:102A3000CF0ED11C0430110571F660E08AE30E94CC
:102A4000340860E08BE30E94340860E08EE30E946B
:102A5000340861E080E20E94340882E390E0A0E064
:102A6000B0E08093BC049093BD04A093BE04B093E7
:102A7000BF040E94A8086093B8047093B9048093BF
:102A8000BA049093BB048EED93E0A0E0B0E0809395
:102A9000C4049093C504A093C604B093C7040E94D5
:102AA000A8086093C0047093C1048093C2049093FB
:102AB000C3046AE0E62E62E0F62E00E010E0AA24ED
:102AC000A394B12CD701DC90B2E0EB0EF11C60E0D6
:102AD0008D2D0E9434088D2DF4D9892B89F42091F5
:102AE000640330916503C501002E02C0880F991F51
:102AF0000A94E2F7822B932B9093650380936403EF
:102B00000F5F1F4F04301105E9F660916403709167
:102B100065034AE0CE010196A5D8BE016F5F7F4FE5
:102B200083E297E032D8CE01019668D860916403C1
:102B3000709165034AE0CE01019694D867E177E091
:102B4000CE018296BAD8BE016F5F7F4FCE018296CA
:102B50000E948A0DBC018DE197E002D8CE018296D9
:102B60004DD8CE0101964AD861E088E00E94340831
:102B700060E088E0CED904E113E04BE0942EC12C54
:102B8000D12C882483945EE0752E780180915606BE
:102B900081116FC089E496E00E949406811107C0FC
:102BA000109254061092560610925506F4C040E05A
:102BB00060EF89E496E00E942806AA24A394612C81
:102BC000512CBB24B39489E496E00E94D505682F6C
:102BD00089E496E0AB966FAFAB970E94D505AB96B4
:102BE0006FADAB97613019F48130C9F438C0262D30
:102BF00030E068131EC080915406B81638F4F9010D
:102C0000E75BF94F83818A2151F402C0B81639F08D
:102C100060E088E08B1560F0B092550609C0E62DA3
:102C2000F0E0E75BF94F83818A29838361E009C083
:102C30005B2CF901E75BF94F93818A2D80958923FD
:102C4000838389E496E00E94F905B394AA0C19F4F1
:102C50006394AA24A39497E0961508F0B4CFA0E457
:102C6000AB1538F4509254065110C1C680925606E6
:102C7000BEC610925406109256061092550680E079
:102C8000ACE4B6E05801E8E0AE0EB11CF8019D914D
:102C90009193EA15FB05D9F7882309F47CC088E0F5
:102CA000E0E0815049F0D8019D918D01E927F0E0E5
:102CB000EA55FE4FE491F5CF21E030E0EE2311F02C
:102CC00020E030E0F701878190E02817390709F408
:102CD0005EC080818632B1F4F8E0DF9EA00111244D
:102CE00080E090E0FC01E40FF51FEB5AFB4FD701A9
:102CF000A80FB91F2C91208301968830910591F778
:102D0000D39445C028E0C29EA001112480E090E049
:102D1000FC01E40FF51FEC5FFB4FD701A80FB91FB3
:102D20002C91208301968830910591F7C394E9E4B2
:102D3000F6E0DE01DE96872D01900D928A95E1F78F
:102D4000CE01CE960E949406B701CE01CE960E9487
:102D5000690640E06EE4CE01CE960E94280640E06F
:102D600060E0CE01CE960E94280640E060E0CE01F1
:102D7000CE960E94280640E06FE5CE01CE960E94D6
:102D8000280640E068E4CE01CE960E9428069A9478
:102D900085019110FACED092A504C09254040E94ED
:102DA000A8081B0184EAE82E83E0F82E94E7C92ED8
:102DB00093E0D92E28E1622E22E0722E34EDA32E6C
:102DC00033E0B32E01E010E0D5014D905C90F701A7
:102DD00080809180D3018C91B2E06B0E711C71D810
:102DE0004814590409F45BC08816990621F0F701CC
:102DF000918380835DC0D6018D919C91F101E81B88
:102E0000F90B36970CF454C0D5018D929C924AE090
:102E1000B801CE01845B9F4F8928A1F40E94320E35
:102E200061E177E0CE018E5A9F4F0E945D0EBE0198
:102E3000645B7F4FCE018E5A9F4F0E948A0D65EFD3
:102E400072E013C00E94320E61E177E0CE018E5A2B
:102E50009F4F0E945D0EBE01645B7F4FCE018E5A74
:102E60009F4F0E948A0D68EF72E00E94730DBC01B3
:102E7000CE0101960E945D0ECE0101960E94CA0607
:102E8000CE0101960E94FE0DCE018E5A9F4F0E94E8
:102E9000FE0DCE01845B9F4F0E94FE0D09C04816B7
:102EA000590631F0F70191838083D6012D923C922F
:102EB0000F5F1F4FB2E0AB0EB11CE2E0EE0EF11C53
:102EC000F2E0CF0ED11C0931110509F07DCF8CE65F
:102ED00093E00E945F07811108C060E073E0CE01BB
:102EE0008E5A9F4F0E94650EDEC084EF91E0A0E0F5
:102EF000B0E08093700390937103A0937203B0933A
:102F000073030E94A80860936C0370936D03809311
:102F10006E0390936F0312E1C12E12E0D12E06E6EC
:102F2000E02E03E0F02E01E010E0D6018C91B2E03B
:102F3000CB0ED11C863308F0865390917B00282F4E
:102F40002870977F922B90937B008770806480938A
:102F50007C0080917A00806480937A0080917A006E
:102F600086FDFCCF6090780080917900712C782AE2
:102F7000B301072C000C880B990B0E942F264B01E4
:102F80005C01F70160817181072E000C880B990BA1
:102F90000E942F269B01AC01D7016D927D927D018D
:102FA000C501B4010E942926882309F44BC02AE1F7
:102FB00037E64CE151E4C501B4010E948E26AB0115
:102FC000BC0122E0CE01845B9F4F0E94030E4AE0C9
:102FD000B801CE018E5A9F4F0E94320E6BE077E00F
:102FE000CE01885A9F4F0E945D0EBE016E5A7F4FE0
:102FF000CE01885A9F4F0E948A0D6DEF72E00E94A9
:10300000730DBE01645B7F4F0E948A0DBC01CE012F
:1030100001960E945D0ECE0101960E94CA06CE0165
:1030200001960E94FE0DCE01885A9F4F0E94FE0D10
:10303000CE018E5A9F4F0E94FE0DCE01845B9F4FA2
:103040000E94FE0D0F5F1F4F0430110509F06DCF78
:1030500044CF8A30910591F02D968FAF2D972E9603
:103060001FAE2E9741E050E0BE01645B7F4FCE0162
:1030700001960E94460D5CD997FFEBCFBE016F5FB2
:103080007F4FCE018E5A9F4F0E94C50DCE010196F3
:103090000E94FE0D6DE177E0CE018E5A9F4F0E9497
:1030A000F90C81110FC08BEE94E00E94220B1816D0
:1030B00019060CF08EC160E073E0CE0101960E940B
:1030C000650ED9CF60E073E0CE0101960E94650ED7
:1030D0006896AEACBFAC6897A114B10409F401C105
:1030E00080902107909022078114910409F4F9C07F
:1030F000ED80FE80E818F90864960EAD1FAD649768
:10310000E114F104B9F460911D0770911E07C80124
:103110000E940B238C01892B09F4E3C069817A8119
:103120004D815E81C8010E94D3228D819E81080F4E
:10313000191FE9CFF7FE02C0680107C060901D07A4
:1031400070901E076501C80135C060911D07709120
:103150001E07C8010E940B234C01892B31F1540139
:10316000A01AB10AA501B801C6010E94D322CA0C57
:10317000DB1C69817A814D815E81C6010E94D32268
:103180008D819E81C80ED91E0091210710912207C2
:10319000080D191D68968EAD9FAD68978E0D9F1D09
:1031A00068969FAF8EAF6897D0CFB801C6010E94D6
:1031B000F62297C0B3010E940B23009729F0880DD7
:1031C000991DCE0CDF1CF6CFCA14DB0409F489C0AC
:1031D00066968EAD9FAD66978C159D0588F4B601F9
:1031E0006F5F7F4FC8010E94EB21009709F479C0FF
:1031F00064969FAF8EAF64976696DFAECEAE66974D
:1032000068960EAD1FAD68970150110917FD69C092
:1032100060902107709022076114710409F461C065
:103220006896CEACDFAC6897C114D10409F459C0DC
:10323000C614D70408F455C00C151D0518F08601F6
:10324000015011096496AEACBFAC649740901D0765
:1032500050901E07C50188248A94982C1501200ED1
:10326000311E2816390628F0B2010E940B23009760
:1032700079F597FC36C0680C791CC501860D971D41
:10328000A60146195709BC018E0D9F1D0E94DC2224
:1032900068968EAD9FAD68978E0D9F1D68969FAF07
:1032A0008EAF689764962EAD3FAD6497F901E80F35
:1032B000F91F108264968EAD9FAD649769817A8103
:1032C0004D815E81880D991D0E94D32284019CCF7F
:1032D0009C012A193B090217130708F049010196BE
:1032E000C0CFCE0101960E94FE0D6496CEACDFAC3D
:1032F0006497C114D10409F444C068960EAD1FADA3
:10330000689701151105E9F156017501BFEFAB1A78
:10331000BB0AF7018081082E000C990B0E94112630
:10332000892B99F7015011090C0D1D1DD8018C91A5
:10333000082E000C990B0E941126892B89F40F5F2F
:103340001F4FA8014E195F0968965FAF4EAF68978F
:10335000CE14DF0458F4B701C6010E94D32206C080
:103360000E151F0560F301501109E0CF6496EEAD14
:10337000FFAD649768968EAD9FAD6897E80FF91F13
:10338000108265E077E0CE018E5A9F4F0E94F90CC3
:10339000882309F442C3A8E4EA2EA2E0FA2E00E052
:1033A00010E0B8016954794FCE018E5A9F4F0E94A8
:1033B000140D882309F422C361E0F70180810E9483
:1033C000890F0A5F1F4FB2E0EB0EF11C08341105A4
:1033D00041F7CE018E5A9F4F0E94FE0D1091B70407
:1033E000113009F43FC038F0123009F4F4C1133041
:1033F00009F425C2B9C28FEA94E00E945F078823CE
:1034000009F4B2C280E395E7A0E0B0E08093B30492
:103410009093B404A093B504B093B6040E94A80896
:103420006093AF047093B0048093B1049093B2049E
:1034300088E893E1A0E0B0E08093AB049093AC0403
:10344000A093AD04B093AE040E94A8086093A704B3
:103450007093A8048093A9049093AA041092A604E0
:1034600081E0EAC187EA94E00E945F07882309F4BB
:103470007BC28091A6049091A504891708F0A7C18A
:1034800097E0909337061092380610923906109202
:103490003A0610923B0610923C0610923D0610929E
:1034A0003E0610923F06109240061092410610927E
:1034B000420610924306109348061092440610925A
:1034C00045061092460610924706A8E08A9FC00162
:1034D00011248B5A9B4F90933606809335060E9499
:1034E000A80860934406709345068093460690931F
:1034F00047061091370610FD03C0143009F05EC076
:10350000609135067091360680E090E021D88823DE
:1035100009F4BDC012FB112710F9812F0E9465121A
:10352000882309F4B4C06091350670913606CE0147
:1035300001960E94D211882309F4A9C01123F9F041
:103540006B8170E0762F66278A81682BE3E07595A2
:103550006795EA95E1F7072E000C880B990B0E94FE
:103560002F2620E030E040E05DE30E948E2660934D
:1035700038067093390680933A0690933B06809103
:10358000370680FF1BC06D8170E0762F66276627A7
:1035900073708C81682B072E000C880B990B0E948E
:1035A0002F2620E030E048EC52E480D560933C06C2
:1035B00070933D0680933E0690933F0680913706B8
:1035C00081FF63C082FF04C08095182F117001C075
:1035D00010E0609135067091360681E090E00E941F
:1035E000A812882309F453C0812F0E9465128823F2
:1035F00009F44DC06091350670913606CE010196F2
:103600000E94D211882309F442C01123F9F06B8182
:1036100070E0762F66278A81682B33E07595679571
:103620003A95E1F7072E000C880B990B0E942F2684
:1036300020E030E040E05DE30E948E266093380693
:103640007093390680933A0690933B066F8170E041
:10365000762F66278E81682B77FF03C07195619561
:103660007109072E000C880B990B0E942F2620E071
:1036700030E040E859E30E948E2660934006709344
:10368000410680934206909343061092480680912B
:103690004806811196C040914006509141066091C4
:1036A00042067091430622E0CE01845B9F4F0E9448
:1036B000030E40913C0650913D0660913E0670918C
:1036C0003F0622E0CE018E5A9F4F0E94030E60916A
:1036D00038067091390680913A0690913B066A96B9
:1036E0001FAE1EAE6A976C961FAE1EAE6C976E969E
:1036F0001FAE1EAE6E978E010F5F1F4F22E044E09B
:10370000A4D7BC01CE01885A9F4F0E949B0D6091A7
:10371000A604B8E06B9FB00111246B5A7B4FCE0119
:10372000825A9F4F0E9414076BEF72E0CE018C59B2
:103730009F4F0E94650EBE01625A7F4FCE018C5989
:103740009F4F0E948A0D6DEF72E00E94730DBE01C3
:10375000685A7F4F0E948A0D6DEF72E00E94730DD0
:10376000BE016E5A7F4F0E948A0D6DEF72E00E947B
:10377000730DBE01645B7F4F0E948A0DBC01C801BE
:103780000E945D0EC8010E94CA06C8010E94FE0D7B
:10379000CE018C599F4F0E94FE0DCE01825A9F4F41
:1037A0000E94FE0DCE01885A9F4F0E94FE0DCE0151
:1037B0008E5A9F4F0E94FE0DCE01845B9F4F0E9448
:1037C000FE0D8091A6048F5F8093A604CDC0109259
:1037D000A60482E031C087EA94E00E945F07882354
:1037E00009F4C2C01091A60480915404181708F57A
:1037F0008EE0E9E4F6E0DE01D09601900D928A9524
:10380000E1F7CE01C0960E949406E8E01E9FB00149
:1038100011246C5F7B4FCE01C0960E94690641E087
:1038200064E4CE01C0960E9428061F5F1093A60490
:103830009BC01092A60483E08093B70495C087EAEA
:1038400094E00E945F07882309F48EC01091A604BB
:1038500080915404181708F085C08EE0E9E4F6E082
:10386000DE01929601900D928A95E1F7CE01829643
:103870000E949406F8E01F9FB00111246C5F7B4FFB
:10388000CE0182960E94690640E06EEBCE018296E0
:103890000E9428069E012F5F3F4F69017E013AE09A
:1038A000E30EF11C08E010E0AA24A394B12CCE0191
:1038B00082960E94D5058111BA28AA0C01501109DF
:1038C000B1F7D601BD926D01AE15BF0559F76A81FA
:1038D00070E0762F66278981682B072E000C880BF5
:1038E000990B0E942F2620E030E040E85DE30E9423
:1038F0008E26AB01BC0122E0CE01845B9F4F0E946B
:10390000030E6091A604B8E06B9FB00111246C5FB8
:103910007B4FCE018E5A9F4F0E9414076BEF72E0CF
:10392000CE01885A9F4F0E94650EBE016E5A7F4F8E
:10393000CE01885A9F4F0E948A0D6DEF72E00E945F
:10394000730DBE01645B7F4F0E948A0DBC01CE01E6
:1039500001960E945D0ECE0101960E94CA06CE011C
:1039600001961ECF1092B70480EC94E00E945F078E
:10397000882381F182E390E0A0E0B0E08093BC0472
:103980009093BD04A093BE04B093BF040E94A80806
:103990006093B8047093B9048093BA049093BB0405
:1039A0008EED93E0A0E0B0E08093C4049093C50452
:1039B000A093C604B093C7040E94A8086093C004F3
:1039C0007093C1048093C2049093C30461E080E2C9
:1039D0000E94890F88EB94E00E945F07882321F002
:1039E00060E080E20E94890F0E94C80BD8C98091D4
:1039F0004C06882309F43DC981E042C9B8016159E8
:103A0000794FCE018E5A9F4F0E94140D882309F4DE
:103A1000D8CC60E0D7018C91D2CC6FEF76E0CE01AC
:103A20008E5A9F4F0E94F90C882309F4D2CC6896D5
:103A30002EAD3FAD689740910307509104074E5F4C
:103A40005F4FBE016E5A7F4FCE01845B9F4F0E9435
:103A5000790EF0E6EF2EF2E0FF2E07E516E020915A
:103A60000307309104072F5F3F4F40E050E0BE0155
:103A70006E5A7F4FCE0101960E94790EB801CE0199
:103A800001960E94140DD82ECE0101960E94FE0DC3
:103A9000DD2009F4EEC02E968EAD9FAD2E970097D7
:103AA00019F0F2D5962E02C0912C70E0A92CB72EF9
:103AB000F701C080D18061E08C2DAB967FAFAB97D2
:103AC0000E943408AB967FADAB97A114B10409F402
:103AD000CAC0FFEFAF16B10409F4C7C0F601FF2753
:103AE000E45DFE4FE4918E2F90E0FC013197E231CE
:103AF000F10508F0B4C08827EE58FF4F8F4FCEC2B3
:103B000084B5806884BD97BCB4C084B5806284BD30
:103B100098BCAFC080918000806880938000892D20
:103B2000972F9093890080938800A3C08091800094
:103B3000806280938000892D972F90938B008093D3
:103B40008A0097C080918000886080938000892DD2
:103B5000972F90938D0080938C008BC08091B00044
:103B600080688093B0009092B30083C08091B000D1
:103B700080628093B0009092B4007BC080919000EE
:103B8000806880939000892D972F9093990080935F
:103B900098006FC080919000806280939000892D82
:103BA000972F90939B0080939A0063C08091900020
:103BB000886080939000892D972F90939D0080932B
:103BC0009C0057C08091A00080688093A0008091E5
:103BD000A0008F7B8093A000892D972F9093A90040
:103BE0008093A80046C08091A00080628093A000CE
:103BF000892D972F9093AB008093AA003AC08091B3
:103C0000A00088608093A000892D972F9093AD002D
:103C10008093AC002EC080912001806880932001A9
:103C2000892D972F909329018093280122C080919C
:103C30002001806280932001892D972F90932B0182
:103C400080932A0116C08091200188608093200112
:103C5000892D972F90932D0180932C010AC020E885
:103C6000A216B10414F460E001C061E08C2D0E9442
:103C7000890F0A5F1F4F32E0E30EF11C86E00F361A
:103C8000180709F0ECCECE01845B9F4F0E94FE0D19
:103C9000A0CBCF93DF9389E696E00E94FE0D83E6EA
:103CA00096E00E94FE0D8DE596E00E94FE0D87E5F0
:103CB00096E00E94FE0DC7EBD6E02697CE010E944B
:103CC000FE0D86E0CF36D807C1F7CFEFD6E02697B6
:103CD000CE010E94FE0D86E0C73BD807C1F78FEFEB
:103CE00096E00E94FE0D85E097E00E94FE0D8BE0BD
:103CF00097E00E94FE0D81E197E00E94FE0D87E1B2
:103D000097E00E94FE0D8DE197E00E94FE0D83E298
:103D100097E0DF91CF910C94FE0DCF93DF9382E873
:103D200092E090937207809371071092730710923C
:103D3000740710927507109276071092EE04109295
:103D4000ED0448EE53E060E070E04093EF045093E0
:103D5000F0046093F1047093F20422E732E03093B0
:103D6000EC042093EB04EDECF0E0F093F804E09326
:103D7000F704ECECF0E0F093FA04E093F904E8ECDB
:103D8000F0E0F093FC04E093FB04E9ECF0E0F09346
:103D9000FE04E093FD04EAECF0E0F0930005E0930C
:103DA000FF04EEECF0E0F0930205E09301051092C1
:103DB0000405109205051092060510920705109251
:103DC0008B0510928A0540938C0550938D05609366
:103DD0008E0570938F05309389052093880525EC17
:103DE00030E0309395052093940524EC30E0309337
:103DF00097052093960520EC30E0309399052093A9
:103E0000980521EC30E030939B0520939A0522EC35
:103E100030E030939D0520939C0526EC30E03093F4
:103E20009F0520939E051092A1051092A205109265
:103E3000A3051092A40590937807809377071092BA
:103E4000790710927A0710927B0710927C07909363
:103E50007E0780937D0710927F0710928007109253
:103E600081071092820790938407809383071092B2
:103E70008507109286071092870710928807909303
:103E80008A078093890710928B0710928C071092F3
:103E90008D0710928E079093260680932506109228
:103EA0002706109228061092290610922A0690934F
:103EB0002E0680932D0610922F0610923006109237
:103EC0003106109232069093900780938F071092DC
:103ED0009107109292071092930710929407909373
:103EE0006C0780936B0710926D0710926E0710920B
:103EF0006F07109270079093660780936507109282
:103F00006707109268071092690710926A079093EA
:103F1000600780935F072FEF20936107209362076C
:103F20002093630720936407109247071092460777
:103F3000409348075093490760934A0770934B0793
:103F4000EAECF2E0F0934507E093440790935307BF
:103F500080935207109254071092550710925607FB
:103F60001092570724E020935C0710922C071092C0
:103F70002B0740932D0750932E0760932F077093C4
:103F80003007F0932A07E09329079093380780932E
:103F900037071092390710923A0710923B07109298
:103FA0003C072093410760E073E083E297E00E94C2
:103FB000650E60E073E08DE197E00E94650E61E0C0
:103FC00073E087E197E00E94650E66E073E081E1AF
:103FD00097E00E94650E69E073E08BE097E00E9435
:103FE000650E6CE073E085E097E00E94650E6FE07F
:103FF00073E08FEF96E00E94650EC7EBD6E060E0BD
:1040000073E0CE010E94650E269686E0CF3FD8076A
:10401000B1F7CFE6D6E060E073E0CE010E94650E16
:10402000269686E0C73BD807B1F7C7E5D6E060E043
:1040300073E0CE010E94650E269686E0CF36D80743
:10404000B1F760E089E00E943408EFE0F3E0E4912A
:10405000E0934906E9ECF2E0E491F0E0EE0FFF1F97
:10406000EA55FD4F8591949190934B0680934A06B3
:10407000109254061092560610925506E4E5F6E0AA
:10408000129286E0EC34F807D9F789E496E0909331
:10409000340680933306DF91CF910895EE0FFF1F12
:1040A000881F8BBF0790F691E02D19940CD0B3C6F2
:1040B000ABD640F0A2D630F021F45F3F19F094C6A1
:1040C0005111DDC697C6B8D698F39923C9F3552385
:1040D000B1F3951B550BBB27AA27621773078407FB
:1040E00038F09F5F5F4F220F331F441FAA1FA9F3B1
:1040F00033D00E2E3AF0E0E830D091505040E695A3
:10410000001CCAF729D0FE2F27D0660F771F881F03
:10411000BB1F261737074807AB07B0E809F0BB0BF2
:10412000802DBF01FF2793585F4F2AF09E3F510516
:1041300068F05AC6A4C65F3FECF3983EDCF3869560
:1041400077956795B795F7959F5FC9F7880F911D8C
:104150009695879597F90895E1E0660F771F881F78
:10416000BB1F621773078407BA0720F0621B730B2B
:10417000840BBA0BEE1F88F7E0950895CF93DF9379
:104180008230910510F482E090E0E0919707F09181
:10419000980720E030E0C0E0D0E0309711F1408196
:1041A000518148175907C0F04817590761F48281B7
:1041B0009381209719F09B838A832BC09093980753
:1041C0008093970726C02115310519F04217530730
:1041D00018F49A01BE01DF01EF010280F381E02DA6
:1041E000DCCF2115310509F1281B390B24303105AD
:1041F00090F412968D919C9113976115710521F0A1
:10420000FB019383828304C0909398078093970760
:10421000FD01329644C0FD01E20FF31F819391939B
:10422000225031092D933C933AC02091950730914B
:104230009607232B41F42091020230910302309320
:1042400096072093950720910002309101022115D5
:10425000310541F42DB73EB740910402509105025B
:10426000241B350BE0919507F0919607E217F307B1
:10427000A0F42E1B3F0B2817390778F0AC014E5FD6
:104280005F4F2417350748F04E0F5F1F5093960776
:10429000409395078193919302C0E0E0F0E0CF0155
:1042A000DF91CF9108950F931F93CF93DF930097E2
:1042B00009F48CC0FC013297138212820091970797
:1042C000109198070115110581F420813181820F29
:1042D000931F20919507309196072817390779F594
:1042E000F0939607E093950771C0D80140E050E045
:1042F000AE17BF0750F412962D913C911397AD0164
:104300002115310509F1D901F3CF9D01DA0133837C
:10431000228360817181860F971F8217930769F44A
:10432000EC0128813981260F371F2E5F3F4F3183E3
:1043300020838A819B8193838283452B29F4F09388
:104340009807E093970742C01396FC93EE93129759
:10435000ED01499159919E01240F351FE217F30792
:1043600071F480819181840F951F029611969C9320
:104370008E938281938113969C938E931297E0E0A3
:10438000F0E0D80112968D919C911397009719F047
:10439000F8018C01F6CF8D919C9198012E5F3F4FD3
:1043A000820F931F209195073091960728173907A0
:1043B00069F4309729F4109298071092970702C079
:1043C000138212821093960700939507DF91CF9185
:1043D0001F910F9108956F927F928F929F92AF924B
:1043E000BF92CF92DF92EF92FF920F931F93CF93E2
:1043F000DF93EC01009781F4CB01DF91CF911F9106
:104400000F91FF90EF90DF90CF90BF90AF909F9073
:104410008F907F906F90B2CEFC01E60FF71F9C014A
:1044200022503109E217F30708F4A8C0D9010D9111
:104430001C91119706171707A8F00530110508F40D
:104440009BC0C80104978617970708F495C00250CF
:104450001109061B170B019311936D937C93CF01E8
:1044600022DF8AC05B01A01AB10A4C01800E911EA6
:10447000A0919707B091980740E050E0E12CF12C13
:10448000109709F44AC0A815B905D1F56D907C9034
:104490001197630182E0C80ED11CCA14DB0480F1BD
:1044A000A3014A195B096A0182E0C80ED11C129669
:1044B000BC9012971396AC91B5E0CB16D10440F0A6
:1044C000B282A38351834083D9016D937C930AC048
:1044D0000E5F1F4FC301800F911FF90191838083ED
:1044E000EB2DFA2FE114F10431F0D7011396FC9370
:1044F000EE93129741C0F0939807E09397073CC062
:104500008D919C9111974817590708F4AC017D01D2
:1045100012960D90BC91A02DB3CF809195079091EC
:10452000960788159905E1F446175707C8F4809156
:10453000000290910102009741F48DB79EB740911F
:10454000040250910502841B950BE817F907B0F49B
:10455000F0939607E0939507F901718360830CC08F
:10456000CB010CDE7C01009749F0A801BE011BD0F5
:10457000CE0199DEC70104C0CE0102C080E090E008
:10458000DF91CF911F910F91FF90EF90DF90CF902F
:10459000BF90AF909F908F907F906F90089581E033
:1045A00090E0F89494C4FB01DC0102C001900D92EC
:1045B00041505040D8F708956817790768F4FB0117
:1045C000DC01E40FF51FA40FB51F02C002900E928C
:1045D00041505040D8F70895E6CFFB01DC018D91A2
:1045E000019080190110D9F3990B0895FB01DC01AA
:1045F00001900D920020E1F70895FB01DC0141508C
:10460000504030F08D910190801919F40020B9F7D5
:10461000881B990B0895FB0151915523A9F0BF0107
:10462000DC014D9145174111E1F759F4CD0101909D
:10463000002049F04D9140154111C9F3FB01411192
:10464000EFCF81E090E001970895EF920F931F93D1
:10465000CF93DF93E80147FD02C034E001C034E1AD
:10466000E42F440FFF0BF7FF03C0F195E195F1092B
:10467000E32E022F2E2FAE016FD0CE01DF91CF910E
:104680001F910F91EF9008951F93FC0199278827A0
:10469000BC01E89411911032E9F3193010F01E308A
:1046A000C8F31B3249F01D3241F4689405C026D08E
:1046B000610F711D811D911D119110531A30B8F3B6
:1046C0003EF490958095709561957F4F8F4F9F4FE9
:1046D0001F9108954532510518F4423008F004C086
:1046E000FB011082CB010895BB274A3031F4992396
:1046F00022F4BDE2909581959F4F16C0592F482F07
:10470000372F262F660F771F881F991F660F771F79
:10471000881F991F620F731F841F951F660F771FD5
:10472000881F991F0895BB27FB015527AA27880FCB
:10473000991FAA1FA41710F0A41B83955051B9F715
:10474000A05DAA3308F0A95DA193009779F7B11194
:10475000B1931192CB016DC24F925F926F927F9293
:104760009F92AF92BF92CF92DF92EF92FF920F9300
:104770001F93CF93DF93CDB7DEB729970FB6F89489
:10478000DEBF0FBECDBF6A01122FB02E2BE3201764
:1047900020F0FF24F394F00E02C0BCE3FB2E0F2D9B
:1047A00027E0AE014F5F5F4F64D1AC018981982F44
:1047B0009970913031F0E1FC06C0E0FE06C090E255
:1047C00005C09DE203C09BE201C090E0EE2DE071C8
:1047D00083FF3CC0911102C083E001C084E08117D7
:1047E00018F4212F281B01C020E0E1110BC0F601B5
:1047F000822F30E2882319F031938150FBCFC20E13
:10480000D11C20E0992329F0D6019C93F601319622
:104810006F01C6010396E2FE0AC03EE4D6013C9356
:1048200041E411964C93119712963C9306C03EE6D4
:10483000F601308341E641833283FC01322F40E2AE
:10484000332309F442C041933150FACF82FF44C070
:10485000911102C083E001C084E0811718F4212F78
:10486000281B01C020E0E1110BC0F601822F30E2CD
:10487000882319F031938150FBCFC20ED11C20E068
:10488000992329F0D6019C93F60131966F01C60158
:104890000396E2FE0BC039E4D6013C933EE4119648
:1048A0003C93119736E412963C9307C039E6F60123
:1048B00030833EE6318336E63283FC01322F40E21C
:1048C000332319F041933150FBCFFC01E20FF11D6E
:1048D00010828EEF9FEFB7C0F1E0911101C0F0E0C0
:1048E0006F2F70E01416150624F49A012F5F3F4FC6
:1048F00002C021E030E0260F371FBB2029F06B2DCE
:1049000070E06F5F7F4F02C060E070E0260F371FDE
:10491000612F70E0261737071CF4121B212F01C0EE
:1049200020E03E2D387159F4D601322F60E2332356
:1049300019F06D933150FBCFC20ED11C20E0FF2344
:1049400031F0D6019C93B6016F5F7F4F6B01E1118F
:104950000BC0F601922F30E3992319F03193915057
:10496000FBCFC20ED11C20E09F2D940F3A81782FEF
:104970007071A72E84FF03C0313309F491501916CA
:1049800024F4993018F098E001C091E0E42F852FCD
:1049900057FF02C0E0E080E06E2F782FE0E0F0E00B
:1049A000AEE29A2E3A01691A71082A01461A570A8C
:1049B0000B2D10E01195019511096F3F8FEF7807CE
:1049C00029F4D6019C92C60101966C01461757073F
:1049D00084F0661677066CF47F01E40CF51CA1E008
:1049E000B0E0AC0FBD1FEA0EFB1ED7011196BC90C4
:1049F00002C090E3B92E615071093196C60101964B
:104A00007C016017710724F0D601BC926C01D5CFF0
:104A10006417750741F4363320F4353321F4A110BF
:104A200002C081E3B82EF601B082F701822F90E236
:104A3000882319F091938150FBCFF701E20FF11D0C
:104A4000108280E090E029960FB6F894DEBF0FBE8A
:104A5000CDBFDF91CF911F910F91FF90EF90DF902D
:104A6000CF90BF90AF909F907F906F905F904F904E
:104A70000895283008F027E03327DA01990F311D17
:104A800087FD916000966105710539F432602E5FF3
:104A90003D9330E32A95E1F708959F3F30F0803849
:104AA0007105610509F03C5F3C5F3D93913008F072
:104AB0008068911DDF93CF931F930F93FF92EF9226
:104AC000192F987F9695E92F96959695E90FFF27D0
:104AD000EA55FC4F99273327EE24FF24A701E7016D
:104AE00005900894079428F4360FE71EF81E491F16
:104AF000511D660F771F881F991F0694A1F7059017
:104B0000079428F4E70EF81E491F561FC11D770FA2
:104B1000881F991F661F0694A1F70590079428F433
:104B2000F80E491F561FC71FD11D880F991F661FFA
:104B3000771F0694A1F70590079420F4490F561F9C
:104B4000C71FD81F990F661F771F881F0694A9F7E4
:104B500084911095177041F0D695C7955795479554
:104B6000F794E7941A95C1F7ECE4F3E06894159094
:104B7000159135916591959105907FE27395E118B6
:104B8000F10A430B560BC90BD009C0F7E10CF11E1B
:104B9000431F561FC91FD01D7EF4703311F48A9530
:104BA000E6CFE894015030F0080F0AF4002702170E
:104BB00008F4202F2395022F7A3328F079E37D9390
:104BC0002A95E9F710C07D932A9589F60694979562
:104BD0006795379517951794E118F10A430B560B13
:104BE000C90BD00998F023957E9173957A3308F01C
:104BF00070E37C932013B8F77E9170617D9330F061
:104C0000839571E37D9370E32A95E1F71124EF908A
:104C1000FF900F911F91CF91DF91992787FD90957C
:104C200008959111DEC0803219F089508550D0F777
:104C30000895DC01FC01672F71917723E1F732972A
:104C400004C07C916D9370836291AE17BF07C8F367
:104C5000089540D008F481E00895E89409C097FBD6
:104C60003EF490958095709561957F4F8F4F9F4F43
:104C70009923A9F0F92F96E9BB279395F695879587
:104C800077956795B795F111F8CFFAF4BB0F11F44A
:104C900060FF1BC06F5F7F4F8F4F9F4F16C08823F1
:104CA00011F096E911C0772321F09EE8872F762F27
:104CB00005C0662371F096E8862F70E060E02AF068
:104CC0009A95660F771F881FDAF7880F9695879554
:104CD00097F90895990F0008550FAA0BE0E8FEEF29
:104CE00016161706E807F907C0F012161306E407B0
:104CF000F50798F0621B730B840B950B39F40A26A9
:104D000061F0232B242B252B21F408950A2609F486
:104D1000A140A6958FEF811D811D08950BD07BC00A
:104D20006CD028F071D018F0952309F05DC062C0F6
:104D30001124A5C081D0A0F3959FD1F3950F50E029
:104D4000551F629FF001729FBB27F00DB11D639F3D
:104D5000AA27F00DB11DAA1F649F6627B00DA11DE3
:104D6000661F829F2227B00DA11D621F739FB00D89
:104D7000A11D621F839FA00D611D221F749F3327F9
:104D8000A00D611D231F849F600D211D822F762F92
:104D90006A2F11249F5750408AF0E1F088234AF08F
:104DA000EE0FFF1FBB1F661F771F881F91505040DB
:104DB000A9F79E3F510570F017C061C05F3FECF34B
:104DC000983EDCF3869577956795B795F795E795C7
:104DD0009F5FC1F7FE2B880F911D9695879597F9D8
:104DE000089599278827089597F99F6780E870E0CC
:104DF00060E008959FEF80EC089500240A94161651
:104E0000170618060906089500240A9412161306B8
:104E1000140605060895092E0394000C11F4882346
:104E200052F0BB0F40F4BF2B11F460FF04C06F5F62
:104E30007F4F8F4F9F4F089557FD9058440F551F38
:104E400059F05F3F71F04795880F97FB991F61F00C
:104E50009F3F79F087950895121613061406551F83
:104E6000F2CF4695F1DF08C0161617061806991FEF
:104E7000F1CF86957105610508940895E894BB27E4
:104E800066277727CB0197F90895A1E21A2EAA1B6E
:104E9000BB1BFD010DC0AA1FBB1FEE1FFF1FA217EA
:104EA000B307E407F50720F0A21BB30BE40BF50BE7
:104EB000661F771F881F991F1A9469F76095709570
:104EC000809590959B01AC01BD01CF01089512E042
:104ED000C4E2D2E000E005C0802FFE01DFD82196B9
:104EE000011DC532D10780E00807B1F7F894FFCF64
:104EF00000009907800001000000360037003800EC
:104F000039003A003B003E002400220030002E0011
:104F100045004400430042002C002A0028002600DF
:104F200006000500030002000E000F001000110033
:104F300018001A001C001E00270029002B002D005D
:104F40002F003100170019001B001D001F00210059
:104F50000B000D000C00070001005E0000000000C7
:104F60000000610BBC0A220B000B140BA70B000006
:104F70000000B10C00000000FB0B00000000FB0B68
:104F8000FB0BFB0BFB0BFB0BFB0BFB0BFB0BFB0BF1
:104F9000FB0BFB0BFB0BFB0BFB0BFB0BFB0B0000E7
:104FA0000000FB0BBC0AFB0BFB0BFB0BFB0B00001D
:104FB0000000FB0BBC0A00000000B80FCA1057022B
:104FC000EC0FAB07AA07D10276028710010361112B
:104FD0001410CE0F6F025F025B023F0A206F6E005B
:104FE000206F666600203100203000317720000AF3
:104FF000007261696C00646900616900646F00702F
:04500000776D0000C8
:00000001FF
