:1000000024C2000053C2000051C200004FC20000D1
:100010004DC200004BC2000049C2000047C20000B0
:1000200045C2000043C2000041C200003FC20000C0
:100030003DC200003BC2000039C2000037C20000D0
:1000400035C2000033C2000031C200002FC20000E0
:100050002DC200002BC2000029C200000C94440BEA
:1000600025C200000C9454110C942B111FC20000E7
:100070001DC200001BC2000019C2000017C2000010
:1000800015C2000013C2000011C200000FC2000020
:100090000C9402110C94D91009C2000007C2000090
:1000A00005C2000003C2000001C20000FFC1000041
:1000B000FDC10000FBC10000F9C10000F7C1000054
:1000C000F5C10000F3C10000F1C10000EFC1000064
:1000D000EDC10000EBC10000E9C10000E7C1000074
:1000E000E5C100000A1D0F1D141D201D2C1DB91D8A
:1000F000381D401D481D541D601D6C1D7D1D891D32
:10010000B91D951DA11DAD1DA508A80897089B0840
:10011000A108DF08AC08B008B608BA08BE08C408D1
:10012000C808CC08DF08D208D608DA0800000A0B95
:1001300002090C0D0E080703040100000000000076
:1001400000000000000000000000000000000000AF
:10015000000000000000000012111000000000006C
:10016000000000000000000000000000000000008F
:10017000000000002100240027002A002D0030008C
:10018000330001010000040107010A010000220000
:10019000250028002B002E00310034000201000051
:1001A000050108010B01005EBCE2613FDD83C29CDA
:1001B0007E20A3FD1F419DC3217FFCA2401E5F0145
:1001C000E3BD3E6082DC237D9FC1421CFEA0E1BFF7
:1001D0005D0380DE3C62BEE0025CDF81633D7C2229
:1001E000C09E1D43A1FF4618FAA427799BC584DA57
:1001F0003866E5BB5907DB856739BAE40658194705
:10020000A5FB7826C49A653BD987045AB8E6A7F9B6
:100210001B45C6987A24F8A6441A99C7257B3A64E8
:1002200086D85B05E7B98CD2306EEDB3510F4E1016
:10023000F2AC2F7193CD114FADF3702ECC92D38DC4
:100240006F31B2EC0E50AFF1134DCE90722C6D3376
:10025000D18F0C52B0EE326C8ED0530DEFB1F0AEA8
:100260004C1291CF2D73CA947628ABF517490856D6
:10027000B4EA6937D58B5709EBB536688AD495CB84
:100280002977F4AA4816E9B7550B88D6346A2B7536
:1002900097C94A14F6A8742AC896154BA9F7B6E868
:1002A0000A54D7896B35000020002300260029005E
:1002B0002C002F003200000100000301060109019B
:1002C00005050505070508080808020202020A0AD2
:1002D00008080404040401010101010101010303F0
:1002E000030303030303040707070C0C0C0C0C0C9B
:1002F0000C0C0202020206060606060606060B0B98
:100300000B0B0B0B0B0B01021020200808102040D8
:1003100010204080020102010804020101020408C9
:100320001020408080402010080402018004020157
:1003300080402010080402010804020101020408A0
:1003400010204080010204081020408000407A10F4
:10035000F35A00A0724E18090010A5D4E80000E876
:100360007648170000E40B54020000CA9A3B0000D4
:1003700000E1F505000080969800000040420F0063
:100380000000A08601000000102700000000E80324
:10039000000000006400000000000A0000000000EF
:1003A0000100000000002C76D888DC674F0823DFAE
:1003B000C1DFAE59E1B1B796E5E3E453C63AE65181
:1003C000997696E8E6C28426EB898C9B62ED407CA8
:1003D0006FFCEFBC9C9F40F2BAA56FA5F490055A44
:1003E0002AF75C936B6CF9676DC11BFCE0E40D4769
:1003F000FEF520E6B500D0ED902E0300943577058C
:100400000080841E080000204E0A000000C80C3343
:100410003333330F986E12831141EF8D2114893BD2
:10042000E65516CFFEE6DB18D1844B381BF77C1D52
:10043000901DA4BBE424203284725E228100C9F1A5
:1004400024ECA1E53D27171ED31D11241FBECFEFBD
:10045000D1E2DEBFCDBF00E00CBF13E0A0E0B2E010
:10046000E4E0FEE400E00BBF02C007900D92A4316F
:10047000B107D9F727E0A4E1B3E001C01D92A93389
:10048000B207E1F712E0C4E2D2E000E006C0219733
:100490000109802FFE010E94D81FC332D10780E0DE
:1004A0000807A9F70E9463130C94F126A9CDCF93F6
:1004B000DF931F92CDB7DEB76983DC01ED91FC912C
:1004C0000280F381E02D41E050E0BE016F5F7F4F7D
:1004D00019950F90DF91CF910895FC01818D928D38
:1004E0000895FC0184899589089522E832E0FC0191
:1004F00031832083FB014089518962897389FC0122
:1005000042835383648375830895DC01ED91FC91EC
:10051000008CF18DE02D1994CF93DF93EC01888D41
:10052000843061F00E94040CE88DF0E0EE0FFF1FB4
:10053000E859FB4F1182108284E0888FDF91CF91C0
:1005400008950F931F93CF93DF931F92CDB7DEB71C
:10055000282F30E02C5F3F4F322F22278901060FD2
:10056000171F49830E94900B80EF0E94AA0B812FD6
:100570000E94AA0B802F0E94AA0B4981842F0E94FF
:10058000AA0B0E948E0B81E00F90DF91CF911F91FB
:100590000F9108950F931F93CF93DF931F92CDB7C1
:1005A000DEB790E00496982F88278C01060F171F5E
:1005B0000E94900B8FE00E94AA0B812F0E94AA0B31
:1005C000802F0E94AA0B80E00E94AA0B89830E94C0
:1005D0008E0B89810F90DF91CF911F910F9108951C
:1005E00008958CBD9DBD08957F928F929F92AF928A
:1005F000BF92CF92DF92EF92FF920F931F93CF9310
:10060000DF935C014B016A01FC0106891789708C3C
:1006100080E590E0E6DFC0E0D0E0872D0E94920BFD
:100620007C01892B21F0872D0E94920BEC01CE15C5
:10063000DF0599F7CC15DD0578F4C0E0D0E0872D13
:100640000E94920B6C01892B21F0872D0E94920B46
:10065000EC01CC15DD0599F764E270E0872D9ADF97
:10066000E82EF12C65E270E0872D94DFFE2CEE245D
:10067000E82AE701C00FD11F9E013770E72CF12C4B
:10068000C701880F991FAC0145585B4F7A01FA01E9
:1006900080819181820F931FA9014C0D5D1D413016
:1006A000584090F000E018E0021B130BA801B401C1
:1006B0000E94DB0BA601401B510BB401600F711FA0
:1006C000F7018081918102C0A601B4010E94DB0B79
:1006D000CC0DDD1D4D2F64E270E0872D32DF4C2FF5
:1006E00065E270E0872D2DDFF501868997898C0DF5
:1006F0009D1D978B868BC601DF91CF911F910F9126
:10070000FF90EF90DF90CF90BF90AF909F908F9031
:100710007F900895CF93FC01C08D80E590E061DF6C
:1007200060E270E08C2F0E940F1362E070E08C2F6B
:1007300031DF84FD12C062E070E08C2F2BDF83FF7D
:1007400008C048E162E070E08C2FFBDE80E090E0C2
:100750000BC080E590E045DFE8CF40E162E070E06B
:100760008C2FEFDE81E090E0CF910895EF92FF9221
:100770001F93CF93DF93EB017A01FC01178A168A4E
:10078000108D8A81811109C08B81811106C08C81F5
:10079000811103C08D818823F9F0E114F104E1F0A7
:1007A00080E590E01EDFBE016E5F7F4F812F90E0FD
:1007B000982F882744E050E0845F9B4FFCD74F2D53
:1007C00060E170E0812FBDDE4E2D61E170E0812F90
:1007D000B8DE81E090E002C080E090E0DF91CF9150
:1007E0001F91FF90EF900895EF92FF921F93CF9388
:1007F000DF93FC01208D243011F080E01FC07B01CD
:10080000EC0110E080E590E0ECDE63E070E0812F29
:10081000C1DE811102C0188F05C08831E1F31F5F6E
:10082000143081F7888D843041F3FD86EC861A8E72
:10083000198E20E0A70162E0FAD781E0DF91CF9125
:100840001F91FF90EF9008954F925F926F927F9269
:100850008F929F92AF92BF92CF92DF92EF92FF92D0
:100860000F931F93CF93DF93CDB7DEB7EE970FB6FD
:10087000F894DEBF0FBECDBF5C018B014A0182E858
:1008800092E09A8389831C861B8648EE53E060E0E1
:1008900070E04D875E876F87788B2AEC32E03A876D
:1008A0002987988F8F8B198E1A8E1B8E1C8E24E0B1
:1008B00029A399AB88AB1AAA1BAA1CAA1DAA8091CE
:1008C000C7059091C805A091C905B091CA058EA32E
:1008D0009FA3A8A7B9A78B839C83AD83BE831886EB
:1008E0001F82F80120E080E090E06AE0319133233C
:1008F00019F140ED430F4A3080F4689FA001699FD1
:10090000500D1124CA01C097830F911D37FD9A9590
:100910008F3F910559F350F32BC03E3249F52330F8
:1009200039F1A2E3B0E0AC0FBD1FA20FB11D8C9353
:100930002F5F80E090E0DACF2330D1F48DABD5018A
:10094000ED91FC910088F189E02D82E892E09DA371
:100950008CA38AA99BA9ACA9BDA98EA39FA3A8A774
:10096000B9A7A401BE016C5D7F4FC501199508C2EE
:100970004B815C816D817E818091CF059091D00506
:10098000A091D105B091D205481759076A077B0796
:1009900009F4F4C16DD66F7077277C5FCE0109969C
:1009A00023DF813009F0E7C182E892E09DA38CA3A8
:1009B0008B819C81AD81BE818EA39FA3A8A7B9A77F
:1009C00045E350E0BE016C5D7F4FCE010996CEDE5F
:1009D000892B19F400E010E063C14AD678876F8351
:1009E0007627672776277DA36CA342E050E0BE01FF
:1009F0006C5D7F4FCE010996F7DD81E090E09FAB03
:100A00008EAB42E050E0BE016A5C7F4FCE0109969A
:100A1000EBDD80E091E09FAB8EAB42E050E0BE01A9
:100A20006A5C7F4FCE010996DFDD1FAA1EAA42E055
:100A300050E0BE016A5C7F4FCE010996D5DD42E0F1
:100A400050E0BE016A5C7F4FCE010996CDDD42E0E9
:100A500050E0BE016A5C7F4FCE010996C5DD78018A
:100A6000D7018C91882309F1F8017F0181918111CF
:100A700015C06701C01AD10A1C141D0494F4C8AE35
:100A800041E050E0BE01685C7F4FCE010996ACDDCD
:100A9000A601B801CE010996A7DD03C08E3229F761
:100AA000E8CF87010F5F1F4FDBCF18AE41E050E06A
:100AB000BE01685C7F4FCE01099696DD00E011E033
:100AC0001FAB0EAB42E050E0BE016A5C7F4FCE012F
:100AD00009968ADD1FAB0EAB42E050E0BE016A5CB6
:100AE0007F4FCE01099680DDCE01099613DE892B5A
:100AF00009F470CF63E0E62EF12CBAD52B013C014E
:100B0000CE01099679D41816190694F0B1D5DC01F6
:100B1000CB0184199509A609B70989389341A10524
:100B2000B105C0F462E370E080E090E069D5E8CF01
:100B30004B815C816D817E81898D9A8DAB8DBC8D61
:100B4000481759076A077B0741F48D8D9E8DC5971D
:100B500021F406C02FEF3FEF9AC02EEF3FEF97C072
:100B60008AA19BA10C970CF4A7C04CE050E0BE01F9
:100B70006C5D7F4FCE010996C6D38EA190E0982F71
:100B800088272FA1822B9BAF8AAF2CA130E0322F78
:100B900022274DA1242B4F8158854217530709F076
:100BA00088C097FF86C08F709270892B09F0E0C0D3
:100BB0000AA510E0102F00278BA5082B01151105A1
:100BC00009F4D3C0C12CD12C88A590E0982F882798
:100BD00029A5822BC816D90608F471C0C12CD12CC6
:100BE00041E050E0BE01645C7F4FCE0109968BD39B
:100BF0008CAD982F907C09F095C0811188C08CAD88
:100C00008111EECF42E050E0BE01685C7F4FCE0123
:100C1000099679D342E050E0BE016A5C7F4FCE0175
:100C2000099671D3CE0109968CD3CE01099689D34A
:100C3000CE01099686D3CE01099683D342E050E0D7
:100C4000BE01665C7F4FCE0109965DD388AD99AD3C
:100C50008115914009F06BC02EA93FA932272327A7
:100C600032272130310509F062C08AAD9BAD811574
:100C7000944009F077C044E050E0BE016E5C7F4FC5
:100C8000CE0109962DAF3EAF3ED32DAD3EAD8901CD
:100C9000B1E0EB1AF10821F02F3F3F4F09F42DCFBF
:100CA000CE01099639DC0130110509F448CEC8019E
:100CB00067C02CEF3FEFEBCF2DEF3FEFE8CF41E0E8
:100CC00050E0BE016A5C7F4FCE0109961CD38EA90D
:100CD000811113C08EA98111F2CFCE01099631D3B3
:100CE000CE0109962ED3CE0109962BD3CE010996BB
:100CF00028D3FFEFCF1ADF0A67CF8EA99FEF980F97
:100D00009EAB882339F3CE0109961BD3F6CF8CAD69
:100D10009FEF980F9CAF882309F471CFCE010996FD
:100D200010D3F5CFCE0109960CD31CAE68CF612C41
:100D3000712C8AAD9BAD982789279827681679066C
:100D400038F4CE010996FDD28FEF681A780AF1CFF8
:100D5000AFEFCA1ADA0AC016D10609F041CF26EF62
:100D60003FEF95CF27EF3FEF92CF2AEF3FEF8FCFA7
:100D70002BEF3FEF8CCF80E090E002C08EEF9FEF33
:100D8000EE960FB6F894DEBF0FBECDBFDF91CF91C8
:100D90001F910F91FF90EF90DF90CF90BF90AF9099
:100DA0009F908F907F906F905F904F900895FC017F
:100DB00090810180F281E02DF8948181892B8183DB
:100DC0002281892F809528232283A7E0B0E0119704
:100DD000F1F7218182238183A3E2B0E01197F1F73B
:100DE00080817894EFECF0E03197F1F7982381E07F
:100DF00009F480E00895FC0190810180F281E02DEA
:100E0000892F809560FF12C0F8942281822382830B
:100E10008181892B8183A3E2B0E01197F1F7828170
:100E2000982B9283789487ED90E011C0F8942281FA
:100E3000822382838181892B8183AFEFB0E0119778
:100E4000F1F78281982B928378948FE090E001975C
:100E5000F1F70895CF92DF92EF92FF920F931F93D5
:100E6000CF93DF931F92CDB7DEB76C01E62E08E07B
:100E700010E0FF24F39461E08F2D8E2109F460E0EF
:100E8000C6014983B8DFFF0C0150110949810115E2
:100E9000110589F7411115C0F894D6011196ED910D
:100EA000FC91129791818C91809589238183119671
:100EB000ED91FC91129792818C9180958923828388
:100EC00078940F90DF91CF911F910F91FF90EF9049
:100ED000DF90CF900895CF92DF92EF92FF920F9321
:100EE0001F93CF93DF931F92CDB7DEB78C01F62E01
:100EF00040E065E57983AEDFCF2C7981D72E76018E
:100F000088E0E80EF11CF60161916F0140E0C80134
:100F1000A1DFCE14DF04B9F70F90DF91CF911F91BD
:100F20000F91FF90EF90DF90CF900895FC0190819A
:100F30000180F281E02DF8948181292F2095822370
:100F4000818378948DE743E050E0815021F1DA010C
:100F50001197F1F730813923C1F3F894828182230C
:100F600082838181892B81837894ABECB7E01197E0
:100F7000F1F7F894818128232183ABE3B1E0119745
:100F8000F1F78081982381E009F080E07894EBE824
:100F9000F6E03197F1F708950F931F93CF93DF9306
:100FA00000D000D0CDB7DEB78C0167EB76E0CE0184
:100FB00001960E94791063EC76E0CE010196C6D7C7
:100FC0006DEF72E0ACD7B801C1D7BC01C801E4D75E
:100FD000CE0101960E941A1061E088E0A6D2B80105
:100FE000CE0101960E9479106FEF72E0CE0101965A
:100FF00096D7FC0144815581608171818BE894E032
:10100000D7D4CE0101960E941A106AE070E080E009
:1010100090E0F6D260E088E088D226960FB6F89489
:10102000DEBF0FBECDBFDF91CF911F910F9108950D
:10103000CF92DF92EF92FF920F931F93CF93DF93A4
:10104000CDB7DEB72F970FB6F894DEBF0FBECDBF7A
:101050007C016B0160E073E00E948110860188E0F2
:10106000C80ED11CF80181918F011B861A861D863E
:101070001C861F861E8640E1BE016F5F7F4F90E099
:101080000E941D23BE016F5F7F4FCE010A966FD76E
:101090004E855F856A857B85C70114D7CE010A9688
:1010A000C9D70C151D05F1F6C7012F960FB6F89498
:1010B000DEBF0FBECDBFDF91CF911F910F91FF908B
:1010C000EF90DF90CF9008950F931F93CF93DF930E
:1010D000EC01CED2088119812A813B81DC01CB0150
:1010E000801B910BA20BB30B0C811D812E813F81C4
:1010F00080179107A207B30738F0BAD268837983C3
:101100008A839B8381E001C080E0DF91CF911F91B2
:101110000F91089590E0FC013197E231F10508F05C
:101120004EC08827EC57FF4F8F4F0C94D81F8091EB
:1011300080008F7703C0809180008F7D8093800036
:10114000089580918000877FF9CF84B58F7702C0A2
:1011500084B58F7D84BD08958091B0008F7703C0E2
:101160008091B0008F7D8093B000089580919000B1
:101170008F7707C0809190008F7D03C08091900091
:10118000877F8093900008958091A0008F7707C09B
:101190008091A0008F7D03C08091A000877F809305
:1011A000A0000895809120018F7707C080912001D1
:1011B0008F7D03C080912001877F80932001089557
:1011C0003FB7F8948091770490917804A0917904C6
:1011D000B0917A0426B5A89B05C02F3F19F001965F
:1011E000A11DB11D3FBFBA2FA92F982F8827820FAD
:1011F000911DA11DB11DBC01CD0142E0660F771FFD
:10120000881F991F4A95D1F7089508951F93CF938A
:10121000DF93182F66E270E0BDD9C82FD0E067E2F7
:1012200070E0812FB7D9DC2FCC279E01282BC90174
:10123000DF91CF911F910895AF92BF92DF92EF920D
:10124000FF920F931F93CF93DF93D82E7B018A01D8
:1012500080E590E0C6D9C0E0D0E08D2DD7DF5C01FD
:10126000892B19F08D2DD2DFEC01CA15DB05A9F70A
:10127000209791F463E070E08D2D8CD98431B9F121
:101280008823A9F1C1E0D0E08C3111F4C0E0D0E0B6
:10129000D195C195D1092BC00C171D070CF4E8019D
:1012A0001C161D0624F568E270E08D2D73D9082FF9
:1012B00010E069E270E08D2D6DD9102F0027082B0A
:1012C0009E01A701B8018D2D0E941F130C0F1D1F39
:1012D000412F68E270E08D2D34D9402F69E270E033
:1012E0008D2D2FD960E470E08D2D0E940F1378D9D9
:1012F000CE01DF91CF911F910F91FF90EF90DF9082
:10130000BF90AF900895CF93DF93FC01218D328D74
:101310002115310519F48FEF9FEF10C0EC01421732
:10132000530708F0A901888D87DF181619069CF766
:10133000298D3A8D281B390B3A8F298FDF91CF9158
:1013400008950F931F93CF93DF931F92CDB7DEB70E
:10135000FC01218D328D232B59F08C0141E050E0AE
:10136000BE016F5F7F4F808D67DF181619061CF076
:101370008FEF9FEF08C0F801818D928D0197928FBA
:10138000818F898190E00F90DF91CF911F910F9114
:101390000895FF920F931F93CF93DF931F92CDB7C2
:1013A000DEB7FC01218D328D232BE9F0F08C80E536
:1013B00090E017D968E270E08F2DECD8082F10E08C
:1013C00069E270E08F2DE6D8702F6627682B21E048
:1013D00030E0AE014F5F5F4F8F2D0E941F1300D989
:1013E000898190E002C08FEF9FEF0F90DF91CF9146
:1013F0001F910F91FF900895BF92CF92DF92EF92CD
:10140000FF920F931F93CF93DF93CDB7DEB728974B
:101410000FB6F894DEBF0FBECDBF8C01F801818DF1
:10142000928D892B49F0D801ED91FC910680F781CE
:10143000E02DC8011995F2CFB08C80E590E0D1D8AD
:10144000E12CF12C8B2DE2DE6C01892B19F08B2D18
:10145000DDDE7C01EC14FD04A9F7C2D81E141F04C4
:1014600054F548E050E0BE016F5F7F4FD8015896B9
:101470008C91E2DE9C0118161906DCF489819A81B0
:10148000AB81BC81F801808B918BA28BB38B8D815A
:1014900090E0982F88272E81820F911D958B848B49
:1014A0002F8130E0322F22278885280F311D328F7F
:1014B000218FC90102C080E090E028960FB6F89411
:1014C000DEBF0FBECDBFDF91CF911F910F91FF9077
:1014D000EF90DF90CF90BF900895CF93DF93282FA8
:1014E00030E0F901E45DFE4F8491F901EA5FFC4FC1
:1014F000D491F901E054FD4FC491CC2389F08111BE
:1015000009DEEC2FF0E0EE0FFF1FEA55FD4FA5912D
:10151000B491EC91ED2381E090E021F480E002C0F1
:1015200080E090E0DF91CF9108951F93CF93DF93F8
:10153000282F30E0F901E45DFE4F8491F901EA5F64
:10154000FC4FD491F901E054FD4FC491CC23C1F07C
:10155000162F8111DFDDEC2FF0E0EE0FFF1FE457B7
:10156000FE4FA591B4918FB7F894111105C09C91CD
:10157000ED2FE095E92302C0EC91ED2BEC938FBFAA
:10158000DF91CF911F910895CF93DF9390E0FC01FD
:10159000EA5FFC4F2491FC01E054FD4F84918823C5
:1015A00061F190E0880F991FFC01EE58FE4FC59144
:1015B000D491FC01E457FE4FA591B491611109C08B
:1015C0009FB7F8948881209582238883EC912E23FD
:1015D0000BC0623061F49FB7F8943881822F8095F8
:1015E00083238883EC912E2B2C939FBF06C08FB74B
:1015F000F894E8812E2B28838FBFDF91CF91089537
:101600008F929F92AF92BF92CF92DF92EF92FF9212
:101610006B017C01D5DD4B015C01C114D104E104F7
:10162000F104E9F0CDDDDC01CB0188199909AA09A3
:10163000BB09883E9340A105B10578F321E0C21AA9
:10164000D108E108F10888EE880E83E0981EA11CFD
:10165000B11CC114D104E104F10421F7DECFFF90E5
:10166000EF90DF90CF90BF90AF909F908F900895B4
:101670002FB7F8946091730470917404809175048D
:10168000909176042FBF08951F920F920FB60F927C
:1016900011242F933F938F939F93AF93BF93809188
:1016A000730490917404A0917504B0917604309104
:1016B000720423E0230F2D3720F40196A11DB11DE4
:1016C00005C026E8230F0296A11DB11D20937204C8
:1016D0008093730490937404A0937504B09376047C
:1016E0008091770490917804A0917904B0917A0464
:1016F0000196A11DB11D8093770490937804A09367
:101700007904B0937A04BF91AF919F918F913F91EB
:101710002F910F900FBE0F901F9018952C9A08953F
:101720002C9808951F93CF93DF93182F60E270E0F9
:101730000E94CA02C82FD0E061E270E0812F0E94AF
:10174000CA02DC2FCC279E01282BC901DF91CF9143
:101750001F9108958EBD00000DB407FEFDCF8EB51C
:101760000895CF92DF92EF92FF920F931F93CF9342
:10177000DF93EC017A018B016C01C40ED51ECC15F0
:10178000DD0579F0CDDF8FE0E5DF8D2FE3DF8C2FF6
:10179000E1DF219680E0DEDFF80181938F01BEDF7B
:1017A000EECFC701DF91CF911F910F91FF90EF9086
:1017B000DF90CF900895CF92DF92EF92FF920F9338
:1017C0001F93CF93DF93EC017A018B016C01C40E60
:1017D000D51ECC15DD0571F0A3DF80EFBBDF8D2FAB
:1017E000B9DF8C2FB7DF2196F80181918F01B2DF2D
:1017F00095DFEFCFC701DF91CF911F910F91FF9040
:10180000EF90DF90CF900895CF93C82F80E590E0C0
:101810000E94F10260E170E08C2F01D74FEF62E08F
:1018200070E08C2F0E94A102CF910C94F002FF92E5
:101830000F931F93CF93DF931F921F92CDB7DEB705
:10184000F82E8A012A836983DFDF80E590E00E9419
:10185000F1022A816981462F422B60E070E08F2DD2
:101860000E94A1020115110551F40091700410911C
:1018700071040F5F1F4F1093710400937004412F88
:1018800064E070E08F2D0E94A102402F65E070E0BF
:101890008F2D0E94A10261E070E08F2DC0D60E94C2
:1018A000F00281E00F900F90DF91CF911F910F9187
:1018B000FF900895BF92CF92DF92EF92FF920F9325
:1018C0001F93CF93DF9300D000D0CDB7DEB7FC01DC
:1018D000208D243009F05AC06A017B018C01B12CA3
:1018E00063E070E08B2D0E94CA02811103C0F801F1
:1018F000B08E06C08831D9F3B394F4E0BF12F0CFB4
:10190000F801808D843009F441C096E0E8E6F2E009
:10191000DE01119601900D929A95E1F7F7019381FE
:101920009F779C8394819D8395819E83B7016E5F91
:101930007F4F90E0982F882744E050E0845F9B4FD2
:101940003ADFF801F08C4D2D60E170E08F2D0E94A0
:10195000A1024C2D61E170E08F2D0E94A102F801DF
:10196000808D90E0982F882746E050E0BE016F5FA1
:101970007F4F8A5F9B4F1FDFF801128E118E20E888
:10198000A60162E0808D53DF81E001C080E02696F1
:101990000FB6F894DEBF0FBECDBFDF91CF911F9180
:1019A0000F91FF90EF90DF90CF90BF900895089532
:1019B000CF92DF92EF92FF920F931F93CF93DF931B
:1019C0006C017A018B01C0E0D0E0CE15DF0589F013
:1019D000D8016D918D01D601ED91FC910190F081BE
:1019E000E02DC6011995892B11F47E0102C02196C4
:1019F000ECCFC701DF91CF911F910F91FF90EF9036
:101A0000DF90CF900895FC01A089B1898C91A689BF
:101A1000B78982FD0FC09C91818D8F5F8F73228D5E
:101A2000821749F0218DDF01A20FB11D5D969C93B5
:101A3000818F08958C910895FC01918D828D981766
:101A400061F0828DDF01A80FB11D5D968C91928DA2
:101A50009F5F9F73928F90E008958FEF9FEF08959F
:101A6000FC01918D828D981731F0828DE80FF11D68
:101A7000858D90E008958FEF9FEF0895FC01918D83
:101A8000228D892F90E0805C9F4F821B91098F737C
:101A9000992708958BE894E0F1DF21E0892B09F480
:101AA00020E0822F089588E295E0E8DF21E0892B8D
:101AB00009F420E0822F0895FC01848DDF01A80F36
:101AC000B11DA35ABF4F2C91848D90E001968F7366
:101AD0009927848FA689B7892C93A089B1898C9185
:101AE00080648C93938D848D981306C00288F3894B
:101AF000E02D80818F7D80830895EF92FF920F9378
:101B00001F93CF93DF93EC0181E0888F9B8D8C8DA9
:101B1000981305C0E889F989808185FD23C0F62ED8
:101B20000B8D10E00F5F1F4F0F731127E02E8C8D70
:101B3000E8120BC00FB607FCFACFE889F98980815B
:101B400085FFF5CFCE01B8DFF2CF8B8DFE01E80F18
:101B5000F11DE35AFF4FF0820B8FEA89FB898081E8
:101B6000806207C0EE89FF896083E889F9898081F6
:101B70008064808381E090E0DF91CF911F910F918D
:101B8000FF90EF900895CF93DF93EC01888D882329
:101B9000C1F0EA89FB89808185FD05C0A889B989E2
:101BA0008C9186FD0EC00FB607FCF5CF808185FFB6
:101BB000F2CFA889B9898C9185FFEDCFCE017CDF6A
:101BC000E8CFDF91CF91089580E090E0892B19F064
:101BD0006ADF811120C080E090E0892B19F05ADF84
:101BE00081111CC080E090E0892B41F080E090E002
:101BF000892B21F00E940000811113C080E090E049
:101C0000892BA1F080E090E0892B81F00E940000F8
:101C100081110AC008950E940000DDCF0E940000DB
:101C2000E1CF0E940000EACF0C94000008950E94CA
:101C300059224F925F926F927F92EF92FF920F9391
:101C40001F93CF93DF93CDB7DEB7A1970FB6F8946C
:101C5000DEBF0FBECDBF7C01FA01CB0119A222303D
:101C600008F42AE08E010F5D1F4F422E512C612C8B
:101C7000712CBF01A30192010E94CF26F901CA0174
:101C8000015011096A3014F4605D01C0695CD8012B
:101C90006C93232B242B252B61F70115110591F053
:101CA000F80101900020E9F73197AF01401B510B7B
:101CB000D701ED91FC910280F381E02DB801C701BD
:101CC000199502C080E090E0A1960FB6F894DEBFAF
:101CD0000FBECDBFDF91CF911F910F91FF90EF907D
:101CE0007F906F905F904F900895CF93DF93EC01BA
:101CF00088819981009711F00E94DD201982188255
:101D00001D821C821B821A82DF91CF9108950F934E
:101D10001F93CF93DF93EC0188819981009729F07D
:101D20002A813B812617370788F48B016F5F7F4F2D
:101D30000E947521009761F0998388831B830A8331
:101D40002C813D81232B11F4FC01108281E001C024
:101D500080E0DF91CF911F910F910895EF92FF9254
:101D60000F931F93CF93DF93EC017B018A01BA019C
:101D7000CEDF811103C0CE01B8DF07C01D830C8305
:101D8000B701888199810E948022CE01DF91CF9195
:101D90001F910F91FF90EF9008958F929F92AF92B5
:101DA000BF92CF92DF92EF92FF920F931F93CF9348
:101DB000DF937C01EB016C0182E0C80ED11C47016E
:101DC000E5E08E0E911C00E010E0F60141916F01FC
:101DD00050E060E070E02AE0CE012BDF5C01E8819A
:101DE000F9810190F081E02D6EE2CE0119958A0D06
:101DF0009B1D080F191FC814D90439F7F701458135
:101E000050E060E070E02AE0CE0113DF800F911F08
:101E1000DF91CF911F910F91FF90EF90DF90CF90C6
:101E2000BF90AF909F908F900895FB0144815581A2
:101E3000FC01248135812417350778F08081918158
:101E4000009759F0FB01608171816115710529F0DE
:101E50000E94872221E0892B09F020E0822F08953B
:101E6000FC0124813581FB0144815581241735070C
:101E700021F5FC0180819181FB01608171810097D6
:101E800019F061157105A1F46115710549F0232B55
:101E9000B1F0FB01808190E09195819591090AC094
:101EA000009769F0232B59F0FC01808190E002C07B
:101EB0000E94772221E0892B19F020E001C021E067
:101EC000822F0895EF92FF920F931F93CF93DF938A
:101ED000FC01248135816115710511F480E018C081
:101EE00041155105A1F07B01EC018A01020F131F7E
:101EF000B8010DDF882391F3288139818C819D8180
:101F0000B701820F931F0E9480221D830C8381E002
:101F1000DF91CF911F910F91FF90EF900895CF9394
:101F2000DF93EC016115710559F0FB010190002070
:101F3000E9F73197AF01461B570BC4DF811102C08F
:101F4000CE01D3DECE01DF91CF910895CF93DF9301
:101F5000EC01FB014481558160817181B3DF811106
:101F600002C0CE01C2DECE01DF91CF910895CF93A2
:101F7000DF93EC016115710551F0FB010190002028
:101F8000E9F73197AF01461B570BE8DE01C0ADDE24
:101F9000CE01DF91CF910895CF93DF93EC01FB0148
:101FA0008617970751F0608171816115710521F0E5
:101FB00044815581D3DE01C098DECE01DF91CF91FF
:101FC00008950F931F93CF93DF938C01EB01FC01D6
:101FD000808191810097B1F06881798161157105E7
:101FE00079F0428153812C813D814217530740F0A3
:101FF0000E9480228C819D81F8019583848313C087
:102000000E94DD2088819981F801918380838A81F3
:102010009B81938382838C819D81958384831982A4
:1020200018821B821A821D821C82DF91CF911F9120
:102030000F910895FC01808191810C94DD20EF9235
:10204000FF920F931F93CF93DF93CDB7DEB7A19786
:102050000FB6F894DEBF0FBECDBF7C01CB01BA0135
:10206000F70111821082138212821582148242E0DB
:10207000420F8E010F5F1F4F0E94AF22BC01C701AC
:1020800076DFA1960FB6F894DEBF0FBECDBFDF910D
:10209000CF911F910F91FF90EF9008950F931F9391
:1020A000CF93DF93CDB7DEB762970FB6F894DEBF5C
:1020B0000FBECDBF8C01CB01F801118210821382BB
:1020C00012821582148250E0BE016F5F7F4F0E9422
:1020D000F422BE016F5F7F4FC80149DF62960FB6E1
:1020E000F894DEBF0FBECDBFDF91CF911F910F914E
:1020F0000895FC01118210821382128215821482CB
:102100004BCFFC011182108213821282158214823D
:102110006115710549F0FB0101900020E9F7319745
:10212000AF01461B570B1ACE0895BF92CF92DF9294
:10213000EF92FF920F931F93CF93DF937C016B017C
:102140008A01E9012417350720F4812F8901C42F62
:10215000D82F60E073E0C701D4DFD60114968D91CB
:102160009C91159708171907C8F48C179D0708F458
:10217000EC01D601ED91FC911197EC0FFD1FB080A1
:1021800010824D915C91BA01600F711FC701EFDEA3
:10219000D601ED91FC91EC0FFD1FB082C701DF91DC
:1021A000CF911F910F91FF90EF90DF90CF90BF9054
:1021B00008951F920F920FB60F9211240BB60F9233
:1021C0002F933F934F935F936F937F938F939F933F
:1021D000AF93BF93EF93FF938BE894E06DDCFF9197
:1021E000EF91BF91AF919F918F917F916F915F918F
:1021F0004F913F912F910F900BBE0F900FBE0F90FC
:102200001F9018951F920F920FB60F9211240BB6C4
:102210000F922F933F934F935F936F937F938F937F
:102220009F93AF93BF93EF93FF938BE894E0EBDB27
:10223000FF91EF91BF91AF919F918F917F916F919E
:102240005F914F913F912F910F900BBE0F900FBE5A
:102250000F901F9018951F920F920FB60F92112496
:102260000BB60F922F933F934F935F936F937F9390
:102270008F939F93AF93BF93EF93FF9388E295E083
:102280001BDCFF91EF91BF91AF919F918F917F9157
:102290006F915F914F913F912F910F900BBE0F90D7
:1022A0000FBE0F901F9018951F920F920FB60F92AE
:1022B00011240BB60F922F933F934F935F936F931D
:1022C0007F938F939F93AF93BF93EF93FF9388E296
:1022D00095E099DBFF91EF91BF91AF919F918F9125
:1022E0007F916F915F914F913F912F910F900BBE16
:1022F0000F900FBE0F901F9018950F931F93B8D992
:10230000609393047093940480939504909396043F
:10231000E0918B04F0918C040680F781E02D8BE82E
:1023200094E0199597FF1EC0A3D9009193041091D2
:1023300094042091950430919604DC01CB01801B1C
:10234000910BA20BB30B00918F041091900420917C
:1023500091043091920480179107A207B307C0F24D
:102360008FEF9FEF1F910F9108956F927F928F9241
:102370009F92AF92BF92CF92DF92EF92FF920F9314
:102380001F93CF93DF93EC017093D6056093D5052F
:102390008091D3059091D4050E9496076091D50550
:1023A0007091D6058091D3059091D4050E946B075A
:1023B00040E068EB8091D3059091D4050E942A07F4
:1023C00040E060E08091D3059091D4050E942A07F7
:1023D0008091D3059091D4050E9496076091D50510
:1023E0007091D6058091D3059091D4050E946B071A
:1023F00040E06EEB8091D3059091D4050E942A07AE
:1024000040E060E08091D3059091D4050E942A07B6
:102410007E014E0189E0880E911C8E016090D305EB
:102420007090D40588E0A82EB12CCC24C394D12C74
:10243000C3010E94D7068111DC28CC0CA1E0AA1AA6
:10244000B108B1F7F801D1928F01E815F90531F71C
:1024500089E0E0E0815049F0D7019D917D01E927B5
:10246000F0E0EA55FE4FE491F5CF81E09885E9135D
:1024700080E0DF91CF911F910F91FF90EF90DF905F
:10248000CF90BF90AF909F908F907F906F90089566
:10249000CF93C82F8091D3059091D4050E949607C1
:1024A0006091D5057091D6058091D3059091D405A2
:1024B0000E946B07CC23E9F040E064E48091D305EF
:1024C0009091D4050E942A076AE070E080E090E0D5
:1024D00097D88091D3059091D4050E94960760917A
:1024E000D5057091D6058091D3059091D4050E94B1
:1024F0006B0740E064EB8091D3059091D4050E9476
:102500002A0768E070E080E090E07AD881E0CF911F
:102510000895CF92DF92FF920F931F93CF93DF9393
:10252000CDB7DEB729970FB6F894DEBF0FBECDBF8B
:102530008C017093D6056093D505CE01019615DF09
:10254000F82E882309F45CC099810130110511F43B
:10255000986001C0977F99838091D3059091D405AD
:102560000E9496076091D5057091D6058091D3059C
:102570009091D4050E946B0740E06EE48091D305F2
:102580009091D4050E942A0740E060E08091D30535
:102590009091D4050E942A078E010F5F1F4F6E0194
:1025A00089E0C80ED11CF80161918F0140E0809153
:1025B000D3059091D4050E942A070C151D0599F7A3
:1025C0008091D3059091D4050E9496076091D5051E
:1025D0007091D6058091D3059091D4050E946B0728
:1025E00040E068E48091D3059091D4050E942A07C9
:1025F00040E060E08091D3059091D4050E942A07C5
:102600008F2D29960FB6F894DEBF0FBECDBFDF9198
:10261000CF911F910F91FF90DF90CF900895CF93AE
:10262000C82F462F61E070E00E94A10261E070E0D7
:102630008C2F0E94CA028111F9CFCF910895AF92D9
:10264000BF92CF92DF92EF92FF920F931F93CF939F
:10265000DF931F921F92CDB7DEB77A836983BA01E9
:10266000A901E981FA81F770082F10E0000F111F0E
:102670000D571B4FD8018D919C918E0F9F1F2E0FD0
:102680003F1F2130384090F07A015B0120E038E0B4
:102690006901CE1ADF0AA60164D8A7014C195D09A9
:1026A000B5016C0D7D1DF801808191810F900F9017
:1026B000DF91CF911F910F91FF90EF90DF90CF901E
:1026C000BF90AF904EC8CF93DF93CDB7DEB7CD5656
:1026D000D1090FB6F894DEBF0FBECDBF789484B594
:1026E000826084BD84B5816084BD85B5826085BD0E
:1026F00085B5816085BD80916E00816080936E009C
:10270000109281008091810082608093810080918D
:10271000810081608093810080918000816080933E
:1027200080008091B10084608093B1008091B000FE
:1027300081608093B00080919100826080939100CD
:1027400080919100816080939100809190008160E0
:10275000809390008091A10082608093A10080917D
:10276000A10081608093A1008091A000816080938E
:10277000A00080912101826080932101809121013C
:1027800081608093210180912001816080932001EC
:1027900080917A00846080937A0080917A008260D0
:1027A00080937A0080917A00816080937A00809192
:1027B0007A00806880937A001092C100E091380519
:1027C000F091390522E02083E0913405F091350540
:1027D0001082E0913605F09137058FEC80831092DE
:1027E0004005E0913C05F0913D0596E09083E09135
:1027F0003A05F0913B05808180618083E0913A0544
:10280000F0913B05808188608083E0913A05F091EA
:102810003B05808180688083E0913A05F0913B051B
:1028200080818F7D8083E0919B04F0919C042083C4
:10283000E0919704F09198041082E0919904F0914E
:102840009A0480E180831092A304E0919F04F091A8
:10285000A0049083E0919D04F0919E0480818061AA
:102860008083E0919D04F0919E0480818860808344
:10287000E0919D04F0919E04808180688083E091C6
:102880009D04F0919E0480818F7D808382E390E09F
:10289000A0E0B0E080938F0490939004A093910403
:1028A000B0939204A4E7EA2EA3E0FA2E08E112E026
:1028B000D8018C910E5F1F4F62E00E94C40AF7019D
:1028C000119211927F01F2E008341F0789F7F8E4B2
:1028D000CF2EF2E0DF2EE12CF12C00E010E0D6014B
:1028E0008C91B2E0CB0ED11C61E00E94C40A0F5F54
:1028F0001F4F4AE0B801CE010196D0DB65EA76E0D1
:10290000CE018296F6DBBE016F5F7F4FCE018296CD
:102910001DDB6CEE72E003DBBC01C701895A994FE5
:102920003BDBCE01829686DBCE01019683DB4AE05B
:10293000B801CE010196B2DB65EA76E0CE0182965F
:10294000D8DBBE016F5F7F4FCE018296FFDA60EF6A
:1029500072E0E5DABC01C701815F994F1DDBCE0152
:10296000829668DBCE01019665DB60E0F60180812E
:102970000E94950AF6E0EF0EF11C0C30110509F0EB
:10298000AECF77EFC72E75E0D72EE0E6EE2EE2E071
:10299000FE2E00E010E0D7018C91B2E0EB0EF11CAE
:1029A00061E00E94C40A0F5F1F4F4AE0B801CE01E8
:1029B000019674DB6FE976E0CE0182969ADBBE0168
:1029C0006F5F7F4FCE018296C1DABC01C601E4DAA7
:1029D000CE0182962FDBCE0101962CDBF701B08071
:1029E00061E08B2D0E94C40A60E08B2D0E94950A45
:1029F000F6E0CF0ED11C0430110569F660E08AE3E1
:102A00000E94C40A60E08BE30E94C40A60E08EE387
:102A10000E94C40A61E080E20E94C40A85E390E05B
:102A2000A0E0B0E080935C0490935D04A0935E040A
:102A3000B0935F040E94380B60935804709359045C
:102A400080935A0490935B0486EB93E0A0E0B0E09F
:102A50008093640490936504A0936604B093670424
:102A60000E94380B60936004709361048093620449
:102A7000909363045AE0E52E52E0F52E00E010E05A
:102A8000AA24A394B12CD701DC90B2E0EB0EF11C88
:102A900060E08D2D0E94C40A8D2D0E946D0A892B45
:102AA00089F42091640330916503C501002E02C0B2
:102AB000880F991F0A94E2F7822B932B909365035A
:102AC000809364030F5F1F4F04301105E1F660919E
:102AD0006403709165034AE0CE010196DFDABE011E
:102AE0006F5F7F4F83EC96E06CDACE010196A2DA3D
:102AF00060916403709165034AE0CE010196CEDADD
:102B000067EB76E0CE018296F4DABE016F5F7F4F0D
:102B1000CE0182961BDABC018DEB96E03DDACE0148
:102B2000829688DACE01019685DA61E088E00E941B
:102B3000C40A60E088E00E94950A04E113E03BE0EB
:102B4000932EC12CD12C882483944EE0742E7801CE
:102B50008091F60581116FC089EE95E00E9496077D
:102B6000811107C01092F4051092F6051092F50538
:102B7000F4C040E060EF89EE95E00E942A07AA24A5
:102B8000A394612C512CBB24B39489EE95E00E9450
:102B9000D706682F89EE95E0AD966FAFAD970E948E
:102BA000D706AD966FADAD97613019F48130C9F499
:102BB00038C0262D30E068131EC08091F405B81689
:102BC00038F4F901E751FA4F83818A2151F402C0A8
:102BD000B81639F060E088E08B1560F0B092F5052A
:102BE00009C0E62DF0E0E751FA4F83818A298383FB
:102BF00061E009C05B2CF901E751FA4F93818A2DFE
:102C000080958923838389EE95E00E94FB06B39427
:102C1000AA0C19F46394AA24A39497E0961508F0DB
:102C2000B4CFA0E4AB1538F45092F405511069C646
:102C30008092F60566C61092F4051092F605109281
:102C4000F50580E0ACEEB5E05801E8E0AE0EB11C51
:102C5000F8019D919193EA15FB05D9F7882309F4B2
:102C60007CC088E0E0E0815049F0D8019D918D0161
:102C7000E927F0E0EA55FE4FE491F5CF21E030E09E
:102C8000EE2311F020E030E0F701878190E0281773
:102C9000390709F45EC080818632B1F4F8E0DF9E26
:102CA000A001112480E090E0FC01E40FF51FEB503F
:102CB000FC4FD701A80FB91F2C91208301968830B3
:102CC000910591F7D39445C028E0C29EA00111243C
:102CD00080E090E0FC01E40FF51FEC55FC4FD701BC
:102CE000A80FB91F2C91208301968830910591F788
:102CF000C394E9EEF5E0DE01DE96872D01900D929A
:102D00008A95E1F7CE01CE960E949607B701CE01D3
:102D1000CE960E946B0740E06EE4CE01CE960E94F4
:102D20002A0740E060E0CE01CE960E942A0740E0EC
:102D300060E0CE01CE960E942A0740E06FE5CE010A
:102D4000CE960E942A0740E068E4CE01CE960E940B
:102D50002A079A9485019110FACED0924504C09228
:102D6000F40328E8222E23E1322E412C512C80E658
:102D700094E00E946408882321F061E080E20E94D0
:102D8000950A88E594E00E946408882321F060E0B9
:102D900080E20E94950A84E7E82E83E0F82E98E10D
:102DA000C92E92E0D92E01E010E0D6018C91B2E05C
:102DB000CB0ED11C0E946D0AF70120813181D70111
:102DC0008D939D937D0182179307B4F44AE0B80177
:102DD000CE01845B9F4F62D961EB76E0CE018E5AC3
:102DE0009F4F87D9BE01645B7F4FCE018E5A9F4FA4
:102DF000ADD865EF72E018C0281739074CF54AE0E6
:102E0000B801CE01845B9F4F49D961EB76E0CE01DA
:102E10008E5A9F4F6ED9BE01645B7F4FCE018E5A92
:102E20009F4F94D868EF72E07AD8BC01CE0101962A
:102E300060D9CE0101960E94CC07CE010196FAD846
:102E4000CE018E5A9F4FF6D8CE01845B9F4FF2D8A9
:102E50000F5F1F4F0931110509F0A7CF8CE693E0F2
:102E60000E946408811107C060E073E0CE018E5AB1
:102E70009F4F47D9D5C084EF91E0A0E0B0E08093A8
:102E8000700390937103A0937203B09373030E9435
:102E9000380B60936C0370936D0380936E03909373
:102EA0006F0312E1C12E12E0D12E06E6E02E03E000
:102EB000F02E01E010E0D6018C91B2E0CB0ED11CD7
:102EC000863308F0865390917B00282F2870977FD7
:102ED000922B90937B008770806480937C0080911C
:102EE0007A00806480937A0080917A0086FDFCCF1E
:102EF0006090780080917900712C782AB301072CBA
:102F0000000C880B990B0E94B9254B015C01F7015D
:102F100060817181072E000C880B990B0E94B925E6
:102F20009B01AC01D7016D927D927D01C501B40179
:102F30000E94B325882309F443C020E030E040E23A
:102F400051E4C501B4010E941826AB01BC0122E086
:102F5000CE01845B9F4F73D84AE0B801CE018E5AF0
:102F60009F4F9CD86BEA76E0CE01885A9F4FC1D81C
:102F7000BE016E5A7F4FCE01885A9F4F0E94A60F06
:102F80006DEF72E00E948F0FBE01645B7F4F0E9465
:102F9000A60FBC01CE010196ACD8CE0101960E94CD
:102FA000CC07CE01019646D8CE01885A9F4F42D811
:102FB000CE018E5A9F4F3ED8CE01845B9F4F3AD8A8
:102FC0000F5F1F4F0430110509F075CF4DCF8A30C8
:102FD000910591F02D968FAF2D972E961FAE2E97BF
:102FE00041E050E0BE01645B7F4FCE0101960E943C
:102FF000620F83D997FFEBCFBE016F5F7F4FCE018A
:103000008E5A9F4F0E94E10FCE01019613D86DEBAF
:1030100076E0CE018E5A9F4F0E94150F81110EC08F
:103020008BE894E00E943E0D181619060CF0A0C122
:1030300060E073E0CE01019664D8DBCF60E073E01E
:10304000CE0101965ED86896AEACBFAC6897A1146D
:10305000B10409F415C18090C1069090C206811494
:10306000910409F40DC1ED80FE80E818F90864961A
:103070000EAD1FAD6497E114F104B9F46091BD0683
:103080007091BE06C8010E9495228C01892B09F41B
:10309000F7C069817A814D815E81C8010E945D22FD
:1030A0008D819E81080F191FE9CFF7FE02C06801CC
:1030B00007C06090BD067090BE066501C80135C0AE
:1030C0006091BD067091BE06C8010E9495224C0118
:1030D000892B31F15401A01AB10AA501B801C6012A
:1030E0000E945D22CA0CDB1C69817A814D815E8160
:1030F000C6010E945D228D819E81C80ED91E00915D
:10310000C1061091C206080D191D68968EAD9FADBF
:1031100068978E0D9F1D68969FAF8EAF6897D0CF32
:10312000B801C6010E948022ABC0B3010E94952263
:10313000009729F0880D991DCE0CDF1CF6CFCA141C
:10314000DB0409F49DC066968EAD9FAD66978C1525
:103150009D0588F4B6016F5F7F4FC8010E947521FD
:10316000009709F48DC064969FAF8EAF6497669602
:10317000DFAECEAE669768960EAD1FAD6897015074
:10318000110917FD7DC06090C1067090C2066114E0
:10319000710409F475C06896CEACDFAC6897C114B1
:1031A000D10409F46DC0C614D70408F469C00C1525
:1031B0001D0518F08601015011096496AEACBFAC34
:1031C00064974091BD065091BE06C50188248A943B
:1031D000982C9501200F311FAC963FAF2EAFAC97C6
:1031E000AC962EAD3FADAC972817390788F0BA01E1
:1031F000AD964FAFAD97AE965FAFAE970E9495225A
:10320000AD964FADAD97AE965FADAE97009779F5A1
:1032100097FC36C0680C791CC501860D971DA60168
:1032200046195709BC018E0D9F1D0E9466226896A3
:103230008EAD9FAD68978E0D9F1D68969FAF8EAF28
:10324000689764962EAD3FAD6497F901E80FF91FBA
:10325000108264968EAD9FAD649769817A814D81AD
:103260005E81880D991D0E945D22840188CF9C019A
:103270002A193B090217130708F049010196B0CF3C
:10328000CE0101960E941A106496CEACDFAC649712
:10329000C114D10409F444C068960EAD1FAD6897FF
:1032A00001151105E9F1560175013FEFA31AB30AA3
:1032B000D7018C91082E000C990B0E949B25892B1D
:1032C00099F7015011090C0D1D1DF8018081082E80
:1032D000000C990B0E949B25892B89F40F5F1F4FCF
:1032E000A8014E195F0968965FAF4EAF6897CE147C
:1032F000DF0458F4B701C6010E945D2206C00E1516
:103300001F0560F301501109E0CF6496EEADFFADEB
:10331000649768968EAD9FAD6897E80FF91F10828D
:1033200065EA76E0CE018E5A9F4F0E94150F8823E2
:1033300009F4FDC2A8E4EA2EA2E0FA2E00E010E0B3
:10334000B801695A794FCE018E5A9F4F0E94300FB3
:10335000882309F4DDC261E0D7018C910E94950AAF
:103360000A5F1F4FF2E0EF0EF11C0834110541F720
:10337000CE018E5A9F4F0E941A101091570411309F
:10338000D9F138F0123009F4F0C1133009F421C238
:10339000B5C28FE494E00E946408882309F4AEC2A9
:1033A00080E395E7A0E0B0E0809353049093540449
:1033B000A0935504B09356040E94380B60934F04B9
:1033C00070935004809351049093520420924B04C4
:1033D00030924C0440924D0450924E040E94380B9F
:1033E00060934704709348048093490490934A047F
:1033F0001092460481E0EAC187E494E00E946408E8
:10340000882309F47BC28091460490914504891772
:1034100008F0A7C197E09093D7051092D8051092B5
:10342000D9051092DA051092DB051092DC05109296
:10343000DD051092DE051092DF051092E005109276
:10344000E1051092E2051092E3051093E805109251
:10345000E4051092E5051092E6051092E705A8E054
:103460008A9FC00111248B509C4F9093D605809366
:10347000D5050E94380B6093E4057093E5058093B1
:10348000E6059093E7051091D70510FD03C01430B1
:1034900009F05EC06091D5057091D60580E090E09E
:1034A00038D8882309F4BDC012FB112710F9812FE9
:1034B0000E944812882309F4B4C06091D505709128
:1034C000D605CE0101960E94B511882309F4A9C042
:1034D0001123F9F06B8170E0762F66278A81682BC3
:1034E000E3E075956795EA95E1F7072E000C880BE8
:1034F000990B0E94B92520E030E040E05DE30E9496
:1035000018266093D8057093D9058093DA059093B7
:10351000DB058091D70580FF1BC06D8170E0762FA1
:103520006627662773708C81682B072E000C880B2A
:10353000990B0E94B92520E030E048EC52E440D5D8
:103540006093DC057093DD058093DE059093DF05C5
:103550008091D70581FF63C082FF04C08095182F3A
:10356000117001C010E06091D5057091D60581E021
:1035700090E00E948912882309F453C0812F0E9491
:103580004812882309F44DC06091D5057091D60585
:10359000CE0101960E94B511882309F442C011237F
:1035A000F9F06B8170E0762F66278A81682B33E013
:1035B000759567953A95E1F7072E000C880B990BE6
:1035C0000E94B92520E030E040E05DE30E9418262B
:1035D0006093D8057093D9058093DA059093DB0545
:1035E0006F8170E0762F66278E81682B77FF03C08E
:1035F000719561957109072E000C880B990B0E943B
:10360000B92520E030E040E859E30E941826609395
:10361000E0057093E1058093E2059093E305109235
:10362000E8058091E805811196C04091E005509130
:10363000E1056091E2057091E30522E0CE01845B33
:103640009F4F0E941F104091DC055091DD05609155
:10365000DE057091DF0522E0CE018E5A9F4F0E9459
:103660001F106091D8057091D9058091DA0590916D
:10367000DB056A961FAE1EAE6A976C961FAE1EAE35
:103680006C976E961FAE1EAE6E978E010F5F1F4F2A
:1036900022E044E064D7BC01CE01885A9F4F0E94CB
:1036A000B70F60914604B8E06B9FB00111246B50D6
:1036B0007C4FCE01825A9F4F0E9418086BEF72E038
:1036C000CE018C599F4F0E948110BE01625A7F4FDC
:1036D000CE018C599F4F0E94A60F6DEF72E00E94A1
:1036E0008F0FBE01685A7F4F0E94A60F6DEF72E0E8
:1036F0000E948F0FBE016E5A7F4F0E94A60F6DEF82
:1037000072E00E948F0FBE01645B7F4F0E94A60F84
:10371000BC01C8010E947910C8010E94CC07C801F1
:103720000E941A10CE018C599F4F0E941A10CE0190
:10373000825A9F4F0E941A10CE01885A9F4F0E94B2
:103740001A10CE018E5A9F4F0E941A10CE01845B30
:103750009F4F0E941A10809146048F5F8093460409
:10376000CDC01092460482E031C087E494E00E940C
:103770006408882309F4C2C0109146048091F403C0
:10378000181708F58EE0E9EEF5E0DE01D09601901D
:103790000D928A95E1F7CE01C0960E949607E8E067
:1037A0001E9FB00111246C557C4FCE01C0960E9423
:1037B0006B0741E064E4CE01C0960E942A071F5FB8
:1037C000109346049BC01092460483E080935704F4
:1037D00095C087E494E00E946408882309F48EC0B1
:1037E000109146048091F403181708F085C08EE00C
:1037F000E9EEF5E0DE01929601900D928A95E1F7EF
:10380000CE0182960E949607F8E01F9FB001112416
:103810006C557C4FCE0182960E946B0740E06EEBA8
:10382000CE0182960E942A079E012F5F3F4F6901B9
:103830007E013AE0E30EF11C08E010E0AA24A39414
:10384000B12CCE0182960E94D7068111BA28AA0C0B
:1038500001501109B1F7D601BD926D01AE15BF053A
:1038600059F76A8170E0762F66278981682B072EC9
:10387000000C880B990B0E94B92520E030E040E84D
:103880005DE30E941826AB01BC0122E0CE01845BFF
:103890009F4F0E941F1060914604B8E06B9FB001DB
:1038A00011246C557C4FCE018E5A9F4F0E941808F0
:1038B0006BEF72E0CE01885A9F4F0E948110BE01CB
:1038C0006E5A7F4FCE01885A9F4F0E94A60F6DEF10
:1038D00072E00E948F0FBE01645B7F4F0E94A60FB3
:1038E000BC01CE0101960E947910CE0101960E9482
:1038F000CC07CE0101961ECF109257040E94E40D12
:1039000036CA8091EC05882309F495C981E09AC9EB
:10391000B801615F794FCE018E5A9F4F0E94300FE0
:10392000882309F41DCD60E0F701808117CD6FE990
:1039300076E0CE018E5A9F4F0E94150F882309F41E
:1039400017CD68962EAD3FAD68974091A306509174
:10395000A4064E5F5F4FBE016E5A7F4FCE01845B5F
:103960009F4F0E949510F0E6EF2EF2E0FF2E07EF3A
:1039700015E02091A3063091A4062F5F3F4F40E051
:1039800050E0BE016E5A7F4FCE0101960E94951005
:10399000B801CE0101960E94300FD82ECE010196BB
:1039A0000E941A10DD2009F4EEC02E968EAD9FAD58
:1039B0002E97009719F0F2D5962E02C0912C70E048
:1039C000A92CB72ED701CD90DC9061E08C2DAD965F
:1039D0007FAFAD970E94C40AAD967FADAD97A1149D
:1039E000B10409F4CAC0BFEFAB16B10409F4C7C0F3
:1039F000F601FF27E45DFE4FE4918E2F90E0FC017D
:103A00003197E231F10508F0B4C08827EE58FF4F36
:103A10008F4FCEC284B5806884BD97BCB4C084B5D6
:103A2000806284BD98BCAFC0809180008068809324
:103A30008000892D972F9093890080938800A3C0E0
:103A400080918000806280938000892D972F9093D1
:103A50008B0080938A0097C080918000886080935B
:103A60008000892D972F90938D0080938C008BC0C0
:103A70008091B00080688093B0009092B30083C0C2
:103A80008091B00080628093B0009092B4007BC0BF
:103A900080919000806880939000892D972F90935B
:103AA0009900809398006FC080919000806280930D
:103AB0009000892D972F90939B0080939A0063C06C
:103AC00080919000886080939000892D972F90932B
:103AD0009D0080939C0057C08091A00080688093D7
:103AE000A0008091A0008F7B8093A000892D972F4C
:103AF0009093A9008093A80046C08091A0008062A6
:103B00008093A000892D972F9093AB008093AA00FB
:103B10003AC08091A00088608093A000892D972FE3
:103B20009093AD008093AC002EC0809120018068FE
:103B300080932001892D972F90932901809328014C
:103B400022C080912001806280932001892D972FCF
:103B500090932B0180932A0116C0809120018860E8
:103B600080932001892D972F90932D0180932C0114
:103B70000AC0E0E8AE16B10414F460E001C061E0F0
:103B80008C2D0E94950A0A5F1F4FF2E0EF0EF11C88
:103B900026E00F30120709F0ECCECE01845B9F4F78
:103BA0000E941A10E5CBCF93DF9389E096E00E9444
:103BB0001A1083E096E00E941A108DEF95E00E94A3
:103BC0001A1087EF95E00E941A10C7E5D6E02697F5
:103BD000CE010E941A1086E0CF30D807C1F7CFE996
:103BE000D6E02697CE010E941A1086E0C735D80786
:103BF000C1F78FE996E00E941A1085EA96E00E94CC
:103C00001A108BEA96E00E941A1081EB96E00E944F
:103C10001A1087EB96E00E941A108DEB96E00E9436
:103C20001A1083EC96E0DF91CF910C941A10CF9389
:103C3000DF9382E892E0909312078093110710922D
:103C4000130710921407109215071092160710927E
:103C50008E0410928D0448EE53E060E070E04093D3
:103C60008F0450939004609391047093920422E720
:103C700032E030938C0420938B04EDECF0E0F09371
:103C80009804E0939704ECECF0E0F0939A04E0934E
:103C90009904E8ECF0E0F0939C04E0939B04E9ECD9
:103CA000F0E0F0939E04E0939D04EAECF0E0F093E2
:103CB000A004E0939F04EEECF0E0F093A204E09304
:103CC000A1041092A4041092A5041092A6041092CC
:103CD000A70410922B0510922A0540932C055093AF
:103CE0002D0560932E0570932F05309329052093A1
:103CF000280525EC30E0309335052093340524EC7D
:103D000030E0309337052093360520EC30E03093D7
:103D100039052093380521EC30E030933B052093A2
:103D20003A0522EC30E030933D0520933C0526EC2B
:103D300030E030933F0520933E05109241051092EC
:103D40004205109243051092440590931807809302
:103D500017071092190710921A0710921B0710925A
:103D60001C0790931E0780931D0710921F07109247
:103D70002007109221071092220790932407809326
:103D800023071092250710922607109227071092FA
:103D9000280790932A078093290710922B071092E7
:103DA0002C0710922D0710922E079093C605809332
:103DB000C5051092C7051092C8051092C90510924A
:103DC000CA059093CE058093CD051092CF05109231
:103DD000D0051092D1051092D205909330078093B0
:103DE0002F0710923107109232071092330710926A
:103DF000340790930C0780930B0710920D071092D5
:103E00000E0710920F0710921007909306078093E9
:103E100005071092070710920807109209071092E1
:103E20000A07909300078093FF062FEF2093010766
:103E30002093020720930307209304071092E706BC
:103E40001092E6064093E8065093E9066093EA066E
:103E50007093EB06EAECF2E0F093E506E093E406FB
:103E60009093F3068093F2061092F4061092F506F2
:103E70001092F6061092F70624E02093FC061092AA
:103E8000CC061092CB064093CD065093CE0660939D
:103E9000CF067093D006F093CA06E093C9069093BC
:103EA000D8068093D7061092D9061092DA0610929F
:103EB000DB061092DC062093E10660E073E083EC01
:103EC00096E00E94811060E073E08DEB96E00E9426
:103ED000811061E073E087EB96E00E94811066E05C
:103EE00073E081EB96E00E94811069E073E08BEA59
:103EF00096E00E9481106CE073E085EA96E00E94F3
:103F000081106FE073E08FE996E00E948110C7E5B1
:103F1000D6E060E073E0CE010E948110269686E034
:103F2000CF39D807B1F7CFE0D6E060E073E0CE013B
:103F30000E948110269686E0C735D807B1F7C7EFF3
:103F4000D5E060E073E0CE010E948110269686E005
:103F5000CF30D807B1F760E089E00E94C40AEFE0F3
:103F6000F3E0E491E093E905E9ECF2E0E491F0E0BC
:103F7000EE0FFF1FEA55FD4F859194919093EB054D
:103F80008093EA051092F4051092F6051092F5055B
:103F9000E4EFF5E0129285E0EC3EF807D9F789EE00
:103FA00095E09093D4058093D305DF91CF91089548
:103FB000EE0FFF1F881F8BBF0790F691E02D19941D
:103FC0000CD0B3C6ABD640F0A2D630F021F45F3FA0
:103FD00019F094C65111DDC697C6B8D698F3992347
:103FE000C9F35523B1F3951B550BBB27AA276217BD
:103FF0007307840738F09F5F5F4F220F331F441F02
:10400000AA1FA9F333D00E2E3AF0E0E830D0915039
:104010005040E695001CCAF729D0FE2F27D0660F26
:10402000771F881FBB1F261737074807AB07B0E865
:1040300009F0BB0B802DBF01FF2793585F4F2AF07B
:104040009E3F510568F05AC6A4C65F3FECF3983E08
:10405000DCF3869577956795B795F7959F5FC9F7D8
:10406000880F911D9695879597F90895E1E0660F61
:10407000771F881FBB1F621773078407BA0720F0DA
:10408000621B730B840BBA0BEE1F88F7E095089543
:10409000CF93DF938230910510F482E090E0E091BD
:1040A0003707F091380720E030E0C0E0D0E03097EB
:1040B00011F14081518148175907C0F0481759073D
:1040C00061F482819381209719F09B838A832BC0AE
:1040D000909338078093370726C02115310519F0D2
:1040E0004217530718F49A01BE01DF01EF01028065
:1040F000F381E02DDCCF2115310509F1281B390BA7
:104100002430310590F412968D919C91139761158E
:10411000710521F0FB019383828304C090933807DB
:1041200080933707FD01329644C0FD01E20FF31F73
:1041300081939193225031092D933C933AC0209161
:10414000350730913607232B41F42091020230913C
:1041500003023093360720933507209100023091F7
:1041600001022115310541F42DB73EB740910402FB
:1041700050910502241B350BE0913507F09136076D
:10418000E217F307A0F42E1B3F0B2817390778F02E
:10419000AC014E5F5F4F2417350748F04E0F5F1F8D
:1041A00050933607409335078193919302C0E0E026
:1041B000F0E0CF01DF91CF9108950F931F93CF933C
:1041C000DF93009709F48CC0FC01329713821282AE
:1041D00000913707109138070115110581F42081EE
:1041E0003181820F931F20913507309136072817B0
:1041F000390779F5F0933607E093350771C0D80198
:1042000040E050E0AE17BF0750F412962D913C915C
:104210001397AD012115310509F1D901F3CF9D01A6
:10422000DA013383228360817181860F971F8217A1
:10423000930769F4EC0128813981260F371F2E5F1F
:104240003F4F318320838A819B8193838283452BD7
:1042500029F4F0933807E093370742C01396FC9394
:10426000EE931297ED01499159919E01240F351F4C
:10427000E217F30771F480819181840F951F0296F4
:1042800011969C938E938281938113969C938E9327
:104290001297E0E0F0E0D80112968D919C9113976F
:1042A000009719F0F8018C01F6CF8D919C9198013F
:1042B0002E5F3F4F820F931F2091350730913607B5
:1042C0002817390769F4309729F4109238071092AB
:1042D000370702C013821282109336070093350706
:1042E000DF91CF911F910F9108956F927F928F92DE
:1042F0009F92AF92BF92CF92DF92EF92FF920F9375
:104300001F93CF93DF93EC01009781F4CB01DF91F2
:10431000CF911F910F91FF90EF90DF90CF90BF90C2
:10432000AF909F908F907F906F90B2CEFC01E60F80
:10433000F71F9C0122503109E217F30708F4A8C0C7
:10434000D9010D911C91119706171707A8F0053098
:10435000110508F49BC0C80104978617970708F455
:1043600095C002501109061B170B019311936D9311
:104370007C93CF0122DF8AC05B01A01AB10A4C01F5
:10438000800E911EA0913707B091380740E050E0B1
:10439000E12CF12C109709F44AC0A815B905D1F504
:1043A0006D907C901197630182E0C80ED11CCA14F5
:1043B000DB0480F1A3014A195B096A0182E0C80E9F
:1043C000D11C1296BC9012971396AC91B5E0CB1607
:1043D000D10440F0B282A38351834083D9016D930D
:1043E0007C930AC00E5F1F4FC301800F911FF9011C
:1043F00091838083EB2DFA2FE114F10431F0D70182
:104400001396FC93EE93129741C0F0933807E09314
:1044100037073CC08D919C9111974817590708F4B4
:10442000AC017D0112960D90BC91A02DB3CF80916F
:1044300035079091360788159905E1F44617570717
:10444000C8F48091000290910102009741F48DB769
:104450009EB74091040250910502841B950BE8170A
:10446000F907B0F4F0933607E0933507F90171834B
:1044700060830CC0CB010CDE7C01009749F0A801E1
:10448000BE011BD0CE0199DEC70104C0CE0102C01F
:1044900080E090E0DF91CF911F910F91FF90EF901E
:1044A000DF90CF90BF90AF909F908F907F906F9054
:1044B000089581E090E0F89494C4FB01DC0102C00F
:1044C00001900D9241505040D8F708956817790730
:1044D00068F4FB01DC01E40FF51FA40FB51F02C057
:1044E00002900E9241505040D8F70895E6CFFB015C
:1044F000DC018D91019080190110D9F3990B089579
:10450000FB01DC0101900D920020E1F70895FB0111
:10451000DC014150504030F08D910190801919F428
:104520000020B9F7881B990B0895FB015191552381
:10453000A9F0BF01DC014D9145174111E1F759F494
:10454000CD010190002049F04D9140154111C9F372
:10455000FB014111EFCF81E090E001970895EF92C8
:104560000F931F93CF93DF93E80147FD02C034E020
:1045700001C034E1E42F440FFF0BF7FF03C0F195B6
:10458000E195F109E32E022F2E2FAE016FD0CE015F
:10459000DF91CF911F910F91EF9008951F93FC0130
:1045A00099278827BC01E89411911032E9F319305A
:1045B00010F01E30C8F31B3249F01D3241F46894EC
:1045C00005C026D0610F711D811D911D11911053E1
:1045D0001A30B8F33EF490958095709561957F4FB1
:1045E0008F4F9F4F1F9108954532510518F4423067
:1045F00008F004C0FB011082CB010895BB274A30AC
:1046000031F4992322F4BDE2909581959F4F16C015
:10461000592F482F372F262F660F771F881F991F76
:10462000660F771F881F991F620F731F841F951FC6
:10463000660F771F881F991F0895BB27FB01552719
:10464000AA27880F991FAA1FA41710F0A41B8395EF
:104650005051B9F7A05DAA3308F0A95DA193009766
:1046600079F7B111B1931192CB016DC24F925F9264
:104670006F927F929F92AF92BF92CF92DF92EF9212
:10468000FF920F931F93CF93DF93CDB7DEB7299798
:104690000FB6F894DEBF0FBECDBF6A01122FB02E49
:1046A0002BE3201720F0FF24F394F00E02C0BCE3AC
:1046B000FB2E0F2D27E0AE014F5F5F4F64D1AC01A1
:1046C0008981982F9970913031F0E1FC06C0E0FEAD
:1046D00006C090E205C09DE203C09BE201C090E0ED
:1046E000EE2DE07183FF3CC0911102C083E001C058
:1046F00084E0811718F4212F281B01C020E0E1116C
:104700000BC0F601822F30E2882319F031938150DB
:10471000FBCFC20ED11C20E0992329F0D6019C9337
:10472000F60131966F01C6010396E2FE0AC03EE42F
:10473000D6013C9341E411964C93119712963C9309
:1047400006C03EE6F601308341E641833283FC0138
:10475000322F40E2332309F442C041933150FACF63
:1047600082FF44C0911102C083E001C084E0811740
:1047700018F4212F281B01C020E0E1110BC0F60125
:10478000822F30E2882319F031938150FBCFC20E83
:10479000D11C20E0992329F0D6019C93F601319693
:1047A0006F01C6010396E2FE0BC039E4D6013C93CB
:1047B0003EE411963C93119736E412963C9307C061
:1047C00039E6F60130833EE6318336E63283FC017A
:1047D000322F40E2332319F041933150FBCFFC01DB
:1047E000E20FF11D10828EEF9FEFB7C0F1E0911143
:1047F00001C0F0E06F2F70E01416150624F49A0142
:104800002F5F3F4F02C021E030E0260F371FBB2053
:1048100029F06B2D70E06F5F7F4F02C060E070E0A9
:10482000260F371F612F70E0261737071CF4121B65
:10483000212F01C020E03E2D387159F4D601322FCE
:1048400060E2332319F06D933150FBCFC20ED11CBF
:1048500020E0FF2331F0D6019C93B6016F5F7F4FBC
:104860006B01E1110BC0F601922F30E3992319F08F
:1048700031939150FBCFC20ED11C20E09F2D940F9D
:104880003A81782F7071A72E84FF03C0313309F469
:104890009150191624F4993018F098E001C091E075
:1048A000E42F852F57FF02C0E0E080E06E2F782FC5
:1048B000E0E0F0E0AEE29A2E3A01691A71082A01AE
:1048C000461A570A0B2D10E01195019511096F3FFB
:1048D0008FEF780729F4D6019C92C60101966C01EE
:1048E0004617570784F0661677066CF47F01E40CD0
:1048F000F51CA1E0B0E0AC0FBD1FEA0EFB1ED70116
:104900001196BC9002C090E3B92E615071093196A6
:10491000C60101967C016017710724F0D601BC9294
:104920006C01D5CF6417750741F4363320F4353365
:1049300021F4A11002C081E3B82EF601B082F70184
:10494000822F90E2882319F091938150FBCFF701D9
:10495000E20FF11D108280E090E029960FB6F894E6
:10496000DEBF0FBECDBFDF91CF911F910F91FF90A2
:10497000EF90DF90CF90BF90AF909F907F906F901F
:104980005F904F900895283008F027E03327DA0130
:10499000990F311D87FD916000966105710539F40D
:1049A00032602E5F3D9330E32A95E1F708959F3FF3
:1049B00030F080387105610509F03C5F3C5F3D9344
:1049C000913008F08068911DDF93CF931F930F9370
:1049D000FF92EF92192F987F9695E92F96959695CD
:1049E000E90FFF27EA55FC4F99273327EE24FF24D0
:1049F000A701E70105900894079428F4360FE71EF5
:104A0000F81E491F511D660F771F881F991F0694B6
:104A1000A1F70590079428F4E70EF81E491F561FCA
:104A2000C11D770F881F991F661F0694A1F7059077
:104A3000079428F4F80E491F561FC71FD11D880F71
:104A4000991F661F771F0694A1F70590079420F41D
:104A5000490F561FC71FD81F990F661F771F881F42
:104A60000694A9F784911095177041F0D695C795D3
:104A700057954795F794E7941A95C1F7ECE4F3E05E
:104A800068941590159135916591959105907FE207
:104A90007395E118F10A430B560BC90BD009C0F707
:104AA000E10CF11E431F561FC91FD01D7EF4703349
:104AB00011F48A95E6CFE894015030F0080F0AF41B
:104AC0000027021708F4202F2395022F7A3328F0AD
:104AD00079E37D932A95E9F710C07D932A9589F6AD
:104AE000069497956795379517951794E118F10AED
:104AF000430B560BC90BD00998F023957E91739503
:104B00007A3308F070E37C932013B8F77E917061DC
:104B10007D9330F0839571E37D9370E32A95E1F7FF
:104B20001124EF90FF900F911F91CF91DF91992762
:104B300087FD909508959111DEC0803219F089505B
:104B40008550D0F70895DC01FC01672F7191772320
:104B5000E1F7329704C07C916D9370836291AE1738
:104B6000BF07C8F3089540D008F481E00895E894A1
:104B700009C097FB3EF490958095709561957F4FA5
:104B80008F4F9F4F9923A9F0F92F96E9BB27939553
:104B9000F695879577956795B795F111F8CFFAF463
:104BA000BB0F11F460FF1BC06F5F7F4F8F4F9F4F94
:104BB00016C0882311F096E911C0772321F09EE8F2
:104BC000872F762F05C0662371F096E8862F70E058
:104BD00060E02AF09A95660F771F881FDAF7880F32
:104BE0009695879597F90895990F0008550FAA0B88
:104BF000E0E8FEEF16161706E807F907C0F01216F0
:104C00001306E407F50798F0621B730B840B950BF2
:104C100039F40A2661F0232B242B252B21F4089547
:104C20000A2609F4A140A6958FEF811D811D0895E4
:104C30000BD07BC06CD028F071D018F0952309F010
:104C40005DC062C01124A5C081D0A0F3959FD1F3AF
:104C5000950F50E0551F629FF001729FBB27F00D2A
:104C6000B11D639FAA27F00DB11DAA1F649F66277F
:104C7000B00DA11D661F829F2227B00DA11D621FCE
:104C8000739FB00DA11D621F839FA00D611D221F88
:104C9000749F3327A00D611D231F849F600D211D6C
:104CA000822F762F6A2F11249F5750408AF0E1F00F
:104CB00088234AF0EE0FFF1FBB1F661F771F881F58
:104CC00091505040A9F79E3F510570F017C061C048
:104CD0005F3FECF3983EDCF3869577956795B79543
:104CE000F795E7959F5FC1F7FE2B880F911D96956D
:104CF000879597F9089599278827089597F99F67C9
:104D000080E870E060E008959FEF80EC0895002453
:104D10000A941616170618060906089500240A9420
:104D200012161306140605060895092E0394000CA6
:104D300011F4882352F0BB0F40F4BF2B11F460FF35
:104D400004C06F5F7F4F8F4F9F4F089557FD90585E
:104D5000440F551F59F05F3F71F04795880F97FB3F
:104D6000991F61F09F3F79F08795089512161306F9
:104D70001406551FF2CF4695F1DF08C01616170628
:104D80001806991FF1CF869571056105089408955D
:104D9000E894BB2766277727CB0197F90895A1E20E
:104DA0001A2EAA1BBB1BFD010DC0AA1FBB1FEE1FA5
:104DB000FF1FA217B307E407F50720F0A21BB30BF0
:104DC000E40BF50B661F771F881F991F1A9469F76C
:104DD00060957095809590959B01AC01BD01CF01C8
:104DE000089512E0C4E2D2E000E005C0802FFE0189
:104DF000DFD82196011DC532D10780E00807B1F741
:044E0000F894FFCF54
:104E04000000390780000100000036003700380038
:104E140039003A003B003E002400220030002E00FE
:104E240045004400430042002C002A0028002600CC
:104E340006000500030002000E000F001000110020
:104E440018001A001C001E00270029002B002D004A
:104E54002F003100170019001B001D001F00210046
:104E64000B000D000C00070001005E0000000000B4
:104E740000007D0DD80C3E0D1C0D300DC30D00003F
:104E84000000CD0E00000000170E00000000170EF9
:104E9400170E170E170E170E170E170E170E170EE6
:104EA400170E170E170E170E170E170E170E0000FB
:104EB4000000170ED80C170E170E170E170E000051
:104EC4000000170ED80C000000005702F4026D0217
:104ED400A109C9090509F4038C02B60324048A0351
:104EE400FC0983098502750271025A0C206F6E0059
:104EF400206F666600203100203000317720000AE0
:104F0400007261696C00646900616900646F00701B
:044F1400776D0000B5
:00000001FF
